{
  "address": "0xbF2Dd1Ee2E645AD31eA94BBfb0247a16402475E3",
  "abi": [
    {
      "anonymous": false,
      "inputs": [
        {
          "indexed": false,
          "internalType": "uint8",
          "name": "version",
          "type": "uint8"
        }
      ],
      "name": "Initialized",
      "type": "event"
    },
    {
      "anonymous": false,
      "inputs": [
        {
          "indexed": true,
          "internalType": "address",
          "name": "previousOwner",
          "type": "address"
        },
        {
          "indexed": true,
          "internalType": "address",
          "name": "newOwner",
          "type": "address"
        }
      ],
      "name": "OwnershipTransferred",
      "type": "event"
    },
    {
      "inputs": [
        {
          "internalType": "string",
          "name": "",
          "type": "string"
        }
      ],
      "name": "baseUnits",
      "outputs": [
        {
          "internalType": "uint256",
          "name": "",
          "type": "uint256"
        }
      ],
      "stateMutability": "view",
      "type": "function"
    },
    {
      "inputs": [],
      "name": "eth",
      "outputs": [
        {
          "internalType": "address",
          "name": "",
          "type": "address"
        }
      ],
      "stateMutability": "view",
      "type": "function"
    },
    {
      "inputs": [],
      "name": "fallBackPriceCalculator",
      "outputs": [
        {
          "internalType": "contract IPriceCalculator",
          "name": "",
          "type": "address"
        }
      ],
      "stateMutability": "view",
      "type": "function"
    },
    {
      "inputs": [
        {
          "internalType": "contract CToken",
          "name": "cToken",
          "type": "address"
        }
      ],
      "name": "getPrice",
      "outputs": [
        {
          "internalType": "uint256",
          "name": "",
          "type": "uint256"
        }
      ],
      "stateMutability": "view",
      "type": "function"
    },
    {
      "inputs": [],
      "name": "getStoneExchangeRate",
      "outputs": [
        {
          "internalType": "uint256",
          "name": "",
          "type": "uint256"
        }
      ],
      "stateMutability": "view",
      "type": "function"
    },
    {
      "inputs": [
        {
          "internalType": "contract CToken",
          "name": "cToken",
          "type": "address"
        }
      ],
      "name": "getUnderlyingPrice",
      "outputs": [
        {
          "internalType": "uint256",
          "name": "",
          "type": "uint256"
        }
      ],
      "stateMutability": "view",
      "type": "function"
    },
    {
      "inputs": [
        {
          "internalType": "string[]",
          "name": "_cTokenSymbols",
          "type": "string[]"
        },
        {
          "internalType": "uint256[]",
          "name": "_baseUnits",
          "type": "uint256[]"
        },
        {
          "internalType": "address[]",
          "name": "_underlying",
          "type": "address[]"
        }
      ],
      "name": "initialize",
      "outputs": [],
      "stateMutability": "nonpayable",
      "type": "function"
    },
    {
      "inputs": [],
      "name": "isPriceOracle",
      "outputs": [
        {
          "internalType": "bool",
          "name": "",
          "type": "bool"
        }
      ],
      "stateMutability": "view",
      "type": "function"
    },
    {
      "inputs": [
        {
          "internalType": "address",
          "name": "",
          "type": "address"
        }
      ],
      "name": "isReporter",
      "outputs": [
        {
          "internalType": "bool",
          "name": "",
          "type": "bool"
        }
      ],
      "stateMutability": "view",
      "type": "function"
    },
    {
      "inputs": [],
      "name": "owner",
      "outputs": [
        {
          "internalType": "address",
          "name": "",
          "type": "address"
        }
      ],
      "stateMutability": "view",
      "type": "function"
    },
    {
      "inputs": [
        {
          "internalType": "address",
          "name": "asset",
          "type": "address"
        }
      ],
      "name": "priceOf",
      "outputs": [
        {
          "internalType": "uint256",
          "name": "",
          "type": "uint256"
        }
      ],
      "stateMutability": "view",
      "type": "function"
    },
    {
      "inputs": [],
      "name": "priceOfETH",
      "outputs": [
        {
          "internalType": "uint256",
          "name": "",
          "type": "uint256"
        }
      ],
      "stateMutability": "view",
      "type": "function"
    },
    {
      "inputs": [
        {
          "internalType": "address",
          "name": "",
          "type": "address"
        }
      ],
      "name": "references",
      "outputs": [
        {
          "internalType": "uint256",
          "name": "lastData",
          "type": "uint256"
        },
        {
          "internalType": "uint256",
          "name": "lastUpdated",
          "type": "uint256"
        }
      ],
      "stateMutability": "view",
      "type": "function"
    },
    {
      "inputs": [],
      "name": "renounceOwnership",
      "outputs": [],
      "stateMutability": "nonpayable",
      "type": "function"
    },
    {
      "inputs": [
        {
          "internalType": "string[]",
          "name": "_cTokenSymbols",
          "type": "string[]"
        },
        {
          "internalType": "uint256[]",
          "name": "_baseUnits",
          "type": "uint256[]"
        },
        {
          "internalType": "address[]",
          "name": "_underlying",
          "type": "address[]"
        }
      ],
      "name": "setCTokenInfos",
      "outputs": [],
      "stateMutability": "nonpayable",
      "type": "function"
    },
    {
      "inputs": [
        {
          "internalType": "address",
          "name": "_fallBackPriceCalculator",
          "type": "address"
        }
      ],
      "name": "setFallBackPriceCalculator",
      "outputs": [],
      "stateMutability": "nonpayable",
      "type": "function"
    },
    {
      "inputs": [
        {
          "internalType": "address",
          "name": "asset",
          "type": "address"
        },
        {
          "internalType": "uint256",
          "name": "price",
          "type": "uint256"
        }
      ],
      "name": "setPrice",
      "outputs": [],
      "stateMutability": "nonpayable",
      "type": "function"
    },
    {
      "inputs": [
        {
          "internalType": "address[]",
          "name": "assets",
          "type": "address[]"
        },
        {
          "internalType": "uint256[]",
          "name": "prices",
          "type": "uint256[]"
        }
      ],
      "name": "setPrices",
      "outputs": [],
      "stateMutability": "nonpayable",
      "type": "function"
    },
    {
      "inputs": [
        {
          "internalType": "address",
          "name": "reporter",
          "type": "address"
        },
        {
          "internalType": "bool",
          "name": "status",
          "type": "bool"
        }
      ],
      "name": "setReporter",
      "outputs": [],
      "stateMutability": "nonpayable",
      "type": "function"
    },
    {
      "inputs": [],
      "name": "stone",
      "outputs": [
        {
          "internalType": "address",
          "name": "",
          "type": "address"
        }
      ],
      "stateMutability": "view",
      "type": "function"
    },
    {
      "inputs": [
        {
          "internalType": "address",
          "name": "newOwner",
          "type": "address"
        }
      ],
      "name": "transferOwnership",
      "outputs": [],
      "stateMutability": "nonpayable",
      "type": "function"
    },
    {
      "inputs": [
        {
          "internalType": "string",
          "name": "",
          "type": "string"
        }
      ],
      "name": "underlying",
      "outputs": [
        {
          "internalType": "address",
          "name": "",
          "type": "address"
        }
      ],
      "stateMutability": "view",
      "type": "function"
    }
  ],
  "transactionHash": "0x06fa607baa82916a61799788f08c186eba43941d1e943c171ab497442e34c8f1",
  "args": [],
  "numDeployments": 2,
  "solcInputHash": "0245b9231b4b452e6d03c5a7977a1ae8",
  "bytecode": "0x608060405234801561001057600080fd5b50611558806100206000396000f3fe608060405234801561001057600080fd5b50600436106101415760003560e01c806366331bba116100b85780638da5cb5b1161007c5780638da5cb5b146102f9578063b95ed06f1461030a578063cae7a8831461031d578063e1bb513314610330578063f2fde38b14610343578063fc57d4df1461035657600080fd5b806366331bba146102bb578063715018a6146102c3578063858b033d146102cb578063869ccf8a146102d35780638c7c9e0c146102e657600080fd5b80632e96347d1161010a5780632e96347d1461020557806341976e091461021b5780634352fa9f1461022e5780635100368314610241578063577279041461026c5780635c8ed2f31461027f57600080fd5b8062e4768b146101465780630167eb851461015b578063044ad7be1461018b578063186721f1146101be578063299ae753146101d1575b600080fd5b610159610154366004610e16565b610369565b005b606c5461016e906001600160a01b031681565b6040516001600160a01b0390911681526020015b60405180910390f35b6101ae610199366004610e42565b60686020526000908152604090205460ff1681565b6040519015158152602001610182565b6101596101cc366004610e42565b6103db565b61016e6101df366004610f24565b8051602081830181018051606a825292820191909301209152546001600160a01b031681565b61020d610405565b604051908152602001610182565b61020d610229366004610e42565b610478565b61015961023c366004610fad565b610524565b61020d61024f366004610f24565b805160208183018101805160698252928201919093012091525481565b61015961027a366004611107565b6105f6565b6102a661028d366004610e42565b6067602052600090815260409020805460019091015482565b60408051928352602083019190915201610182565b6101ae600181565b6101596106e9565b61020d6106fd565b60665461016e906001600160a01b031681565b606b5461016e906001600160a01b031681565b6033546001600160a01b031661016e565b61020d610318366004610e42565b6107ef565b61015961032b366004611107565b6108d2565b61015961033e3660046111ff565b610b50565b610159610351366004610e42565b610b83565b61020d610364366004610e42565b610bfc565b3360009081526068602052604090205460ff166103a15760405162461bcd60e51b81526004016103989061123d565b60405180910390fd5b6040805180820182529182524260208084019182526001600160a01b03909416600090815260679094529220905181559051600190910155565b6103e3610cfb565b606680546001600160a01b0319166001600160a01b0392909216919091179055565b606c5460408051633ffcdacb60e11b815290516000926001600160a01b031691637ff9b5969160048083019260209291908290030181865afa15801561044f573d6000803e3d6000fd5b505050506040513d601f19601f820116820180604052508101906104739190611287565b905090565b600080826001600160a01b03166395d89b416040518163ffffffff1660e01b8152600401600060405180830381865afa1580156104b9573d6000803e3d6000fd5b505050506040513d6000823e601f3d908101601f191682016040526104e191908101906112c4565b90506000606a826040516104f59190611332565b908152604051908190036020019020546001600160a01b03169050600061051b826107ef565b95945050505050565b3360009081526068602052604090205460ff166105535760405162461bcd60e51b81526004016103989061123d565b60005b838110156105ef57604051806040016040528084848481811061057b5761057b61134e565b90506020020135815260200142815250606760008787858181106105a1576105a161134e565b90506020020160208101906105b69190610e42565b6001600160a01b0316815260208082019290925260400160002082518155910151600190910155806105e78161137a565b915050610556565b5050505050565b6105fe610cfb565b60005b83518110156106e35782818151811061061c5761061c61134e565b602002602001015160698583815181106106385761063861134e565b602002602001015160405161064d9190611332565b9081526020016040518091039020819055508181815181106106715761067161134e565b6020026020010151606a85838151811061068d5761068d61134e565b60200260200101516040516106a29190611332565b90815260405190819003602001902080546001600160a01b03929092166001600160a01b0319909216919091179055806106db8161137a565b915050610601565b50505050565b6106f1610cfb565b6106fb6000610d55565b565b600080805260676020908152604080518082019091527fd4e1ac8b62c3ff1e2c1b7113742533b8310ce5ab8a8767ead9ba8b250c7e3cc95481527fd4e1ac8b62c3ff1e2c1b7113742533b8310ce5ab8a8767ead9ba8b250c7e3cca54918101829052606554909161076e9042611393565b101561077a5751919050565b6066546040805163858b033d60e01b815290516000926001600160a01b03169163858b033d9160048083019260209291908290030181865afa1580156107c4573d6000803e3d6000fd5b505050506040513d601f19601f820116820180604052508101906107e89190611287565b9392505050565b606b546000906001600160a01b039081169083160361083b57606c54606490610820906001600160a01b03166107ef565b61082b9060636113a6565b61083591906113c5565b92915050565b6001600160a01b038216600090815260676020908152604091829020825180840190935280548352600101549082018190526065549061087b9042611393565b1015610888575192915050565b60665460405163b95ed06f60e01b81526001600160a01b0385811660048301529091169063b95ed06f90602401602060405180830381865afa1580156107c4573d6000803e3d6000fd5b600054610100900460ff16158080156108f25750600054600160ff909116105b8061090c5750303b15801561090c575060005460ff166001145b61096f5760405162461bcd60e51b815260206004820152602e60248201527f496e697469616c697a61626c653a20636f6e747261637420697320616c72656160448201526d191e481a5b9a5d1a585b1a5e995960921b6064820152608401610398565b6000805460ff191660011790558015610992576000805461ff0019166101001790555b61099a610da7565b606680546001600160a01b031990811673fcd454d19f9b8806f8908e99d85b8ea17b3c734617909155336000908152606860205260408120805460ff19166001179055610a8c606555606c80548316737537c1f80c9e157ed7afd93a494be3e1f04f1462179055606b805490921673d48d3a551757ac47655fce25bde1b0b6b1cb2a5a179091555b8451811015610b0457838181518110610a3d57610a3d61134e565b60200260200101516069868381518110610a5957610a5961134e565b6020026020010151604051610a6e9190611332565b908152602001604051809103902081905550828181518110610a9257610a9261134e565b6020026020010151606a868381518110610aae57610aae61134e565b6020026020010151604051610ac39190611332565b90815260405190819003602001902080546001600160a01b03929092166001600160a01b031990921691909117905580610afc8161137a565b915050610a22565b5080156106e3576000805461ff0019169055604051600181527f7f26b83ff96e1f2b6a682f133852f6798a09c465da95921460cefb38474024989060200160405180910390a150505050565b610b58610cfb565b6001600160a01b03919091166000908152606860205260409020805460ff1916911515919091179055565b610b8b610cfb565b6001600160a01b038116610bf05760405162461bcd60e51b815260206004820152602660248201527f4f776e61626c653a206e6577206f776e657220697320746865207a65726f206160448201526564647265737360d01b6064820152608401610398565b610bf981610d55565b50565b600080826001600160a01b03166395d89b416040518163ffffffff1660e01b8152600401600060405180830381865afa158015610c3d573d6000803e3d6000fd5b505050506040513d6000823e601f3d908101601f19168201604052610c6591908101906112c4565b90506000601290506000606a83604051610c7f9190611332565b908152604051908190036020019020546001600160a01b031690506000610ca5826107ef565b9050606984604051610cb79190611332565b90815260405190819003602001902054610cd2846024611393565b610cdd90600a6114cb565b610ce790836113a6565b610cf191906113c5565b9695505050505050565b6033546001600160a01b031633146106fb5760405162461bcd60e51b815260206004820181905260248201527f4f776e61626c653a2063616c6c6572206973206e6f7420746865206f776e65726044820152606401610398565b603380546001600160a01b038381166001600160a01b0319831681179093556040519116919082907f8be0079c531659141344cd1fd0a4f28419497f9722a3daafe3b4186f6b6457e090600090a35050565b600054610100900460ff16610dce5760405162461bcd60e51b8152600401610398906114d7565b6106fb600054610100900460ff16610df85760405162461bcd60e51b8152600401610398906114d7565b6106fb33610d55565b6001600160a01b0381168114610bf957600080fd5b60008060408385031215610e2957600080fd5b8235610e3481610e01565b946020939093013593505050565b600060208284031215610e5457600080fd5b81356107e881610e01565b634e487b7160e01b600052604160045260246000fd5b604051601f8201601f1916810167ffffffffffffffff81118282101715610e9e57610e9e610e5f565b604052919050565b600067ffffffffffffffff821115610ec057610ec0610e5f565b50601f01601f191660200190565b600082601f830112610edf57600080fd5b8135610ef2610eed82610ea6565b610e75565b818152846020838601011115610f0757600080fd5b816020850160208301376000918101602001919091529392505050565b600060208284031215610f3657600080fd5b813567ffffffffffffffff811115610f4d57600080fd5b610f5984828501610ece565b949350505050565b60008083601f840112610f7357600080fd5b50813567ffffffffffffffff811115610f8b57600080fd5b6020830191508360208260051b8501011115610fa657600080fd5b9250929050565b60008060008060408587031215610fc357600080fd5b843567ffffffffffffffff80821115610fdb57600080fd5b610fe788838901610f61565b9096509450602087013591508082111561100057600080fd5b5061100d87828801610f61565b95989497509550505050565b600067ffffffffffffffff82111561103357611033610e5f565b5060051b60200190565b600082601f83011261104e57600080fd5b8135602061105e610eed83611019565b82815260059290921b8401810191818101908684111561107d57600080fd5b8286015b848110156110985780358352918301918301611081565b509695505050505050565b600082601f8301126110b457600080fd5b813560206110c4610eed83611019565b82815260059290921b840181019181810190868411156110e357600080fd5b8286015b848110156110985780356110fa81610e01565b83529183019183016110e7565b60008060006060848603121561111c57600080fd5b833567ffffffffffffffff8082111561113457600080fd5b818601915086601f83011261114857600080fd5b81356020611158610eed83611019565b82815260059290921b8401810191818101908a84111561117757600080fd5b8286015b848110156111af578035868111156111935760008081fd5b6111a18d86838b0101610ece565b84525091830191830161117b565b50975050870135925050808211156111c657600080fd5b6111d28783880161103d565b935060408601359150808211156111e857600080fd5b506111f5868287016110a3565b9150509250925092565b6000806040838503121561121257600080fd5b823561121d81610e01565b91506020830135801515811461123257600080fd5b809150509250929050565b6020808252602a908201527f53686f6562696c6c4f7261636c653a2063616c6c6572206973206e6f7420746860408201526932903932b837b93a32b960b11b606082015260800190565b60006020828403121561129957600080fd5b5051919050565b60005b838110156112bb5781810151838201526020016112a3565b50506000910152565b6000602082840312156112d657600080fd5b815167ffffffffffffffff8111156112ed57600080fd5b8201601f810184136112fe57600080fd5b805161130c610eed82610ea6565b81815285602083850101111561132157600080fd5b61051b8260208301602086016112a0565b600082516113448184602087016112a0565b9190910192915050565b634e487b7160e01b600052603260045260246000fd5b634e487b7160e01b600052601160045260246000fd5b60006001820161138c5761138c611364565b5060010190565b8181038181111561083557610835611364565b60008160001904831182151516156113c0576113c0611364565b500290565b6000826113e257634e487b7160e01b600052601260045260246000fd5b500490565b600181815b8085111561142257816000190482111561140857611408611364565b8085161561141557918102915b93841c93908002906113ec565b509250929050565b60008261143957506001610835565b8161144657506000610835565b816001811461145c576002811461146657611482565b6001915050610835565b60ff84111561147757611477611364565b50506001821b610835565b5060208310610133831016604e8410600b84101617156114a5575081810a610835565b6114af83836113e7565b80600019048211156114c3576114c3611364565b029392505050565b60006107e8838361142a565b6020808252602b908201527f496e697469616c697a61626c653a20636f6e7472616374206973206e6f74206960408201526a6e697469616c697a696e6760a81b60608201526080019056fea264697066735822122089cd8d3a59afaa5e0aace8f92e0cf7cccdc737f0131d8c81e5885d44e8dd881964736f6c63430008100033",
  "devdoc": {
    "kind": "dev",
    "methods": {
      "getUnderlyingPrice(address)": {
        "params": {
          "cToken": "The cToken to get the underlying price of"
        },
        "returns": {
          "_0": "The underlying asset price mantissa (scaled by 1e18).  Zero means the price is unavailable."
        }
      },
      "owner()": {
        "details": "Returns the address of the current owner."
      },
      "renounceOwnership()": {
        "details": "Leaves the contract without owner. It will not be possible to call `onlyOwner` functions. Can only be called by the current owner. NOTE: Renouncing ownership will leave the contract without an owner, thereby disabling any functionality that is only available to the owner."
      },
      "transferOwnership(address)": {
        "details": "Transfers ownership of the contract to a new account (`newOwner`). Can only be called by the current owner."
      }
    },
    "version": 1
  },
  "userdoc": {
    "kind": "user",
    "methods": {
      "getUnderlyingPrice(address)": {
        "notice": "Get the underlying price of a cToken asset"
      },
      "isPriceOracle()": {
        "notice": "Indicator that this is a PriceOracle contract (for inspection)"
      }
    },
    "version": 1
  },
  "storageLayout": {
    "storage": [
      {
        "astId": 138,
        "contract": "contracts/PriceOracle/B2Oracle.sol:B2Oracle",
        "label": "_initialized",
        "offset": 0,
        "slot": "0",
        "type": "t_uint8"
      },
      {
        "astId": 141,
        "contract": "contracts/PriceOracle/B2Oracle.sol:B2Oracle",
        "label": "_initializing",
        "offset": 1,
        "slot": "0",
        "type": "t_bool"
      },
      {
        "astId": 671,
        "contract": "contracts/PriceOracle/B2Oracle.sol:B2Oracle",
        "label": "__gap",
        "offset": 0,
        "slot": "1",
        "type": "t_array(t_uint256)50_storage"
      },
      {
        "astId": 10,
        "contract": "contracts/PriceOracle/B2Oracle.sol:B2Oracle",
        "label": "_owner",
        "offset": 0,
        "slot": "51",
        "type": "t_address"
      },
      {
        "astId": 130,
        "contract": "contracts/PriceOracle/B2Oracle.sol:B2Oracle",
        "label": "__gap",
        "offset": 0,
        "slot": "52",
        "type": "t_array(t_uint256)49_storage"
      },
      {
        "astId": 4748,
        "contract": "contracts/PriceOracle/B2Oracle.sol:B2Oracle",
        "label": "THRESHOLD",
        "offset": 0,
        "slot": "101",
        "type": "t_uint256"
      },
      {
        "astId": 4751,
        "contract": "contracts/PriceOracle/B2Oracle.sol:B2Oracle",
        "label": "fallBackPriceCalculator",
        "offset": 0,
        "slot": "102",
        "type": "t_contract(IPriceCalculator)4734"
      },
      {
        "astId": 4756,
        "contract": "contracts/PriceOracle/B2Oracle.sol:B2Oracle",
        "label": "references",
        "offset": 0,
        "slot": "103",
        "type": "t_mapping(t_address,t_struct(ReferenceData)4721_storage)"
      },
      {
        "astId": 4760,
        "contract": "contracts/PriceOracle/B2Oracle.sol:B2Oracle",
        "label": "isReporter",
        "offset": 0,
        "slot": "104",
        "type": "t_mapping(t_address,t_bool)"
      },
      {
        "astId": 4764,
        "contract": "contracts/PriceOracle/B2Oracle.sol:B2Oracle",
        "label": "baseUnits",
        "offset": 0,
        "slot": "105",
        "type": "t_mapping(t_string_memory_ptr,t_uint256)"
      },
      {
        "astId": 4768,
        "contract": "contracts/PriceOracle/B2Oracle.sol:B2Oracle",
        "label": "underlying",
        "offset": 0,
        "slot": "106",
        "type": "t_mapping(t_string_memory_ptr,t_address)"
      },
      {
        "astId": 4770,
        "contract": "contracts/PriceOracle/B2Oracle.sol:B2Oracle",
        "label": "eth",
        "offset": 0,
        "slot": "107",
        "type": "t_address"
      },
      {
        "astId": 4772,
        "contract": "contracts/PriceOracle/B2Oracle.sol:B2Oracle",
        "label": "stone",
        "offset": 0,
        "slot": "108",
        "type": "t_address"
      }
    ],
    "types": {
      "t_address": {
        "encoding": "inplace",
        "label": "address",
        "numberOfBytes": "20"
      },
      "t_array(t_uint256)49_storage": {
        "base": "t_uint256",
        "encoding": "inplace",
        "label": "uint256[49]",
        "numberOfBytes": "1568"
      },
      "t_array(t_uint256)50_storage": {
        "base": "t_uint256",
        "encoding": "inplace",
        "label": "uint256[50]",
        "numberOfBytes": "1600"
      },
      "t_bool": {
        "encoding": "inplace",
        "label": "bool",
        "numberOfBytes": "1"
      },
      "t_contract(IPriceCalculator)4734": {
        "encoding": "inplace",
        "label": "contract IPriceCalculator",
        "numberOfBytes": "20"
      },
      "t_mapping(t_address,t_bool)": {
        "encoding": "mapping",
        "key": "t_address",
        "label": "mapping(address => bool)",
        "numberOfBytes": "32",
        "value": "t_bool"
      },
      "t_mapping(t_address,t_struct(ReferenceData)4721_storage)": {
        "encoding": "mapping",
        "key": "t_address",
        "label": "mapping(address => struct IPriceCalculator.ReferenceData)",
        "numberOfBytes": "32",
        "value": "t_struct(ReferenceData)4721_storage"
      },
      "t_mapping(t_string_memory_ptr,t_address)": {
        "encoding": "mapping",
        "key": "t_string_memory_ptr",
        "label": "mapping(string => address)",
        "numberOfBytes": "32",
        "value": "t_address"
      },
      "t_mapping(t_string_memory_ptr,t_uint256)": {
        "encoding": "mapping",
        "key": "t_string_memory_ptr",
        "label": "mapping(string => uint256)",
        "numberOfBytes": "32",
        "value": "t_uint256"
      },
      "t_string_memory_ptr": {
        "encoding": "bytes",
        "label": "string",
        "numberOfBytes": "32"
      },
      "t_struct(ReferenceData)4721_storage": {
        "encoding": "inplace",
        "label": "struct IPriceCalculator.ReferenceData",
        "members": [
          {
            "astId": 4718,
            "contract": "contracts/PriceOracle/B2Oracle.sol:B2Oracle",
            "label": "lastData",
            "offset": 0,
            "slot": "0",
            "type": "t_uint256"
          },
          {
            "astId": 4720,
            "contract": "contracts/PriceOracle/B2Oracle.sol:B2Oracle",
            "label": "lastUpdated",
            "offset": 0,
            "slot": "1",
            "type": "t_uint256"
          }
        ],
        "numberOfBytes": "64"
      },
      "t_uint256": {
        "encoding": "inplace",
        "label": "uint256",
        "numberOfBytes": "32"
      },
      "t_uint8": {
        "encoding": "inplace",
        "label": "uint8",
        "numberOfBytes": "1"
      }
    }
  }
}