{
  "address": "0x8Ba76ded880583581E2d9D253F16b87aC29FA897",
  "abi": [
    {
      "anonymous": false,
      "inputs": [
        {
          "indexed": true,
          "internalType": "address",
          "name": "rewardToken",
          "type": "address"
        },
        {
          "indexed": true,
          "internalType": "address",
          "name": "cToken",
          "type": "address"
        },
        {
          "indexed": false,
          "internalType": "uint256",
          "name": "borrowSpeed",
          "type": "uint256"
        }
      ],
      "name": "BorrowSpeedUpdated",
      "type": "event"
    },
    {
      "anonymous": false,
      "inputs": [
        {
          "indexed": false,
          "internalType": "uint8",
          "name": "version",
          "type": "uint8"
        }
      ],
      "name": "Initialized",
      "type": "event"
    },
    {
      "anonymous": false,
      "inputs": [
        {
          "indexed": true,
          "internalType": "address",
          "name": "previousOwner",
          "type": "address"
        },
        {
          "indexed": true,
          "internalType": "address",
          "name": "newOwner",
          "type": "address"
        }
      ],
      "name": "OwnershipTransferred",
      "type": "event"
    },
    {
      "anonymous": false,
      "inputs": [
        {
          "indexed": true,
          "internalType": "address",
          "name": "rewardToken",
          "type": "address"
        },
        {
          "indexed": true,
          "internalType": "address",
          "name": "user",
          "type": "address"
        },
        {
          "indexed": false,
          "internalType": "uint256",
          "name": "deltaAccrued",
          "type": "uint256"
        },
        {
          "indexed": false,
          "internalType": "uint256",
          "name": "totalAccrued",
          "type": "uint256"
        }
      ],
      "name": "RewardAccrued",
      "type": "event"
    },
    {
      "anonymous": false,
      "inputs": [
        {
          "indexed": true,
          "internalType": "address",
          "name": "rewardToken",
          "type": "address"
        },
        {
          "indexed": true,
          "internalType": "address",
          "name": "user",
          "type": "address"
        },
        {
          "indexed": false,
          "internalType": "uint256",
          "name": "amount",
          "type": "uint256"
        }
      ],
      "name": "RewardGranted",
      "type": "event"
    },
    {
      "anonymous": false,
      "inputs": [
        {
          "indexed": true,
          "internalType": "address",
          "name": "rewardToken",
          "type": "address"
        },
        {
          "indexed": true,
          "internalType": "address",
          "name": "cToken",
          "type": "address"
        },
        {
          "indexed": false,
          "internalType": "uint256",
          "name": "supplySpeed",
          "type": "uint256"
        }
      ],
      "name": "SupplySpeedUpdated",
      "type": "event"
    },
    {
      "inputs": [
        {
          "internalType": "address",
          "name": "token",
          "type": "address"
        },
        {
          "internalType": "address",
          "name": "user",
          "type": "address"
        },
        {
          "internalType": "uint256",
          "name": "amount",
          "type": "uint256"
        }
      ],
      "name": "_grantReward",
      "outputs": [],
      "stateMutability": "nonpayable",
      "type": "function"
    },
    {
      "inputs": [
        {
          "internalType": "address",
          "name": "rewardToken_",
          "type": "address"
        },
        {
          "internalType": "address[]",
          "name": "cTokens",
          "type": "address[]"
        },
        {
          "internalType": "uint256[]",
          "name": "supplySpeeds",
          "type": "uint256[]"
        },
        {
          "internalType": "uint256[]",
          "name": "borrowSpeeds",
          "type": "uint256[]"
        }
      ],
      "name": "_updateRewardSpeeds",
      "outputs": [],
      "stateMutability": "nonpayable",
      "type": "function"
    },
    {
      "inputs": [
        {
          "internalType": "address",
          "name": "rewardToken_",
          "type": "address"
        }
      ],
      "name": "_whitelistToken",
      "outputs": [],
      "stateMutability": "nonpayable",
      "type": "function"
    },
    {
      "inputs": [
        {
          "internalType": "address[]",
          "name": "holders",
          "type": "address[]"
        }
      ],
      "name": "claim",
      "outputs": [],
      "stateMutability": "nonpayable",
      "type": "function"
    },
    {
      "inputs": [],
      "name": "comptroller",
      "outputs": [
        {
          "internalType": "address",
          "name": "",
          "type": "address"
        }
      ],
      "stateMutability": "view",
      "type": "function"
    },
    {
      "inputs": [],
      "name": "gShoebillToken",
      "outputs": [
        {
          "internalType": "contract IGovSBL",
          "name": "",
          "type": "address"
        }
      ],
      "stateMutability": "view",
      "type": "function"
    },
    {
      "inputs": [],
      "name": "getBlockNumber",
      "outputs": [
        {
          "internalType": "uint32",
          "name": "",
          "type": "uint32"
        }
      ],
      "stateMutability": "view",
      "type": "function"
    },
    {
      "inputs": [],
      "name": "getRewardTokens",
      "outputs": [
        {
          "internalType": "address[]",
          "name": "",
          "type": "address[]"
        }
      ],
      "stateMutability": "view",
      "type": "function"
    },
    {
      "inputs": [
        {
          "internalType": "address",
          "name": "comptroller_",
          "type": "address"
        }
      ],
      "name": "initialize",
      "outputs": [],
      "stateMutability": "nonpayable",
      "type": "function"
    },
    {
      "inputs": [],
      "name": "miningReferral",
      "outputs": [
        {
          "internalType": "contract IMiningReferral",
          "name": "",
          "type": "address"
        }
      ],
      "stateMutability": "view",
      "type": "function"
    },
    {
      "inputs": [
        {
          "internalType": "address",
          "name": "cToken",
          "type": "address"
        }
      ],
      "name": "notifyBorrowIndex",
      "outputs": [],
      "stateMutability": "nonpayable",
      "type": "function"
    },
    {
      "inputs": [
        {
          "internalType": "address",
          "name": "cToken",
          "type": "address"
        },
        {
          "internalType": "address",
          "name": "borrower",
          "type": "address"
        }
      ],
      "name": "notifyBorrower",
      "outputs": [],
      "stateMutability": "nonpayable",
      "type": "function"
    },
    {
      "inputs": [
        {
          "internalType": "address",
          "name": "cToken",
          "type": "address"
        },
        {
          "internalType": "address",
          "name": "supplier",
          "type": "address"
        }
      ],
      "name": "notifySupplier",
      "outputs": [],
      "stateMutability": "nonpayable",
      "type": "function"
    },
    {
      "inputs": [
        {
          "internalType": "address",
          "name": "cToken",
          "type": "address"
        }
      ],
      "name": "notifySupplyIndex",
      "outputs": [],
      "stateMutability": "nonpayable",
      "type": "function"
    },
    {
      "inputs": [],
      "name": "owner",
      "outputs": [
        {
          "internalType": "address",
          "name": "",
          "type": "address"
        }
      ],
      "stateMutability": "view",
      "type": "function"
    },
    {
      "inputs": [],
      "name": "renounceOwnership",
      "outputs": [],
      "stateMutability": "nonpayable",
      "type": "function"
    },
    {
      "inputs": [
        {
          "internalType": "address",
          "name": "",
          "type": "address"
        },
        {
          "internalType": "address",
          "name": "",
          "type": "address"
        }
      ],
      "name": "rewardAccountState",
      "outputs": [
        {
          "internalType": "uint256",
          "name": "rewardAccrued",
          "type": "uint256"
        }
      ],
      "stateMutability": "view",
      "type": "function"
    },
    {
      "inputs": [],
      "name": "rewardInitialIndex",
      "outputs": [
        {
          "internalType": "uint224",
          "name": "",
          "type": "uint224"
        }
      ],
      "stateMutability": "view",
      "type": "function"
    },
    {
      "inputs": [
        {
          "internalType": "address",
          "name": "",
          "type": "address"
        },
        {
          "internalType": "address",
          "name": "",
          "type": "address"
        }
      ],
      "name": "rewardMarketState",
      "outputs": [
        {
          "internalType": "uint256",
          "name": "supplySpeed",
          "type": "uint256"
        },
        {
          "internalType": "uint224",
          "name": "supplyIndex",
          "type": "uint224"
        },
        {
          "internalType": "uint32",
          "name": "supplyBlock",
          "type": "uint32"
        },
        {
          "internalType": "uint256",
          "name": "borrowSpeed",
          "type": "uint256"
        },
        {
          "internalType": "uint224",
          "name": "borrowIndex",
          "type": "uint224"
        },
        {
          "internalType": "uint32",
          "name": "borrowBlock",
          "type": "uint32"
        }
      ],
      "stateMutability": "view",
      "type": "function"
    },
    {
      "inputs": [
        {
          "internalType": "address",
          "name": "",
          "type": "address"
        }
      ],
      "name": "rewardTokenExists",
      "outputs": [
        {
          "internalType": "bool",
          "name": "",
          "type": "bool"
        }
      ],
      "stateMutability": "view",
      "type": "function"
    },
    {
      "inputs": [
        {
          "internalType": "uint256",
          "name": "",
          "type": "uint256"
        }
      ],
      "name": "rewardTokens",
      "outputs": [
        {
          "internalType": "address",
          "name": "",
          "type": "address"
        }
      ],
      "stateMutability": "view",
      "type": "function"
    },
    {
      "inputs": [
        {
          "internalType": "address",
          "name": "_gShoebillToken",
          "type": "address"
        }
      ],
      "name": "setGShoebillToken",
      "outputs": [],
      "stateMutability": "nonpayable",
      "type": "function"
    },
    {
      "inputs": [
        {
          "internalType": "address",
          "name": "_miningReferral",
          "type": "address"
        }
      ],
      "name": "setMiningReferral",
      "outputs": [],
      "stateMutability": "nonpayable",
      "type": "function"
    },
    {
      "inputs": [
        {
          "internalType": "address",
          "name": "newOwner",
          "type": "address"
        }
      ],
      "name": "transferOwnership",
      "outputs": [],
      "stateMutability": "nonpayable",
      "type": "function"
    }
  ],
  "transactionHash": "0xef2d239b84be6f05ef3550a9e755126541727ac3d2fea158190d6ef4aa84d1fe",
  "args": [],
  "numDeployments": 1,
  "solcInputHash": "43154d5442d095575383cce41093b385",
  "bytecode": "0x608060405234801561001057600080fd5b506124a9806100206000396000f3fe608060405234801561001057600080fd5b50600436106101585760003560e01c8063715018a6116100c3578063c4d66de81161007c578063c4d66de8146103c3578063c4f59f9b146103d6578063e86b2fbe146103eb578063eb8f2806146103fe578063f2fde38b14610411578063f49dc6b61461042457600080fd5b8063715018a6146103355780637bb7bed11461033d578063831e8dec146103505780638da5cb5b1461038c5780638daa0acb1461039d578063b054347c146103b057600080fd5b806342cbb15c1161011557806342cbb15c1461029f57806345a49d3c146102bc57806357636069146102cf5780635ce65fe9146102e25780635fe3b567146102f557806366f91a241461030857600080fd5b806317b7fd9d1461015d57806321f1d8fd1461018d578063246467e8146101a25780632e4a5d60146101b5578063318d9e5d146101e857806332894a6d146101fb575b600080fd5b606a54610170906001600160a01b031681565b6040516001600160a01b0390911681526020015b60405180910390f35b6101a061019b366004611f29565b610437565b005b6101a06101b0366004611f46565b610461565b6101d86101c3366004611f29565b60696020526000908152604090205460ff1681565b6040519015158152602001610184565b6101a06101f6366004612066565b610504565b61025e61020936600461209b565b6066602090815260009283526040808420909152908252902080546001820154600283015460039093015491926001600160e01b038083169363ffffffff600160e01b94859004811694928216929091041686565b604080519687526001600160e01b03958616602088015263ffffffff94851690870152606086019290925290921660808401521660a082015260c001610184565b6102a7610558565b60405163ffffffff9091168152602001610184565b6101a06102ca36600461209b565b61059e565b6101a06102dd366004611f29565b61061e565b6101a06102f0366004611f29565b610648565b606554610170906001600160a01b031681565b61031d6a0c097ce7bc90715b34b9f160241b81565b6040516001600160e01b039091168152602001610184565b6101a06106c2565b61017061034b3660046120d4565b6106d6565b61037e61035e36600461209b565b606760209081526000928352604080842090915290825290206002015481565b604051908152602001610184565b6033546001600160a01b0316610170565b6101a06103ab366004611f29565b610700565b606b54610170906001600160a01b031681565b6101a06103d1366004611f29565b610864565b6103de610990565b60405161018491906120ed565b6101a06103f9366004611f29565b6109f2565b6101a061040c36600461209b565b610a6c565b6101a061041f366004611f29565b610ae7565b6101a0610432366004612195565b610b60565b61043f610d41565b606a80546001600160a01b0319166001600160a01b0392909216919091179055565b610469610d41565b6001600160a01b03831660009081526069602052604090205460ff166104f35760405162461bcd60e51b815260206004820152603460248201527f5265776172644469737472696275746f723a206772616e7420726577617264206044820152731d1bdad95b88191bd95cc81b9bdd08195e1a5cdd60621b60648201526084015b60405180910390fd5b6104fe838383610d9b565b50505050565b60005b606854811015610554576105426068828154811061052757610527612230565b6000918252602090912001546001600160a01b0316836110cb565b8061054c8161225c565b915050610507565b5050565b6000610599426040518060400160405280601c81526020017f626c6f636b206e756d626572206578636565647320333220626974730000000081525061116f565b905090565b6065546001600160a01b031633146105c85760405162461bcd60e51b81526004016104ea90612275565b60005b60685481101561061957610607606882815481106105eb576105eb612230565b6000918252602090912001546001600160a01b031684846111a2565b806106118161225c565b9150506105cb565b505050565b610626610d41565b606b80546001600160a01b0319166001600160a01b0392909216919091179055565b6065546001600160a01b031633146106725760405162461bcd60e51b81526004016104ea90612275565b60005b606854811015610554576106b06068828154811061069557610695612230565b6000918252602090912001546001600160a01b03168361133a565b806106ba8161225c565b915050610675565b6106ca610d41565b6106d4600061158c565b565b606881815481106106e657600080fd5b6000918252602090912001546001600160a01b0316905081565b610708610d41565b6001600160a01b03811661077d5760405162461bcd60e51b815260206004820152603660248201527f5265776172644469737472696275746f723a2072657761726420746f6b656e2060448201527563616e6e6f74206265207a65726f206164647265737360501b60648201526084016104ea565b6001600160a01b03811660009081526069602052604090205460ff16156107fd5760405162461bcd60e51b815260206004820152602e60248201527f5265776172644469737472696275746f723a2072657761726420746f6b656e2060448201526d616c72656164792065786973747360901b60648201526084016104ea565b6068805460018181019092557fa2153420d844928b4421650203c77babc8b33d7f2e7b450e2966db0c220977530180546001600160a01b039093166001600160a01b031990931683179055600091825260696020526040909120805460ff19169091179055565b600054610100900460ff16158080156108845750600054600160ff909116105b8061089e5750303b15801561089e575060005460ff166001145b6109015760405162461bcd60e51b815260206004820152602e60248201527f496e697469616c697a61626c653a20636f6e747261637420697320616c72656160448201526d191e481a5b9a5d1a585b1a5e995960921b60648201526084016104ea565b6000805460ff191660011790558015610924576000805461ff0019166101001790555b61092c6115de565b606580546001600160a01b0319166001600160a01b0384161790558015610554576000805461ff0019169055604051600181527f7f26b83ff96e1f2b6a682f133852f6798a09c465da95921460cefb38474024989060200160405180910390a15050565b606060688054806020026020016040519081016040528092919081815260200182805480156109e857602002820191906000526020600020905b81546001600160a01b031681526001909101906020018083116109ca575b5050505050905090565b6065546001600160a01b03163314610a1c5760405162461bcd60e51b81526004016104ea90612275565b60005b60685481101561055457610a5a60688281548110610a3f57610a3f612230565b6000918252602090912001546001600160a01b03168361160d565b80610a648161225c565b915050610a1f565b6065546001600160a01b03163314610a965760405162461bcd60e51b81526004016104ea90612275565b60005b60685481101561061957610ad560688281548110610ab957610ab9612230565b6000918252602090912001546001600160a01b031684846117a5565b80610adf8161225c565b915050610a99565b610aef610d41565b6001600160a01b038116610b545760405162461bcd60e51b815260206004820152602660248201527f4f776e61626c653a206e6577206f776e657220697320746865207a65726f206160448201526564647265737360d01b60648201526084016104ea565b610b5d8161158c565b50565b610b68610d41565b6001600160a01b03841660009081526069602052604090205460ff16610be75760405162461bcd60e51b815260206004820152602e60248201527f5265776172644469737472696275746f723a2072657761726420746f6b656e2060448201526d191bd95cc81b9bdd08195e1a5cdd60921b60648201526084016104ea565b8151835114610c565760405162461bcd60e51b815260206004820152603560248201527f5265776172644469737472696275746f723a20737570706c79207370656564206044820152740c2e4e4c2f240d8cadccee8d040dad2e6dac2e8c6d605b1b60648201526084016104ea565b8051835114610cc55760405162461bcd60e51b815260206004820152603560248201527f5265776172644469737472696275746f723a20626f72726f77207370656564206044820152740c2e4e4c2f240d8cadccee8d040dad2e6dac2e8c6d605b1b60648201526084016104ea565b60005b8351811015610d3a57610d2885858381518110610ce757610ce7612230565b6020026020010151858481518110610d0157610d01612230565b6020026020010151858581518110610d1b57610d1b612230565b60200260200101516119bf565b80610d328161225c565b915050610cc8565b5050505050565b6033546001600160a01b031633146106d45760405162461bcd60e51b815260206004820181905260248201527f4f776e61626c653a2063616c6c6572206973206e6f7420746865206f776e657260448201526064016104ea565b6040516370a0823160e01b815230600482015260009081906001600160a01b038616906370a0823190602401602060405180830381865afa158015610de4573d6000803e3d6000fd5b505050506040513d601f19601f82011682018060405250810190610e0891906122d2565b9050600083118015610e1a5750808311155b156110bf57606a5483906001600160a01b031615610ebe57606a5460405163379b8f7f60e11b81526001600160a01b0387811660048301526000921690636f371efe90602401602060405180830381865afa158015610e7d573d6000803e3d6000fd5b505050506040513d601f19601f82011682018060405250810190610ea191906122d2565b9050612710610eb082876122eb565b610eba919061230a565b9150505b606b546001600160a01b03161561105c57606b54604051634a9fefc760e01b81526001600160a01b0387811660048301526000921690634a9fefc790602401602060405180830381865afa158015610f1a573d6000803e3d6000fd5b505050506040513d601f19601f82011682018060405250810190610f3e919061232c565b90506001600160a01b0381161561105a57606b5460405163fc1012e160e01b81526001600160a01b0383811660048301526000926127109291169063fc1012e190602401602060405180830381865afa158015610f9f573d6000803e3d6000fd5b505050506040513d601f19601f82011682018060405250810190610fc391906122d2565b610fcd90886122eb565b610fd7919061230a565b9050610fe4888383611b1f565b606b54604051631b82d29760e31b81526001600160a01b038481166004830152602482018490529091169063dc1694b890604401600060405180830381600087803b15801561103257600080fd5b505af1158015611046573d6000803e3d6000fd5b5050505080836110569190612349565b9250505b505b611067868683611b1f565b846001600160a01b0316866001600160a01b03167f6123969dd9705ebe9fca0229b85009158c92cae456c32d917d8d435748f3abd3836040516110ac91815260200190565b60405180910390a36000925050506110c4565b829150505b9392505050565b60005b8151811015610619576001600160a01b03831660009081526067602052604081208351829085908590811061110557611105612230565b60200260200101516001600160a01b03166001600160a01b0316815260200190815260200160002090506111578484848151811061114557611145612230565b60200260200101518360020154610d9b565b600290910155806111678161225c565b9150506110ce565b60008164010000000084106111975760405162461bcd60e51b81526004016104ea9190612380565b508290505b92915050565b6001600160a01b03808416600081815260666020908152604080832087861680855290835281842094845260678352818420958716845294825280832060018501549584529182905290912080546001600160e01b039094169081905591929091908015801561122057506a0c097ce7bc90715b34b9f160241b8210155b1561123657506a0c097ce7bc90715b34b9f160241b5b6000604051806020016040528061124d8585611b71565b90526040516370a0823160e01b81526001600160a01b0388811660048301529192506000918916906370a0823190602401602060405180830381865afa15801561129b573d6000803e3d6000fd5b505050506040513d601f19601f820116820180604052508101906112bf91906122d2565b905060006112cd8284611b7d565b90506112dd866002015482611ba6565b600287018190556040805183815260208101929092526001600160a01b038a811692908d16917ffd07974d3aaf62e9d6f1492b77eba5e72f99d8367e456eaf203de8491d42c999910160405180910390a350505050505050505050565b60006040518060200160405280836001600160a01b031663aa5af0fd6040518163ffffffff1660e01b8152600401602060405180830381865afa158015611385573d6000803e3d6000fd5b505050506040513d601f19601f820116820180604052508101906113a991906122d2565b90526001600160a01b03808516600090815260666020908152604080832093871683529290529081209192506113dd610558565b600383015490915063ffffffff600160e01b90910481169082161115610d3a5760028201541561156457600382015460009061142690600160e01b900463ffffffff16836123b3565b63ffffffff169050600061149b866001600160a01b03166347bd37186040518163ffffffff1660e01b8152600401602060405180830381865afa158015611471573d6000803e3d6000fd5b505050506040513d601f19601f8201168201806040525081019061149591906122d2565b86611bb2565b905060006114ad838660020154611bd0565b905060008083116114cd57604051806020016040528060008152506114d7565b6114d78284611bdc565b604080516020810190915260038801546001600160e01b0316815290915061153d906115039083611c20565b5160408051808201909152601a81527f6e657720696e64657820657863656564732032323420626974730000000000006020820152611c4c565b6003870180546001600160e01b0319166001600160e01b0392909216919091179055505050505b60038201805463ffffffff8316600160e01b026001600160e01b039091161790555050505050565b603380546001600160a01b038381166001600160a01b0319831681179093556040519116919082907f8be0079c531659141344cd1fd0a4f28419497f9722a3daafe3b4186f6b6457e090600090a35050565b600054610100900460ff166116055760405162461bcd60e51b81526004016104ea906123d7565b6106d4611c73565b6001600160a01b03808316600090815260666020908152604080832093851683529290529081209061163d610558565b600183015490915063ffffffff600160e01b909104811690821611156104fe5781541561177e57600182015460009061168390600160e01b900463ffffffff16836123b3565b63ffffffff1690506000846001600160a01b03166318160ddd6040518163ffffffff1660e01b8152600401602060405180830381865afa1580156116cb573d6000803e3d6000fd5b505050506040513d601f19601f820116820180604052508101906116ef91906122d2565b90506000611701838660000154611bd0565b90506000808311611721576040518060200160405280600081525061172b565b61172b8284611bdc565b604080516020810190915260018801546001600160e01b03168152909150611757906115039083611c20565b6001870180546001600160e01b0319166001600160e01b0392909216919091179055505050505b60018201805463ffffffff8316600160e01b026001600160e01b0390911617905550505050565b60006040518060200160405280846001600160a01b031663aa5af0fd6040518163ffffffff1660e01b8152600401602060405180830381865afa1580156117f0573d6000803e3d6000fd5b505050506040513d601f19601f8201168201806040525081019061181491906122d2565b90526001600160a01b03808616600081815260666020908152604080832089861680855290835281842094845260678352818420958916845294825280832060038501549584526001810190925290912080546001600160e01b0390941690819055939450909290918015801561189957506a0c097ce7bc90715b34b9f160241b8210155b156118af57506a0c097ce7bc90715b34b9f160241b5b600060405180602001604052806118c68585611b71565b90526040516395dd919360e01b81526001600160a01b03898116600483015291925060009161194391908b16906395dd919390602401602060405180830381865afa158015611919573d6000803e3d6000fd5b505050506040513d601f19601f8201168201806040525081019061193d91906122d2565b88611bb2565b905060006119518284611b7d565b9050611961866002015482611ba6565b600287018190556040805183815260208101929092526001600160a01b038b811692908e16917ffd07974d3aaf62e9d6f1492b77eba5e72f99d8367e456eaf203de8491d42c999910160405180910390a35050505050505050505050565b6001600160a01b03808516600090815260666020908152604080832093871683529290522080548314611a755760018101546001600160e01b0316600003611a24576001810180546001600160e01b0319166a0c097ce7bc90715b34b9f160241b1790555b611a2e858561160d565b8281556040518381526001600160a01b0385811691908716907f61918eb908e35e96d460dc030b7c4f6448ac64f1383759571b9c7cab50efd0469060200160405180910390a35b81816002015414610d3a5760038101546001600160e01b0316600003611ab8576003810180546001600160e01b0319166a0c097ce7bc90715b34b9f160241b1790555b611ac2858561133a565b818160020181905550836001600160a01b0316856001600160a01b03167f13b9c4bac6e50afba9701545614343a5e29bc815d483928198270e878c42eaf984604051611b1091815260200190565b60405180910390a35050505050565b604080516001600160a01b038416602482015260448082018490528251808303909101815260649091019091526020810180516001600160e01b031663a9059cbb60e01b179052610619908490611ca3565b60006110c48284612422565b60006a0c097ce7bc90715b34b9f160241b611b9c848460000151611bd0565b6110c4919061230a565b60006110c48284612349565b60006110c4611bc984670de0b6b3a7640000611bd0565b8351611d78565b60006110c482846122eb565b6040805160208101909152600081526040518060200160405280611c17611c11866a0c097ce7bc90715b34b9f160241b611bd0565b85611d78565b90529392505050565b6040805160208101909152600081526040518060200160405280611c1785600001518560000151611ba6565b600081600160e01b84106111975760405162461bcd60e51b81526004016104ea9190612380565b600054610100900460ff16611c9a5760405162461bcd60e51b81526004016104ea906123d7565b6106d43361158c565b6000611cf8826040518060400160405280602081526020017f5361666545524332303a206c6f772d6c6576656c2063616c6c206661696c6564815250856001600160a01b0316611d849092919063ffffffff16565b9050805160001480611d19575080806020019051810190611d199190612435565b6106195760405162461bcd60e51b815260206004820152602a60248201527f5361666545524332303a204552433230206f7065726174696f6e20646964206e6044820152691bdd081cdd58d8d9595960b21b60648201526084016104ea565b60006110c4828461230a565b6060611d938484600085611d9b565b949350505050565b606082471015611dfc5760405162461bcd60e51b815260206004820152602660248201527f416464726573733a20696e73756666696369656e742062616c616e636520666f6044820152651c8818d85b1b60d21b60648201526084016104ea565b600080866001600160a01b03168587604051611e189190612457565b60006040518083038185875af1925050503d8060008114611e55576040519150601f19603f3d011682016040523d82523d6000602084013e611e5a565b606091505b5091509150611e6b87838387611e76565b979650505050505050565b60608315611ee5578251600003611ede576001600160a01b0385163b611ede5760405162461bcd60e51b815260206004820152601d60248201527f416464726573733a2063616c6c20746f206e6f6e2d636f6e747261637400000060448201526064016104ea565b5081611d93565b611d938383815115611efa5781518083602001fd5b8060405162461bcd60e51b81526004016104ea9190612380565b6001600160a01b0381168114610b5d57600080fd5b600060208284031215611f3b57600080fd5b81356110c481611f14565b600080600060608486031215611f5b57600080fd5b8335611f6681611f14565b92506020840135611f7681611f14565b929592945050506040919091013590565b634e487b7160e01b600052604160045260246000fd5b604051601f8201601f1916810167ffffffffffffffff81118282101715611fc657611fc6611f87565b604052919050565b600067ffffffffffffffff821115611fe857611fe8611f87565b5060051b60200190565b600082601f83011261200357600080fd5b8135602061201861201383611fce565b611f9d565b82815260059290921b8401810191818101908684111561203757600080fd5b8286015b8481101561205b57803561204e81611f14565b835291830191830161203b565b509695505050505050565b60006020828403121561207857600080fd5b813567ffffffffffffffff81111561208f57600080fd5b611d9384828501611ff2565b600080604083850312156120ae57600080fd5b82356120b981611f14565b915060208301356120c981611f14565b809150509250929050565b6000602082840312156120e657600080fd5b5035919050565b6020808252825182820181905260009190848201906040850190845b8181101561212e5783516001600160a01b031683529284019291840191600101612109565b50909695505050505050565b600082601f83011261214b57600080fd5b8135602061215b61201383611fce565b82815260059290921b8401810191818101908684111561217a57600080fd5b8286015b8481101561205b578035835291830191830161217e565b600080600080608085870312156121ab57600080fd5b84356121b681611f14565b9350602085013567ffffffffffffffff808211156121d357600080fd5b6121df88838901611ff2565b945060408701359150808211156121f557600080fd5b6122018883890161213a565b9350606087013591508082111561221757600080fd5b506122248782880161213a565b91505092959194509250565b634e487b7160e01b600052603260045260246000fd5b634e487b7160e01b600052601160045260246000fd5b60006001820161226e5761226e612246565b5060010190565b6020808252603a908201527f5265776172644469737472696275746f723a206f6e6c7920636f6d7074726f6c60408201527f6c65722063616e2063616c6c20746869732066756e6374696f6e000000000000606082015260800190565b6000602082840312156122e457600080fd5b5051919050565b600081600019048311821515161561230557612305612246565b500290565b60008261232757634e487b7160e01b600052601260045260246000fd5b500490565b60006020828403121561233e57600080fd5b81516110c481611f14565b8082018082111561119c5761119c612246565b60005b8381101561237757818101518382015260200161235f565b50506000910152565b602081526000825180602084015261239f81604085016020870161235c565b601f01601f19169190910160400192915050565b63ffffffff8281168282160390808211156123d0576123d0612246565b5092915050565b6020808252602b908201527f496e697469616c697a61626c653a20636f6e7472616374206973206e6f74206960408201526a6e697469616c697a696e6760a81b606082015260800190565b8181038181111561119c5761119c612246565b60006020828403121561244757600080fd5b815180151581146110c457600080fd5b6000825161246981846020870161235c565b919091019291505056fea26469706673582212202856ed272ec32d1cb77f2e5bcd6c7a1d132c50fde1ca39dba4e76c80b6ebe98164736f6c63430008100033",
  "devdoc": {
    "kind": "dev",
    "methods": {
      "owner()": {
        "details": "Returns the address of the current owner."
      },
      "renounceOwnership()": {
        "details": "Leaves the contract without owner. It will not be possible to call `onlyOwner` functions. Can only be called by the current owner. NOTE: Renouncing ownership will leave the contract without an owner, thereby disabling any functionality that is only available to the owner."
      },
      "transferOwnership(address)": {
        "details": "Transfers ownership of the contract to a new account (`newOwner`). Can only be called by the current owner."
      }
    },
    "title": "Reward Distributor (version 1)",
    "version": 1
  },
  "userdoc": {
    "kind": "user",
    "methods": {
      "comptroller()": {
        "notice": "The comptroller that rewards are distributed to"
      },
      "getRewardTokens()": {
        "notice": "Getters "
      },
      "rewardAccountState(address,address)": {
        "notice": "The Reward state for each reward token for each account"
      },
      "rewardInitialIndex()": {
        "notice": "The initial reward index for a market"
      },
      "rewardMarketState(address,address)": {
        "notice": "The Reward state for each reward token for each market"
      },
      "rewardTokenExists(address)": {
        "notice": "Flag to check if reward token added before"
      },
      "rewardTokens(uint256)": {
        "notice": "Added reward tokens"
      }
    },
    "notice": "This contract is used to distribute rewards to users for supplying and borrowing assets. Each supply and borrow changing action from comptroller will trigger index update for each reward token.",
    "version": 1
  },
  "storageLayout": {
    "storage": [
      {
        "astId": 138,
        "contract": "contracts/RewardDistributor.sol:RewardDistributor",
        "label": "_initialized",
        "offset": 0,
        "slot": "0",
        "type": "t_uint8"
      },
      {
        "astId": 141,
        "contract": "contracts/RewardDistributor.sol:RewardDistributor",
        "label": "_initializing",
        "offset": 1,
        "slot": "0",
        "type": "t_bool"
      },
      {
        "astId": 1470,
        "contract": "contracts/RewardDistributor.sol:RewardDistributor",
        "label": "__gap",
        "offset": 0,
        "slot": "1",
        "type": "t_array(t_uint256)50_storage"
      },
      {
        "astId": 10,
        "contract": "contracts/RewardDistributor.sol:RewardDistributor",
        "label": "_owner",
        "offset": 0,
        "slot": "51",
        "type": "t_address"
      },
      {
        "astId": 130,
        "contract": "contracts/RewardDistributor.sol:RewardDistributor",
        "label": "__gap",
        "offset": 0,
        "slot": "52",
        "type": "t_array(t_uint256)49_storage"
      },
      {
        "astId": 23822,
        "contract": "contracts/RewardDistributor.sol:RewardDistributor",
        "label": "comptroller",
        "offset": 0,
        "slot": "101",
        "type": "t_address"
      },
      {
        "astId": 23830,
        "contract": "contracts/RewardDistributor.sol:RewardDistributor",
        "label": "rewardMarketState",
        "offset": 0,
        "slot": "102",
        "type": "t_mapping(t_address,t_mapping(t_address,t_struct(RewardMarketState)23760_storage))"
      },
      {
        "astId": 23838,
        "contract": "contracts/RewardDistributor.sol:RewardDistributor",
        "label": "rewardAccountState",
        "offset": 0,
        "slot": "103",
        "type": "t_mapping(t_address,t_mapping(t_address,t_struct(RewardAccountState)23774_storage))"
      },
      {
        "astId": 23842,
        "contract": "contracts/RewardDistributor.sol:RewardDistributor",
        "label": "rewardTokens",
        "offset": 0,
        "slot": "104",
        "type": "t_array(t_address)dyn_storage"
      },
      {
        "astId": 23847,
        "contract": "contracts/RewardDistributor.sol:RewardDistributor",
        "label": "rewardTokenExists",
        "offset": 0,
        "slot": "105",
        "type": "t_mapping(t_address,t_bool)"
      },
      {
        "astId": 23850,
        "contract": "contracts/RewardDistributor.sol:RewardDistributor",
        "label": "gShoebillToken",
        "offset": 0,
        "slot": "106",
        "type": "t_contract(IGovSBL)35523"
      },
      {
        "astId": 23853,
        "contract": "contracts/RewardDistributor.sol:RewardDistributor",
        "label": "miningReferral",
        "offset": 0,
        "slot": "107",
        "type": "t_contract(IMiningReferral)35552"
      }
    ],
    "types": {
      "t_address": {
        "encoding": "inplace",
        "label": "address",
        "numberOfBytes": "20"
      },
      "t_array(t_address)dyn_storage": {
        "base": "t_address",
        "encoding": "dynamic_array",
        "label": "address[]",
        "numberOfBytes": "32"
      },
      "t_array(t_uint256)49_storage": {
        "base": "t_uint256",
        "encoding": "inplace",
        "label": "uint256[49]",
        "numberOfBytes": "1568"
      },
      "t_array(t_uint256)50_storage": {
        "base": "t_uint256",
        "encoding": "inplace",
        "label": "uint256[50]",
        "numberOfBytes": "1600"
      },
      "t_bool": {
        "encoding": "inplace",
        "label": "bool",
        "numberOfBytes": "1"
      },
      "t_contract(IGovSBL)35523": {
        "encoding": "inplace",
        "label": "contract IGovSBL",
        "numberOfBytes": "20"
      },
      "t_contract(IMiningReferral)35552": {
        "encoding": "inplace",
        "label": "contract IMiningReferral",
        "numberOfBytes": "20"
      },
      "t_mapping(t_address,t_bool)": {
        "encoding": "mapping",
        "key": "t_address",
        "label": "mapping(address => bool)",
        "numberOfBytes": "32",
        "value": "t_bool"
      },
      "t_mapping(t_address,t_mapping(t_address,t_struct(RewardAccountState)23774_storage))": {
        "encoding": "mapping",
        "key": "t_address",
        "label": "mapping(address => mapping(address => struct RewardAccountState))",
        "numberOfBytes": "32",
        "value": "t_mapping(t_address,t_struct(RewardAccountState)23774_storage)"
      },
      "t_mapping(t_address,t_mapping(t_address,t_struct(RewardMarketState)23760_storage))": {
        "encoding": "mapping",
        "key": "t_address",
        "label": "mapping(address => mapping(address => struct RewardMarketState))",
        "numberOfBytes": "32",
        "value": "t_mapping(t_address,t_struct(RewardMarketState)23760_storage)"
      },
      "t_mapping(t_address,t_struct(RewardAccountState)23774_storage)": {
        "encoding": "mapping",
        "key": "t_address",
        "label": "mapping(address => struct RewardAccountState)",
        "numberOfBytes": "32",
        "value": "t_struct(RewardAccountState)23774_storage"
      },
      "t_mapping(t_address,t_struct(RewardMarketState)23760_storage)": {
        "encoding": "mapping",
        "key": "t_address",
        "label": "mapping(address => struct RewardMarketState)",
        "numberOfBytes": "32",
        "value": "t_struct(RewardMarketState)23760_storage"
      },
      "t_mapping(t_address,t_uint256)": {
        "encoding": "mapping",
        "key": "t_address",
        "label": "mapping(address => uint256)",
        "numberOfBytes": "32",
        "value": "t_uint256"
      },
      "t_struct(RewardAccountState)23774_storage": {
        "encoding": "inplace",
        "label": "struct RewardAccountState",
        "members": [
          {
            "astId": 23765,
            "contract": "contracts/RewardDistributor.sol:RewardDistributor",
            "label": "supplierIndex",
            "offset": 0,
            "slot": "0",
            "type": "t_mapping(t_address,t_uint256)"
          },
          {
            "astId": 23770,
            "contract": "contracts/RewardDistributor.sol:RewardDistributor",
            "label": "borrowerIndex",
            "offset": 0,
            "slot": "1",
            "type": "t_mapping(t_address,t_uint256)"
          },
          {
            "astId": 23773,
            "contract": "contracts/RewardDistributor.sol:RewardDistributor",
            "label": "rewardAccrued",
            "offset": 0,
            "slot": "2",
            "type": "t_uint256"
          }
        ],
        "numberOfBytes": "96"
      },
      "t_struct(RewardMarketState)23760_storage": {
        "encoding": "inplace",
        "label": "struct RewardMarketState",
        "members": [
          {
            "astId": 23744,
            "contract": "contracts/RewardDistributor.sol:RewardDistributor",
            "label": "supplySpeed",
            "offset": 0,
            "slot": "0",
            "type": "t_uint256"
          },
          {
            "astId": 23747,
            "contract": "contracts/RewardDistributor.sol:RewardDistributor",
            "label": "supplyIndex",
            "offset": 0,
            "slot": "1",
            "type": "t_uint224"
          },
          {
            "astId": 23750,
            "contract": "contracts/RewardDistributor.sol:RewardDistributor",
            "label": "supplyBlock",
            "offset": 28,
            "slot": "1",
            "type": "t_uint32"
          },
          {
            "astId": 23753,
            "contract": "contracts/RewardDistributor.sol:RewardDistributor",
            "label": "borrowSpeed",
            "offset": 0,
            "slot": "2",
            "type": "t_uint256"
          },
          {
            "astId": 23756,
            "contract": "contracts/RewardDistributor.sol:RewardDistributor",
            "label": "borrowIndex",
            "offset": 0,
            "slot": "3",
            "type": "t_uint224"
          },
          {
            "astId": 23759,
            "contract": "contracts/RewardDistributor.sol:RewardDistributor",
            "label": "borrowBlock",
            "offset": 28,
            "slot": "3",
            "type": "t_uint32"
          }
        ],
        "numberOfBytes": "128"
      },
      "t_uint224": {
        "encoding": "inplace",
        "label": "uint224",
        "numberOfBytes": "28"
      },
      "t_uint256": {
        "encoding": "inplace",
        "label": "uint256",
        "numberOfBytes": "32"
      },
      "t_uint32": {
        "encoding": "inplace",
        "label": "uint32",
        "numberOfBytes": "4"
      },
      "t_uint8": {
        "encoding": "inplace",
        "label": "uint8",
        "numberOfBytes": "1"
      }
    }
  }
}