{
  "address": "0x57500f01Cd240a745B35CafDbC3651061D5F7314",
  "abi": [
    {
      "inputs": [],
      "name": "AcceptAdminPendingAdminCheck",
      "type": "error"
    },
    {
      "inputs": [
        {
          "internalType": "uint256",
          "name": "actualAddAmount",
          "type": "uint256"
        }
      ],
      "name": "AddReservesFactorFreshCheck",
      "type": "error"
    },
    {
      "inputs": [],
      "name": "BorrowCashNotAvailable",
      "type": "error"
    },
    {
      "inputs": [
        {
          "internalType": "uint256",
          "name": "errorCode",
          "type": "uint256"
        }
      ],
      "name": "BorrowComptrollerRejection",
      "type": "error"
    },
    {
      "inputs": [],
      "name": "BorrowFreshnessCheck",
      "type": "error"
    },
    {
      "inputs": [
        {
          "internalType": "uint256",
          "name": "errorCode",
          "type": "uint256"
        }
      ],
      "name": "LiquidateAccrueBorrowInterestFailed",
      "type": "error"
    },
    {
      "inputs": [
        {
          "internalType": "uint256",
          "name": "errorCode",
          "type": "uint256"
        }
      ],
      "name": "LiquidateAccrueCollateralInterestFailed",
      "type": "error"
    },
    {
      "inputs": [],
      "name": "LiquidateCloseAmountIsUintMax",
      "type": "error"
    },
    {
      "inputs": [],
      "name": "LiquidateCloseAmountIsZero",
      "type": "error"
    },
    {
      "inputs": [],
      "name": "LiquidateCollateralFreshnessCheck",
      "type": "error"
    },
    {
      "inputs": [
        {
          "internalType": "uint256",
          "name": "errorCode",
          "type": "uint256"
        }
      ],
      "name": "LiquidateComptrollerRejection",
      "type": "error"
    },
    {
      "inputs": [],
      "name": "LiquidateFreshnessCheck",
      "type": "error"
    },
    {
      "inputs": [],
      "name": "LiquidateLiquidatorIsBorrower",
      "type": "error"
    },
    {
      "inputs": [
        {
          "internalType": "uint256",
          "name": "errorCode",
          "type": "uint256"
        }
      ],
      "name": "LiquidateRepayBorrowFreshFailed",
      "type": "error"
    },
    {
      "inputs": [
        {
          "internalType": "uint256",
          "name": "errorCode",
          "type": "uint256"
        }
      ],
      "name": "LiquidateSeizeComptrollerRejection",
      "type": "error"
    },
    {
      "inputs": [],
      "name": "LiquidateSeizeLiquidatorIsBorrower",
      "type": "error"
    },
    {
      "inputs": [
        {
          "internalType": "uint256",
          "name": "errorCode",
          "type": "uint256"
        }
      ],
      "name": "MintComptrollerRejection",
      "type": "error"
    },
    {
      "inputs": [],
      "name": "MintFreshnessCheck",
      "type": "error"
    },
    {
      "inputs": [
        {
          "internalType": "uint256",
          "name": "errorCode",
          "type": "uint256"
        }
      ],
      "name": "RedeemComptrollerRejection",
      "type": "error"
    },
    {
      "inputs": [],
      "name": "RedeemFreshnessCheck",
      "type": "error"
    },
    {
      "inputs": [],
      "name": "RedeemTransferOutNotPossible",
      "type": "error"
    },
    {
      "inputs": [],
      "name": "ReduceReservesAdminCheck",
      "type": "error"
    },
    {
      "inputs": [],
      "name": "ReduceReservesCashNotAvailable",
      "type": "error"
    },
    {
      "inputs": [],
      "name": "ReduceReservesCashValidation",
      "type": "error"
    },
    {
      "inputs": [],
      "name": "ReduceReservesFreshCheck",
      "type": "error"
    },
    {
      "inputs": [
        {
          "internalType": "uint256",
          "name": "errorCode",
          "type": "uint256"
        }
      ],
      "name": "RepayBorrowComptrollerRejection",
      "type": "error"
    },
    {
      "inputs": [],
      "name": "RepayBorrowFreshnessCheck",
      "type": "error"
    },
    {
      "inputs": [],
      "name": "SetComptrollerOwnerCheck",
      "type": "error"
    },
    {
      "inputs": [],
      "name": "SetInterestRateModelFreshCheck",
      "type": "error"
    },
    {
      "inputs": [],
      "name": "SetInterestRateModelOwnerCheck",
      "type": "error"
    },
    {
      "inputs": [],
      "name": "SetPendingAdminOwnerCheck",
      "type": "error"
    },
    {
      "inputs": [],
      "name": "SetReserveFactorAdminCheck",
      "type": "error"
    },
    {
      "inputs": [],
      "name": "SetReserveFactorBoundsCheck",
      "type": "error"
    },
    {
      "inputs": [],
      "name": "SetReserveFactorFreshCheck",
      "type": "error"
    },
    {
      "inputs": [],
      "name": "SetReserveGuardianOwnerCheck",
      "type": "error"
    },
    {
      "inputs": [
        {
          "internalType": "uint256",
          "name": "errorCode",
          "type": "uint256"
        }
      ],
      "name": "TransferComptrollerRejection",
      "type": "error"
    },
    {
      "inputs": [],
      "name": "TransferNotAllowed",
      "type": "error"
    },
    {
      "inputs": [],
      "name": "TransferNotEnough",
      "type": "error"
    },
    {
      "inputs": [],
      "name": "TransferTooMuch",
      "type": "error"
    },
    {
      "anonymous": false,
      "inputs": [
        {
          "indexed": false,
          "internalType": "uint256",
          "name": "cashPrior",
          "type": "uint256"
        },
        {
          "indexed": false,
          "internalType": "uint256",
          "name": "interestAccumulated",
          "type": "uint256"
        },
        {
          "indexed": false,
          "internalType": "uint256",
          "name": "borrowIndex",
          "type": "uint256"
        },
        {
          "indexed": false,
          "internalType": "uint256",
          "name": "totalBorrows",
          "type": "uint256"
        }
      ],
      "name": "AccrueInterest",
      "type": "event"
    },
    {
      "anonymous": false,
      "inputs": [
        {
          "indexed": true,
          "internalType": "address",
          "name": "owner",
          "type": "address"
        },
        {
          "indexed": true,
          "internalType": "address",
          "name": "spender",
          "type": "address"
        },
        {
          "indexed": false,
          "internalType": "uint256",
          "name": "amount",
          "type": "uint256"
        }
      ],
      "name": "Approval",
      "type": "event"
    },
    {
      "anonymous": false,
      "inputs": [
        {
          "indexed": false,
          "internalType": "address",
          "name": "borrower",
          "type": "address"
        },
        {
          "indexed": false,
          "internalType": "uint256",
          "name": "borrowAmount",
          "type": "uint256"
        },
        {
          "indexed": false,
          "internalType": "uint256",
          "name": "accountBorrows",
          "type": "uint256"
        },
        {
          "indexed": false,
          "internalType": "uint256",
          "name": "totalBorrows",
          "type": "uint256"
        }
      ],
      "name": "Borrow",
      "type": "event"
    },
    {
      "anonymous": false,
      "inputs": [
        {
          "indexed": false,
          "internalType": "uint8",
          "name": "version",
          "type": "uint8"
        }
      ],
      "name": "Initialized",
      "type": "event"
    },
    {
      "anonymous": false,
      "inputs": [
        {
          "indexed": false,
          "internalType": "address",
          "name": "liquidator",
          "type": "address"
        },
        {
          "indexed": false,
          "internalType": "address",
          "name": "borrower",
          "type": "address"
        },
        {
          "indexed": false,
          "internalType": "uint256",
          "name": "repayAmount",
          "type": "uint256"
        },
        {
          "indexed": false,
          "internalType": "address",
          "name": "cTokenCollateral",
          "type": "address"
        },
        {
          "indexed": false,
          "internalType": "uint256",
          "name": "seizeTokens",
          "type": "uint256"
        }
      ],
      "name": "LiquidateBorrow",
      "type": "event"
    },
    {
      "anonymous": false,
      "inputs": [
        {
          "indexed": false,
          "internalType": "address",
          "name": "minter",
          "type": "address"
        },
        {
          "indexed": false,
          "internalType": "uint256",
          "name": "mintAmount",
          "type": "uint256"
        },
        {
          "indexed": false,
          "internalType": "uint256",
          "name": "mintTokens",
          "type": "uint256"
        }
      ],
      "name": "Mint",
      "type": "event"
    },
    {
      "anonymous": false,
      "inputs": [
        {
          "indexed": false,
          "internalType": "address",
          "name": "oldAdmin",
          "type": "address"
        },
        {
          "indexed": false,
          "internalType": "address",
          "name": "newAdmin",
          "type": "address"
        }
      ],
      "name": "NewAdmin",
      "type": "event"
    },
    {
      "anonymous": false,
      "inputs": [
        {
          "indexed": false,
          "internalType": "contract ComptrollerInterface",
          "name": "oldComptroller",
          "type": "address"
        },
        {
          "indexed": false,
          "internalType": "contract ComptrollerInterface",
          "name": "newComptroller",
          "type": "address"
        }
      ],
      "name": "NewComptroller",
      "type": "event"
    },
    {
      "anonymous": false,
      "inputs": [
        {
          "indexed": false,
          "internalType": "contract InterestRateModel",
          "name": "oldInterestRateModel",
          "type": "address"
        },
        {
          "indexed": false,
          "internalType": "contract InterestRateModel",
          "name": "newInterestRateModel",
          "type": "address"
        }
      ],
      "name": "NewMarketInterestRateModel",
      "type": "event"
    },
    {
      "anonymous": false,
      "inputs": [
        {
          "indexed": false,
          "internalType": "address",
          "name": "oldPendingAdmin",
          "type": "address"
        },
        {
          "indexed": false,
          "internalType": "address",
          "name": "newPendingAdmin",
          "type": "address"
        }
      ],
      "name": "NewPendingAdmin",
      "type": "event"
    },
    {
      "anonymous": false,
      "inputs": [
        {
          "indexed": false,
          "internalType": "uint256",
          "name": "oldReserveFactorMantissa",
          "type": "uint256"
        },
        {
          "indexed": false,
          "internalType": "uint256",
          "name": "newReserveFactorMantissa",
          "type": "uint256"
        }
      ],
      "name": "NewReserveFactor",
      "type": "event"
    },
    {
      "anonymous": false,
      "inputs": [
        {
          "indexed": false,
          "internalType": "address",
          "name": "oldReserveGuardian",
          "type": "address"
        },
        {
          "indexed": false,
          "internalType": "address",
          "name": "newReserveGuardian",
          "type": "address"
        }
      ],
      "name": "NewReserveGuardian",
      "type": "event"
    },
    {
      "anonymous": false,
      "inputs": [
        {
          "indexed": false,
          "internalType": "address",
          "name": "redeemer",
          "type": "address"
        },
        {
          "indexed": false,
          "internalType": "uint256",
          "name": "redeemAmount",
          "type": "uint256"
        },
        {
          "indexed": false,
          "internalType": "uint256",
          "name": "redeemTokens",
          "type": "uint256"
        }
      ],
      "name": "Redeem",
      "type": "event"
    },
    {
      "anonymous": false,
      "inputs": [
        {
          "indexed": false,
          "internalType": "address",
          "name": "payer",
          "type": "address"
        },
        {
          "indexed": false,
          "internalType": "address",
          "name": "borrower",
          "type": "address"
        },
        {
          "indexed": false,
          "internalType": "uint256",
          "name": "repayAmount",
          "type": "uint256"
        },
        {
          "indexed": false,
          "internalType": "uint256",
          "name": "accountBorrows",
          "type": "uint256"
        },
        {
          "indexed": false,
          "internalType": "uint256",
          "name": "totalBorrows",
          "type": "uint256"
        }
      ],
      "name": "RepayBorrow",
      "type": "event"
    },
    {
      "anonymous": false,
      "inputs": [
        {
          "indexed": false,
          "internalType": "address",
          "name": "benefactor",
          "type": "address"
        },
        {
          "indexed": false,
          "internalType": "uint256",
          "name": "addAmount",
          "type": "uint256"
        },
        {
          "indexed": false,
          "internalType": "uint256",
          "name": "newTotalReserves",
          "type": "uint256"
        }
      ],
      "name": "ReservesAdded",
      "type": "event"
    },
    {
      "anonymous": false,
      "inputs": [
        {
          "indexed": false,
          "internalType": "address",
          "name": "admin",
          "type": "address"
        },
        {
          "indexed": false,
          "internalType": "uint256",
          "name": "reduceAmount",
          "type": "uint256"
        },
        {
          "indexed": false,
          "internalType": "uint256",
          "name": "newTotalReserves",
          "type": "uint256"
        }
      ],
      "name": "ReservesReduced",
      "type": "event"
    },
    {
      "anonymous": false,
      "inputs": [
        {
          "indexed": true,
          "internalType": "address",
          "name": "from",
          "type": "address"
        },
        {
          "indexed": true,
          "internalType": "address",
          "name": "to",
          "type": "address"
        },
        {
          "indexed": false,
          "internalType": "uint256",
          "name": "amount",
          "type": "uint256"
        }
      ],
      "name": "Transfer",
      "type": "event"
    },
    {
      "inputs": [],
      "name": "NO_ERROR",
      "outputs": [
        {
          "internalType": "uint256",
          "name": "",
          "type": "uint256"
        }
      ],
      "stateMutability": "view",
      "type": "function"
    },
    {
      "inputs": [],
      "name": "_acceptAdmin",
      "outputs": [
        {
          "internalType": "uint256",
          "name": "",
          "type": "uint256"
        }
      ],
      "stateMutability": "nonpayable",
      "type": "function"
    },
    {
      "inputs": [
        {
          "internalType": "uint256",
          "name": "addAmount",
          "type": "uint256"
        }
      ],
      "name": "_addReserves",
      "outputs": [
        {
          "internalType": "uint256",
          "name": "",
          "type": "uint256"
        }
      ],
      "stateMutability": "nonpayable",
      "type": "function"
    },
    {
      "inputs": [
        {
          "internalType": "address",
          "name": "compLikeDelegatee",
          "type": "address"
        }
      ],
      "name": "_delegateCompLikeTo",
      "outputs": [],
      "stateMutability": "nonpayable",
      "type": "function"
    },
    {
      "inputs": [
        {
          "internalType": "uint256",
          "name": "reduceAmount",
          "type": "uint256"
        }
      ],
      "name": "_reduceReserves",
      "outputs": [
        {
          "internalType": "uint256",
          "name": "",
          "type": "uint256"
        }
      ],
      "stateMutability": "nonpayable",
      "type": "function"
    },
    {
      "inputs": [
        {
          "internalType": "contract ComptrollerInterface",
          "name": "newComptroller",
          "type": "address"
        }
      ],
      "name": "_setComptroller",
      "outputs": [
        {
          "internalType": "uint256",
          "name": "",
          "type": "uint256"
        }
      ],
      "stateMutability": "nonpayable",
      "type": "function"
    },
    {
      "inputs": [
        {
          "internalType": "contract InterestRateModel",
          "name": "newInterestRateModel",
          "type": "address"
        }
      ],
      "name": "_setInterestRateModel",
      "outputs": [
        {
          "internalType": "uint256",
          "name": "",
          "type": "uint256"
        }
      ],
      "stateMutability": "nonpayable",
      "type": "function"
    },
    {
      "inputs": [
        {
          "internalType": "address payable",
          "name": "newPendingAdmin",
          "type": "address"
        }
      ],
      "name": "_setPendingAdmin",
      "outputs": [
        {
          "internalType": "uint256",
          "name": "",
          "type": "uint256"
        }
      ],
      "stateMutability": "nonpayable",
      "type": "function"
    },
    {
      "inputs": [
        {
          "internalType": "uint256",
          "name": "newReserveFactorMantissa",
          "type": "uint256"
        }
      ],
      "name": "_setReserveFactor",
      "outputs": [
        {
          "internalType": "uint256",
          "name": "",
          "type": "uint256"
        }
      ],
      "stateMutability": "nonpayable",
      "type": "function"
    },
    {
      "inputs": [
        {
          "internalType": "address payable",
          "name": "newReserveGuardian",
          "type": "address"
        }
      ],
      "name": "_setReserveGuardian",
      "outputs": [
        {
          "internalType": "uint256",
          "name": "",
          "type": "uint256"
        }
      ],
      "stateMutability": "nonpayable",
      "type": "function"
    },
    {
      "inputs": [],
      "name": "accrualBlockNumber",
      "outputs": [
        {
          "internalType": "uint256",
          "name": "",
          "type": "uint256"
        }
      ],
      "stateMutability": "view",
      "type": "function"
    },
    {
      "inputs": [],
      "name": "accrueInterest",
      "outputs": [
        {
          "internalType": "uint256",
          "name": "",
          "type": "uint256"
        }
      ],
      "stateMutability": "nonpayable",
      "type": "function"
    },
    {
      "inputs": [],
      "name": "admin",
      "outputs": [
        {
          "internalType": "address payable",
          "name": "",
          "type": "address"
        }
      ],
      "stateMutability": "view",
      "type": "function"
    },
    {
      "inputs": [
        {
          "internalType": "address",
          "name": "owner",
          "type": "address"
        },
        {
          "internalType": "address",
          "name": "spender",
          "type": "address"
        }
      ],
      "name": "allowance",
      "outputs": [
        {
          "internalType": "uint256",
          "name": "",
          "type": "uint256"
        }
      ],
      "stateMutability": "view",
      "type": "function"
    },
    {
      "inputs": [
        {
          "internalType": "address",
          "name": "spender",
          "type": "address"
        },
        {
          "internalType": "uint256",
          "name": "amount",
          "type": "uint256"
        }
      ],
      "name": "approve",
      "outputs": [
        {
          "internalType": "bool",
          "name": "",
          "type": "bool"
        }
      ],
      "stateMutability": "nonpayable",
      "type": "function"
    },
    {
      "inputs": [
        {
          "internalType": "address",
          "name": "owner",
          "type": "address"
        }
      ],
      "name": "balanceOf",
      "outputs": [
        {
          "internalType": "uint256",
          "name": "",
          "type": "uint256"
        }
      ],
      "stateMutability": "view",
      "type": "function"
    },
    {
      "inputs": [
        {
          "internalType": "address",
          "name": "owner",
          "type": "address"
        }
      ],
      "name": "balanceOfUnderlying",
      "outputs": [
        {
          "internalType": "uint256",
          "name": "",
          "type": "uint256"
        }
      ],
      "stateMutability": "nonpayable",
      "type": "function"
    },
    {
      "inputs": [
        {
          "internalType": "uint256",
          "name": "borrowAmount",
          "type": "uint256"
        }
      ],
      "name": "borrow",
      "outputs": [
        {
          "internalType": "uint256",
          "name": "",
          "type": "uint256"
        }
      ],
      "stateMutability": "nonpayable",
      "type": "function"
    },
    {
      "inputs": [
        {
          "internalType": "address",
          "name": "account",
          "type": "address"
        }
      ],
      "name": "borrowBalanceCurrent",
      "outputs": [
        {
          "internalType": "uint256",
          "name": "",
          "type": "uint256"
        }
      ],
      "stateMutability": "nonpayable",
      "type": "function"
    },
    {
      "inputs": [
        {
          "internalType": "address",
          "name": "account",
          "type": "address"
        }
      ],
      "name": "borrowBalanceStored",
      "outputs": [
        {
          "internalType": "uint256",
          "name": "",
          "type": "uint256"
        }
      ],
      "stateMutability": "view",
      "type": "function"
    },
    {
      "inputs": [],
      "name": "borrowIndex",
      "outputs": [
        {
          "internalType": "uint256",
          "name": "",
          "type": "uint256"
        }
      ],
      "stateMutability": "view",
      "type": "function"
    },
    {
      "inputs": [],
      "name": "borrowRatePerBlock",
      "outputs": [
        {
          "internalType": "uint256",
          "name": "",
          "type": "uint256"
        }
      ],
      "stateMutability": "view",
      "type": "function"
    },
    {
      "inputs": [],
      "name": "comptroller",
      "outputs": [
        {
          "internalType": "contract ComptrollerInterface",
          "name": "",
          "type": "address"
        }
      ],
      "stateMutability": "view",
      "type": "function"
    },
    {
      "inputs": [],
      "name": "decimals",
      "outputs": [
        {
          "internalType": "uint8",
          "name": "",
          "type": "uint8"
        }
      ],
      "stateMutability": "view",
      "type": "function"
    },
    {
      "inputs": [],
      "name": "exchangeRateCurrent",
      "outputs": [
        {
          "internalType": "uint256",
          "name": "",
          "type": "uint256"
        }
      ],
      "stateMutability": "nonpayable",
      "type": "function"
    },
    {
      "inputs": [],
      "name": "exchangeRateStored",
      "outputs": [
        {
          "internalType": "uint256",
          "name": "",
          "type": "uint256"
        }
      ],
      "stateMutability": "view",
      "type": "function"
    },
    {
      "inputs": [
        {
          "internalType": "address",
          "name": "account",
          "type": "address"
        }
      ],
      "name": "getAccountSnapshot",
      "outputs": [
        {
          "internalType": "uint256",
          "name": "",
          "type": "uint256"
        },
        {
          "internalType": "uint256",
          "name": "",
          "type": "uint256"
        },
        {
          "internalType": "uint256",
          "name": "",
          "type": "uint256"
        },
        {
          "internalType": "uint256",
          "name": "",
          "type": "uint256"
        }
      ],
      "stateMutability": "view",
      "type": "function"
    },
    {
      "inputs": [],
      "name": "getCash",
      "outputs": [
        {
          "internalType": "uint256",
          "name": "",
          "type": "uint256"
        }
      ],
      "stateMutability": "view",
      "type": "function"
    },
    {
      "inputs": [
        {
          "internalType": "address",
          "name": "underlying_",
          "type": "address"
        },
        {
          "internalType": "contract ComptrollerInterface",
          "name": "comptroller_",
          "type": "address"
        },
        {
          "internalType": "contract InterestRateModel",
          "name": "interestRateModel_",
          "type": "address"
        },
        {
          "internalType": "uint256",
          "name": "initialExchangeRateMantissa_",
          "type": "uint256"
        },
        {
          "internalType": "string",
          "name": "name_",
          "type": "string"
        },
        {
          "internalType": "string",
          "name": "symbol_",
          "type": "string"
        },
        {
          "internalType": "uint8",
          "name": "decimals_",
          "type": "uint8"
        }
      ],
      "name": "initialize",
      "outputs": [],
      "stateMutability": "nonpayable",
      "type": "function"
    },
    {
      "inputs": [
        {
          "internalType": "contract ComptrollerInterface",
          "name": "comptroller_",
          "type": "address"
        },
        {
          "internalType": "contract InterestRateModel",
          "name": "interestRateModel_",
          "type": "address"
        },
        {
          "internalType": "uint256",
          "name": "initialExchangeRateMantissa_",
          "type": "uint256"
        },
        {
          "internalType": "string",
          "name": "name_",
          "type": "string"
        },
        {
          "internalType": "string",
          "name": "symbol_",
          "type": "string"
        },
        {
          "internalType": "uint8",
          "name": "decimals_",
          "type": "uint8"
        }
      ],
      "name": "initialize",
      "outputs": [],
      "stateMutability": "nonpayable",
      "type": "function"
    },
    {
      "inputs": [],
      "name": "interestRateModel",
      "outputs": [
        {
          "internalType": "contract InterestRateModel",
          "name": "",
          "type": "address"
        }
      ],
      "stateMutability": "view",
      "type": "function"
    },
    {
      "inputs": [],
      "name": "isCToken",
      "outputs": [
        {
          "internalType": "bool",
          "name": "",
          "type": "bool"
        }
      ],
      "stateMutability": "view",
      "type": "function"
    },
    {
      "inputs": [
        {
          "internalType": "address",
          "name": "borrower",
          "type": "address"
        },
        {
          "internalType": "uint256",
          "name": "repayAmount",
          "type": "uint256"
        },
        {
          "internalType": "contract CTokenInterface",
          "name": "cTokenCollateral",
          "type": "address"
        }
      ],
      "name": "liquidateBorrow",
      "outputs": [
        {
          "internalType": "uint256",
          "name": "",
          "type": "uint256"
        }
      ],
      "stateMutability": "nonpayable",
      "type": "function"
    },
    {
      "inputs": [
        {
          "internalType": "uint256",
          "name": "mintAmount",
          "type": "uint256"
        }
      ],
      "name": "mint",
      "outputs": [
        {
          "internalType": "uint256",
          "name": "",
          "type": "uint256"
        }
      ],
      "stateMutability": "nonpayable",
      "type": "function"
    },
    {
      "inputs": [],
      "name": "name",
      "outputs": [
        {
          "internalType": "string",
          "name": "",
          "type": "string"
        }
      ],
      "stateMutability": "view",
      "type": "function"
    },
    {
      "inputs": [],
      "name": "pendingAdmin",
      "outputs": [
        {
          "internalType": "address payable",
          "name": "",
          "type": "address"
        }
      ],
      "stateMutability": "view",
      "type": "function"
    },
    {
      "inputs": [],
      "name": "protocolSeizeShareMantissa",
      "outputs": [
        {
          "internalType": "uint256",
          "name": "",
          "type": "uint256"
        }
      ],
      "stateMutability": "view",
      "type": "function"
    },
    {
      "inputs": [
        {
          "internalType": "address",
          "name": "underlying_",
          "type": "address"
        },
        {
          "internalType": "contract ComptrollerInterface",
          "name": "comptroller_",
          "type": "address"
        },
        {
          "internalType": "contract InterestRateModel",
          "name": "interestRateModel_",
          "type": "address"
        },
        {
          "internalType": "uint256",
          "name": "initialExchangeRateMantissa_",
          "type": "uint256"
        },
        {
          "internalType": "string",
          "name": "name_",
          "type": "string"
        },
        {
          "internalType": "string",
          "name": "symbol_",
          "type": "string"
        },
        {
          "internalType": "uint8",
          "name": "decimals_",
          "type": "uint8"
        },
        {
          "internalType": "address payable",
          "name": "admin_",
          "type": "address"
        }
      ],
      "name": "proxyInitialize",
      "outputs": [],
      "stateMutability": "nonpayable",
      "type": "function"
    },
    {
      "inputs": [
        {
          "internalType": "uint256",
          "name": "redeemTokens",
          "type": "uint256"
        }
      ],
      "name": "redeem",
      "outputs": [
        {
          "internalType": "uint256",
          "name": "",
          "type": "uint256"
        }
      ],
      "stateMutability": "nonpayable",
      "type": "function"
    },
    {
      "inputs": [
        {
          "internalType": "uint256",
          "name": "redeemAmount",
          "type": "uint256"
        }
      ],
      "name": "redeemUnderlying",
      "outputs": [
        {
          "internalType": "uint256",
          "name": "",
          "type": "uint256"
        }
      ],
      "stateMutability": "nonpayable",
      "type": "function"
    },
    {
      "inputs": [
        {
          "internalType": "uint256",
          "name": "repayAmount",
          "type": "uint256"
        }
      ],
      "name": "repayBorrow",
      "outputs": [
        {
          "internalType": "uint256",
          "name": "",
          "type": "uint256"
        }
      ],
      "stateMutability": "nonpayable",
      "type": "function"
    },
    {
      "inputs": [
        {
          "internalType": "address",
          "name": "borrower",
          "type": "address"
        },
        {
          "internalType": "uint256",
          "name": "repayAmount",
          "type": "uint256"
        }
      ],
      "name": "repayBorrowBehalf",
      "outputs": [
        {
          "internalType": "uint256",
          "name": "",
          "type": "uint256"
        }
      ],
      "stateMutability": "nonpayable",
      "type": "function"
    },
    {
      "inputs": [],
      "name": "reserveFactorMantissa",
      "outputs": [
        {
          "internalType": "uint256",
          "name": "",
          "type": "uint256"
        }
      ],
      "stateMutability": "view",
      "type": "function"
    },
    {
      "inputs": [],
      "name": "reserveGuardian",
      "outputs": [
        {
          "internalType": "address payable",
          "name": "",
          "type": "address"
        }
      ],
      "stateMutability": "view",
      "type": "function"
    },
    {
      "inputs": [
        {
          "internalType": "address",
          "name": "liquidator",
          "type": "address"
        },
        {
          "internalType": "address",
          "name": "borrower",
          "type": "address"
        },
        {
          "internalType": "uint256",
          "name": "seizeTokens",
          "type": "uint256"
        }
      ],
      "name": "seize",
      "outputs": [
        {
          "internalType": "uint256",
          "name": "",
          "type": "uint256"
        }
      ],
      "stateMutability": "nonpayable",
      "type": "function"
    },
    {
      "inputs": [],
      "name": "supplyRatePerBlock",
      "outputs": [
        {
          "internalType": "uint256",
          "name": "",
          "type": "uint256"
        }
      ],
      "stateMutability": "view",
      "type": "function"
    },
    {
      "inputs": [
        {
          "internalType": "contract EIP20NonStandardInterface",
          "name": "token",
          "type": "address"
        }
      ],
      "name": "sweepToken",
      "outputs": [],
      "stateMutability": "nonpayable",
      "type": "function"
    },
    {
      "inputs": [],
      "name": "symbol",
      "outputs": [
        {
          "internalType": "string",
          "name": "",
          "type": "string"
        }
      ],
      "stateMutability": "view",
      "type": "function"
    },
    {
      "inputs": [],
      "name": "totalBorrows",
      "outputs": [
        {
          "internalType": "uint256",
          "name": "",
          "type": "uint256"
        }
      ],
      "stateMutability": "view",
      "type": "function"
    },
    {
      "inputs": [],
      "name": "totalBorrowsCurrent",
      "outputs": [
        {
          "internalType": "uint256",
          "name": "",
          "type": "uint256"
        }
      ],
      "stateMutability": "nonpayable",
      "type": "function"
    },
    {
      "inputs": [],
      "name": "totalReserves",
      "outputs": [
        {
          "internalType": "uint256",
          "name": "",
          "type": "uint256"
        }
      ],
      "stateMutability": "view",
      "type": "function"
    },
    {
      "inputs": [],
      "name": "totalSupply",
      "outputs": [
        {
          "internalType": "uint256",
          "name": "",
          "type": "uint256"
        }
      ],
      "stateMutability": "view",
      "type": "function"
    },
    {
      "inputs": [
        {
          "internalType": "address",
          "name": "dst",
          "type": "address"
        },
        {
          "internalType": "uint256",
          "name": "amount",
          "type": "uint256"
        }
      ],
      "name": "transfer",
      "outputs": [
        {
          "internalType": "bool",
          "name": "",
          "type": "bool"
        }
      ],
      "stateMutability": "nonpayable",
      "type": "function"
    },
    {
      "inputs": [
        {
          "internalType": "address",
          "name": "src",
          "type": "address"
        },
        {
          "internalType": "address",
          "name": "dst",
          "type": "address"
        },
        {
          "internalType": "uint256",
          "name": "amount",
          "type": "uint256"
        }
      ],
      "name": "transferFrom",
      "outputs": [
        {
          "internalType": "bool",
          "name": "",
          "type": "bool"
        }
      ],
      "stateMutability": "nonpayable",
      "type": "function"
    },
    {
      "inputs": [],
      "name": "underlying",
      "outputs": [
        {
          "internalType": "address",
          "name": "",
          "type": "address"
        }
      ],
      "stateMutability": "view",
      "type": "function"
    }
  ],
  "transactionHash": "0x55edf1882111903771a91362c938f0fdbd153e20da95a63ecb3df949a8468fe7",
  "args": [],
  "numDeployments": 1,
  "solcInputHash": "f89d9eea143e7ef0898256b603125d76",
  "bytecode": "0x608060405234801561001057600080fd5b50613e78806100206000396000f3fe608060405234801561001057600080fd5b506004361061035d5760003560e01c80637f1e06be116101d3578063bd6d894d11610104578063f2b3abbd116100a2578063f851a4401161007c578063f851a44014610732578063f8f9da281461074a578063fca7820b14610752578063fe9c44ae1461076557600080fd5b8063f2b3abbd146106f9578063f3fdb15a1461070c578063f5e3c4621461071f57600080fd5b8063c5ebeaec116100de578063c5ebeaec14610692578063db006a75146106a5578063dd62ed3e146106b8578063e9c714f2146106f157600080fd5b8063bd6d894d14610644578063c37f68e21461064c578063c39b127f1461067f57600080fd5b8063a6afed9511610171578063ae9d70b01161014b578063ae9d70b014610603578063b2a02ff11461060b578063b57a4a721461061e578063b71d1a0c1461063157600080fd5b8063a6afed95146105df578063a9059cbb146105e7578063aa5af0fd146105fa57600080fd5b806395d89b41116101ad57806395d89b411461059e57806395dd9193146105a657806399d8c1b4146105b9578063a0712d68146105cc57600080fd5b80637f1e06be1461056f578063852a12e3146105825780638f840ddd1461059557600080fd5b8063313ce567116102ad578063601a0bf11161024b5780636c540baf116102255780636c540baf146105225780636f307dc31461052b57806370a082311461053e57806373acee981461056757600080fd5b8063601a0bf1146104f95780636752e7021461050c57806369ab32501461051a57600080fd5b80633e941010116102875780633e941010146104b75780634576b5db146104ca57806347bd3718146104dd5780635fe3b567146104e657600080fd5b8063313ce5671461047d5780633af9e6691461049c5780633b1d21a2146104af57600080fd5b806318160ddd1161031a5780631be19560116102f45780631be195601461043157806323b872dd146104445780632608f81814610457578063267822471461046a57600080fd5b806318160ddd1461040b578063182df0f5146104145780631a31d4651461041c57600080fd5b806306fdde0314610362578063095ea7b3146103805780630d983cc6146103a35780630e752702146103ce578063173b9904146103ef57806317bfdfbc146103f8575b600080fd5b61036a61076d565b6040516103779190613738565b60405180910390f35b61039361038e36600461379e565b6107fb565b6040519015158152602001610377565b6011546103b6906001600160a01b031681565b6040516001600160a01b039091168152602001610377565b6103e16103dc3660046137ca565b61086b565b604051908152602001610377565b6103e160085481565b6103e16104063660046137e3565b61087e565b6103e1600d5481565b6103e16108e6565b61042f61042a3660046138b9565b6108f5565b005b61042f61043f3660046137e3565b61098a565b61039361045236600461396f565b610b56565b6103e161046536600461379e565b610bb2565b6004546103b6906001600160a01b031681565b60035461048a9060ff1681565b60405160ff9091168152602001610377565b6103e16104aa3660046137e3565b610bc7565b6103e1610c0d565b6103e16104c53660046137ca565b610c17565b6103e16104d83660046137e3565b610c22565b6103e1600b5481565b6005546103b6906001600160a01b031681565b6103e16105073660046137ca565b610d74565b6103e1666379da05b6000081565b6103e1600081565b6103e160095481565b6012546103b6906001600160a01b031681565b6103e161054c3660046137e3565b6001600160a01b03166000908152600e602052604090205490565b6103e1610dbb565b61042f61057d3660046137e3565b610e11565b6103e16105903660046137ca565b610ee8565b6103e1600c5481565b61036a610ef3565b6103e16105b43660046137e3565b610f00565b61042f6105c73660046139b0565b610f0b565b6103e16105da3660046137ca565b611160565b6103e161116b565b6103936105f536600461379e565b611357565b6103e1600a5481565b6103e16113b2565b6103e161061936600461396f565b61144a565b61042f61062c366004613a52565b6114a5565b6103e161063f3660046137e3565b6115fc565b6103e1611689565b61065f61065a3660046137e3565b6116e5565b604080519485526020850193909352918301526060820152608001610377565b6103e161068d3660046137e3565b611726565b6103e16106a03660046137ca565b6117b3565b6103e16106b33660046137ca565b6117be565b6103e16106c6366004613b1d565b6001600160a01b039182166000908152600f6020908152604080832093909416825291909152205490565b6103e16117c9565b6103e16107073660046137e3565b6118d0565b6006546103b6906001600160a01b031681565b6103e161072d366004613b56565b6118e4565b6003546103b69061010090046001600160a01b031681565b6103e16118fb565b6103e16107603660046137ca565b61194e565b610393600181565b6001805461077a90613b98565b80601f01602080910402602001604051908101604052809291908181526020018280546107a690613b98565b80156107f35780601f106107c8576101008083540402835291602001916107f3565b820191906000526020600020905b8154815290600101906020018083116107d657829003601f168201915b505050505081565b336000818152600f602090815260408083206001600160a01b03871680855292528083208590555191929182907f8c5be1e5ebec7d5bd14f71427d1e84f3dd0314c0f7b2291e5b200ac8c7c3b925906108579087815260200190565b60405180910390a360019150505b92915050565b600061087682611995565b506000919050565b6000805462010000900460ff166108b05760405162461bcd60e51b81526004016108a790613bd2565b60405180910390fd5b6000805462ff0000191690556108c461116b565b506108ce82610f00565b90506000805462ff0000191662010000179055919050565b60006108f06119f2565b905090565b610903868686868686610f0b565b601280546001600160a01b0319166001600160a01b038916908117909155604080516318160ddd60e01b815290516318160ddd916004808201926020929091908290030181865afa15801561095c573d6000803e3d6000fd5b505050506040513d601f19601f820116820180604052508101906109809190613bf6565b5050505050505050565b60035461010090046001600160a01b03163314610a015760405162461bcd60e51b815260206004820152602f60248201527f4345726332303a3a7377656570546f6b656e3a206f6e6c792061646d696e206360448201526e616e20737765657020746f6b656e7360881b60648201526084016108a7565b6012546001600160a01b0390811690821603610a7a5760405162461bcd60e51b815260206004820152603260248201527f4345726332303a3a7377656570546f6b656e3a2063616e206e6f74207377656560448201527138103ab73232b9363cb4b733903a37b5b2b760711b60648201526084016108a7565b6040516370a0823160e01b81523060048201526000906001600160a01b038316906370a0823190602401602060405180830381865afa158015610ac1573d6000803e3d6000fd5b505050506040513d601f19601f82011682018060405250810190610ae59190613bf6565b60035460405163a9059cbb60e01b81526001600160a01b03610100909204821660048201526024810183905291925083169063a9059cbb90604401600060405180830381600087803b158015610b3a57600080fd5b505af1158015610b4e573d6000803e3d6000fd5b505050505050565b6000805462010000900460ff16610b7f5760405162461bcd60e51b81526004016108a790613bd2565b6000805462ff000019168155610b9733868686611a5a565b1490506000805462ff00001916620100001790559392505050565b6000610bbe8383611c86565b50600092915050565b6000806040518060200160405280610bdd611689565b90526001600160a01b0384166000908152600e6020526040902054909150610c06908290611ce4565b9392505050565b60006108f0611d04565b600061086582611d79565b60035460009061010090046001600160a01b03163314610c555760405163d219dc1f60e01b815260040160405180910390fd5b60055460408051623f1ee960e11b815290516001600160a01b0392831692851691627e3dd29160048083019260209291908290030181865afa158015610c9f573d6000803e3d6000fd5b505050506040513d601f19601f82011682018060405250810190610cc39190613c0f565b610d0f5760405162461bcd60e51b815260206004820152601c60248201527f6d61726b6572206d6574686f642072657475726e65642066616c73650000000060448201526064016108a7565b600580546001600160a01b0319166001600160a01b0385811691821790925560408051928416835260208301919091527f7ac369dbd14fa5ea3f473ed67cc9d598964a77501540ba6751eb0b3decf5870d91015b60405180910390a150600092915050565b6000805462010000900460ff16610d9d5760405162461bcd60e51b81526004016108a790613bd2565b6000805462ff000019169055610db161116b565b506108ce82611ddc565b6000805462010000900460ff16610de45760405162461bcd60e51b81526004016108a790613bd2565b6000805462ff000019169055610df861116b565b5050600b546000805462ff000019166201000017905590565b60035461010090046001600160a01b03163314610e865760405162461bcd60e51b815260206004820152602d60248201527f6f6e6c79207468652061646d696e206d6179207365742074686520636f6d702d60448201526c6c696b652064656c656761746560981b60648201526084016108a7565b6012546040516317066a5760e21b81526001600160a01b03838116600483015290911690635c19a95c90602401600060405180830381600087803b158015610ecd57600080fd5b505af1158015610ee1573d6000803e3d6000fd5b5050505050565b600061087682611efe565b6002805461077a90613b98565b600061086582611f5b565b60035461010090046001600160a01b03163314610f765760405162461bcd60e51b8152602060048201526024808201527f6f6e6c792061646d696e206d617920696e697469616c697a6520746865206d616044820152631c9ad95d60e21b60648201526084016108a7565b600954158015610f865750600a54155b610fde5760405162461bcd60e51b815260206004820152602360248201527f6d61726b6574206d6179206f6e6c7920626520696e697469616c697a6564206f6044820152626e636560e81b60648201526084016108a7565b6007849055836110495760405162461bcd60e51b815260206004820152603060248201527f696e697469616c2065786368616e67652072617465206d75737420626520677260448201526f32b0ba32b9103a3430b7103d32b9379760811b60648201526084016108a7565b600061105487610c22565b905080156110a45760405162461bcd60e51b815260206004820152601a60248201527f73657474696e6720636f6d7074726f6c6c6572206661696c656400000000000060448201526064016108a7565b42600955670de0b6b3a7640000600a556110bd86611fa7565b905080156111185760405162461bcd60e51b815260206004820152602260248201527f73657474696e6720696e7465726573742072617465206d6f64656c206661696c604482015261195960f21b60648201526084016108a7565b60016111248582613c7c565b5060026111318482613c7c565b50506003805460ff90921660ff1990921691909117905550506000805462ff0000191662010000179055505050565b60006108768261211c565b60095460009042908181036111835760009250505090565b600061118d611d04565b600b54600c54600a546006546040516315f2405360e01b81526004810186905260248101859052604481018490529495509293919290916000916001600160a01b0316906315f2405390606401602060405180830381865afa1580156111f7573d6000803e3d6000fd5b505050506040513d601f19601f8201168201806040525081019061121b9190613bf6565b905064746a5288008111156112725760405162461bcd60e51b815260206004820152601c60248201527f626f72726f772072617465206973206162737572646c7920686967680000000060448201526064016108a7565b600061127e8789613d52565b9050600061129a60405180602001604052808581525083612163565b905060006112a88288611ce4565b905060006112b68883613d65565b905060006112d56040518060200160405280600854815250848a612194565b905060006112e485898a612194565b60098e9055600a819055600b849055600c839055604080518d815260208101879052908101829052606081018590529091507f4dec04e750ca11537cabcd8a9eab06494de08da3735bc8871cd41250e190bc049060800160405180910390a160009d505050505050505050505050505090565b6000805462010000900460ff166113805760405162461bcd60e51b81526004016108a790613bd2565b6000805462ff00001916815561139833808686611a5a565b1490506000805462ff000019166201000017905592915050565b6006546000906001600160a01b031663b81688166113ce611d04565b600b54600c546008546040516001600160e01b031960e087901b16815260048101949094526024840192909252604483015260648201526084015b602060405180830381865afa158015611426573d6000803e3d6000fd5b505050506040513d601f19601f820116820180604052508101906108f09190613bf6565b6000805462010000900460ff166114735760405162461bcd60e51b81526004016108a790613bd2565b6000805462ff00001916905561148b338585856121b5565b50600080805462ff00001916620100001790559392505050565b600054610100900460ff16158080156114c55750600054600160ff909116105b806114df5750303b1580156114df575060005460ff166001145b6115425760405162461bcd60e51b815260206004820152602e60248201527f496e697469616c697a61626c653a20636f6e747261637420697320616c72656160448201526d191e481a5b9a5d1a585b1a5e995960921b60648201526084016108a7565b6000805460ff191660011790558015611565576000805461ff0019166101001790555b60038054610100600160a81b031916336101000217905561158b898989898989896108f5565b60038054610100600160a81b0319166101006001600160a01b0385160217905580156115f1576000805461ff0019169055604051600181527f7f26b83ff96e1f2b6a682f133852f6798a09c465da95921460cefb38474024989060200160405180910390a15b505050505050505050565b60035460009061010090046001600160a01b0316331461162f57604051635cb56c2b60e01b815260040160405180910390fd5b600480546001600160a01b038481166001600160a01b031983168117909355604080519190921680825260208201939093527fca4f2f25d0898edd99413412fb94012f9e54ec8142f9b093e7720646a95b16a99101610d63565b6000805462010000900460ff166116b25760405162461bcd60e51b81526004016108a790613bd2565b6000805462ff0000191690556116c661116b565b506116cf6108e6565b90506000805462ff000019166201000017905590565b6001600160a01b0381166000908152600e6020526040812054819081908190819061170f87611f5b565b6117176119f2565b93509350935093509193509193565b60035460009061010090046001600160a01b0316331461175957604051632f7aaee760e01b815260040160405180910390fd5b601180546001600160a01b038481166001600160a01b031983168117909355604080519190921680825260208201939093527fe3f5272426aa3e70e583474d1155b19c7d9a5394147c40191dfaf32b792bc9789101610d63565b60006108768261242d565b600061087682612474565b6004546000906001600160a01b0316331415806117e4575033155b1561180257604051631ba24f2960e21b815260040160405180910390fd5b60038054600480546001600160a01b03808216610100818102610100600160a81b0319871617968790556001600160a01b031990931690935560408051948390048216808652929095041660208401529290917ff9ffabca9c8276e99321725bcb43fb076a6c66a54b7f21c4e8146d8519b417dc910160405180910390a1600454604080516001600160a01b03808516825290921660208301527fca4f2f25d0898edd99413412fb94012f9e54ec8142f9b093e7720646a95b16a9910160405180910390a160009250505090565b60006118da61116b565b5061086582611fa7565b60006118f18484846124bd565b5060009392505050565b6006546000906001600160a01b03166315f24053611917611d04565b600b54600c546040516001600160e01b031960e086901b168152600481019390935260248301919091526044820152606401611409565b6000805462010000900460ff166119775760405162461bcd60e51b81526004016108a790613bd2565b6000805462ff00001916905561198b61116b565b506108ce826125a7565b60005462010000900460ff166119bd5760405162461bcd60e51b81526004016108a790613bd2565b6000805462ff0000191690556119d161116b565b506119dd333383612663565b50506000805462ff0000191662010000179055565b600d54600090808203611a0757505060075490565b6000611a11611d04565b90506000600c54600b5483611a269190613d65565b611a309190613d52565b9050600083611a47670de0b6b3a764000084613d78565b611a519190613d97565b95945050505050565b6005546040516317b9b84b60e31b81523060048201526001600160a01b038581166024830152848116604483015260648201849052600092839291169063bdcdc258906084016020604051808303816000875af1158015611abf573d6000803e3d6000fd5b505050506040513d601f19601f82011682018060405250810190611ae39190613bf6565b90508015611b075760405163089d427760e11b8152600481018290526024016108a7565b836001600160a01b0316856001600160a01b031603611b3957604051638cd22d1960e01b815260040160405180910390fd5b6000856001600160a01b0316876001600160a01b031603611b5d5750600019611b85565b506001600160a01b038086166000908152600f60209081526040808320938a16835292905220545b6000611b918583613d52565b6001600160a01b0388166000908152600e602052604081205491925090611bb9908790613d52565b6001600160a01b0388166000908152600e602052604081205491925090611be1908890613d65565b6001600160a01b03808b166000908152600e6020526040808220869055918b1681522081905590506000198414611c3b576001600160a01b03808a166000908152600f60209081526040808320938e168352929052208390555b876001600160a01b0316896001600160a01b0316600080516020613e2383398151915289604051611c6e91815260200190565b60405180910390a35060009998505050505050505050565b60005462010000900460ff16611cae5760405162461bcd60e51b81526004016108a790613bd2565b6000805462ff000019169055611cc261116b565b50611cce338383612663565b50506000805462ff000019166201000017905550565b600080611cf18484612163565b9050611cfc8161280c565b949350505050565b6012546040516370a0823160e01b81523060048201526000916001600160a01b03169081906370a0823190602401602060405180830381865afa158015611d4f573d6000803e3d6000fd5b505050506040513d601f19601f82011682018060405250810190611d739190613bf6565b91505090565b6000805462010000900460ff16611da25760405162461bcd60e51b81526004016108a790613bd2565b6000805462ff000019169055611db661116b565b50611dc082612824565b5050600090506000805462ff0000191662010000179055919050565b600354600090819061010090046001600160a01b03163314801590611e0c57506011546001600160a01b03163314155b15611e2a57604051630f7e5e6d60e41b815260040160405180910390fd5b4260095414611e4c57604051630dff50cb60e41b815260040160405180910390fd5b82611e55611d04565b1015611e7457604051633345e99960e01b815260040160405180910390fd5b600c54831115611e97576040516378d2980560e11b815260040160405180910390fd5b82600c54611ea59190613d52565b600c8190559050611eb633846128b8565b7f3bad0c59cf2f06e7314077049f48a93578cd16f5ef92329f1dab1420a99c177e600360019054906101000a90046001600160a01b03168483604051610d6393929190613db9565b60005462010000900460ff16611f265760405162461bcd60e51b81526004016108a790613bd2565b6000805462ff000019169055611f3a61116b565b50611f47336000836129a2565b506000805462ff0000191662010000179055565b6001600160a01b038116600090815260106020526040812080548203611f845750600092915050565b600a548154600091611f9591613d78565b9050816001015481611cfc9190613d97565b600354600090819061010090046001600160a01b03163314611fdc5760405163407fded560e01b815260040160405180910390fd5b4260095414611ffe57604051630be2a5cb60e11b815260040160405180910390fd5b600660009054906101000a90046001600160a01b03169050826001600160a01b0316632191f92a6040518163ffffffff1660e01b8152600401602060405180830381865afa158015612054573d6000803e3d6000fd5b505050506040513d601f19601f820116820180604052508101906120789190613c0f565b6120c45760405162461bcd60e51b815260206004820152601c60248201527f6d61726b6572206d6574686f642072657475726e65642066616c73650000000060448201526064016108a7565b600680546001600160a01b0319166001600160a01b0385811691821790925560408051928416835260208301919091527fedffc32e068c7c95dfd4bdfd5c4d939a084d6b11c4199eac8436ed234d72f9269101610d63565b60005462010000900460ff166121445760405162461bcd60e51b81526004016108a790613bd2565b6000805462ff00001916905561215861116b565b50611f473382612c7f565b604080516020810190915260008152604051806020016040528061218b856000015185612ea8565b90529392505050565b6000806121a18585612163565b9050611a516121af8261280c565b84612eb4565b60055460405163d02f735160e01b81523060048201526001600160a01b0386811660248301528581166044830152848116606483015260848201849052600092169063d02f73519060a4016020604051808303816000875af115801561221f573d6000803e3d6000fd5b505050506040513d601f19601f820116820180604052508101906122439190613bf6565b90508015612267576040516363e00e3360e11b8152600481018290526024016108a7565b836001600160a01b0316836001600160a01b03160361229957604051633a94626760e11b815260040160405180910390fd5b60006122ba836040518060200160405280666379da05b60000815250612ec0565b905060006122c88285613d52565b9050600060405180602001604052806122df6119f2565b9052905060006122ef8285611ce4565b9050600081600c546123019190613d65565b600c819055600d54909150612317908690613d52565b600d556001600160a01b0388166000908152600e602052604090205461233e908890613d52565b6001600160a01b03808a166000908152600e602052604080822093909355908b168152205461236e908590613d65565b6001600160a01b03808b166000818152600e602052604090819020939093559151908a1690600080516020613e23833981519152906123b09088815260200190565b60405180910390a360405185815230906001600160a01b038a1690600080516020613e238339815191529060200160405180910390a37fa91e67c5ea634cd43a12c5a482724b03de01e85ca68702a53d0c2f45cb7c1dc530838360405161241993929190613db9565b60405180910390a150505050505050505050565b60005462010000900460ff166124555760405162461bcd60e51b81526004016108a790613bd2565b6000805462ff00001916905561246961116b565b50611f473382612ee3565b60005462010000900460ff1661249c5760405162461bcd60e51b81526004016108a790613bd2565b6000805462ff0000191690556124b061116b565b50611f47338260006129a2565b60005462010000900460ff166124e55760405162461bcd60e51b81526004016108a790613bd2565b6000805462ff0000191690556124f961116b565b506000816001600160a01b031663a6afed956040518163ffffffff1660e01b81526004016020604051808303816000875af115801561253c573d6000803e3d6000fd5b505050506040513d601f19601f820116820180604052508101906125609190613bf6565b9050801561258457604051633eea49b760e11b8152600481018290526024016108a7565b61259033858585613082565b50506000805462ff00001916620100001790555050565b60035460009061010090046001600160a01b031633146125da57604051631205b57b60e11b815260040160405180910390fd5b42600954146125fc57604051637dfca6b760e11b815260040160405180910390fd5b670de0b6b3a76400008211156126255760405163717220f360e11b815260040160405180910390fd5b600880549083905560408051828152602081018590527faaa68312e2ea9d50e16af5068410ab56e1a1fd06037b1a35664812c30f8214609101610d63565b600554604051631200453160e11b81523060048201526001600160a01b03858116602483015284811660448301526064820184905260009283929116906324008a62906084016020604051808303816000875af11580156126c8573d6000803e3d6000fd5b505050506040513d601f19601f820116820180604052508101906126ec9190613bf6565b9050801561271057604051638c81362d60e01b8152600481018290526024016108a7565b42600954146127325760405163c9021e2f60e01b815260040160405180910390fd5b600061273d85611f5b565b9050600060001985146127505784612752565b815b90506000612760888361353c565b9050600061276e8285613d52565b9050600082600b546127809190613d52565b6001600160a01b038a8116600081815260106020908152604091829020878155600a54600190910155600b8590558151938f168452830191909152810185905260608101849052608081018290529091507f1a2a22cb034d26d1854bdc6666a5b91fe25efbbb5dcad3b0355478d6f5c362a19060a00160405180910390a1509098975050505050505050565b805160009061086590670de0b6b3a764000090613d97565b6000808080426009541461284e576040516338acf79960e01b8152600481018290526024016108a7565b612858338661353c565b905080600c546128689190613d65565b915081600c819055507fa91e67c5ea634cd43a12c5a482724b03de01e85ca68702a53d0c2f45cb7c1dc53382846040516128a493929190613db9565b60405180910390a160009590945092505050565b60125460405163a9059cbb60e01b81526001600160a01b0384811660048301526024820184905290911690819063a9059cbb90604401600060405180830381600087803b15801561290857600080fd5b505af115801561291c573d6000803e3d6000fd5b5050505060003d60008114612938576020811461294257600080fd5b600019915061294e565b60206000803e60005191505b508061299c5760405162461bcd60e51b815260206004820152601960248201527f544f4b454e5f5452414e534645525f4f55545f4641494c45440000000000000060448201526064016108a7565b50505050565b8115806129ad575080155b612a165760405162461bcd60e51b815260206004820152603460248201527f6f6e65206f662072656465656d546f6b656e73496e206f722072656465656d416044820152736d6f756e74496e206d757374206265207a65726f60601b60648201526084016108a7565b60006040518060200160405280612a2b6119f2565b905290506000808415612a4c57849150612a458386611ce4565b9050612a5c565b612a568484613713565b91508390505b60055460405163eabe7d9160e01b81526000916001600160a01b03169063eabe7d9190612a919030908b908890600401613dda565b6020604051808303816000875af1158015612ab0573d6000803e3d6000fd5b505050506040513d601f19601f82011682018060405250810190612ad49190613bf6565b90508015612af85760405163480f424760e01b8152600481018290526024016108a7565b4260095414612b1a576040516397b5cfcd60e01b815260040160405180910390fd5b81612b23611d04565b1015612b42576040516391240a1b60e01b815260040160405180910390fd5b82600d54612b509190613d52565b600d556001600160a01b0387166000908152600e6020526040902054612b77908490613d52565b6001600160a01b0388166000908152600e6020526040902055612b9a87836128b8565b60405183815230906001600160a01b03891690600080516020613e238339815191529060200160405180910390a37fe5b754fb1abb7f01b499791d0b820ae3b6af3424ac1c59768edb53f4ec31a929878385604051612bfb93929190613db9565b60405180910390a16005546040516351dff98960e01b81523060048201526001600160a01b0389811660248301526044820185905260648201869052909116906351dff98990608401600060405180830381600087803b158015612c5e57600080fd5b505af1158015612c72573d6000803e3d6000fd5b5050505050505050505050565b600554604051634ef4c3e160e01b81526000916001600160a01b031690634ef4c3e190612cb490309087908790600401613dda565b6020604051808303816000875af1158015612cd3573d6000803e3d6000fd5b505050506040513d601f19601f82011682018060405250810190612cf79190613bf6565b90508015612d1b576040516349abd4fd60e01b8152600481018290526024016108a7565b4260095414612d3d576040516338d8859760e01b815260040160405180910390fd5b60006040518060200160405280612d526119f2565b905290506000612d62858561353c565b90506000612d708284613713565b905080600d54612d809190613d65565b600d556001600160a01b0386166000908152600e6020526040902054612da7908290613d65565b6001600160a01b0387166000908152600e60205260409081902091909155517f4c209b5fc8ad50758f13e2e1088ba56a560dff690a1c6fef26394f4c03821c4f90612df790889085908590613db9565b60405180910390a16040518181526001600160a01b038716903090600080516020613e238339815191529060200160405180910390a36005546040516341c728b960e01b81523060048201526001600160a01b0388811660248301526044820185905260648201849052909116906341c728b990608401600060405180830381600087803b158015612e8857600080fd5b505af1158015612e9c573d6000803e3d6000fd5b50505050505050505050565b6000610c068284613d78565b6000610c068284613d65565b6000670de0b6b3a7640000612ed9848460000151612ea8565b610c069190613d97565b60055460405163368f515360e21b81526000916001600160a01b03169063da3d454c90612f1890309087908790600401613dda565b6020604051808303816000875af1158015612f37573d6000803e3d6000fd5b505050506040513d601f19601f82011682018060405250810190612f5b9190613bf6565b90508015612f7f5760405163918db40f60e01b8152600481018290526024016108a7565b4260095414612fa157604051630e8d8c6160e21b815260040160405180910390fd5b81612faa611d04565b1015612fc9576040516348c2588160e01b815260040160405180910390fd5b6000612fd484611f5b565b90506000612fe28483613d65565b9050600084600b54612ff49190613d65565b6001600160a01b0387166000908152601060205260409020838155600a54600190910155600b819055905061302986866128b8565b604080516001600160a01b038816815260208101879052908101839052606081018290527f13ed6866d4e1ee6da46f845c46d7e54120883d75c5ea9a2dacc1c4ca8984ab809060800160405180910390a1505050505050565b600554604051632fe3f38f60e11b81523060048201526001600160a01b03838116602483015286811660448301528581166064830152608482018590526000921690635fc7e71e9060a4016020604051808303816000875af11580156130ec573d6000803e3d6000fd5b505050506040513d601f19601f820116820180604052508101906131109190613bf6565b9050801561313457604051630a14d17960e11b8152600481018290526024016108a7565b4260095414613156576040516380965b1b60e01b815260040160405180910390fd5b42826001600160a01b0316636c540baf6040518163ffffffff1660e01b8152600401602060405180830381865afa158015613195573d6000803e3d6000fd5b505050506040513d601f19601f820116820180604052508101906131b99190613bf6565b146131d757604051631046f38d60e31b815260040160405180910390fd5b846001600160a01b0316846001600160a01b03160361320957604051631bd1a62160e21b815260040160405180910390fd5b8260000361322a5760405163d29da7ef60e01b815260040160405180910390fd5b600019830361324c57604051635982c5bb60e11b815260040160405180910390fd5b6000613259868686612663565b60055460405163c488847b60e01b815291925060009182916001600160a01b03169063c488847b9061329390309089908890600401613dda565b6040805180830381865afa1580156132af573d6000803e3d6000fd5b505050506040513d601f19601f820116820180604052508101906132d39190613dfe565b91509150600082146133435760405162461bcd60e51b815260206004820152603360248201527f4c49515549444154455f434f4d5054524f4c4c45525f43414c43554c4154455f604482015272105353d5539517d4d152569157d19052531151606a1b60648201526084016108a7565b6040516370a0823160e01b81526001600160a01b0388811660048301528291908716906370a0823190602401602060405180830381865afa15801561338c573d6000803e3d6000fd5b505050506040513d601f19601f820116820180604052508101906133b09190613bf6565b10156133fe5760405162461bcd60e51b815260206004820152601860248201527f4c49515549444154455f5345495a455f544f4f5f4d554348000000000000000060448201526064016108a7565b306001600160a01b0386160361341f5761341a308989846121b5565b6134d9565b60405163b2a02ff160e01b81526000906001600160a01b0387169063b2a02ff190613452908c908c908790600401613dda565b6020604051808303816000875af1158015613471573d6000803e3d6000fd5b505050506040513d601f19601f820116820180604052508101906134959190613bf6565b146134d95760405162461bcd60e51b81526020600482015260146024820152731d1bdad95b881cd95a5e9d5c994819985a5b195960621b60448201526064016108a7565b604080516001600160a01b038a811682528981166020830152818301869052871660608201526080810183905290517f298637f684da70674f26509b10f07ec2fbc77a335ab1e7d6215a4b2484d8bb529181900360a00190a15050505050505050565b6012546040516370a0823160e01b81523060048201526000916001600160a01b0316908190839082906370a0823190602401602060405180830381865afa15801561358b573d6000803e3d6000fd5b505050506040513d601f19601f820116820180604052508101906135af9190613bf6565b6040516323b872dd60e01b81529091506001600160a01b038316906323b872dd906135e290899030908a90600401613dda565b600060405180830381600087803b1580156135fc57600080fd5b505af1158015613610573d6000803e3d6000fd5b5050505060003d6000811461362c576020811461363657600080fd5b6000199150613642565b60206000803e60005191505b50806136905760405162461bcd60e51b815260206004820152601860248201527f544f4b454e5f5452414e534645525f494e5f4641494c4544000000000000000060448201526064016108a7565b6040516370a0823160e01b81523060048201526000906001600160a01b038616906370a0823190602401602060405180830381865afa1580156136d7573d6000803e3d6000fd5b505050506040513d601f19601f820116820180604052508101906136fb9190613bf6565b90506137078382613d52565b98975050505050505050565b6000610c0661372a84670de0b6b3a7640000612ea8565b83516000610c068284613d97565b600060208083528351808285015260005b8181101561376557858101830151858201604001528201613749565b506000604082860101526040601f19601f8301168501019250505092915050565b6001600160a01b038116811461379b57600080fd5b50565b600080604083850312156137b157600080fd5b82356137bc81613786565b946020939093013593505050565b6000602082840312156137dc57600080fd5b5035919050565b6000602082840312156137f557600080fd5b8135610c0681613786565b634e487b7160e01b600052604160045260246000fd5b600082601f83011261382757600080fd5b813567ffffffffffffffff8082111561384257613842613800565b604051601f8301601f19908116603f0116810190828211818310171561386a5761386a613800565b8160405283815286602085880101111561388357600080fd5b836020870160208301376000602085830101528094505050505092915050565b803560ff811681146138b457600080fd5b919050565b600080600080600080600060e0888a0312156138d457600080fd5b87356138df81613786565b965060208801356138ef81613786565b955060408801356138ff81613786565b945060608801359350608088013567ffffffffffffffff8082111561392357600080fd5b61392f8b838c01613816565b945060a08a013591508082111561394557600080fd5b506139528a828b01613816565b92505061396160c089016138a3565b905092959891949750929550565b60008060006060848603121561398457600080fd5b833561398f81613786565b9250602084013561399f81613786565b929592945050506040919091013590565b60008060008060008060c087890312156139c957600080fd5b86356139d481613786565b955060208701356139e481613786565b945060408701359350606087013567ffffffffffffffff80821115613a0857600080fd5b613a148a838b01613816565b94506080890135915080821115613a2a57600080fd5b50613a3789828a01613816565b925050613a4660a088016138a3565b90509295509295509295565b600080600080600080600080610100898b031215613a6f57600080fd5b8835613a7a81613786565b97506020890135613a8a81613786565b96506040890135613a9a81613786565b955060608901359450608089013567ffffffffffffffff80821115613abe57600080fd5b613aca8c838d01613816565b955060a08b0135915080821115613ae057600080fd5b50613aed8b828c01613816565b935050613afc60c08a016138a3565b915060e0890135613b0c81613786565b809150509295985092959890939650565b60008060408385031215613b3057600080fd5b8235613b3b81613786565b91506020830135613b4b81613786565b809150509250929050565b600080600060608486031215613b6b57600080fd5b8335613b7681613786565b9250602084013591506040840135613b8d81613786565b809150509250925092565b600181811c90821680613bac57607f821691505b602082108103613bcc57634e487b7160e01b600052602260045260246000fd5b50919050565b6020808252600a90820152691c994b595b9d195c995960b21b604082015260600190565b600060208284031215613c0857600080fd5b5051919050565b600060208284031215613c2157600080fd5b81518015158114610c0657600080fd5b601f821115613c7757600081815260208120601f850160051c81016020861015613c585750805b601f850160051c820191505b81811015610b4e57828155600101613c64565b505050565b815167ffffffffffffffff811115613c9657613c96613800565b613caa81613ca48454613b98565b84613c31565b602080601f831160018114613cdf5760008415613cc75750858301515b600019600386901b1c1916600185901b178555610b4e565b600085815260208120601f198616915b82811015613d0e57888601518255948401946001909101908401613cef565b5085821015613d2c5787850151600019600388901b60f8161c191681555b5050505050600190811b01905550565b634e487b7160e01b600052601160045260246000fd5b8181038181111561086557610865613d3c565b8082018082111561086557610865613d3c565b6000816000190483118215151615613d9257613d92613d3c565b500290565b600082613db457634e487b7160e01b600052601260045260246000fd5b500490565b6001600160a01b039390931683526020830191909152604082015260600190565b6001600160a01b039384168152919092166020820152604081019190915260600190565b60008060408385031215613e1157600080fd5b50508051602090910151909290915056feddf252ad1be2c89b69c2b068fc378daa952ba7f163c4a11628f55a4df523b3efa26469706673582212209f7fdc45f02f6e9edfa0a8fe33f85789ce14682cb43ba2816b2ecee19e401db164736f6c63430008100033",
  "devdoc": {
    "kind": "dev",
    "methods": {
      "_acceptAdmin()": {
        "details": "Admin function for pending admin to accept role and update admin",
        "returns": {
          "_0": "uint 0=success, otherwise a failure (see ErrorReporter.sol for details)"
        }
      },
      "_addReserves(uint256)": {
        "params": {
          "addAmount": "The amount fo underlying token to add as reserves"
        },
        "returns": {
          "_0": "uint 0=success, otherwise a failure (see ErrorReporter.sol for details)"
        }
      },
      "_delegateCompLikeTo(address)": {
        "details": "CTokens whose underlying are not CompLike should revert here",
        "params": {
          "compLikeDelegatee": "The address to delegate votes to"
        }
      },
      "_reduceReserves(uint256)": {
        "params": {
          "reduceAmount": "Amount of reduction to reserves"
        },
        "returns": {
          "_0": "uint 0=success, otherwise a failure (see ErrorReporter.sol for details)"
        }
      },
      "_setComptroller(address)": {
        "details": "Admin function to set a new comptroller",
        "returns": {
          "_0": "uint 0=success, otherwise a failure (see ErrorReporter.sol for details)"
        }
      },
      "_setInterestRateModel(address)": {
        "details": "Admin function to accrue interest and update the interest rate model",
        "params": {
          "newInterestRateModel": "the new interest rate model to use"
        },
        "returns": {
          "_0": "uint 0=success, otherwise a failure (see ErrorReporter.sol for details)"
        }
      },
      "_setPendingAdmin(address)": {
        "details": "Admin function to begin change of admin. The newPendingAdmin must call `_acceptAdmin` to finalize the transfer.",
        "params": {
          "newPendingAdmin": "New pending admin."
        },
        "returns": {
          "_0": "uint 0=success, otherwise a failure (see ErrorReporter.sol for details)"
        }
      },
      "_setReserveFactor(uint256)": {
        "details": "Admin function to accrue interest and set a new reserve factor",
        "returns": {
          "_0": "uint 0=success, otherwise a failure (see ErrorReporter.sol for details)"
        }
      },
      "_setReserveGuardian(address)": {
        "params": {
          "newReserveGuardian": "New reserve guardian address"
        },
        "returns": {
          "_0": "uint 0=success, otherwise a failure (see ErrorReporter.sol for details)"
        }
      },
      "accrueInterest()": {
        "details": "This calculates interest accrued from the last checkpointed block   up to the current block and writes new checkpoint to storage."
      },
      "allowance(address,address)": {
        "params": {
          "owner": "The address of the account which owns the tokens to be spent",
          "spender": "The address of the account which may transfer tokens"
        },
        "returns": {
          "_0": "The number of tokens allowed to be spent (-1 means infinite)"
        }
      },
      "approve(address,uint256)": {
        "details": "This will overwrite the approval amount for `spender`  and is subject to issues noted [here](https://eips.ethereum.org/EIPS/eip-20#approve)",
        "params": {
          "amount": "The number of tokens that are approved (uint256.max means infinite)",
          "spender": "The address of the account which may transfer tokens"
        },
        "returns": {
          "_0": "Whether or not the approval succeeded"
        }
      },
      "balanceOf(address)": {
        "params": {
          "owner": "The address of the account to query"
        },
        "returns": {
          "_0": "The number of tokens owned by `owner`"
        }
      },
      "balanceOfUnderlying(address)": {
        "details": "This also accrues interest in a transaction",
        "params": {
          "owner": "The address of the account to query"
        },
        "returns": {
          "_0": "The amount of underlying owned by `owner`"
        }
      },
      "borrow(uint256)": {
        "params": {
          "borrowAmount": "The amount of the underlying asset to borrow"
        },
        "returns": {
          "_0": "uint 0=success, otherwise a failure (see ErrorReporter.sol for details)"
        }
      },
      "borrowBalanceCurrent(address)": {
        "params": {
          "account": "The address whose balance should be calculated after updating borrowIndex"
        },
        "returns": {
          "_0": "The calculated balance"
        }
      },
      "borrowBalanceStored(address)": {
        "params": {
          "account": "The address whose balance should be calculated"
        },
        "returns": {
          "_0": "The calculated balance"
        }
      },
      "borrowRatePerBlock()": {
        "returns": {
          "_0": "The borrow interest rate per block, scaled by 1e18"
        }
      },
      "exchangeRateCurrent()": {
        "returns": {
          "_0": "Calculated exchange rate scaled by 1e18"
        }
      },
      "exchangeRateStored()": {
        "details": "This function does not accrue interest before calculating the exchange rate",
        "returns": {
          "_0": "Calculated exchange rate scaled by 1e18"
        }
      },
      "getAccountSnapshot(address)": {
        "details": "This is used by comptroller to more efficiently perform liquidity checks.",
        "params": {
          "account": "Address of the account to snapshot"
        },
        "returns": {
          "_0": "(possible error, token balance, borrow balance, exchange rate mantissa)"
        }
      },
      "getCash()": {
        "returns": {
          "_0": "The quantity of underlying asset owned by this contract"
        }
      },
      "initialize(address,address,address,uint256,string,string,uint8)": {
        "params": {
          "comptroller_": "The address of the Comptroller",
          "decimals_": "ERC-20 decimal precision of this token",
          "initialExchangeRateMantissa_": "The initial exchange rate, scaled by 1e18",
          "interestRateModel_": "The address of the interest rate model",
          "name_": "ERC-20 name of this token",
          "symbol_": "ERC-20 symbol of this token",
          "underlying_": "The address of the underlying asset"
        }
      },
      "initialize(address,address,uint256,string,string,uint8)": {
        "params": {
          "comptroller_": "The address of the Comptroller",
          "decimals_": "EIP-20 decimal precision of this token",
          "initialExchangeRateMantissa_": "The initial exchange rate, scaled by 1e18",
          "interestRateModel_": "The address of the interest rate model",
          "name_": "EIP-20 name of this token",
          "symbol_": "EIP-20 symbol of this token"
        }
      },
      "liquidateBorrow(address,uint256,address)": {
        "params": {
          "borrower": "The borrower of this cToken to be liquidated",
          "cTokenCollateral": "The market in which to seize collateral from the borrower",
          "repayAmount": "The amount of the underlying borrowed asset to repay"
        },
        "returns": {
          "_0": "uint 0=success, otherwise a failure (see ErrorReporter.sol for details)"
        }
      },
      "mint(uint256)": {
        "details": "Accrues interest whether or not the operation succeeds, unless reverted",
        "params": {
          "mintAmount": "The amount of the underlying asset to supply"
        },
        "returns": {
          "_0": "uint 0=success, otherwise a failure (see ErrorReporter.sol for details)"
        }
      },
      "proxyInitialize(address,address,address,uint256,string,string,uint8,address)": {
        "params": {
          "comptroller_": "The address of the Comptroller",
          "decimals_": "ERC-20 decimal precision of this token",
          "initialExchangeRateMantissa_": "The initial exchange rate, scaled by 1e18",
          "interestRateModel_": "The address of the interest rate model",
          "name_": "ERC-20 name of this token",
          "symbol_": "ERC-20 symbol of this token",
          "underlying_": "The address of the underlying asset"
        }
      },
      "redeem(uint256)": {
        "details": "Accrues interest whether or not the operation succeeds, unless reverted",
        "params": {
          "redeemTokens": "The number of cTokens to redeem into underlying"
        },
        "returns": {
          "_0": "uint 0=success, otherwise a failure (see ErrorReporter.sol for details)"
        }
      },
      "redeemUnderlying(uint256)": {
        "details": "Accrues interest whether or not the operation succeeds, unless reverted",
        "params": {
          "redeemAmount": "The amount of underlying to redeem"
        },
        "returns": {
          "_0": "uint 0=success, otherwise a failure (see ErrorReporter.sol for details)"
        }
      },
      "repayBorrow(uint256)": {
        "params": {
          "repayAmount": "The amount to repay, or -1 for the full outstanding amount"
        },
        "returns": {
          "_0": "uint 0=success, otherwise a failure (see ErrorReporter.sol for details)"
        }
      },
      "repayBorrowBehalf(address,uint256)": {
        "params": {
          "borrower": "the account with the debt being payed off",
          "repayAmount": "The amount to repay, or -1 for the full outstanding amount"
        },
        "returns": {
          "_0": "uint 0=success, otherwise a failure (see ErrorReporter.sol for details)"
        }
      },
      "seize(address,address,uint256)": {
        "details": "Will fail unless called by another cToken during the process of liquidation.  Its absolutely critical to use msg.sender as the borrowed cToken and not a parameter.",
        "params": {
          "borrower": "The account having collateral seized",
          "liquidator": "The account receiving seized collateral",
          "seizeTokens": "The number of cTokens to seize"
        },
        "returns": {
          "_0": "uint 0=success, otherwise a failure (see ErrorReporter.sol for details)"
        }
      },
      "supplyRatePerBlock()": {
        "returns": {
          "_0": "The supply interest rate per block, scaled by 1e18"
        }
      },
      "sweepToken(address)": {
        "params": {
          "token": "The address of the ERC-20 token to sweep"
        }
      },
      "totalBorrowsCurrent()": {
        "returns": {
          "_0": "The total borrows with interest"
        }
      },
      "transfer(address,uint256)": {
        "params": {
          "amount": "The number of tokens to transfer",
          "dst": "The address of the destination account"
        },
        "returns": {
          "_0": "Whether or not the transfer succeeded"
        }
      },
      "transferFrom(address,address,uint256)": {
        "params": {
          "amount": "The number of tokens to transfer",
          "dst": "The address of the destination account",
          "src": "The address of the source account"
        },
        "returns": {
          "_0": "Whether or not the transfer succeeded"
        }
      }
    },
    "title": "CErc20Upgradable Contract",
    "version": 1
  },
  "userdoc": {
    "events": {
      "AccrueInterest(uint256,uint256,uint256,uint256)": {
        "notice": "Event emitted when interest is accrued"
      },
      "Approval(address,address,uint256)": {
        "notice": "EIP20 Approval event"
      },
      "Borrow(address,uint256,uint256,uint256)": {
        "notice": "Event emitted when underlying is borrowed"
      },
      "LiquidateBorrow(address,address,uint256,address,uint256)": {
        "notice": "Event emitted when a borrow is liquidated"
      },
      "Mint(address,uint256,uint256)": {
        "notice": "Event emitted when tokens are minted"
      },
      "NewAdmin(address,address)": {
        "notice": "Event emitted when pendingAdmin is accepted, which means admin is updated"
      },
      "NewComptroller(address,address)": {
        "notice": "Event emitted when comptroller is changed"
      },
      "NewMarketInterestRateModel(address,address)": {
        "notice": "Event emitted when interestRateModel is changed"
      },
      "NewPendingAdmin(address,address)": {
        "notice": "Event emitted when pendingAdmin is changed"
      },
      "NewReserveFactor(uint256,uint256)": {
        "notice": "Event emitted when the reserve factor is changed"
      },
      "NewReserveGuardian(address,address)": {
        "notice": "Event emitted when reserve guardian is changed"
      },
      "Redeem(address,uint256,uint256)": {
        "notice": "Event emitted when tokens are redeemed"
      },
      "RepayBorrow(address,address,uint256,uint256,uint256)": {
        "notice": "Event emitted when a borrow is repaid"
      },
      "ReservesAdded(address,uint256,uint256)": {
        "notice": "Event emitted when the reserves are added"
      },
      "ReservesReduced(address,uint256,uint256)": {
        "notice": "Event emitted when the reserves are reduced"
      },
      "Transfer(address,address,uint256)": {
        "notice": "EIP20 Transfer event"
      }
    },
    "kind": "user",
    "methods": {
      "_acceptAdmin()": {
        "notice": "Accepts transfer of admin rights. msg.sender must be pendingAdmin"
      },
      "_addReserves(uint256)": {
        "notice": "The sender adds to reserves."
      },
      "_delegateCompLikeTo(address)": {
        "notice": "Admin call to delegate the votes of the COMP-like underlying"
      },
      "_reduceReserves(uint256)": {
        "notice": "Accrues interest and reduces reserves by transferring to admin"
      },
      "_setComptroller(address)": {
        "notice": "Sets a new comptroller for the market"
      },
      "_setInterestRateModel(address)": {
        "notice": "accrues interest and updates the interest rate model using _setInterestRateModelFresh"
      },
      "_setPendingAdmin(address)": {
        "notice": "Begins transfer of admin rights. The newPendingAdmin must call `_acceptAdmin` to finalize the transfer."
      },
      "_setReserveFactor(uint256)": {
        "notice": "accrues interest and sets a new reserve factor for the protocol using _setReserveFactorFresh"
      },
      "_setReserveGuardian(address)": {
        "notice": "Admin function to set new reserve guardian"
      },
      "accrualBlockNumber()": {
        "notice": "Block number that interest was last accrued at"
      },
      "accrueInterest()": {
        "notice": "Applies accrued interest to total borrows and reserves"
      },
      "admin()": {
        "notice": "Administrator for this contract"
      },
      "allowance(address,address)": {
        "notice": "Get the current allowance from `owner` for `spender`"
      },
      "approve(address,uint256)": {
        "notice": "Approve `spender` to transfer up to `amount` from `src`"
      },
      "balanceOf(address)": {
        "notice": "Get the token balance of the `owner`"
      },
      "balanceOfUnderlying(address)": {
        "notice": "Get the underlying balance of the `owner`"
      },
      "borrow(uint256)": {
        "notice": "Sender borrows assets from the protocol to their own address"
      },
      "borrowBalanceCurrent(address)": {
        "notice": "Accrue interest to updated borrowIndex and then calculate account's borrow balance using the updated borrowIndex"
      },
      "borrowBalanceStored(address)": {
        "notice": "Return the borrow balance of account based on stored data"
      },
      "borrowIndex()": {
        "notice": "Accumulator of the total earned interest rate since the opening of the market"
      },
      "borrowRatePerBlock()": {
        "notice": "Returns the current per-block borrow interest rate for this cToken"
      },
      "comptroller()": {
        "notice": "Contract which oversees inter-cToken operations"
      },
      "decimals()": {
        "notice": "EIP-20 token decimals for this token"
      },
      "exchangeRateCurrent()": {
        "notice": "Accrue interest then return the up-to-date exchange rate"
      },
      "exchangeRateStored()": {
        "notice": "Calculates the exchange rate from the underlying to the CToken"
      },
      "getAccountSnapshot(address)": {
        "notice": "Get a snapshot of the account's balances, and the cached exchange rate"
      },
      "getCash()": {
        "notice": "Get cash balance of this cToken in the underlying asset"
      },
      "initialize(address,address,address,uint256,string,string,uint8)": {
        "notice": "Initialize the new money market"
      },
      "initialize(address,address,uint256,string,string,uint8)": {
        "notice": "Initialize the money market"
      },
      "interestRateModel()": {
        "notice": "Model which tells what the current interest rate should be"
      },
      "isCToken()": {
        "notice": "Indicator that this is a CToken contract (for inspection)"
      },
      "liquidateBorrow(address,uint256,address)": {
        "notice": "The sender liquidates the borrowers collateral.  The collateral seized is transferred to the liquidator."
      },
      "mint(uint256)": {
        "notice": "Sender supplies assets into the market and receives cTokens in exchange"
      },
      "name()": {
        "notice": "EIP-20 token name for this token"
      },
      "pendingAdmin()": {
        "notice": "Pending administrator for this contract"
      },
      "protocolSeizeShareMantissa()": {
        "notice": "Share of seized collateral that is added to reserves"
      },
      "proxyInitialize(address,address,address,uint256,string,string,uint8,address)": {
        "notice": "Initialize the new money market"
      },
      "redeem(uint256)": {
        "notice": "Sender redeems cTokens in exchange for the underlying asset"
      },
      "redeemUnderlying(uint256)": {
        "notice": "Sender redeems cTokens in exchange for a specified amount of underlying asset"
      },
      "repayBorrow(uint256)": {
        "notice": "Sender repays their own borrow"
      },
      "repayBorrowBehalf(address,uint256)": {
        "notice": "Sender repays a borrow belonging to borrower"
      },
      "reserveFactorMantissa()": {
        "notice": "Fraction of interest currently set aside for reserves"
      },
      "reserveGuardian()": {
        "notice": "The reserve guardian can reduce the reserves of the market"
      },
      "seize(address,address,uint256)": {
        "notice": "Transfers collateral tokens (this market) to the liquidator."
      },
      "supplyRatePerBlock()": {
        "notice": "Returns the current per-block supply interest rate for this cToken"
      },
      "sweepToken(address)": {
        "notice": "A public function to sweep accidental ERC-20 transfers to this contract. Tokens are sent to admin (timelock)"
      },
      "symbol()": {
        "notice": "EIP-20 token symbol for this token"
      },
      "totalBorrows()": {
        "notice": "Total amount of outstanding borrows of the underlying in this market"
      },
      "totalBorrowsCurrent()": {
        "notice": "Returns the current total borrows plus accrued interest"
      },
      "totalReserves()": {
        "notice": "Total amount of reserves of the underlying held in this market"
      },
      "totalSupply()": {
        "notice": "Total number of tokens in circulation"
      },
      "transfer(address,uint256)": {
        "notice": "Transfer `amount` tokens from `msg.sender` to `dst`"
      },
      "transferFrom(address,address,uint256)": {
        "notice": "Transfer `amount` tokens from `src` to `dst`"
      },
      "underlying()": {
        "notice": "Underlying asset for this CToken"
      }
    },
    "notice": "CTokens which wrap an EIP-20 underlying and are upgradeable",
    "version": 1
  },
  "storageLayout": {
    "storage": [
      {
        "astId": 138,
        "contract": "contracts/CErc20Upgradable.sol:CErc20Upgradable",
        "label": "_initialized",
        "offset": 0,
        "slot": "0",
        "type": "t_uint8"
      },
      {
        "astId": 141,
        "contract": "contracts/CErc20Upgradable.sol:CErc20Upgradable",
        "label": "_initializing",
        "offset": 1,
        "slot": "0",
        "type": "t_bool"
      },
      {
        "astId": 4727,
        "contract": "contracts/CErc20Upgradable.sol:CErc20Upgradable",
        "label": "_notEntered",
        "offset": 2,
        "slot": "0",
        "type": "t_bool"
      },
      {
        "astId": 4730,
        "contract": "contracts/CErc20Upgradable.sol:CErc20Upgradable",
        "label": "name",
        "offset": 0,
        "slot": "1",
        "type": "t_string_storage"
      },
      {
        "astId": 4733,
        "contract": "contracts/CErc20Upgradable.sol:CErc20Upgradable",
        "label": "symbol",
        "offset": 0,
        "slot": "2",
        "type": "t_string_storage"
      },
      {
        "astId": 4736,
        "contract": "contracts/CErc20Upgradable.sol:CErc20Upgradable",
        "label": "decimals",
        "offset": 0,
        "slot": "3",
        "type": "t_uint8"
      },
      {
        "astId": 4745,
        "contract": "contracts/CErc20Upgradable.sol:CErc20Upgradable",
        "label": "admin",
        "offset": 1,
        "slot": "3",
        "type": "t_address_payable"
      },
      {
        "astId": 4748,
        "contract": "contracts/CErc20Upgradable.sol:CErc20Upgradable",
        "label": "pendingAdmin",
        "offset": 0,
        "slot": "4",
        "type": "t_address_payable"
      },
      {
        "astId": 4752,
        "contract": "contracts/CErc20Upgradable.sol:CErc20Upgradable",
        "label": "comptroller",
        "offset": 0,
        "slot": "5",
        "type": "t_contract(ComptrollerInterface)8582"
      },
      {
        "astId": 4756,
        "contract": "contracts/CErc20Upgradable.sol:CErc20Upgradable",
        "label": "interestRateModel",
        "offset": 0,
        "slot": "6",
        "type": "t_contract(InterestRateModel)9718"
      },
      {
        "astId": 4758,
        "contract": "contracts/CErc20Upgradable.sol:CErc20Upgradable",
        "label": "initialExchangeRateMantissa",
        "offset": 0,
        "slot": "7",
        "type": "t_uint256"
      },
      {
        "astId": 4761,
        "contract": "contracts/CErc20Upgradable.sol:CErc20Upgradable",
        "label": "reserveFactorMantissa",
        "offset": 0,
        "slot": "8",
        "type": "t_uint256"
      },
      {
        "astId": 4764,
        "contract": "contracts/CErc20Upgradable.sol:CErc20Upgradable",
        "label": "accrualBlockNumber",
        "offset": 0,
        "slot": "9",
        "type": "t_uint256"
      },
      {
        "astId": 4767,
        "contract": "contracts/CErc20Upgradable.sol:CErc20Upgradable",
        "label": "borrowIndex",
        "offset": 0,
        "slot": "10",
        "type": "t_uint256"
      },
      {
        "astId": 4770,
        "contract": "contracts/CErc20Upgradable.sol:CErc20Upgradable",
        "label": "totalBorrows",
        "offset": 0,
        "slot": "11",
        "type": "t_uint256"
      },
      {
        "astId": 4773,
        "contract": "contracts/CErc20Upgradable.sol:CErc20Upgradable",
        "label": "totalReserves",
        "offset": 0,
        "slot": "12",
        "type": "t_uint256"
      },
      {
        "astId": 4776,
        "contract": "contracts/CErc20Upgradable.sol:CErc20Upgradable",
        "label": "totalSupply",
        "offset": 0,
        "slot": "13",
        "type": "t_uint256"
      },
      {
        "astId": 4780,
        "contract": "contracts/CErc20Upgradable.sol:CErc20Upgradable",
        "label": "accountTokens",
        "offset": 0,
        "slot": "14",
        "type": "t_mapping(t_address,t_uint256)"
      },
      {
        "astId": 4786,
        "contract": "contracts/CErc20Upgradable.sol:CErc20Upgradable",
        "label": "transferAllowances",
        "offset": 0,
        "slot": "15",
        "type": "t_mapping(t_address,t_mapping(t_address,t_uint256))"
      },
      {
        "astId": 4796,
        "contract": "contracts/CErc20Upgradable.sol:CErc20Upgradable",
        "label": "accountBorrows",
        "offset": 0,
        "slot": "16",
        "type": "t_mapping(t_address,t_struct(BorrowSnapshot)4791_storage)"
      },
      {
        "astId": 4803,
        "contract": "contracts/CErc20Upgradable.sol:CErc20Upgradable",
        "label": "reserveGuardian",
        "offset": 0,
        "slot": "17",
        "type": "t_address_payable"
      },
      {
        "astId": 5129,
        "contract": "contracts/CErc20Upgradable.sol:CErc20Upgradable",
        "label": "underlying",
        "offset": 0,
        "slot": "18",
        "type": "t_address"
      }
    ],
    "types": {
      "t_address": {
        "encoding": "inplace",
        "label": "address",
        "numberOfBytes": "20"
      },
      "t_address_payable": {
        "encoding": "inplace",
        "label": "address payable",
        "numberOfBytes": "20"
      },
      "t_bool": {
        "encoding": "inplace",
        "label": "bool",
        "numberOfBytes": "1"
      },
      "t_contract(ComptrollerInterface)8582": {
        "encoding": "inplace",
        "label": "contract ComptrollerInterface",
        "numberOfBytes": "20"
      },
      "t_contract(InterestRateModel)9718": {
        "encoding": "inplace",
        "label": "contract InterestRateModel",
        "numberOfBytes": "20"
      },
      "t_mapping(t_address,t_mapping(t_address,t_uint256))": {
        "encoding": "mapping",
        "key": "t_address",
        "label": "mapping(address => mapping(address => uint256))",
        "numberOfBytes": "32",
        "value": "t_mapping(t_address,t_uint256)"
      },
      "t_mapping(t_address,t_struct(BorrowSnapshot)4791_storage)": {
        "encoding": "mapping",
        "key": "t_address",
        "label": "mapping(address => struct CTokenStorage.BorrowSnapshot)",
        "numberOfBytes": "32",
        "value": "t_struct(BorrowSnapshot)4791_storage"
      },
      "t_mapping(t_address,t_uint256)": {
        "encoding": "mapping",
        "key": "t_address",
        "label": "mapping(address => uint256)",
        "numberOfBytes": "32",
        "value": "t_uint256"
      },
      "t_string_storage": {
        "encoding": "bytes",
        "label": "string",
        "numberOfBytes": "32"
      },
      "t_struct(BorrowSnapshot)4791_storage": {
        "encoding": "inplace",
        "label": "struct CTokenStorage.BorrowSnapshot",
        "members": [
          {
            "astId": 4788,
            "contract": "contracts/CErc20Upgradable.sol:CErc20Upgradable",
            "label": "principal",
            "offset": 0,
            "slot": "0",
            "type": "t_uint256"
          },
          {
            "astId": 4790,
            "contract": "contracts/CErc20Upgradable.sol:CErc20Upgradable",
            "label": "interestIndex",
            "offset": 0,
            "slot": "1",
            "type": "t_uint256"
          }
        ],
        "numberOfBytes": "64"
      },
      "t_uint256": {
        "encoding": "inplace",
        "label": "uint256",
        "numberOfBytes": "32"
      },
      "t_uint8": {
        "encoding": "inplace",
        "label": "uint8",
        "numberOfBytes": "1"
      }
    }
  }
}