{
  "address": "0xa3C72e8BC49baACb2e73c011D7D2902A7f844c76",
  "abi": [
    {
      "inputs": [],
      "name": "AcceptAdminPendingAdminCheck",
      "type": "error"
    },
    {
      "inputs": [
        {
          "internalType": "uint256",
          "name": "actualAddAmount",
          "type": "uint256"
        }
      ],
      "name": "AddReservesFactorFreshCheck",
      "type": "error"
    },
    {
      "inputs": [],
      "name": "BorrowCashNotAvailable",
      "type": "error"
    },
    {
      "inputs": [
        {
          "internalType": "uint256",
          "name": "errorCode",
          "type": "uint256"
        }
      ],
      "name": "BorrowComptrollerRejection",
      "type": "error"
    },
    {
      "inputs": [],
      "name": "BorrowFreshnessCheck",
      "type": "error"
    },
    {
      "inputs": [
        {
          "internalType": "uint256",
          "name": "errorCode",
          "type": "uint256"
        }
      ],
      "name": "LiquidateAccrueBorrowInterestFailed",
      "type": "error"
    },
    {
      "inputs": [
        {
          "internalType": "uint256",
          "name": "errorCode",
          "type": "uint256"
        }
      ],
      "name": "LiquidateAccrueCollateralInterestFailed",
      "type": "error"
    },
    {
      "inputs": [],
      "name": "LiquidateCloseAmountIsUintMax",
      "type": "error"
    },
    {
      "inputs": [],
      "name": "LiquidateCloseAmountIsZero",
      "type": "error"
    },
    {
      "inputs": [],
      "name": "LiquidateCollateralFreshnessCheck",
      "type": "error"
    },
    {
      "inputs": [
        {
          "internalType": "uint256",
          "name": "errorCode",
          "type": "uint256"
        }
      ],
      "name": "LiquidateComptrollerRejection",
      "type": "error"
    },
    {
      "inputs": [],
      "name": "LiquidateFreshnessCheck",
      "type": "error"
    },
    {
      "inputs": [],
      "name": "LiquidateLiquidatorIsBorrower",
      "type": "error"
    },
    {
      "inputs": [
        {
          "internalType": "uint256",
          "name": "errorCode",
          "type": "uint256"
        }
      ],
      "name": "LiquidateRepayBorrowFreshFailed",
      "type": "error"
    },
    {
      "inputs": [
        {
          "internalType": "uint256",
          "name": "errorCode",
          "type": "uint256"
        }
      ],
      "name": "LiquidateSeizeComptrollerRejection",
      "type": "error"
    },
    {
      "inputs": [],
      "name": "LiquidateSeizeLiquidatorIsBorrower",
      "type": "error"
    },
    {
      "inputs": [
        {
          "internalType": "uint256",
          "name": "errorCode",
          "type": "uint256"
        }
      ],
      "name": "MintComptrollerRejection",
      "type": "error"
    },
    {
      "inputs": [],
      "name": "MintFreshnessCheck",
      "type": "error"
    },
    {
      "inputs": [
        {
          "internalType": "uint256",
          "name": "errorCode",
          "type": "uint256"
        }
      ],
      "name": "RedeemComptrollerRejection",
      "type": "error"
    },
    {
      "inputs": [],
      "name": "RedeemFreshnessCheck",
      "type": "error"
    },
    {
      "inputs": [],
      "name": "RedeemTransferOutNotPossible",
      "type": "error"
    },
    {
      "inputs": [],
      "name": "ReduceReservesAdminCheck",
      "type": "error"
    },
    {
      "inputs": [],
      "name": "ReduceReservesCashNotAvailable",
      "type": "error"
    },
    {
      "inputs": [],
      "name": "ReduceReservesCashValidation",
      "type": "error"
    },
    {
      "inputs": [],
      "name": "ReduceReservesFreshCheck",
      "type": "error"
    },
    {
      "inputs": [
        {
          "internalType": "uint256",
          "name": "errorCode",
          "type": "uint256"
        }
      ],
      "name": "RepayBorrowComptrollerRejection",
      "type": "error"
    },
    {
      "inputs": [],
      "name": "RepayBorrowFreshnessCheck",
      "type": "error"
    },
    {
      "inputs": [],
      "name": "SetComptrollerOwnerCheck",
      "type": "error"
    },
    {
      "inputs": [],
      "name": "SetInterestRateModelFreshCheck",
      "type": "error"
    },
    {
      "inputs": [],
      "name": "SetInterestRateModelOwnerCheck",
      "type": "error"
    },
    {
      "inputs": [],
      "name": "SetPendingAdminOwnerCheck",
      "type": "error"
    },
    {
      "inputs": [],
      "name": "SetReserveFactorAdminCheck",
      "type": "error"
    },
    {
      "inputs": [],
      "name": "SetReserveFactorBoundsCheck",
      "type": "error"
    },
    {
      "inputs": [],
      "name": "SetReserveFactorFreshCheck",
      "type": "error"
    },
    {
      "inputs": [],
      "name": "SetReserveGuardianOwnerCheck",
      "type": "error"
    },
    {
      "inputs": [
        {
          "internalType": "uint256",
          "name": "errorCode",
          "type": "uint256"
        }
      ],
      "name": "TransferComptrollerRejection",
      "type": "error"
    },
    {
      "inputs": [],
      "name": "TransferNotAllowed",
      "type": "error"
    },
    {
      "inputs": [],
      "name": "TransferNotEnough",
      "type": "error"
    },
    {
      "inputs": [],
      "name": "TransferTooMuch",
      "type": "error"
    },
    {
      "anonymous": false,
      "inputs": [
        {
          "indexed": false,
          "internalType": "uint256",
          "name": "cashPrior",
          "type": "uint256"
        },
        {
          "indexed": false,
          "internalType": "uint256",
          "name": "interestAccumulated",
          "type": "uint256"
        },
        {
          "indexed": false,
          "internalType": "uint256",
          "name": "borrowIndex",
          "type": "uint256"
        },
        {
          "indexed": false,
          "internalType": "uint256",
          "name": "totalBorrows",
          "type": "uint256"
        }
      ],
      "name": "AccrueInterest",
      "type": "event"
    },
    {
      "anonymous": false,
      "inputs": [
        {
          "indexed": true,
          "internalType": "address",
          "name": "owner",
          "type": "address"
        },
        {
          "indexed": true,
          "internalType": "address",
          "name": "spender",
          "type": "address"
        },
        {
          "indexed": false,
          "internalType": "uint256",
          "name": "amount",
          "type": "uint256"
        }
      ],
      "name": "Approval",
      "type": "event"
    },
    {
      "anonymous": false,
      "inputs": [
        {
          "indexed": false,
          "internalType": "address",
          "name": "borrower",
          "type": "address"
        },
        {
          "indexed": false,
          "internalType": "uint256",
          "name": "borrowAmount",
          "type": "uint256"
        },
        {
          "indexed": false,
          "internalType": "uint256",
          "name": "accountBorrows",
          "type": "uint256"
        },
        {
          "indexed": false,
          "internalType": "uint256",
          "name": "totalBorrows",
          "type": "uint256"
        }
      ],
      "name": "Borrow",
      "type": "event"
    },
    {
      "anonymous": false,
      "inputs": [
        {
          "indexed": false,
          "internalType": "uint8",
          "name": "version",
          "type": "uint8"
        }
      ],
      "name": "Initialized",
      "type": "event"
    },
    {
      "anonymous": false,
      "inputs": [
        {
          "indexed": false,
          "internalType": "address",
          "name": "liquidator",
          "type": "address"
        },
        {
          "indexed": false,
          "internalType": "address",
          "name": "borrower",
          "type": "address"
        },
        {
          "indexed": false,
          "internalType": "uint256",
          "name": "repayAmount",
          "type": "uint256"
        },
        {
          "indexed": false,
          "internalType": "address",
          "name": "cTokenCollateral",
          "type": "address"
        },
        {
          "indexed": false,
          "internalType": "uint256",
          "name": "seizeTokens",
          "type": "uint256"
        }
      ],
      "name": "LiquidateBorrow",
      "type": "event"
    },
    {
      "anonymous": false,
      "inputs": [
        {
          "indexed": false,
          "internalType": "address",
          "name": "minter",
          "type": "address"
        },
        {
          "indexed": false,
          "internalType": "uint256",
          "name": "mintAmount",
          "type": "uint256"
        },
        {
          "indexed": false,
          "internalType": "uint256",
          "name": "mintTokens",
          "type": "uint256"
        }
      ],
      "name": "Mint",
      "type": "event"
    },
    {
      "anonymous": false,
      "inputs": [
        {
          "indexed": false,
          "internalType": "address",
          "name": "oldAdmin",
          "type": "address"
        },
        {
          "indexed": false,
          "internalType": "address",
          "name": "newAdmin",
          "type": "address"
        }
      ],
      "name": "NewAdmin",
      "type": "event"
    },
    {
      "anonymous": false,
      "inputs": [
        {
          "indexed": false,
          "internalType": "contract ComptrollerInterface",
          "name": "oldComptroller",
          "type": "address"
        },
        {
          "indexed": false,
          "internalType": "contract ComptrollerInterface",
          "name": "newComptroller",
          "type": "address"
        }
      ],
      "name": "NewComptroller",
      "type": "event"
    },
    {
      "anonymous": false,
      "inputs": [
        {
          "indexed": false,
          "internalType": "contract InterestRateModel",
          "name": "oldInterestRateModel",
          "type": "address"
        },
        {
          "indexed": false,
          "internalType": "contract InterestRateModel",
          "name": "newInterestRateModel",
          "type": "address"
        }
      ],
      "name": "NewMarketInterestRateModel",
      "type": "event"
    },
    {
      "anonymous": false,
      "inputs": [
        {
          "indexed": false,
          "internalType": "address",
          "name": "oldPendingAdmin",
          "type": "address"
        },
        {
          "indexed": false,
          "internalType": "address",
          "name": "newPendingAdmin",
          "type": "address"
        }
      ],
      "name": "NewPendingAdmin",
      "type": "event"
    },
    {
      "anonymous": false,
      "inputs": [
        {
          "indexed": false,
          "internalType": "uint256",
          "name": "oldReserveFactorMantissa",
          "type": "uint256"
        },
        {
          "indexed": false,
          "internalType": "uint256",
          "name": "newReserveFactorMantissa",
          "type": "uint256"
        }
      ],
      "name": "NewReserveFactor",
      "type": "event"
    },
    {
      "anonymous": false,
      "inputs": [
        {
          "indexed": false,
          "internalType": "address",
          "name": "oldReserveGuardian",
          "type": "address"
        },
        {
          "indexed": false,
          "internalType": "address",
          "name": "newReserveGuardian",
          "type": "address"
        }
      ],
      "name": "NewReserveGuardian",
      "type": "event"
    },
    {
      "anonymous": false,
      "inputs": [
        {
          "indexed": false,
          "internalType": "address",
          "name": "redeemer",
          "type": "address"
        },
        {
          "indexed": false,
          "internalType": "uint256",
          "name": "redeemAmount",
          "type": "uint256"
        },
        {
          "indexed": false,
          "internalType": "uint256",
          "name": "redeemTokens",
          "type": "uint256"
        }
      ],
      "name": "Redeem",
      "type": "event"
    },
    {
      "anonymous": false,
      "inputs": [
        {
          "indexed": false,
          "internalType": "address",
          "name": "payer",
          "type": "address"
        },
        {
          "indexed": false,
          "internalType": "address",
          "name": "borrower",
          "type": "address"
        },
        {
          "indexed": false,
          "internalType": "uint256",
          "name": "repayAmount",
          "type": "uint256"
        },
        {
          "indexed": false,
          "internalType": "uint256",
          "name": "accountBorrows",
          "type": "uint256"
        },
        {
          "indexed": false,
          "internalType": "uint256",
          "name": "totalBorrows",
          "type": "uint256"
        }
      ],
      "name": "RepayBorrow",
      "type": "event"
    },
    {
      "anonymous": false,
      "inputs": [
        {
          "indexed": false,
          "internalType": "address",
          "name": "benefactor",
          "type": "address"
        },
        {
          "indexed": false,
          "internalType": "uint256",
          "name": "addAmount",
          "type": "uint256"
        },
        {
          "indexed": false,
          "internalType": "uint256",
          "name": "newTotalReserves",
          "type": "uint256"
        }
      ],
      "name": "ReservesAdded",
      "type": "event"
    },
    {
      "anonymous": false,
      "inputs": [
        {
          "indexed": false,
          "internalType": "address",
          "name": "admin",
          "type": "address"
        },
        {
          "indexed": false,
          "internalType": "uint256",
          "name": "reduceAmount",
          "type": "uint256"
        },
        {
          "indexed": false,
          "internalType": "uint256",
          "name": "newTotalReserves",
          "type": "uint256"
        }
      ],
      "name": "ReservesReduced",
      "type": "event"
    },
    {
      "anonymous": false,
      "inputs": [
        {
          "indexed": true,
          "internalType": "address",
          "name": "from",
          "type": "address"
        },
        {
          "indexed": true,
          "internalType": "address",
          "name": "to",
          "type": "address"
        },
        {
          "indexed": false,
          "internalType": "uint256",
          "name": "amount",
          "type": "uint256"
        }
      ],
      "name": "Transfer",
      "type": "event"
    },
    {
      "inputs": [],
      "name": "NO_ERROR",
      "outputs": [
        {
          "internalType": "uint256",
          "name": "",
          "type": "uint256"
        }
      ],
      "stateMutability": "view",
      "type": "function"
    },
    {
      "inputs": [],
      "name": "_acceptAdmin",
      "outputs": [
        {
          "internalType": "uint256",
          "name": "",
          "type": "uint256"
        }
      ],
      "stateMutability": "nonpayable",
      "type": "function"
    },
    {
      "inputs": [],
      "name": "_addReserves",
      "outputs": [
        {
          "internalType": "uint256",
          "name": "",
          "type": "uint256"
        }
      ],
      "stateMutability": "payable",
      "type": "function"
    },
    {
      "inputs": [
        {
          "internalType": "uint256",
          "name": "reduceAmount",
          "type": "uint256"
        }
      ],
      "name": "_reduceReserves",
      "outputs": [
        {
          "internalType": "uint256",
          "name": "",
          "type": "uint256"
        }
      ],
      "stateMutability": "nonpayable",
      "type": "function"
    },
    {
      "inputs": [
        {
          "internalType": "contract ComptrollerInterface",
          "name": "newComptroller",
          "type": "address"
        }
      ],
      "name": "_setComptroller",
      "outputs": [
        {
          "internalType": "uint256",
          "name": "",
          "type": "uint256"
        }
      ],
      "stateMutability": "nonpayable",
      "type": "function"
    },
    {
      "inputs": [
        {
          "internalType": "contract InterestRateModel",
          "name": "newInterestRateModel",
          "type": "address"
        }
      ],
      "name": "_setInterestRateModel",
      "outputs": [
        {
          "internalType": "uint256",
          "name": "",
          "type": "uint256"
        }
      ],
      "stateMutability": "nonpayable",
      "type": "function"
    },
    {
      "inputs": [
        {
          "internalType": "address payable",
          "name": "newPendingAdmin",
          "type": "address"
        }
      ],
      "name": "_setPendingAdmin",
      "outputs": [
        {
          "internalType": "uint256",
          "name": "",
          "type": "uint256"
        }
      ],
      "stateMutability": "nonpayable",
      "type": "function"
    },
    {
      "inputs": [
        {
          "internalType": "uint256",
          "name": "newReserveFactorMantissa",
          "type": "uint256"
        }
      ],
      "name": "_setReserveFactor",
      "outputs": [
        {
          "internalType": "uint256",
          "name": "",
          "type": "uint256"
        }
      ],
      "stateMutability": "nonpayable",
      "type": "function"
    },
    {
      "inputs": [
        {
          "internalType": "address payable",
          "name": "newReserveGuardian",
          "type": "address"
        }
      ],
      "name": "_setReserveGuardian",
      "outputs": [
        {
          "internalType": "uint256",
          "name": "",
          "type": "uint256"
        }
      ],
      "stateMutability": "nonpayable",
      "type": "function"
    },
    {
      "inputs": [],
      "name": "accrualBlockNumber",
      "outputs": [
        {
          "internalType": "uint256",
          "name": "",
          "type": "uint256"
        }
      ],
      "stateMutability": "view",
      "type": "function"
    },
    {
      "inputs": [],
      "name": "accrueInterest",
      "outputs": [
        {
          "internalType": "uint256",
          "name": "",
          "type": "uint256"
        }
      ],
      "stateMutability": "nonpayable",
      "type": "function"
    },
    {
      "inputs": [],
      "name": "admin",
      "outputs": [
        {
          "internalType": "address payable",
          "name": "",
          "type": "address"
        }
      ],
      "stateMutability": "view",
      "type": "function"
    },
    {
      "inputs": [
        {
          "internalType": "address",
          "name": "owner",
          "type": "address"
        },
        {
          "internalType": "address",
          "name": "spender",
          "type": "address"
        }
      ],
      "name": "allowance",
      "outputs": [
        {
          "internalType": "uint256",
          "name": "",
          "type": "uint256"
        }
      ],
      "stateMutability": "view",
      "type": "function"
    },
    {
      "inputs": [
        {
          "internalType": "address",
          "name": "spender",
          "type": "address"
        },
        {
          "internalType": "uint256",
          "name": "amount",
          "type": "uint256"
        }
      ],
      "name": "approve",
      "outputs": [
        {
          "internalType": "bool",
          "name": "",
          "type": "bool"
        }
      ],
      "stateMutability": "nonpayable",
      "type": "function"
    },
    {
      "inputs": [
        {
          "internalType": "address",
          "name": "owner",
          "type": "address"
        }
      ],
      "name": "balanceOf",
      "outputs": [
        {
          "internalType": "uint256",
          "name": "",
          "type": "uint256"
        }
      ],
      "stateMutability": "view",
      "type": "function"
    },
    {
      "inputs": [
        {
          "internalType": "address",
          "name": "owner",
          "type": "address"
        }
      ],
      "name": "balanceOfUnderlying",
      "outputs": [
        {
          "internalType": "uint256",
          "name": "",
          "type": "uint256"
        }
      ],
      "stateMutability": "nonpayable",
      "type": "function"
    },
    {
      "inputs": [
        {
          "internalType": "uint256",
          "name": "borrowAmount",
          "type": "uint256"
        }
      ],
      "name": "borrow",
      "outputs": [
        {
          "internalType": "uint256",
          "name": "",
          "type": "uint256"
        }
      ],
      "stateMutability": "nonpayable",
      "type": "function"
    },
    {
      "inputs": [
        {
          "internalType": "address",
          "name": "account",
          "type": "address"
        }
      ],
      "name": "borrowBalanceCurrent",
      "outputs": [
        {
          "internalType": "uint256",
          "name": "",
          "type": "uint256"
        }
      ],
      "stateMutability": "nonpayable",
      "type": "function"
    },
    {
      "inputs": [
        {
          "internalType": "address",
          "name": "account",
          "type": "address"
        }
      ],
      "name": "borrowBalanceStored",
      "outputs": [
        {
          "internalType": "uint256",
          "name": "",
          "type": "uint256"
        }
      ],
      "stateMutability": "view",
      "type": "function"
    },
    {
      "inputs": [],
      "name": "borrowIndex",
      "outputs": [
        {
          "internalType": "uint256",
          "name": "",
          "type": "uint256"
        }
      ],
      "stateMutability": "view",
      "type": "function"
    },
    {
      "inputs": [],
      "name": "borrowRatePerBlock",
      "outputs": [
        {
          "internalType": "uint256",
          "name": "",
          "type": "uint256"
        }
      ],
      "stateMutability": "view",
      "type": "function"
    },
    {
      "inputs": [],
      "name": "comptroller",
      "outputs": [
        {
          "internalType": "contract ComptrollerInterface",
          "name": "",
          "type": "address"
        }
      ],
      "stateMutability": "view",
      "type": "function"
    },
    {
      "inputs": [],
      "name": "decimals",
      "outputs": [
        {
          "internalType": "uint8",
          "name": "",
          "type": "uint8"
        }
      ],
      "stateMutability": "view",
      "type": "function"
    },
    {
      "inputs": [],
      "name": "exchangeRateCurrent",
      "outputs": [
        {
          "internalType": "uint256",
          "name": "",
          "type": "uint256"
        }
      ],
      "stateMutability": "nonpayable",
      "type": "function"
    },
    {
      "inputs": [],
      "name": "exchangeRateStored",
      "outputs": [
        {
          "internalType": "uint256",
          "name": "",
          "type": "uint256"
        }
      ],
      "stateMutability": "view",
      "type": "function"
    },
    {
      "inputs": [
        {
          "internalType": "address",
          "name": "account",
          "type": "address"
        }
      ],
      "name": "getAccountSnapshot",
      "outputs": [
        {
          "internalType": "uint256",
          "name": "",
          "type": "uint256"
        },
        {
          "internalType": "uint256",
          "name": "",
          "type": "uint256"
        },
        {
          "internalType": "uint256",
          "name": "",
          "type": "uint256"
        },
        {
          "internalType": "uint256",
          "name": "",
          "type": "uint256"
        }
      ],
      "stateMutability": "view",
      "type": "function"
    },
    {
      "inputs": [],
      "name": "getCash",
      "outputs": [
        {
          "internalType": "uint256",
          "name": "",
          "type": "uint256"
        }
      ],
      "stateMutability": "view",
      "type": "function"
    },
    {
      "inputs": [
        {
          "internalType": "address",
          "name": "underlying_",
          "type": "address"
        },
        {
          "internalType": "contract ComptrollerInterface",
          "name": "comptroller_",
          "type": "address"
        },
        {
          "internalType": "contract InterestRateModel",
          "name": "interestRateModel_",
          "type": "address"
        },
        {
          "internalType": "uint256",
          "name": "initialExchangeRateMantissa_",
          "type": "uint256"
        },
        {
          "internalType": "string",
          "name": "name_",
          "type": "string"
        },
        {
          "internalType": "string",
          "name": "symbol_",
          "type": "string"
        },
        {
          "internalType": "uint8",
          "name": "decimals_",
          "type": "uint8"
        }
      ],
      "name": "initialize",
      "outputs": [],
      "stateMutability": "nonpayable",
      "type": "function"
    },
    {
      "inputs": [
        {
          "internalType": "contract ComptrollerInterface",
          "name": "comptroller_",
          "type": "address"
        },
        {
          "internalType": "contract InterestRateModel",
          "name": "interestRateModel_",
          "type": "address"
        },
        {
          "internalType": "uint256",
          "name": "initialExchangeRateMantissa_",
          "type": "uint256"
        },
        {
          "internalType": "string",
          "name": "name_",
          "type": "string"
        },
        {
          "internalType": "string",
          "name": "symbol_",
          "type": "string"
        },
        {
          "internalType": "uint8",
          "name": "decimals_",
          "type": "uint8"
        }
      ],
      "name": "initialize",
      "outputs": [],
      "stateMutability": "nonpayable",
      "type": "function"
    },
    {
      "inputs": [],
      "name": "interestRateModel",
      "outputs": [
        {
          "internalType": "contract InterestRateModel",
          "name": "",
          "type": "address"
        }
      ],
      "stateMutability": "view",
      "type": "function"
    },
    {
      "inputs": [],
      "name": "isCToken",
      "outputs": [
        {
          "internalType": "bool",
          "name": "",
          "type": "bool"
        }
      ],
      "stateMutability": "view",
      "type": "function"
    },
    {
      "inputs": [
        {
          "internalType": "address",
          "name": "borrower",
          "type": "address"
        },
        {
          "internalType": "contract CToken",
          "name": "cTokenCollateral",
          "type": "address"
        }
      ],
      "name": "liquidateBorrow",
      "outputs": [],
      "stateMutability": "payable",
      "type": "function"
    },
    {
      "inputs": [
        {
          "internalType": "address",
          "name": "borrower",
          "type": "address"
        },
        {
          "internalType": "uint256",
          "name": "repayAmount",
          "type": "uint256"
        },
        {
          "internalType": "contract CToken",
          "name": "cTokenCollateral",
          "type": "address"
        }
      ],
      "name": "liquidateBorrow",
      "outputs": [
        {
          "internalType": "uint256",
          "name": "",
          "type": "uint256"
        }
      ],
      "stateMutability": "payable",
      "type": "function"
    },
    {
      "inputs": [],
      "name": "mint",
      "outputs": [],
      "stateMutability": "payable",
      "type": "function"
    },
    {
      "inputs": [
        {
          "internalType": "uint256",
          "name": "mintAmount",
          "type": "uint256"
        }
      ],
      "name": "mint",
      "outputs": [
        {
          "internalType": "uint256",
          "name": "",
          "type": "uint256"
        }
      ],
      "stateMutability": "payable",
      "type": "function"
    },
    {
      "inputs": [],
      "name": "name",
      "outputs": [
        {
          "internalType": "string",
          "name": "",
          "type": "string"
        }
      ],
      "stateMutability": "view",
      "type": "function"
    },
    {
      "inputs": [],
      "name": "pendingAdmin",
      "outputs": [
        {
          "internalType": "address payable",
          "name": "",
          "type": "address"
        }
      ],
      "stateMutability": "view",
      "type": "function"
    },
    {
      "inputs": [],
      "name": "protocolSeizeShareMantissa",
      "outputs": [
        {
          "internalType": "uint256",
          "name": "",
          "type": "uint256"
        }
      ],
      "stateMutability": "view",
      "type": "function"
    },
    {
      "inputs": [
        {
          "internalType": "address",
          "name": "underlying_",
          "type": "address"
        },
        {
          "internalType": "contract ComptrollerInterface",
          "name": "comptroller_",
          "type": "address"
        },
        {
          "internalType": "contract InterestRateModel",
          "name": "interestRateModel_",
          "type": "address"
        },
        {
          "internalType": "uint256",
          "name": "initialExchangeRateMantissa_",
          "type": "uint256"
        },
        {
          "internalType": "string",
          "name": "name_",
          "type": "string"
        },
        {
          "internalType": "string",
          "name": "symbol_",
          "type": "string"
        },
        {
          "internalType": "uint8",
          "name": "decimals_",
          "type": "uint8"
        },
        {
          "internalType": "address payable",
          "name": "admin_",
          "type": "address"
        }
      ],
      "name": "proxyInitialize",
      "outputs": [],
      "stateMutability": "nonpayable",
      "type": "function"
    },
    {
      "inputs": [
        {
          "internalType": "uint256",
          "name": "redeemTokens",
          "type": "uint256"
        }
      ],
      "name": "redeem",
      "outputs": [
        {
          "internalType": "uint256",
          "name": "",
          "type": "uint256"
        }
      ],
      "stateMutability": "nonpayable",
      "type": "function"
    },
    {
      "inputs": [
        {
          "internalType": "uint256",
          "name": "redeemAmount",
          "type": "uint256"
        }
      ],
      "name": "redeemUnderlying",
      "outputs": [
        {
          "internalType": "uint256",
          "name": "",
          "type": "uint256"
        }
      ],
      "stateMutability": "nonpayable",
      "type": "function"
    },
    {
      "inputs": [
        {
          "internalType": "uint256",
          "name": "repayAmount",
          "type": "uint256"
        }
      ],
      "name": "repayBorrow",
      "outputs": [
        {
          "internalType": "uint256",
          "name": "",
          "type": "uint256"
        }
      ],
      "stateMutability": "payable",
      "type": "function"
    },
    {
      "inputs": [],
      "name": "repayBorrow",
      "outputs": [],
      "stateMutability": "payable",
      "type": "function"
    },
    {
      "inputs": [
        {
          "internalType": "address",
          "name": "borrower",
          "type": "address"
        },
        {
          "internalType": "uint256",
          "name": "repayAmount",
          "type": "uint256"
        }
      ],
      "name": "repayBorrowBehalf",
      "outputs": [
        {
          "internalType": "uint256",
          "name": "",
          "type": "uint256"
        }
      ],
      "stateMutability": "payable",
      "type": "function"
    },
    {
      "inputs": [
        {
          "internalType": "address",
          "name": "borrower",
          "type": "address"
        }
      ],
      "name": "repayBorrowBehalf",
      "outputs": [],
      "stateMutability": "payable",
      "type": "function"
    },
    {
      "inputs": [],
      "name": "reserveFactorMantissa",
      "outputs": [
        {
          "internalType": "uint256",
          "name": "",
          "type": "uint256"
        }
      ],
      "stateMutability": "view",
      "type": "function"
    },
    {
      "inputs": [],
      "name": "reserveGuardian",
      "outputs": [
        {
          "internalType": "address payable",
          "name": "",
          "type": "address"
        }
      ],
      "stateMutability": "view",
      "type": "function"
    },
    {
      "inputs": [
        {
          "internalType": "address",
          "name": "liquidator",
          "type": "address"
        },
        {
          "internalType": "address",
          "name": "borrower",
          "type": "address"
        },
        {
          "internalType": "uint256",
          "name": "seizeTokens",
          "type": "uint256"
        }
      ],
      "name": "seize",
      "outputs": [
        {
          "internalType": "uint256",
          "name": "",
          "type": "uint256"
        }
      ],
      "stateMutability": "nonpayable",
      "type": "function"
    },
    {
      "inputs": [],
      "name": "supplyRatePerBlock",
      "outputs": [
        {
          "internalType": "uint256",
          "name": "",
          "type": "uint256"
        }
      ],
      "stateMutability": "view",
      "type": "function"
    },
    {
      "inputs": [],
      "name": "symbol",
      "outputs": [
        {
          "internalType": "string",
          "name": "",
          "type": "string"
        }
      ],
      "stateMutability": "view",
      "type": "function"
    },
    {
      "inputs": [],
      "name": "totalBorrows",
      "outputs": [
        {
          "internalType": "uint256",
          "name": "",
          "type": "uint256"
        }
      ],
      "stateMutability": "view",
      "type": "function"
    },
    {
      "inputs": [],
      "name": "totalBorrowsCurrent",
      "outputs": [
        {
          "internalType": "uint256",
          "name": "",
          "type": "uint256"
        }
      ],
      "stateMutability": "nonpayable",
      "type": "function"
    },
    {
      "inputs": [],
      "name": "totalReserves",
      "outputs": [
        {
          "internalType": "uint256",
          "name": "",
          "type": "uint256"
        }
      ],
      "stateMutability": "view",
      "type": "function"
    },
    {
      "inputs": [],
      "name": "totalSupply",
      "outputs": [
        {
          "internalType": "uint256",
          "name": "",
          "type": "uint256"
        }
      ],
      "stateMutability": "view",
      "type": "function"
    },
    {
      "inputs": [
        {
          "internalType": "address",
          "name": "dst",
          "type": "address"
        },
        {
          "internalType": "uint256",
          "name": "amount",
          "type": "uint256"
        }
      ],
      "name": "transfer",
      "outputs": [
        {
          "internalType": "bool",
          "name": "",
          "type": "bool"
        }
      ],
      "stateMutability": "nonpayable",
      "type": "function"
    },
    {
      "inputs": [
        {
          "internalType": "address",
          "name": "src",
          "type": "address"
        },
        {
          "internalType": "address",
          "name": "dst",
          "type": "address"
        },
        {
          "internalType": "uint256",
          "name": "amount",
          "type": "uint256"
        }
      ],
      "name": "transferFrom",
      "outputs": [
        {
          "internalType": "bool",
          "name": "",
          "type": "bool"
        }
      ],
      "stateMutability": "nonpayable",
      "type": "function"
    },
    {
      "stateMutability": "payable",
      "type": "receive"
    }
  ],
  "transactionHash": "0xe2e59c5a0f0c7df29b9a7b7ad0975f4249994694d58b07bc01e63b4ce2519efc",
  "args": [],
  "numDeployments": 1,
  "solcInputHash": "f89d9eea143e7ef0898256b603125d76",
  "bytecode": "0x608060405234801561001057600080fd5b50613c46806100206000396000f3fe60806040526004361061036f5760003560e01c806395d89b41116101c6578063c39b127f116100f7578063f3fdb15a11610095578063f8f9da281161006f578063f8f9da2814610990578063fca7820b146109a5578063fcb64147146109c5578063fe9c44ae146109cd57600080fd5b8063f3fdb15a14610938578063f5e3c46214610958578063f851a4401461096b57600080fd5b8063dd62ed3e116100d1578063dd62ed3e146108aa578063e5974619146108f0578063e9c714f214610903578063f2b3abbd1461091857600080fd5b8063c39b127f1461084a578063c5ebeaec1461086a578063db006a751461088a57600080fd5b8063aae40a2a11610164578063b57a4a721161013e578063b57a4a72146107b5578063b71d1a0c146107d5578063bd6d894d146107f5578063c37f68e21461080a57600080fd5b8063aae40a2a1461076d578063ae9d70b014610780578063b2a02ff11461079557600080fd5b8063a0712d68116101a0578063a0712d681461070f578063a6afed9514610722578063a9059cbb14610737578063aa5af0fd1461075757600080fd5b806395d89b41146106ba57806395dd9193146106cf57806399d8c1b4146106ef57600080fd5b80633af9e669116102a05780636752e7021161023e57806370a082311161021857806370a082311461063957806373acee981461066f578063852a12e3146106845780638f840ddd146106a457600080fd5b80636752e702146105f357806369ab32501461060e5780636c540baf1461062357600080fd5b806347bd37181161027a57806347bd3718146105955780634e4d9fea146105ab5780635fe3b567146105b3578063601a0bf1146105d357600080fd5b80633af9e669146105405780633b1d21a2146105605780634576b5db1461057557600080fd5b806318160ddd1161030d57806323b872dd116102e757806323b872dd146104c15780632608f818146104e157806326782247146104f4578063313ce5671461051457600080fd5b806318160ddd14610476578063182df0f51461048c5780631a31d465146104a157600080fd5b80630e752702116103495780630e752702146104175780631249c58b14610438578063173b99041461044057806317bfdfbc1461045657600080fd5b806306fdde0314610384578063095ea7b3146103af5780630d983cc6146103df57600080fd5b3661037f5761037d346109e2565b005b600080fd5b34801561039057600080fd5b50610399610a46565b6040516103a691906134e0565b60405180910390f35b3480156103bb57600080fd5b506103cf6103ca366004613543565b610ad4565b60405190151581526020016103a6565b3480156103eb57600080fd5b506011546103ff906001600160a01b031681565b6040516001600160a01b0390911681526020016103a6565b61042a61042536600461356f565b610b44565b6040519081526020016103a6565b61037d610b76565b34801561044c57600080fd5b5061042a60085481565b34801561046257600080fd5b5061042a610471366004613588565b610b81565b34801561048257600080fd5b5061042a600d5481565b34801561049857600080fd5b5061042a610be0565b3480156104ad57600080fd5b5061037d6104bc36600461365e565b610bef565b3480156104cd57600080fd5b506103cf6104dc366004613714565b610c06565b61042a6104ef366004613543565b610c62565b34801561050057600080fd5b506004546103ff906001600160a01b031681565b34801561052057600080fd5b5060035461052e9060ff1681565b60405160ff90911681526020016103a6565b34801561054c57600080fd5b5061042a61055b366004613588565b610c96565b34801561056c57600080fd5b5061042a610cdc565b34801561058157600080fd5b5061042a610590366004613588565b610ce6565b3480156105a157600080fd5b5061042a600b5481565b61037d610e38565b3480156105bf57600080fd5b506005546103ff906001600160a01b031681565b3480156105df57600080fd5b5061042a6105ee36600461356f565b610e41565b3480156105ff57600080fd5b5061042a666379da05b6000081565b34801561061a57600080fd5b5061042a600081565b34801561062f57600080fd5b5061042a60095481565b34801561064557600080fd5b5061042a610654366004613588565b6001600160a01b03166000908152600e602052604090205490565b34801561067b57600080fd5b5061042a610e88565b34801561069057600080fd5b5061042a61069f36600461356f565b610ede565b3480156106b057600080fd5b5061042a600c5481565b3480156106c657600080fd5b50610399610ee9565b3480156106db57600080fd5b5061042a6106ea366004613588565b610ef6565b3480156106fb57600080fd5b5061037d61070a366004613755565b610f01565b61042a61071d36600461356f565b611156565b34801561072e57600080fd5b5061042a611180565b34801561074357600080fd5b506103cf610752366004613543565b61136c565b34801561076357600080fd5b5061042a600a5481565b61037d61077b3660046137f7565b6113c7565b34801561078c57600080fd5b5061042a6113d6565b3480156107a157600080fd5b5061042a6107b0366004613714565b61146e565b3480156107c157600080fd5b5061037d6107d0366004613830565b6114c9565b3480156107e157600080fd5b5061042a6107f0366004613588565b611620565b34801561080157600080fd5b5061042a6116ad565b34801561081657600080fd5b5061082a610825366004613588565b611709565b6040805194855260208501939093529183015260608201526080016103a6565b34801561085657600080fd5b5061042a610865366004613588565b61174a565b34801561087657600080fd5b5061042a61088536600461356f565b6117d7565b34801561089657600080fd5b5061042a6108a536600461356f565b6117e2565b3480156108b657600080fd5b5061042a6108c53660046137f7565b6001600160a01b039182166000908152600f6020908152604080832093909416825291909152205490565b61037d6108fe366004613588565b6117ed565b34801561090f57600080fd5b5061042a6117fa565b34801561092457600080fd5b5061042a610933366004613588565b611901565b34801561094457600080fd5b506006546103ff906001600160a01b031681565b61042a6109663660046138fb565b611915565b34801561097757600080fd5b506003546103ff9061010090046001600160a01b031681565b34801561099c57600080fd5b5061042a61194b565b3480156109b157600080fd5b5061042a6109c036600461356f565b61199e565b61042a6119e5565b3480156109d957600080fd5b506103cf600181565b60005462010000900460ff16610a135760405162461bcd60e51b8152600401610a0a9061393d565b60405180910390fd5b6000805462ff000019169055610a27611180565b50610a3233826119f0565b506000805462ff0000191662010000179055565b60018054610a5390613961565b80601f0160208091040260200160405190810160405280929190818152602001828054610a7f90613961565b8015610acc5780601f10610aa157610100808354040283529160200191610acc565b820191906000526020600020905b815481529060010190602001808311610aaf57829003601f168201915b505050505081565b336000818152600f602090815260408083206001600160a01b03871680855292528083208590555191929182907f8c5be1e5ebec7d5bd14f71427d1e84f3dd0314c0f7b2291e5b200ac8c7c3b92590610b309087815260200190565b60405180910390a360019150505b92915050565b6000813414610b655760405162461bcd60e51b8152600401610a0a90613995565b610b6e34611c19565b506000919050565b610b7f346109e2565b565b6000805462010000900460ff16610baa5760405162461bcd60e51b8152600401610a0a9061393d565b6000805462ff000019169055610bbe611180565b50610bc882610ef6565b90506000805462ff0000191662010000179055919050565b6000610bea611c76565b905090565b610bfd868686868686610f01565b50505050505050565b6000805462010000900460ff16610c2f5760405162461bcd60e51b8152600401610a0a9061393d565b6000805462ff000019168155610c4733868686611cde565b1490506000805462ff00001916620100001790559392505050565b6000813414610c835760405162461bcd60e51b8152600401610a0a90613995565b610c8d8334611f0a565b50600092915050565b6000806040518060200160405280610cac6116ad565b90526001600160a01b0384166000908152600e6020526040902054909150610cd5908290611f68565b9392505050565b6000610bea611f88565b60035460009061010090046001600160a01b03163314610d195760405163d219dc1f60e01b815260040160405180910390fd5b60055460408051623f1ee960e11b815290516001600160a01b0392831692851691627e3dd29160048083019260209291908290030181865afa158015610d63573d6000803e3d6000fd5b505050506040513d601f19601f82011682018060405250810190610d8791906139c1565b610dd35760405162461bcd60e51b815260206004820152601c60248201527f6d61726b6572206d6574686f642072657475726e65642066616c7365000000006044820152606401610a0a565b600580546001600160a01b0319166001600160a01b0385811691821790925560408051928416835260208301919091527f7ac369dbd14fa5ea3f473ed67cc9d598964a77501540ba6751eb0b3decf5870d91015b60405180910390a150600092915050565b610b7f34611c19565b6000805462010000900460ff16610e6a5760405162461bcd60e51b8152600401610a0a9061393d565b6000805462ff000019169055610e7e611180565b50610bc882611f94565b6000805462010000900460ff16610eb15760405162461bcd60e51b8152600401610a0a9061393d565b6000805462ff000019169055610ec5611180565b5050600b546000805462ff000019166201000017905590565b6000610b6e826120b6565b60028054610a5390613961565b6000610b3e826120ff565b60035461010090046001600160a01b03163314610f6c5760405162461bcd60e51b8152602060048201526024808201527f6f6e6c792061646d696e206d617920696e697469616c697a6520746865206d616044820152631c9ad95d60e21b6064820152608401610a0a565b600954158015610f7c5750600a54155b610fd45760405162461bcd60e51b815260206004820152602360248201527f6d61726b6574206d6179206f6e6c7920626520696e697469616c697a6564206f6044820152626e636560e81b6064820152608401610a0a565b60078490558361103f5760405162461bcd60e51b815260206004820152603060248201527f696e697469616c2065786368616e67652072617465206d75737420626520677260448201526f32b0ba32b9103a3430b7103d32b9379760811b6064820152608401610a0a565b600061104a87610ce6565b9050801561109a5760405162461bcd60e51b815260206004820152601a60248201527f73657474696e6720636f6d7074726f6c6c6572206661696c65640000000000006044820152606401610a0a565b42600955670de0b6b3a7640000600a556110b38661214b565b9050801561110e5760405162461bcd60e51b815260206004820152602260248201527f73657474696e6720696e7465726573742072617465206d6f64656c206661696c604482015261195960f21b6064820152608401610a0a565b600161111a8582613a31565b5060026111278482613a31565b50506003805460ff90921660ff1990921691909117905550506000805462ff0000191662010000179055505050565b60008134146111775760405162461bcd60e51b8152600401610a0a90613995565b610b6e346109e2565b60095460009042908181036111985760009250505090565b60006111a2611f88565b600b54600c54600a546006546040516315f2405360e01b81526004810186905260248101859052604481018490529495509293919290916000916001600160a01b0316906315f2405390606401602060405180830381865afa15801561120c573d6000803e3d6000fd5b505050506040513d601f19601f820116820180604052508101906112309190613af1565b905064746a5288008111156112875760405162461bcd60e51b815260206004820152601c60248201527f626f72726f772072617465206973206162737572646c792068696768000000006044820152606401610a0a565b60006112938789613b20565b905060006112af604051806020016040528085815250836122c0565b905060006112bd8288611f68565b905060006112cb8883613b33565b905060006112ea6040518060200160405280600854815250848a6122f1565b905060006112f985898a6122f1565b60098e9055600a819055600b849055600c839055604080518d815260208101879052908101829052606081018590529091507f4dec04e750ca11537cabcd8a9eab06494de08da3735bc8871cd41250e190bc049060800160405180910390a160009d505050505050505050505050505090565b6000805462010000900460ff166113955760405162461bcd60e51b8152600401610a0a9061393d565b6000805462ff0000191681556113ad33808686611cde565b1490506000805462ff000019166201000017905592915050565b6113d2823483612312565b5050565b6006546000906001600160a01b031663b81688166113f2611f88565b600b54600c546008546040516001600160e01b031960e087901b16815260048101949094526024840192909252604483015260648201526084015b602060405180830381865afa15801561144a573d6000803e3d6000fd5b505050506040513d601f19601f82011682018060405250810190610bea9190613af1565b6000805462010000900460ff166114975760405162461bcd60e51b8152600401610a0a9061393d565b6000805462ff0000191690556114af338585856123fc565b50600080805462ff00001916620100001790559392505050565b600054610100900460ff16158080156114e95750600054600160ff909116105b806115035750303b158015611503575060005460ff166001145b6115665760405162461bcd60e51b815260206004820152602e60248201527f496e697469616c697a61626c653a20636f6e747261637420697320616c72656160448201526d191e481a5b9a5d1a585b1a5e995960921b6064820152608401610a0a565b6000805460ff191660011790558015611589576000805461ff0019166101001790555b60038054610100600160a81b03191633610100021790556115af89898989898989610bef565b60038054610100600160a81b0319166101006001600160a01b038516021790558015611615576000805461ff0019169055604051600181527f7f26b83ff96e1f2b6a682f133852f6798a09c465da95921460cefb38474024989060200160405180910390a15b505050505050505050565b60035460009061010090046001600160a01b0316331461165357604051635cb56c2b60e01b815260040160405180910390fd5b600480546001600160a01b038481166001600160a01b031983168117909355604080519190921680825260208201939093527fca4f2f25d0898edd99413412fb94012f9e54ec8142f9b093e7720646a95b16a99101610e27565b6000805462010000900460ff166116d65760405162461bcd60e51b8152600401610a0a9061393d565b6000805462ff0000191690556116ea611180565b506116f3610be0565b90506000805462ff000019166201000017905590565b6001600160a01b0381166000908152600e60205260408120548190819081908190611733876120ff565b61173b611c76565b93509350935093509193509193565b60035460009061010090046001600160a01b0316331461177d57604051632f7aaee760e01b815260040160405180910390fd5b601180546001600160a01b038481166001600160a01b031983168117909355604080519190921680825260208201939093527fe3f5272426aa3e70e583474d1155b19c7d9a5394147c40191dfaf32b792bc9789101610e27565b6000610b6e82612674565b6000610b6e826126bb565b6117f78134611f0a565b50565b6004546000906001600160a01b031633141580611815575033155b1561183357604051631ba24f2960e21b815260040160405180910390fd5b60038054600480546001600160a01b03808216610100818102610100600160a81b0319871617968790556001600160a01b031990931690935560408051948390048216808652929095041660208401529290917ff9ffabca9c8276e99321725bcb43fb076a6c66a54b7f21c4e8146d8519b417dc910160405180910390a1600454604080516001600160a01b03808516825290921660208301527fca4f2f25d0898edd99413412fb94012f9e54ec8142f9b093e7720646a95b16a9910160405180910390a160009250505090565b600061190b611180565b50610b3e8261214b565b60008234146119365760405162461bcd60e51b8152600401610a0a90613995565b611941843484612312565b5060009392505050565b6006546000906001600160a01b03166315f24053611967611f88565b600b54600c546040516001600160e01b031960e086901b16815260048101939093526024830191909152604482015260640161142d565b6000805462010000900460ff166119c75760405162461bcd60e51b8152600401610a0a9061393d565b6000805462ff0000191690556119db611180565b50610bc882612704565b6000610bea346127c0565b600554604051634ef4c3e160e01b81526000916001600160a01b031690634ef4c3e190611a2590309087908790600401613b46565b6020604051808303816000875af1158015611a44573d6000803e3d6000fd5b505050506040513d601f19601f82011682018060405250810190611a689190613af1565b90508015611a8c576040516349abd4fd60e01b815260048101829052602401610a0a565b4260095414611aae576040516338d8859760e01b815260040160405180910390fd5b60006040518060200160405280611ac3611c76565b905290506000611ad38585612823565b90506000611ae182846128b5565b905080600d54611af19190613b33565b600d556001600160a01b0386166000908152600e6020526040902054611b18908290613b33565b6001600160a01b0387166000908152600e60205260409081902091909155517f4c209b5fc8ad50758f13e2e1088ba56a560dff690a1c6fef26394f4c03821c4f90611b6890889085908590613b6a565b60405180910390a16040518181526001600160a01b038716903090600080516020613bf18339815191529060200160405180910390a36005546040516341c728b960e01b81523060048201526001600160a01b0388811660248301526044820185905260648201849052909116906341c728b990608401600060405180830381600087803b158015611bf957600080fd5b505af1158015611c0d573d6000803e3d6000fd5b50505050505050505050565b60005462010000900460ff16611c415760405162461bcd60e51b8152600401610a0a9061393d565b6000805462ff000019169055611c55611180565b50611c613333836128d3565b50506000805462ff0000191662010000179055565b600d54600090808203611c8b57505060075490565b6000611c95611f88565b90506000600c54600b5483611caa9190613b33565b611cb49190613b20565b9050600083611ccb670de0b6b3a764000084613b8b565b611cd59190613baa565b95945050505050565b6005546040516317b9b84b60e31b81523060048201526001600160a01b038581166024830152848116604483015260648201849052600092839291169063bdcdc258906084016020604051808303816000875af1158015611d43573d6000803e3d6000fd5b505050506040513d601f19601f82011682018060405250810190611d679190613af1565b90508015611d8b5760405163089d427760e11b815260048101829052602401610a0a565b836001600160a01b0316856001600160a01b031603611dbd57604051638cd22d1960e01b815260040160405180910390fd5b6000856001600160a01b0316876001600160a01b031603611de15750600019611e09565b506001600160a01b038086166000908152600f60209081526040808320938a16835292905220545b6000611e158583613b20565b6001600160a01b0388166000908152600e602052604081205491925090611e3d908790613b20565b6001600160a01b0388166000908152600e602052604081205491925090611e65908890613b33565b6001600160a01b03808b166000908152600e6020526040808220869055918b1681522081905590506000198414611ebf576001600160a01b03808a166000908152600f60209081526040808320938e168352929052208390555b876001600160a01b0316896001600160a01b0316600080516020613bf183398151915289604051611ef291815260200190565b60405180910390a35060009998505050505050505050565b60005462010000900460ff16611f325760405162461bcd60e51b8152600401610a0a9061393d565b6000805462ff000019169055611f46611180565b50611f523383836128d3565b50506000805462ff000019166201000017905550565b600080611f7584846122c0565b9050611f8081612a7c565b949350505050565b6000610bea3447613b20565b600354600090819061010090046001600160a01b03163314801590611fc457506011546001600160a01b03163314155b15611fe257604051630f7e5e6d60e41b815260040160405180910390fd5b426009541461200457604051630dff50cb60e41b815260040160405180910390fd5b8261200d611f88565b101561202c57604051633345e99960e01b815260040160405180910390fd5b600c5483111561204f576040516378d2980560e11b815260040160405180910390fd5b82600c5461205d9190613b20565b600c819055905061206e3384612a94565b7f3bad0c59cf2f06e7314077049f48a93578cd16f5ef92329f1dab1420a99c177e600360019054906101000a90046001600160a01b03168483604051610e2793929190613b6a565b60005462010000900460ff166120de5760405162461bcd60e51b8152600401610a0a9061393d565b6000805462ff0000191690556120f2611180565b50610a3233600083612acf565b6001600160a01b0381166000908152601060205260408120805482036121285750600092915050565b600a54815460009161213991613b8b565b9050816001015481611f809190613baa565b600354600090819061010090046001600160a01b031633146121805760405163407fded560e01b815260040160405180910390fd5b42600954146121a257604051630be2a5cb60e11b815260040160405180910390fd5b600660009054906101000a90046001600160a01b03169050826001600160a01b0316632191f92a6040518163ffffffff1660e01b8152600401602060405180830381865afa1580156121f8573d6000803e3d6000fd5b505050506040513d601f19601f8201168201806040525081019061221c91906139c1565b6122685760405162461bcd60e51b815260206004820152601c60248201527f6d61726b6572206d6574686f642072657475726e65642066616c7365000000006044820152606401610a0a565b600680546001600160a01b0319166001600160a01b0385811691821790925560408051928416835260208301919091527fedffc32e068c7c95dfd4bdfd5c4d939a084d6b11c4199eac8436ed234d72f9269101610e27565b60408051602081019091526000815260405180602001604052806122e8856000015185612dac565b90529392505050565b6000806122fe85856122c0565b9050611cd561230c82612a7c565b84612db8565b60005462010000900460ff1661233a5760405162461bcd60e51b8152600401610a0a9061393d565b6000805462ff00001916905561234e611180565b506000816001600160a01b031663a6afed956040518163ffffffff1660e01b81526004016020604051808303816000875af1158015612391573d6000803e3d6000fd5b505050506040513d601f19601f820116820180604052508101906123b59190613af1565b905080156123d957604051633eea49b760e11b815260048101829052602401610a0a565b6123e533858585612dc4565b50506000805462ff00001916620100001790555050565b60055460405163d02f735160e01b81523060048201526001600160a01b0386811660248301528581166044830152848116606483015260848201849052600092169063d02f73519060a4016020604051808303816000875af1158015612466573d6000803e3d6000fd5b505050506040513d601f19601f8201168201806040525081019061248a9190613af1565b905080156124ae576040516363e00e3360e11b815260048101829052602401610a0a565b836001600160a01b0316836001600160a01b0316036124e057604051633a94626760e11b815260040160405180910390fd5b6000612501836040518060200160405280666379da05b6000081525061327e565b9050600061250f8285613b20565b905060006040518060200160405280612526611c76565b9052905060006125368285611f68565b9050600081600c546125489190613b33565b600c819055600d5490915061255e908690613b20565b600d556001600160a01b0388166000908152600e6020526040902054612585908890613b20565b6001600160a01b03808a166000908152600e602052604080822093909355908b16815220546125b5908590613b33565b6001600160a01b03808b166000818152600e602052604090819020939093559151908a1690600080516020613bf1833981519152906125f79088815260200190565b60405180910390a360405185815230906001600160a01b038a1690600080516020613bf18339815191529060200160405180910390a37fa91e67c5ea634cd43a12c5a482724b03de01e85ca68702a53d0c2f45cb7c1dc530838360405161266093929190613b6a565b60405180910390a150505050505050505050565b60005462010000900460ff1661269c5760405162461bcd60e51b8152600401610a0a9061393d565b6000805462ff0000191690556126b0611180565b50610a3233826132a1565b60005462010000900460ff166126e35760405162461bcd60e51b8152600401610a0a9061393d565b6000805462ff0000191690556126f7611180565b50610a3233826000612acf565b60035460009061010090046001600160a01b0316331461273757604051631205b57b60e11b815260040160405180910390fd5b426009541461275957604051637dfca6b760e11b815260040160405180910390fd5b670de0b6b3a76400008211156127825760405163717220f360e11b815260040160405180910390fd5b600880549083905560408051828152602081018590527faaa68312e2ea9d50e16af5068410ab56e1a1fd06037b1a35664812c30f8214609101610e27565b6000805462010000900460ff166127e95760405162461bcd60e51b8152600401610a0a9061393d565b6000805462ff0000191690556127fd611180565b5061280782613440565b5050600090506000805462ff0000191662010000179055919050565b6000336001600160a01b0384161461286f5760405162461bcd60e51b815260206004820152600f60248201526e0e6cadcc8cae440dad2e6dac2e8c6d608b1b6044820152606401610a0a565b8134146128af5760405162461bcd60e51b815260206004820152600e60248201526d0ecc2d8eaca40dad2e6dac2e8c6d60931b6044820152606401610a0a565b50919050565b6000610cd56128cc84670de0b6b3a7640000612dac565b83516134d4565b600554604051631200453160e11b81523060048201526001600160a01b03858116602483015284811660448301526064820184905260009283929116906324008a62906084016020604051808303816000875af1158015612938573d6000803e3d6000fd5b505050506040513d601f19601f8201168201806040525081019061295c9190613af1565b9050801561298057604051638c81362d60e01b815260048101829052602401610a0a565b42600954146129a25760405163c9021e2f60e01b815260040160405180910390fd5b60006129ad856120ff565b9050600060001985146129c057846129c2565b815b905060006129d08883612823565b905060006129de8285613b20565b9050600082600b546129f09190613b20565b6001600160a01b038a8116600081815260106020908152604091829020878155600a54600190910155600b8590558151938f168452830191909152810185905260608101849052608081018290529091507f1a2a22cb034d26d1854bdc6666a5b91fe25efbbb5dcad3b0355478d6f5c362a19060a00160405180910390a1509098975050505050505050565b8051600090610b3e90670de0b6b3a764000090613baa565b6040516001600160a01b0383169082156108fc029083906000818181858888f19350505050158015612aca573d6000803e3d6000fd5b505050565b811580612ada575080155b612b435760405162461bcd60e51b815260206004820152603460248201527f6f6e65206f662072656465656d546f6b656e73496e206f722072656465656d416044820152736d6f756e74496e206d757374206265207a65726f60601b6064820152608401610a0a565b60006040518060200160405280612b58611c76565b905290506000808415612b7957849150612b728386611f68565b9050612b89565b612b8384846128b5565b91508390505b60055460405163eabe7d9160e01b81526000916001600160a01b03169063eabe7d9190612bbe9030908b908890600401613b46565b6020604051808303816000875af1158015612bdd573d6000803e3d6000fd5b505050506040513d601f19601f82011682018060405250810190612c019190613af1565b90508015612c255760405163480f424760e01b815260048101829052602401610a0a565b4260095414612c47576040516397b5cfcd60e01b815260040160405180910390fd5b81612c50611f88565b1015612c6f576040516391240a1b60e01b815260040160405180910390fd5b82600d54612c7d9190613b20565b600d556001600160a01b0387166000908152600e6020526040902054612ca4908490613b20565b6001600160a01b0388166000908152600e6020526040902055612cc78783612a94565b60405183815230906001600160a01b03891690600080516020613bf18339815191529060200160405180910390a37fe5b754fb1abb7f01b499791d0b820ae3b6af3424ac1c59768edb53f4ec31a929878385604051612d2893929190613b6a565b60405180910390a16005546040516351dff98960e01b81523060048201526001600160a01b0389811660248301526044820185905260648201869052909116906351dff98990608401600060405180830381600087803b158015612d8b57600080fd5b505af1158015612d9f573d6000803e3d6000fd5b5050505050505050505050565b6000610cd58284613b8b565b6000610cd58284613b33565b600554604051632fe3f38f60e11b81523060048201526001600160a01b03838116602483015286811660448301528581166064830152608482018590526000921690635fc7e71e9060a4016020604051808303816000875af1158015612e2e573d6000803e3d6000fd5b505050506040513d601f19601f82011682018060405250810190612e529190613af1565b90508015612e7657604051630a14d17960e11b815260048101829052602401610a0a565b4260095414612e98576040516380965b1b60e01b815260040160405180910390fd5b42826001600160a01b0316636c540baf6040518163ffffffff1660e01b8152600401602060405180830381865afa158015612ed7573d6000803e3d6000fd5b505050506040513d601f19601f82011682018060405250810190612efb9190613af1565b14612f1957604051631046f38d60e31b815260040160405180910390fd5b846001600160a01b0316846001600160a01b031603612f4b57604051631bd1a62160e21b815260040160405180910390fd5b82600003612f6c5760405163d29da7ef60e01b815260040160405180910390fd5b6000198303612f8e57604051635982c5bb60e11b815260040160405180910390fd5b6000612f9b8686866128d3565b60055460405163c488847b60e01b815291925060009182916001600160a01b03169063c488847b90612fd590309089908890600401613b46565b6040805180830381865afa158015612ff1573d6000803e3d6000fd5b505050506040513d601f19601f820116820180604052508101906130159190613bcc565b91509150600082146130855760405162461bcd60e51b815260206004820152603360248201527f4c49515549444154455f434f4d5054524f4c4c45525f43414c43554c4154455f604482015272105353d5539517d4d152569157d19052531151606a1b6064820152608401610a0a565b6040516370a0823160e01b81526001600160a01b0388811660048301528291908716906370a0823190602401602060405180830381865afa1580156130ce573d6000803e3d6000fd5b505050506040513d601f19601f820116820180604052508101906130f29190613af1565b10156131405760405162461bcd60e51b815260206004820152601860248201527f4c49515549444154455f5345495a455f544f4f5f4d55434800000000000000006044820152606401610a0a565b306001600160a01b038616036131615761315c308989846123fc565b61321b565b60405163b2a02ff160e01b81526000906001600160a01b0387169063b2a02ff190613194908c908c908790600401613b46565b6020604051808303816000875af11580156131b3573d6000803e3d6000fd5b505050506040513d601f19601f820116820180604052508101906131d79190613af1565b1461321b5760405162461bcd60e51b81526020600482015260146024820152731d1bdad95b881cd95a5e9d5c994819985a5b195960621b6044820152606401610a0a565b604080516001600160a01b038a811682528981166020830152818301869052871660608201526080810183905290517f298637f684da70674f26509b10f07ec2fbc77a335ab1e7d6215a4b2484d8bb529181900360a00190a15050505050505050565b6000670de0b6b3a7640000613297848460000151612dac565b610cd59190613baa565b60055460405163368f515360e21b81526000916001600160a01b03169063da3d454c906132d690309087908790600401613b46565b6020604051808303816000875af11580156132f5573d6000803e3d6000fd5b505050506040513d601f19601f820116820180604052508101906133199190613af1565b9050801561333d5760405163918db40f60e01b815260048101829052602401610a0a565b426009541461335f57604051630e8d8c6160e21b815260040160405180910390fd5b81613368611f88565b1015613387576040516348c2588160e01b815260040160405180910390fd5b6000613392846120ff565b905060006133a08483613b33565b9050600084600b546133b29190613b33565b6001600160a01b0387166000908152601060205260409020838155600a54600190910155600b81905590506133e78686612a94565b604080516001600160a01b038816815260208101879052908101839052606081018290527f13ed6866d4e1ee6da46f845c46d7e54120883d75c5ea9a2dacc1c4ca8984ab809060800160405180910390a1505050505050565b6000808080426009541461346a576040516338acf79960e01b815260048101829052602401610a0a565b6134743386612823565b905080600c546134849190613b33565b915081600c819055507fa91e67c5ea634cd43a12c5a482724b03de01e85ca68702a53d0c2f45cb7c1dc53382846040516134c093929190613b6a565b60405180910390a160009590945092505050565b6000610cd58284613baa565b600060208083528351808285015260005b8181101561350d578581018301518582016040015282016134f1565b506000604082860101526040601f19601f8301168501019250505092915050565b6001600160a01b03811681146117f757600080fd5b6000806040838503121561355657600080fd5b82356135618161352e565b946020939093013593505050565b60006020828403121561358157600080fd5b5035919050565b60006020828403121561359a57600080fd5b8135610cd58161352e565b634e487b7160e01b600052604160045260246000fd5b600082601f8301126135cc57600080fd5b813567ffffffffffffffff808211156135e7576135e76135a5565b604051601f8301601f19908116603f0116810190828211818310171561360f5761360f6135a5565b8160405283815286602085880101111561362857600080fd5b836020870160208301376000602085830101528094505050505092915050565b803560ff8116811461365957600080fd5b919050565b600080600080600080600060e0888a03121561367957600080fd5b87356136848161352e565b965060208801356136948161352e565b955060408801356136a48161352e565b945060608801359350608088013567ffffffffffffffff808211156136c857600080fd5b6136d48b838c016135bb565b945060a08a01359150808211156136ea57600080fd5b506136f78a828b016135bb565b92505061370660c08901613648565b905092959891949750929550565b60008060006060848603121561372957600080fd5b83356137348161352e565b925060208401356137448161352e565b929592945050506040919091013590565b60008060008060008060c0878903121561376e57600080fd5b86356137798161352e565b955060208701356137898161352e565b945060408701359350606087013567ffffffffffffffff808211156137ad57600080fd5b6137b98a838b016135bb565b945060808901359150808211156137cf57600080fd5b506137dc89828a016135bb565b9250506137eb60a08801613648565b90509295509295509295565b6000806040838503121561380a57600080fd5b82356138158161352e565b915060208301356138258161352e565b809150509250929050565b600080600080600080600080610100898b03121561384d57600080fd5b88356138588161352e565b975060208901356138688161352e565b965060408901356138788161352e565b955060608901359450608089013567ffffffffffffffff8082111561389c57600080fd5b6138a88c838d016135bb565b955060a08b01359150808211156138be57600080fd5b506138cb8b828c016135bb565b9350506138da60c08a01613648565b915060e08901356138ea8161352e565b809150509295985092959890939650565b60008060006060848603121561391057600080fd5b833561391b8161352e565b92506020840135915060408401356139328161352e565b809150509250925092565b6020808252600a90820152691c994b595b9d195c995960b21b604082015260600190565b600181811c9082168061397557607f821691505b6020821081036128af57634e487b7160e01b600052602260045260246000fd5b6020808252601290820152710dae6ce5cecc2d8eaca40dad2e6dac2e8c6d60731b604082015260600190565b6000602082840312156139d357600080fd5b81518015158114610cd557600080fd5b601f821115612aca57600081815260208120601f850160051c81016020861015613a0a5750805b601f850160051c820191505b81811015613a2957828155600101613a16565b505050505050565b815167ffffffffffffffff811115613a4b57613a4b6135a5565b613a5f81613a598454613961565b846139e3565b602080601f831160018114613a945760008415613a7c5750858301515b600019600386901b1c1916600185901b178555613a29565b600085815260208120601f198616915b82811015613ac357888601518255948401946001909101908401613aa4565b5085821015613ae15787850151600019600388901b60f8161c191681555b5050505050600190811b01905550565b600060208284031215613b0357600080fd5b5051919050565b634e487b7160e01b600052601160045260246000fd5b81810381811115610b3e57610b3e613b0a565b80820180821115610b3e57610b3e613b0a565b6001600160a01b039384168152919092166020820152604081019190915260600190565b6001600160a01b039390931683526020830191909152604082015260600190565b6000816000190483118215151615613ba557613ba5613b0a565b500290565b600082613bc757634e487b7160e01b600052601260045260246000fd5b500490565b60008060408385031215613bdf57600080fd5b50508051602090910151909290915056feddf252ad1be2c89b69c2b068fc378daa952ba7f163c4a11628f55a4df523b3efa2646970667358221220fb7d7970a3267e600123cbc8d9d80552effe4afcd770a1505d6df58845d1555f64736f6c63430008100033",
  "devdoc": {
    "kind": "dev",
    "methods": {
      "_acceptAdmin()": {
        "details": "Admin function for pending admin to accept role and update admin",
        "returns": {
          "_0": "uint 0=success, otherwise a failure (see ErrorReporter.sol for details)"
        }
      },
      "_addReserves()": {
        "returns": {
          "_0": "uint 0=success, otherwise a failure (see ErrorReporter.sol for details)"
        }
      },
      "_reduceReserves(uint256)": {
        "params": {
          "reduceAmount": "Amount of reduction to reserves"
        },
        "returns": {
          "_0": "uint 0=success, otherwise a failure (see ErrorReporter.sol for details)"
        }
      },
      "_setComptroller(address)": {
        "details": "Admin function to set a new comptroller",
        "returns": {
          "_0": "uint 0=success, otherwise a failure (see ErrorReporter.sol for details)"
        }
      },
      "_setInterestRateModel(address)": {
        "details": "Admin function to accrue interest and update the interest rate model",
        "params": {
          "newInterestRateModel": "the new interest rate model to use"
        },
        "returns": {
          "_0": "uint 0=success, otherwise a failure (see ErrorReporter.sol for details)"
        }
      },
      "_setPendingAdmin(address)": {
        "details": "Admin function to begin change of admin. The newPendingAdmin must call `_acceptAdmin` to finalize the transfer.",
        "params": {
          "newPendingAdmin": "New pending admin."
        },
        "returns": {
          "_0": "uint 0=success, otherwise a failure (see ErrorReporter.sol for details)"
        }
      },
      "_setReserveFactor(uint256)": {
        "details": "Admin function to accrue interest and set a new reserve factor",
        "returns": {
          "_0": "uint 0=success, otherwise a failure (see ErrorReporter.sol for details)"
        }
      },
      "_setReserveGuardian(address)": {
        "params": {
          "newReserveGuardian": "New reserve guardian address"
        },
        "returns": {
          "_0": "uint 0=success, otherwise a failure (see ErrorReporter.sol for details)"
        }
      },
      "accrueInterest()": {
        "details": "This calculates interest accrued from the last checkpointed block   up to the current block and writes new checkpoint to storage."
      },
      "allowance(address,address)": {
        "params": {
          "owner": "The address of the account which owns the tokens to be spent",
          "spender": "The address of the account which may transfer tokens"
        },
        "returns": {
          "_0": "The number of tokens allowed to be spent (-1 means infinite)"
        }
      },
      "approve(address,uint256)": {
        "details": "This will overwrite the approval amount for `spender`  and is subject to issues noted [here](https://eips.ethereum.org/EIPS/eip-20#approve)",
        "params": {
          "amount": "The number of tokens that are approved (uint256.max means infinite)",
          "spender": "The address of the account which may transfer tokens"
        },
        "returns": {
          "_0": "Whether or not the approval succeeded"
        }
      },
      "balanceOf(address)": {
        "params": {
          "owner": "The address of the account to query"
        },
        "returns": {
          "_0": "The number of tokens owned by `owner`"
        }
      },
      "balanceOfUnderlying(address)": {
        "details": "This also accrues interest in a transaction",
        "params": {
          "owner": "The address of the account to query"
        },
        "returns": {
          "_0": "The amount of underlying owned by `owner`"
        }
      },
      "borrow(uint256)": {
        "params": {
          "borrowAmount": "The amount of the underlying asset to borrow"
        },
        "returns": {
          "_0": "uint 0=success, otherwise a failure (see ErrorReporter.sol for details)"
        }
      },
      "borrowBalanceCurrent(address)": {
        "params": {
          "account": "The address whose balance should be calculated after updating borrowIndex"
        },
        "returns": {
          "_0": "The calculated balance"
        }
      },
      "borrowBalanceStored(address)": {
        "params": {
          "account": "The address whose balance should be calculated"
        },
        "returns": {
          "_0": "The calculated balance"
        }
      },
      "borrowRatePerBlock()": {
        "returns": {
          "_0": "The borrow interest rate per block, scaled by 1e18"
        }
      },
      "exchangeRateCurrent()": {
        "returns": {
          "_0": "Calculated exchange rate scaled by 1e18"
        }
      },
      "exchangeRateStored()": {
        "details": "This function does not accrue interest before calculating the exchange rate",
        "returns": {
          "_0": "Calculated exchange rate scaled by 1e18"
        }
      },
      "getAccountSnapshot(address)": {
        "details": "This is used by comptroller to more efficiently perform liquidity checks.",
        "params": {
          "account": "Address of the account to snapshot"
        },
        "returns": {
          "_0": "(possible error, token balance, borrow balance, exchange rate mantissa)"
        }
      },
      "getCash()": {
        "returns": {
          "_0": "The quantity of underlying asset owned by this contract"
        }
      },
      "initialize(address,address,uint256,string,string,uint8)": {
        "params": {
          "comptroller_": "The address of the Comptroller",
          "decimals_": "EIP-20 decimal precision of this token",
          "initialExchangeRateMantissa_": "The initial exchange rate, scaled by 1e18",
          "interestRateModel_": "The address of the interest rate model",
          "name_": "EIP-20 name of this token",
          "symbol_": "EIP-20 symbol of this token"
        }
      },
      "liquidateBorrow(address,address)": {
        "details": "Reverts upon any failure",
        "params": {
          "borrower": "The borrower of this cToken to be liquidated",
          "cTokenCollateral": "The market in which to seize collateral from the borrower"
        }
      },
      "mint()": {
        "details": "Reverts upon any failure"
      },
      "mint(uint256)": {
        "details": "Reverts upon any failure",
        "params": {
          "mintAmount": "The amount of the underlying asset to supply"
        }
      },
      "proxyInitialize(address,address,address,uint256,string,string,uint8,address)": {
        "params": {
          "comptroller_": "The address of the Comptroller",
          "decimals_": "ERC-20 decimal precision of this token",
          "initialExchangeRateMantissa_": "The initial exchange rate, scaled by 1e18",
          "interestRateModel_": "The address of the interest rate model",
          "name_": "ERC-20 name of this token",
          "symbol_": "ERC-20 symbol of this token",
          "underlying_": "The address of the underlying asset"
        }
      },
      "redeem(uint256)": {
        "details": "Accrues interest whether or not the operation succeeds, unless reverted",
        "params": {
          "redeemTokens": "The number of cTokens to redeem into underlying"
        },
        "returns": {
          "_0": "uint 0=success, otherwise a failure (see ErrorReporter.sol for details)"
        }
      },
      "redeemUnderlying(uint256)": {
        "details": "Accrues interest whether or not the operation succeeds, unless reverted",
        "params": {
          "redeemAmount": "The amount of underlying to redeem"
        },
        "returns": {
          "_0": "uint 0=success, otherwise a failure (see ErrorReporter.sol for details)"
        }
      },
      "repayBorrow()": {
        "details": "Reverts upon any failure"
      },
      "repayBorrowBehalf(address)": {
        "details": "Reverts upon any failure",
        "params": {
          "borrower": "the account with the debt being payed off"
        }
      },
      "seize(address,address,uint256)": {
        "details": "Will fail unless called by another cToken during the process of liquidation.  Its absolutely critical to use msg.sender as the borrowed cToken and not a parameter.",
        "params": {
          "borrower": "The account having collateral seized",
          "liquidator": "The account receiving seized collateral",
          "seizeTokens": "The number of cTokens to seize"
        },
        "returns": {
          "_0": "uint 0=success, otherwise a failure (see ErrorReporter.sol for details)"
        }
      },
      "supplyRatePerBlock()": {
        "returns": {
          "_0": "The supply interest rate per block, scaled by 1e18"
        }
      },
      "totalBorrowsCurrent()": {
        "returns": {
          "_0": "The total borrows with interest"
        }
      },
      "transfer(address,uint256)": {
        "params": {
          "amount": "The number of tokens to transfer",
          "dst": "The address of the destination account"
        },
        "returns": {
          "_0": "Whether or not the transfer succeeded"
        }
      },
      "transferFrom(address,address,uint256)": {
        "params": {
          "amount": "The number of tokens to transfer",
          "dst": "The address of the destination account",
          "src": "The address of the source account"
        },
        "returns": {
          "_0": "Whether or not the transfer succeeded"
        }
      }
    },
    "title": "CEtherUpgradeable Contract",
    "version": 1
  },
  "userdoc": {
    "events": {
      "AccrueInterest(uint256,uint256,uint256,uint256)": {
        "notice": "Event emitted when interest is accrued"
      },
      "Approval(address,address,uint256)": {
        "notice": "EIP20 Approval event"
      },
      "Borrow(address,uint256,uint256,uint256)": {
        "notice": "Event emitted when underlying is borrowed"
      },
      "LiquidateBorrow(address,address,uint256,address,uint256)": {
        "notice": "Event emitted when a borrow is liquidated"
      },
      "Mint(address,uint256,uint256)": {
        "notice": "Event emitted when tokens are minted"
      },
      "NewAdmin(address,address)": {
        "notice": "Event emitted when pendingAdmin is accepted, which means admin is updated"
      },
      "NewComptroller(address,address)": {
        "notice": "Event emitted when comptroller is changed"
      },
      "NewMarketInterestRateModel(address,address)": {
        "notice": "Event emitted when interestRateModel is changed"
      },
      "NewPendingAdmin(address,address)": {
        "notice": "Event emitted when pendingAdmin is changed"
      },
      "NewReserveFactor(uint256,uint256)": {
        "notice": "Event emitted when the reserve factor is changed"
      },
      "NewReserveGuardian(address,address)": {
        "notice": "Event emitted when reserve guardian is changed"
      },
      "Redeem(address,uint256,uint256)": {
        "notice": "Event emitted when tokens are redeemed"
      },
      "RepayBorrow(address,address,uint256,uint256,uint256)": {
        "notice": "Event emitted when a borrow is repaid"
      },
      "ReservesAdded(address,uint256,uint256)": {
        "notice": "Event emitted when the reserves are added"
      },
      "ReservesReduced(address,uint256,uint256)": {
        "notice": "Event emitted when the reserves are reduced"
      },
      "Transfer(address,address,uint256)": {
        "notice": "EIP20 Transfer event"
      }
    },
    "kind": "user",
    "methods": {
      "_acceptAdmin()": {
        "notice": "Accepts transfer of admin rights. msg.sender must be pendingAdmin"
      },
      "_addReserves()": {
        "notice": "The sender adds to reserves."
      },
      "_reduceReserves(uint256)": {
        "notice": "Accrues interest and reduces reserves by transferring to admin"
      },
      "_setComptroller(address)": {
        "notice": "Sets a new comptroller for the market"
      },
      "_setInterestRateModel(address)": {
        "notice": "accrues interest and updates the interest rate model using _setInterestRateModelFresh"
      },
      "_setPendingAdmin(address)": {
        "notice": "Begins transfer of admin rights. The newPendingAdmin must call `_acceptAdmin` to finalize the transfer."
      },
      "_setReserveFactor(uint256)": {
        "notice": "accrues interest and sets a new reserve factor for the protocol using _setReserveFactorFresh"
      },
      "_setReserveGuardian(address)": {
        "notice": "Admin function to set new reserve guardian"
      },
      "accrualBlockNumber()": {
        "notice": "Block number that interest was last accrued at"
      },
      "accrueInterest()": {
        "notice": "Applies accrued interest to total borrows and reserves"
      },
      "admin()": {
        "notice": "Administrator for this contract"
      },
      "allowance(address,address)": {
        "notice": "Get the current allowance from `owner` for `spender`"
      },
      "approve(address,uint256)": {
        "notice": "Approve `spender` to transfer up to `amount` from `src`"
      },
      "balanceOf(address)": {
        "notice": "Get the token balance of the `owner`"
      },
      "balanceOfUnderlying(address)": {
        "notice": "Get the underlying balance of the `owner`"
      },
      "borrow(uint256)": {
        "notice": "Sender borrows assets from the protocol to their own address"
      },
      "borrowBalanceCurrent(address)": {
        "notice": "Accrue interest to updated borrowIndex and then calculate account's borrow balance using the updated borrowIndex"
      },
      "borrowBalanceStored(address)": {
        "notice": "Return the borrow balance of account based on stored data"
      },
      "borrowIndex()": {
        "notice": "Accumulator of the total earned interest rate since the opening of the market"
      },
      "borrowRatePerBlock()": {
        "notice": "Returns the current per-block borrow interest rate for this cToken"
      },
      "comptroller()": {
        "notice": "Contract which oversees inter-cToken operations"
      },
      "decimals()": {
        "notice": "EIP-20 token decimals for this token"
      },
      "exchangeRateCurrent()": {
        "notice": "Accrue interest then return the up-to-date exchange rate"
      },
      "exchangeRateStored()": {
        "notice": "Calculates the exchange rate from the underlying to the CToken"
      },
      "getAccountSnapshot(address)": {
        "notice": "Get a snapshot of the account's balances, and the cached exchange rate"
      },
      "getCash()": {
        "notice": "Get cash balance of this cToken in the underlying asset"
      },
      "initialize(address,address,uint256,string,string,uint8)": {
        "notice": "Initialize the money market"
      },
      "interestRateModel()": {
        "notice": "Model which tells what the current interest rate should be"
      },
      "isCToken()": {
        "notice": "Indicator that this is a CToken contract (for inspection)"
      },
      "liquidateBorrow(address,address)": {
        "notice": "The sender liquidates the borrowers collateral.  The collateral seized is transferred to the liquidator."
      },
      "mint()": {
        "notice": "Sender supplies assets into the market and receives cTokens in exchange"
      },
      "mint(uint256)": {
        "notice": "Sender supplies assets into the market and receives cTokens in exchange"
      },
      "name()": {
        "notice": "EIP-20 token name for this token"
      },
      "pendingAdmin()": {
        "notice": "Pending administrator for this contract"
      },
      "protocolSeizeShareMantissa()": {
        "notice": "Share of seized collateral that is added to reserves"
      },
      "proxyInitialize(address,address,address,uint256,string,string,uint8,address)": {
        "notice": "Initialize the new money market"
      },
      "redeem(uint256)": {
        "notice": "Sender redeems cTokens in exchange for the underlying asset"
      },
      "redeemUnderlying(uint256)": {
        "notice": "Sender redeems cTokens in exchange for a specified amount of underlying asset"
      },
      "repayBorrow()": {
        "notice": "Sender repays their own borrow"
      },
      "repayBorrowBehalf(address)": {
        "notice": "Sender repays a borrow belonging to borrower"
      },
      "reserveFactorMantissa()": {
        "notice": "Fraction of interest currently set aside for reserves"
      },
      "reserveGuardian()": {
        "notice": "The reserve guardian can reduce the reserves of the market"
      },
      "seize(address,address,uint256)": {
        "notice": "Transfers collateral tokens (this market) to the liquidator."
      },
      "supplyRatePerBlock()": {
        "notice": "Returns the current per-block supply interest rate for this cToken"
      },
      "symbol()": {
        "notice": "EIP-20 token symbol for this token"
      },
      "totalBorrows()": {
        "notice": "Total amount of outstanding borrows of the underlying in this market"
      },
      "totalBorrowsCurrent()": {
        "notice": "Returns the current total borrows plus accrued interest"
      },
      "totalReserves()": {
        "notice": "Total amount of reserves of the underlying held in this market"
      },
      "totalSupply()": {
        "notice": "Total number of tokens in circulation"
      },
      "transfer(address,uint256)": {
        "notice": "Transfer `amount` tokens from `msg.sender` to `dst`"
      },
      "transferFrom(address,address,uint256)": {
        "notice": "Transfer `amount` tokens from `src` to `dst`"
      }
    },
    "notice": "CTokens which wrap an ETH(WEMIX)",
    "version": 1
  },
  "storageLayout": {
    "storage": [
      {
        "astId": 138,
        "contract": "contracts/CEtherUpgradeable.sol:CEtherUpgradeable",
        "label": "_initialized",
        "offset": 0,
        "slot": "0",
        "type": "t_uint8"
      },
      {
        "astId": 141,
        "contract": "contracts/CEtherUpgradeable.sol:CEtherUpgradeable",
        "label": "_initializing",
        "offset": 1,
        "slot": "0",
        "type": "t_bool"
      },
      {
        "astId": 4727,
        "contract": "contracts/CEtherUpgradeable.sol:CEtherUpgradeable",
        "label": "_notEntered",
        "offset": 2,
        "slot": "0",
        "type": "t_bool"
      },
      {
        "astId": 4730,
        "contract": "contracts/CEtherUpgradeable.sol:CEtherUpgradeable",
        "label": "name",
        "offset": 0,
        "slot": "1",
        "type": "t_string_storage"
      },
      {
        "astId": 4733,
        "contract": "contracts/CEtherUpgradeable.sol:CEtherUpgradeable",
        "label": "symbol",
        "offset": 0,
        "slot": "2",
        "type": "t_string_storage"
      },
      {
        "astId": 4736,
        "contract": "contracts/CEtherUpgradeable.sol:CEtherUpgradeable",
        "label": "decimals",
        "offset": 0,
        "slot": "3",
        "type": "t_uint8"
      },
      {
        "astId": 4745,
        "contract": "contracts/CEtherUpgradeable.sol:CEtherUpgradeable",
        "label": "admin",
        "offset": 1,
        "slot": "3",
        "type": "t_address_payable"
      },
      {
        "astId": 4748,
        "contract": "contracts/CEtherUpgradeable.sol:CEtherUpgradeable",
        "label": "pendingAdmin",
        "offset": 0,
        "slot": "4",
        "type": "t_address_payable"
      },
      {
        "astId": 4752,
        "contract": "contracts/CEtherUpgradeable.sol:CEtherUpgradeable",
        "label": "comptroller",
        "offset": 0,
        "slot": "5",
        "type": "t_contract(ComptrollerInterface)8582"
      },
      {
        "astId": 4756,
        "contract": "contracts/CEtherUpgradeable.sol:CEtherUpgradeable",
        "label": "interestRateModel",
        "offset": 0,
        "slot": "6",
        "type": "t_contract(InterestRateModel)9718"
      },
      {
        "astId": 4758,
        "contract": "contracts/CEtherUpgradeable.sol:CEtherUpgradeable",
        "label": "initialExchangeRateMantissa",
        "offset": 0,
        "slot": "7",
        "type": "t_uint256"
      },
      {
        "astId": 4761,
        "contract": "contracts/CEtherUpgradeable.sol:CEtherUpgradeable",
        "label": "reserveFactorMantissa",
        "offset": 0,
        "slot": "8",
        "type": "t_uint256"
      },
      {
        "astId": 4764,
        "contract": "contracts/CEtherUpgradeable.sol:CEtherUpgradeable",
        "label": "accrualBlockNumber",
        "offset": 0,
        "slot": "9",
        "type": "t_uint256"
      },
      {
        "astId": 4767,
        "contract": "contracts/CEtherUpgradeable.sol:CEtherUpgradeable",
        "label": "borrowIndex",
        "offset": 0,
        "slot": "10",
        "type": "t_uint256"
      },
      {
        "astId": 4770,
        "contract": "contracts/CEtherUpgradeable.sol:CEtherUpgradeable",
        "label": "totalBorrows",
        "offset": 0,
        "slot": "11",
        "type": "t_uint256"
      },
      {
        "astId": 4773,
        "contract": "contracts/CEtherUpgradeable.sol:CEtherUpgradeable",
        "label": "totalReserves",
        "offset": 0,
        "slot": "12",
        "type": "t_uint256"
      },
      {
        "astId": 4776,
        "contract": "contracts/CEtherUpgradeable.sol:CEtherUpgradeable",
        "label": "totalSupply",
        "offset": 0,
        "slot": "13",
        "type": "t_uint256"
      },
      {
        "astId": 4780,
        "contract": "contracts/CEtherUpgradeable.sol:CEtherUpgradeable",
        "label": "accountTokens",
        "offset": 0,
        "slot": "14",
        "type": "t_mapping(t_address,t_uint256)"
      },
      {
        "astId": 4786,
        "contract": "contracts/CEtherUpgradeable.sol:CEtherUpgradeable",
        "label": "transferAllowances",
        "offset": 0,
        "slot": "15",
        "type": "t_mapping(t_address,t_mapping(t_address,t_uint256))"
      },
      {
        "astId": 4796,
        "contract": "contracts/CEtherUpgradeable.sol:CEtherUpgradeable",
        "label": "accountBorrows",
        "offset": 0,
        "slot": "16",
        "type": "t_mapping(t_address,t_struct(BorrowSnapshot)4791_storage)"
      },
      {
        "astId": 4803,
        "contract": "contracts/CEtherUpgradeable.sol:CEtherUpgradeable",
        "label": "reserveGuardian",
        "offset": 0,
        "slot": "17",
        "type": "t_address_payable"
      }
    ],
    "types": {
      "t_address": {
        "encoding": "inplace",
        "label": "address",
        "numberOfBytes": "20"
      },
      "t_address_payable": {
        "encoding": "inplace",
        "label": "address payable",
        "numberOfBytes": "20"
      },
      "t_bool": {
        "encoding": "inplace",
        "label": "bool",
        "numberOfBytes": "1"
      },
      "t_contract(ComptrollerInterface)8582": {
        "encoding": "inplace",
        "label": "contract ComptrollerInterface",
        "numberOfBytes": "20"
      },
      "t_contract(InterestRateModel)9718": {
        "encoding": "inplace",
        "label": "contract InterestRateModel",
        "numberOfBytes": "20"
      },
      "t_mapping(t_address,t_mapping(t_address,t_uint256))": {
        "encoding": "mapping",
        "key": "t_address",
        "label": "mapping(address => mapping(address => uint256))",
        "numberOfBytes": "32",
        "value": "t_mapping(t_address,t_uint256)"
      },
      "t_mapping(t_address,t_struct(BorrowSnapshot)4791_storage)": {
        "encoding": "mapping",
        "key": "t_address",
        "label": "mapping(address => struct CTokenStorage.BorrowSnapshot)",
        "numberOfBytes": "32",
        "value": "t_struct(BorrowSnapshot)4791_storage"
      },
      "t_mapping(t_address,t_uint256)": {
        "encoding": "mapping",
        "key": "t_address",
        "label": "mapping(address => uint256)",
        "numberOfBytes": "32",
        "value": "t_uint256"
      },
      "t_string_storage": {
        "encoding": "bytes",
        "label": "string",
        "numberOfBytes": "32"
      },
      "t_struct(BorrowSnapshot)4791_storage": {
        "encoding": "inplace",
        "label": "struct CTokenStorage.BorrowSnapshot",
        "members": [
          {
            "astId": 4788,
            "contract": "contracts/CEtherUpgradeable.sol:CEtherUpgradeable",
            "label": "principal",
            "offset": 0,
            "slot": "0",
            "type": "t_uint256"
          },
          {
            "astId": 4790,
            "contract": "contracts/CEtherUpgradeable.sol:CEtherUpgradeable",
            "label": "interestIndex",
            "offset": 0,
            "slot": "1",
            "type": "t_uint256"
          }
        ],
        "numberOfBytes": "64"
      },
      "t_uint256": {
        "encoding": "inplace",
        "label": "uint256",
        "numberOfBytes": "32"
      },
      "t_uint8": {
        "encoding": "inplace",
        "label": "uint8",
        "numberOfBytes": "1"
      }
    }
  }
}