{
  "address": "0x037d45CA2b024a25a6091212761E0757227b60C8",
  "abi": [
    {
      "anonymous": false,
      "inputs": [
        {
          "indexed": false,
          "internalType": "uint8",
          "name": "version",
          "type": "uint8"
        }
      ],
      "name": "Initialized",
      "type": "event"
    },
    {
      "anonymous": false,
      "inputs": [
        {
          "indexed": true,
          "internalType": "address",
          "name": "previousOwner",
          "type": "address"
        },
        {
          "indexed": true,
          "internalType": "address",
          "name": "newOwner",
          "type": "address"
        }
      ],
      "name": "OwnershipTransferred",
      "type": "event"
    },
    {
      "inputs": [
        {
          "internalType": "string",
          "name": "",
          "type": "string"
        }
      ],
      "name": "baseUnits",
      "outputs": [
        {
          "internalType": "uint256",
          "name": "",
          "type": "uint256"
        }
      ],
      "stateMutability": "view",
      "type": "function"
    },
    {
      "inputs": [],
      "name": "fallBackPriceCalculator",
      "outputs": [
        {
          "internalType": "contract IPriceCalculator",
          "name": "",
          "type": "address"
        }
      ],
      "stateMutability": "view",
      "type": "function"
    },
    {
      "inputs": [
        {
          "internalType": "contract CToken",
          "name": "cToken",
          "type": "address"
        }
      ],
      "name": "getPrice",
      "outputs": [
        {
          "internalType": "uint256",
          "name": "",
          "type": "uint256"
        }
      ],
      "stateMutability": "view",
      "type": "function"
    },
    {
      "inputs": [],
      "name": "getStoneExchangeRate",
      "outputs": [
        {
          "internalType": "uint256",
          "name": "",
          "type": "uint256"
        }
      ],
      "stateMutability": "view",
      "type": "function"
    },
    {
      "inputs": [
        {
          "internalType": "contract CToken",
          "name": "cToken",
          "type": "address"
        }
      ],
      "name": "getUnderlyingPrice",
      "outputs": [
        {
          "internalType": "uint256",
          "name": "",
          "type": "uint256"
        }
      ],
      "stateMutability": "view",
      "type": "function"
    },
    {
      "inputs": [
        {
          "internalType": "string[]",
          "name": "_cTokenSymbols",
          "type": "string[]"
        },
        {
          "internalType": "uint256[]",
          "name": "_baseUnits",
          "type": "uint256[]"
        },
        {
          "internalType": "address[]",
          "name": "_underlying",
          "type": "address[]"
        }
      ],
      "name": "initialize",
      "outputs": [],
      "stateMutability": "nonpayable",
      "type": "function"
    },
    {
      "inputs": [],
      "name": "isPriceOracle",
      "outputs": [
        {
          "internalType": "bool",
          "name": "",
          "type": "bool"
        }
      ],
      "stateMutability": "view",
      "type": "function"
    },
    {
      "inputs": [
        {
          "internalType": "address",
          "name": "",
          "type": "address"
        }
      ],
      "name": "isReporter",
      "outputs": [
        {
          "internalType": "bool",
          "name": "",
          "type": "bool"
        }
      ],
      "stateMutability": "view",
      "type": "function"
    },
    {
      "inputs": [],
      "name": "owner",
      "outputs": [
        {
          "internalType": "address",
          "name": "",
          "type": "address"
        }
      ],
      "stateMutability": "view",
      "type": "function"
    },
    {
      "inputs": [
        {
          "internalType": "address",
          "name": "asset",
          "type": "address"
        }
      ],
      "name": "priceOf",
      "outputs": [
        {
          "internalType": "uint256",
          "name": "",
          "type": "uint256"
        }
      ],
      "stateMutability": "view",
      "type": "function"
    },
    {
      "inputs": [],
      "name": "priceOfETH",
      "outputs": [
        {
          "internalType": "uint256",
          "name": "",
          "type": "uint256"
        }
      ],
      "stateMutability": "view",
      "type": "function"
    },
    {
      "inputs": [
        {
          "internalType": "address",
          "name": "",
          "type": "address"
        }
      ],
      "name": "references",
      "outputs": [
        {
          "internalType": "uint256",
          "name": "lastData",
          "type": "uint256"
        },
        {
          "internalType": "uint256",
          "name": "lastUpdated",
          "type": "uint256"
        }
      ],
      "stateMutability": "view",
      "type": "function"
    },
    {
      "inputs": [],
      "name": "renounceOwnership",
      "outputs": [],
      "stateMutability": "nonpayable",
      "type": "function"
    },
    {
      "inputs": [
        {
          "internalType": "string[]",
          "name": "_cTokenSymbols",
          "type": "string[]"
        },
        {
          "internalType": "uint256[]",
          "name": "_baseUnits",
          "type": "uint256[]"
        },
        {
          "internalType": "address[]",
          "name": "_underlying",
          "type": "address[]"
        }
      ],
      "name": "setCTokenInfos",
      "outputs": [],
      "stateMutability": "nonpayable",
      "type": "function"
    },
    {
      "inputs": [
        {
          "internalType": "address",
          "name": "_fallBackPriceCalculator",
          "type": "address"
        }
      ],
      "name": "setFallBackPriceCalculator",
      "outputs": [],
      "stateMutability": "nonpayable",
      "type": "function"
    },
    {
      "inputs": [
        {
          "internalType": "address",
          "name": "asset",
          "type": "address"
        },
        {
          "internalType": "uint256",
          "name": "price",
          "type": "uint256"
        }
      ],
      "name": "setPrice",
      "outputs": [],
      "stateMutability": "nonpayable",
      "type": "function"
    },
    {
      "inputs": [
        {
          "internalType": "address[]",
          "name": "assets",
          "type": "address[]"
        },
        {
          "internalType": "uint256[]",
          "name": "prices",
          "type": "uint256[]"
        }
      ],
      "name": "setPrices",
      "outputs": [],
      "stateMutability": "nonpayable",
      "type": "function"
    },
    {
      "inputs": [
        {
          "internalType": "address",
          "name": "reporter",
          "type": "address"
        },
        {
          "internalType": "bool",
          "name": "status",
          "type": "bool"
        }
      ],
      "name": "setReporter",
      "outputs": [],
      "stateMutability": "nonpayable",
      "type": "function"
    },
    {
      "inputs": [],
      "name": "stone",
      "outputs": [
        {
          "internalType": "address",
          "name": "",
          "type": "address"
        }
      ],
      "stateMutability": "view",
      "type": "function"
    },
    {
      "inputs": [
        {
          "internalType": "address",
          "name": "newOwner",
          "type": "address"
        }
      ],
      "name": "transferOwnership",
      "outputs": [],
      "stateMutability": "nonpayable",
      "type": "function"
    },
    {
      "inputs": [
        {
          "internalType": "string",
          "name": "",
          "type": "string"
        }
      ],
      "name": "underlying",
      "outputs": [
        {
          "internalType": "address",
          "name": "",
          "type": "address"
        }
      ],
      "stateMutability": "view",
      "type": "function"
    }
  ],
  "transactionHash": "0x77a8085603be224b81b75178c7ef354ff26d658cd8283eee41ecf8c1dfc48305",
  "args": [],
  "numDeployments": 1,
  "solcInputHash": "655b370b2e3a07703c9005ed44e53351",
  "bytecode": "0x608060405234801561001057600080fd5b506114e9806100206000396000f3fe608060405234801561001057600080fd5b50600436106101365760003560e01c80635c8ed2f3116100b85780638da5cb5b1161007c5780638da5cb5b146102db578063b95ed06f146102ec578063cae7a883146102ff578063e1bb513314610312578063f2fde38b14610325578063fc57d4df1461033857600080fd5b80635c8ed2f31461027457806366331bba146102b0578063715018a6146102b8578063858b033d146102c0578063869ccf8a146102c857600080fd5b80632e96347d116100ff5780632e96347d146101fa57806341976e09146102105780634352fa9f146102235780635100368314610236578063577279041461026157600080fd5b8062e4768b1461013b5780630167eb8514610150578063044ad7be14610180578063186721f1146101b3578063299ae753146101c6575b600080fd5b61014e610149366004610da7565b61034b565b005b606b54610163906001600160a01b031681565b6040516001600160a01b0390911681526020015b60405180910390f35b6101a361018e366004610dd3565b60686020526000908152604090205460ff1681565b6040519015158152602001610177565b61014e6101c1366004610dd3565b6103bd565b6101636101d4366004610eb5565b8051602081830181018051606a825292820191909301209152546001600160a01b031681565b6102026103e7565b604051908152602001610177565b61020261021e366004610dd3565b61045a565b61014e610231366004610f3e565b610506565b610202610244366004610eb5565b805160208183018101805160698252928201919093012091525481565b61014e61026f366004611098565b6105d8565b61029b610282366004610dd3565b6067602052600090815260409020805460019091015482565b60408051928352602083019190915201610177565b6101a3600181565b61014e6106cb565b6102026106df565b606654610163906001600160a01b031681565b6033546001600160a01b0316610163565b6102026102fa366004610dd3565b6107d1565b61014e61030d366004611098565b6108c9565b61014e610320366004611190565b610ae1565b61014e610333366004610dd3565b610b14565b610202610346366004610dd3565b610b8d565b3360009081526068602052604090205460ff166103835760405162461bcd60e51b815260040161037a906111ce565b60405180910390fd5b6040805180820182529182524260208084019182526001600160a01b03909416600090815260679094529220905181559051600190910155565b6103c5610c8c565b606680546001600160a01b0319166001600160a01b0392909216919091179055565b606b5460408051633ffcdacb60e11b815290516000926001600160a01b031691637ff9b5969160048083019260209291908290030181865afa158015610431573d6000803e3d6000fd5b505050506040513d601f19601f820116820180604052508101906104559190611218565b905090565b600080826001600160a01b03166395d89b416040518163ffffffff1660e01b8152600401600060405180830381865afa15801561049b573d6000803e3d6000fd5b505050506040513d6000823e601f3d908101601f191682016040526104c39190810190611255565b90506000606a826040516104d791906112c3565b908152604051908190036020019020546001600160a01b0316905060006104fd826107d1565b95945050505050565b3360009081526068602052604090205460ff166105355760405162461bcd60e51b815260040161037a906111ce565b60005b838110156105d157604051806040016040528084848481811061055d5761055d6112df565b9050602002013581526020014281525060676000878785818110610583576105836112df565b90506020020160208101906105989190610dd3565b6001600160a01b0316815260208082019290925260400160002082518155910151600190910155806105c98161130b565b915050610538565b5050505050565b6105e0610c8c565b60005b83518110156106c5578281815181106105fe576105fe6112df565b6020026020010151606985838151811061061a5761061a6112df565b602002602001015160405161062f91906112c3565b908152602001604051809103902081905550818181518110610653576106536112df565b6020026020010151606a85838151811061066f5761066f6112df565b602002602001015160405161068491906112c3565b90815260405190819003602001902080546001600160a01b03929092166001600160a01b0319909216919091179055806106bd8161130b565b9150506105e3565b50505050565b6106d3610c8c565b6106dd6000610ce6565b565b600080805260676020908152604080518082019091527fd4e1ac8b62c3ff1e2c1b7113742533b8310ce5ab8a8767ead9ba8b250c7e3cc95481527fd4e1ac8b62c3ff1e2c1b7113742533b8310ce5ab8a8767ead9ba8b250c7e3cca5491810182905260655490916107509042611324565b101561075c5751919050565b6066546040805163858b033d60e01b815290516000926001600160a01b03169163858b033d9160048083019260209291908290030181865afa1580156107a6573d6000803e3d6000fd5b505050506040513d601f19601f820116820180604052508101906107ca9190611218565b9392505050565b60006001600160a01b0382166107ef576107e96106df565b92915050565b606b546001600160a01b039081169083160361083257670de0b6b3a76400006108166106df565b61081e6103e7565b6108289190611337565b6107e99190611356565b6001600160a01b03821660009081526067602090815260409182902082518084019093528054835260010154908201819052606554906108729042611324565b101561087f575192915050565b60665460405163b95ed06f60e01b81526001600160a01b0385811660048301529091169063b95ed06f90602401602060405180830381865afa1580156107a6573d6000803e3d6000fd5b600054610100900460ff16158080156108e95750600054600160ff909116105b806109035750303b158015610903575060005460ff166001145b6109665760405162461bcd60e51b815260206004820152602e60248201527f496e697469616c697a61626c653a20636f6e747261637420697320616c72656160448201526d191e481a5b9a5d1a585b1a5e995960921b606482015260840161037a565b6000805460ff191660011790558015610989576000805461ff0019166101001790555b610991610d38565b336000908152606860205260408120805460ff191660011790556203f4806065555b8451811015610a95578381815181106109ce576109ce6112df565b602002602001015160698683815181106109ea576109ea6112df565b60200260200101516040516109ff91906112c3565b908152602001604051809103902081905550828181518110610a2357610a236112df565b6020026020010151606a868381518110610a3f57610a3f6112df565b6020026020010151604051610a5491906112c3565b90815260405190819003602001902080546001600160a01b03929092166001600160a01b031990921691909117905580610a8d8161130b565b9150506109b3565b5080156106c5576000805461ff0019169055604051600181527f7f26b83ff96e1f2b6a682f133852f6798a09c465da95921460cefb38474024989060200160405180910390a150505050565b610ae9610c8c565b6001600160a01b03919091166000908152606860205260409020805460ff1916911515919091179055565b610b1c610c8c565b6001600160a01b038116610b815760405162461bcd60e51b815260206004820152602660248201527f4f776e61626c653a206e6577206f776e657220697320746865207a65726f206160448201526564647265737360d01b606482015260840161037a565b610b8a81610ce6565b50565b600080826001600160a01b03166395d89b416040518163ffffffff1660e01b8152600401600060405180830381865afa158015610bce573d6000803e3d6000fd5b505050506040513d6000823e601f3d908101601f19168201604052610bf69190810190611255565b90506000601290506000606a83604051610c1091906112c3565b908152604051908190036020019020546001600160a01b031690506000610c36826107d1565b9050606984604051610c4891906112c3565b90815260405190819003602001902054610c63846024611324565b610c6e90600a61145c565b610c789083611337565b610c829190611356565b9695505050505050565b6033546001600160a01b031633146106dd5760405162461bcd60e51b815260206004820181905260248201527f4f776e61626c653a2063616c6c6572206973206e6f7420746865206f776e6572604482015260640161037a565b603380546001600160a01b038381166001600160a01b0319831681179093556040519116919082907f8be0079c531659141344cd1fd0a4f28419497f9722a3daafe3b4186f6b6457e090600090a35050565b600054610100900460ff16610d5f5760405162461bcd60e51b815260040161037a90611468565b6106dd600054610100900460ff16610d895760405162461bcd60e51b815260040161037a90611468565b6106dd33610ce6565b6001600160a01b0381168114610b8a57600080fd5b60008060408385031215610dba57600080fd5b8235610dc581610d92565b946020939093013593505050565b600060208284031215610de557600080fd5b81356107ca81610d92565b634e487b7160e01b600052604160045260246000fd5b604051601f8201601f1916810167ffffffffffffffff81118282101715610e2f57610e2f610df0565b604052919050565b600067ffffffffffffffff821115610e5157610e51610df0565b50601f01601f191660200190565b600082601f830112610e7057600080fd5b8135610e83610e7e82610e37565b610e06565b818152846020838601011115610e9857600080fd5b816020850160208301376000918101602001919091529392505050565b600060208284031215610ec757600080fd5b813567ffffffffffffffff811115610ede57600080fd5b610eea84828501610e5f565b949350505050565b60008083601f840112610f0457600080fd5b50813567ffffffffffffffff811115610f1c57600080fd5b6020830191508360208260051b8501011115610f3757600080fd5b9250929050565b60008060008060408587031215610f5457600080fd5b843567ffffffffffffffff80821115610f6c57600080fd5b610f7888838901610ef2565b90965094506020870135915080821115610f9157600080fd5b50610f9e87828801610ef2565b95989497509550505050565b600067ffffffffffffffff821115610fc457610fc4610df0565b5060051b60200190565b600082601f830112610fdf57600080fd5b81356020610fef610e7e83610faa565b82815260059290921b8401810191818101908684111561100e57600080fd5b8286015b848110156110295780358352918301918301611012565b509695505050505050565b600082601f83011261104557600080fd5b81356020611055610e7e83610faa565b82815260059290921b8401810191818101908684111561107457600080fd5b8286015b8481101561102957803561108b81610d92565b8352918301918301611078565b6000806000606084860312156110ad57600080fd5b833567ffffffffffffffff808211156110c557600080fd5b818601915086601f8301126110d957600080fd5b813560206110e9610e7e83610faa565b82815260059290921b8401810191818101908a84111561110857600080fd5b8286015b84811015611140578035868111156111245760008081fd5b6111328d86838b0101610e5f565b84525091830191830161110c565b509750508701359250508082111561115757600080fd5b61116387838801610fce565b9350604086013591508082111561117957600080fd5b5061118686828701611034565b9150509250925092565b600080604083850312156111a357600080fd5b82356111ae81610d92565b9150602083013580151581146111c357600080fd5b809150509250929050565b6020808252602a908201527f53686f6562696c6c4f7261636c653a2063616c6c6572206973206e6f7420746860408201526932903932b837b93a32b960b11b606082015260800190565b60006020828403121561122a57600080fd5b5051919050565b60005b8381101561124c578181015183820152602001611234565b50506000910152565b60006020828403121561126757600080fd5b815167ffffffffffffffff81111561127e57600080fd5b8201601f8101841361128f57600080fd5b805161129d610e7e82610e37565b8181528560208385010111156112b257600080fd5b6104fd826020830160208601611231565b600082516112d5818460208701611231565b9190910192915050565b634e487b7160e01b600052603260045260246000fd5b634e487b7160e01b600052601160045260246000fd5b60006001820161131d5761131d6112f5565b5060010190565b818103818111156107e9576107e96112f5565b6000816000190483118215151615611351576113516112f5565b500290565b60008261137357634e487b7160e01b600052601260045260246000fd5b500490565b600181815b808511156113b3578160001904821115611399576113996112f5565b808516156113a657918102915b93841c939080029061137d565b509250929050565b6000826113ca575060016107e9565b816113d7575060006107e9565b81600181146113ed57600281146113f757611413565b60019150506107e9565b60ff841115611408576114086112f5565b50506001821b6107e9565b5060208310610133831016604e8410600b8410161715611436575081810a6107e9565b6114408383611378565b8060001904821115611454576114546112f5565b029392505050565b60006107ca83836113bb565b6020808252602b908201527f496e697469616c697a61626c653a20636f6e7472616374206973206e6f74206960408201526a6e697469616c697a696e6760a81b60608201526080019056fea2646970667358221220134c3d03f79c5159a1238b555f6ca42b09845b6a9e905e2612990f9f2c57538664736f6c63430008100033",
  "devdoc": {
    "kind": "dev",
    "methods": {
      "getUnderlyingPrice(address)": {
        "params": {
          "cToken": "The cToken to get the underlying price of"
        },
        "returns": {
          "_0": "The underlying asset price mantissa (scaled by 1e18).  Zero means the price is unavailable."
        }
      },
      "owner()": {
        "details": "Returns the address of the current owner."
      },
      "renounceOwnership()": {
        "details": "Leaves the contract without owner. It will not be possible to call `onlyOwner` functions. Can only be called by the current owner. NOTE: Renouncing ownership will leave the contract without an owner, thereby disabling any functionality that is only available to the owner."
      },
      "transferOwnership(address)": {
        "details": "Transfers ownership of the contract to a new account (`newOwner`). Can only be called by the current owner."
      }
    },
    "version": 1
  },
  "userdoc": {
    "kind": "user",
    "methods": {
      "getUnderlyingPrice(address)": {
        "notice": "Get the underlying price of a cToken asset"
      },
      "isPriceOracle()": {
        "notice": "Indicator that this is a PriceOracle contract (for inspection)"
      }
    },
    "version": 1
  },
  "storageLayout": {
    "storage": [
      {
        "astId": 138,
        "contract": "contracts/PriceOracle/BOBOracle.sol:BOBOracle",
        "label": "_initialized",
        "offset": 0,
        "slot": "0",
        "type": "t_uint8"
      },
      {
        "astId": 141,
        "contract": "contracts/PriceOracle/BOBOracle.sol:BOBOracle",
        "label": "_initializing",
        "offset": 1,
        "slot": "0",
        "type": "t_bool"
      },
      {
        "astId": 671,
        "contract": "contracts/PriceOracle/BOBOracle.sol:BOBOracle",
        "label": "__gap",
        "offset": 0,
        "slot": "1",
        "type": "t_array(t_uint256)50_storage"
      },
      {
        "astId": 10,
        "contract": "contracts/PriceOracle/BOBOracle.sol:BOBOracle",
        "label": "_owner",
        "offset": 0,
        "slot": "51",
        "type": "t_address"
      },
      {
        "astId": 130,
        "contract": "contracts/PriceOracle/BOBOracle.sol:BOBOracle",
        "label": "__gap",
        "offset": 0,
        "slot": "52",
        "type": "t_array(t_uint256)49_storage"
      },
      {
        "astId": 4748,
        "contract": "contracts/PriceOracle/BOBOracle.sol:BOBOracle",
        "label": "THRESHOLD",
        "offset": 0,
        "slot": "101",
        "type": "t_uint256"
      },
      {
        "astId": 4751,
        "contract": "contracts/PriceOracle/BOBOracle.sol:BOBOracle",
        "label": "fallBackPriceCalculator",
        "offset": 0,
        "slot": "102",
        "type": "t_contract(IPriceCalculator)4734"
      },
      {
        "astId": 4756,
        "contract": "contracts/PriceOracle/BOBOracle.sol:BOBOracle",
        "label": "references",
        "offset": 0,
        "slot": "103",
        "type": "t_mapping(t_address,t_struct(ReferenceData)4721_storage)"
      },
      {
        "astId": 4760,
        "contract": "contracts/PriceOracle/BOBOracle.sol:BOBOracle",
        "label": "isReporter",
        "offset": 0,
        "slot": "104",
        "type": "t_mapping(t_address,t_bool)"
      },
      {
        "astId": 4764,
        "contract": "contracts/PriceOracle/BOBOracle.sol:BOBOracle",
        "label": "baseUnits",
        "offset": 0,
        "slot": "105",
        "type": "t_mapping(t_string_memory_ptr,t_uint256)"
      },
      {
        "astId": 4768,
        "contract": "contracts/PriceOracle/BOBOracle.sol:BOBOracle",
        "label": "underlying",
        "offset": 0,
        "slot": "106",
        "type": "t_mapping(t_string_memory_ptr,t_address)"
      },
      {
        "astId": 4770,
        "contract": "contracts/PriceOracle/BOBOracle.sol:BOBOracle",
        "label": "stone",
        "offset": 0,
        "slot": "107",
        "type": "t_address"
      }
    ],
    "types": {
      "t_address": {
        "encoding": "inplace",
        "label": "address",
        "numberOfBytes": "20"
      },
      "t_array(t_uint256)49_storage": {
        "base": "t_uint256",
        "encoding": "inplace",
        "label": "uint256[49]",
        "numberOfBytes": "1568"
      },
      "t_array(t_uint256)50_storage": {
        "base": "t_uint256",
        "encoding": "inplace",
        "label": "uint256[50]",
        "numberOfBytes": "1600"
      },
      "t_bool": {
        "encoding": "inplace",
        "label": "bool",
        "numberOfBytes": "1"
      },
      "t_contract(IPriceCalculator)4734": {
        "encoding": "inplace",
        "label": "contract IPriceCalculator",
        "numberOfBytes": "20"
      },
      "t_mapping(t_address,t_bool)": {
        "encoding": "mapping",
        "key": "t_address",
        "label": "mapping(address => bool)",
        "numberOfBytes": "32",
        "value": "t_bool"
      },
      "t_mapping(t_address,t_struct(ReferenceData)4721_storage)": {
        "encoding": "mapping",
        "key": "t_address",
        "label": "mapping(address => struct IPriceCalculator.ReferenceData)",
        "numberOfBytes": "32",
        "value": "t_struct(ReferenceData)4721_storage"
      },
      "t_mapping(t_string_memory_ptr,t_address)": {
        "encoding": "mapping",
        "key": "t_string_memory_ptr",
        "label": "mapping(string => address)",
        "numberOfBytes": "32",
        "value": "t_address"
      },
      "t_mapping(t_string_memory_ptr,t_uint256)": {
        "encoding": "mapping",
        "key": "t_string_memory_ptr",
        "label": "mapping(string => uint256)",
        "numberOfBytes": "32",
        "value": "t_uint256"
      },
      "t_string_memory_ptr": {
        "encoding": "bytes",
        "label": "string",
        "numberOfBytes": "32"
      },
      "t_struct(ReferenceData)4721_storage": {
        "encoding": "inplace",
        "label": "struct IPriceCalculator.ReferenceData",
        "members": [
          {
            "astId": 4718,
            "contract": "contracts/PriceOracle/BOBOracle.sol:BOBOracle",
            "label": "lastData",
            "offset": 0,
            "slot": "0",
            "type": "t_uint256"
          },
          {
            "astId": 4720,
            "contract": "contracts/PriceOracle/BOBOracle.sol:BOBOracle",
            "label": "lastUpdated",
            "offset": 0,
            "slot": "1",
            "type": "t_uint256"
          }
        ],
        "numberOfBytes": "64"
      },
      "t_uint256": {
        "encoding": "inplace",
        "label": "uint256",
        "numberOfBytes": "32"
      },
      "t_uint8": {
        "encoding": "inplace",
        "label": "uint8",
        "numberOfBytes": "1"
      }
    }
  }
}