{
  "address": "0x25C2BAd31E96E8D42301b533673c876cd9775f57",
  "abi": [
    {
      "inputs": [],
      "name": "AcceptAdminPendingAdminCheck",
      "type": "error"
    },
    {
      "inputs": [
        {
          "internalType": "uint256",
          "name": "actualAddAmount",
          "type": "uint256"
        }
      ],
      "name": "AddReservesFactorFreshCheck",
      "type": "error"
    },
    {
      "inputs": [],
      "name": "BorrowCashNotAvailable",
      "type": "error"
    },
    {
      "inputs": [
        {
          "internalType": "uint256",
          "name": "errorCode",
          "type": "uint256"
        }
      ],
      "name": "BorrowComptrollerRejection",
      "type": "error"
    },
    {
      "inputs": [],
      "name": "BorrowFreshnessCheck",
      "type": "error"
    },
    {
      "inputs": [
        {
          "internalType": "uint256",
          "name": "errorCode",
          "type": "uint256"
        }
      ],
      "name": "LiquidateAccrueBorrowInterestFailed",
      "type": "error"
    },
    {
      "inputs": [
        {
          "internalType": "uint256",
          "name": "errorCode",
          "type": "uint256"
        }
      ],
      "name": "LiquidateAccrueCollateralInterestFailed",
      "type": "error"
    },
    {
      "inputs": [],
      "name": "LiquidateCloseAmountIsUintMax",
      "type": "error"
    },
    {
      "inputs": [],
      "name": "LiquidateCloseAmountIsZero",
      "type": "error"
    },
    {
      "inputs": [],
      "name": "LiquidateCollateralFreshnessCheck",
      "type": "error"
    },
    {
      "inputs": [
        {
          "internalType": "uint256",
          "name": "errorCode",
          "type": "uint256"
        }
      ],
      "name": "LiquidateComptrollerRejection",
      "type": "error"
    },
    {
      "inputs": [],
      "name": "LiquidateFreshnessCheck",
      "type": "error"
    },
    {
      "inputs": [],
      "name": "LiquidateLiquidatorIsBorrower",
      "type": "error"
    },
    {
      "inputs": [
        {
          "internalType": "uint256",
          "name": "errorCode",
          "type": "uint256"
        }
      ],
      "name": "LiquidateRepayBorrowFreshFailed",
      "type": "error"
    },
    {
      "inputs": [
        {
          "internalType": "uint256",
          "name": "errorCode",
          "type": "uint256"
        }
      ],
      "name": "LiquidateSeizeComptrollerRejection",
      "type": "error"
    },
    {
      "inputs": [],
      "name": "LiquidateSeizeLiquidatorIsBorrower",
      "type": "error"
    },
    {
      "inputs": [
        {
          "internalType": "uint256",
          "name": "errorCode",
          "type": "uint256"
        }
      ],
      "name": "MintComptrollerRejection",
      "type": "error"
    },
    {
      "inputs": [],
      "name": "MintFreshnessCheck",
      "type": "error"
    },
    {
      "inputs": [
        {
          "internalType": "uint256",
          "name": "errorCode",
          "type": "uint256"
        }
      ],
      "name": "RedeemComptrollerRejection",
      "type": "error"
    },
    {
      "inputs": [],
      "name": "RedeemFreshnessCheck",
      "type": "error"
    },
    {
      "inputs": [],
      "name": "RedeemTransferOutNotPossible",
      "type": "error"
    },
    {
      "inputs": [],
      "name": "ReduceReservesAdminCheck",
      "type": "error"
    },
    {
      "inputs": [],
      "name": "ReduceReservesCashNotAvailable",
      "type": "error"
    },
    {
      "inputs": [],
      "name": "ReduceReservesCashValidation",
      "type": "error"
    },
    {
      "inputs": [],
      "name": "ReduceReservesFreshCheck",
      "type": "error"
    },
    {
      "inputs": [
        {
          "internalType": "uint256",
          "name": "errorCode",
          "type": "uint256"
        }
      ],
      "name": "RepayBorrowComptrollerRejection",
      "type": "error"
    },
    {
      "inputs": [],
      "name": "RepayBorrowFreshnessCheck",
      "type": "error"
    },
    {
      "inputs": [],
      "name": "SetComptrollerOwnerCheck",
      "type": "error"
    },
    {
      "inputs": [],
      "name": "SetInterestRateModelFreshCheck",
      "type": "error"
    },
    {
      "inputs": [],
      "name": "SetInterestRateModelOwnerCheck",
      "type": "error"
    },
    {
      "inputs": [],
      "name": "SetPendingAdminOwnerCheck",
      "type": "error"
    },
    {
      "inputs": [],
      "name": "SetReserveFactorAdminCheck",
      "type": "error"
    },
    {
      "inputs": [],
      "name": "SetReserveFactorBoundsCheck",
      "type": "error"
    },
    {
      "inputs": [],
      "name": "SetReserveFactorFreshCheck",
      "type": "error"
    },
    {
      "inputs": [],
      "name": "SetReserveGuardianOwnerCheck",
      "type": "error"
    },
    {
      "inputs": [
        {
          "internalType": "uint256",
          "name": "errorCode",
          "type": "uint256"
        }
      ],
      "name": "TransferComptrollerRejection",
      "type": "error"
    },
    {
      "inputs": [],
      "name": "TransferNotAllowed",
      "type": "error"
    },
    {
      "inputs": [],
      "name": "TransferNotEnough",
      "type": "error"
    },
    {
      "inputs": [],
      "name": "TransferTooMuch",
      "type": "error"
    },
    {
      "anonymous": false,
      "inputs": [
        {
          "indexed": false,
          "internalType": "uint256",
          "name": "cashPrior",
          "type": "uint256"
        },
        {
          "indexed": false,
          "internalType": "uint256",
          "name": "interestAccumulated",
          "type": "uint256"
        },
        {
          "indexed": false,
          "internalType": "uint256",
          "name": "borrowIndex",
          "type": "uint256"
        },
        {
          "indexed": false,
          "internalType": "uint256",
          "name": "totalBorrows",
          "type": "uint256"
        }
      ],
      "name": "AccrueInterest",
      "type": "event"
    },
    {
      "anonymous": false,
      "inputs": [
        {
          "indexed": true,
          "internalType": "address",
          "name": "owner",
          "type": "address"
        },
        {
          "indexed": true,
          "internalType": "address",
          "name": "spender",
          "type": "address"
        },
        {
          "indexed": false,
          "internalType": "uint256",
          "name": "amount",
          "type": "uint256"
        }
      ],
      "name": "Approval",
      "type": "event"
    },
    {
      "anonymous": false,
      "inputs": [
        {
          "indexed": false,
          "internalType": "address",
          "name": "borrower",
          "type": "address"
        },
        {
          "indexed": false,
          "internalType": "uint256",
          "name": "borrowAmount",
          "type": "uint256"
        },
        {
          "indexed": false,
          "internalType": "uint256",
          "name": "accountBorrows",
          "type": "uint256"
        },
        {
          "indexed": false,
          "internalType": "uint256",
          "name": "totalBorrows",
          "type": "uint256"
        }
      ],
      "name": "Borrow",
      "type": "event"
    },
    {
      "anonymous": false,
      "inputs": [
        {
          "indexed": false,
          "internalType": "uint8",
          "name": "version",
          "type": "uint8"
        }
      ],
      "name": "Initialized",
      "type": "event"
    },
    {
      "anonymous": false,
      "inputs": [
        {
          "indexed": false,
          "internalType": "address",
          "name": "liquidator",
          "type": "address"
        },
        {
          "indexed": false,
          "internalType": "address",
          "name": "borrower",
          "type": "address"
        },
        {
          "indexed": false,
          "internalType": "uint256",
          "name": "repayAmount",
          "type": "uint256"
        },
        {
          "indexed": false,
          "internalType": "address",
          "name": "cTokenCollateral",
          "type": "address"
        },
        {
          "indexed": false,
          "internalType": "uint256",
          "name": "seizeTokens",
          "type": "uint256"
        }
      ],
      "name": "LiquidateBorrow",
      "type": "event"
    },
    {
      "anonymous": false,
      "inputs": [
        {
          "indexed": false,
          "internalType": "address",
          "name": "minter",
          "type": "address"
        },
        {
          "indexed": false,
          "internalType": "uint256",
          "name": "mintAmount",
          "type": "uint256"
        },
        {
          "indexed": false,
          "internalType": "uint256",
          "name": "mintTokens",
          "type": "uint256"
        }
      ],
      "name": "Mint",
      "type": "event"
    },
    {
      "anonymous": false,
      "inputs": [
        {
          "indexed": false,
          "internalType": "address",
          "name": "oldAdmin",
          "type": "address"
        },
        {
          "indexed": false,
          "internalType": "address",
          "name": "newAdmin",
          "type": "address"
        }
      ],
      "name": "NewAdmin",
      "type": "event"
    },
    {
      "anonymous": false,
      "inputs": [
        {
          "indexed": false,
          "internalType": "contract ComptrollerInterface",
          "name": "oldComptroller",
          "type": "address"
        },
        {
          "indexed": false,
          "internalType": "contract ComptrollerInterface",
          "name": "newComptroller",
          "type": "address"
        }
      ],
      "name": "NewComptroller",
      "type": "event"
    },
    {
      "anonymous": false,
      "inputs": [
        {
          "indexed": false,
          "internalType": "contract InterestRateModel",
          "name": "oldInterestRateModel",
          "type": "address"
        },
        {
          "indexed": false,
          "internalType": "contract InterestRateModel",
          "name": "newInterestRateModel",
          "type": "address"
        }
      ],
      "name": "NewMarketInterestRateModel",
      "type": "event"
    },
    {
      "anonymous": false,
      "inputs": [
        {
          "indexed": false,
          "internalType": "address",
          "name": "oldPendingAdmin",
          "type": "address"
        },
        {
          "indexed": false,
          "internalType": "address",
          "name": "newPendingAdmin",
          "type": "address"
        }
      ],
      "name": "NewPendingAdmin",
      "type": "event"
    },
    {
      "anonymous": false,
      "inputs": [
        {
          "indexed": false,
          "internalType": "uint256",
          "name": "oldReserveFactorMantissa",
          "type": "uint256"
        },
        {
          "indexed": false,
          "internalType": "uint256",
          "name": "newReserveFactorMantissa",
          "type": "uint256"
        }
      ],
      "name": "NewReserveFactor",
      "type": "event"
    },
    {
      "anonymous": false,
      "inputs": [
        {
          "indexed": false,
          "internalType": "address",
          "name": "oldReserveGuardian",
          "type": "address"
        },
        {
          "indexed": false,
          "internalType": "address",
          "name": "newReserveGuardian",
          "type": "address"
        }
      ],
      "name": "NewReserveGuardian",
      "type": "event"
    },
    {
      "anonymous": false,
      "inputs": [
        {
          "indexed": false,
          "internalType": "address",
          "name": "redeemer",
          "type": "address"
        },
        {
          "indexed": false,
          "internalType": "uint256",
          "name": "redeemAmount",
          "type": "uint256"
        },
        {
          "indexed": false,
          "internalType": "uint256",
          "name": "redeemTokens",
          "type": "uint256"
        }
      ],
      "name": "Redeem",
      "type": "event"
    },
    {
      "anonymous": false,
      "inputs": [
        {
          "indexed": false,
          "internalType": "address",
          "name": "payer",
          "type": "address"
        },
        {
          "indexed": false,
          "internalType": "address",
          "name": "borrower",
          "type": "address"
        },
        {
          "indexed": false,
          "internalType": "uint256",
          "name": "repayAmount",
          "type": "uint256"
        },
        {
          "indexed": false,
          "internalType": "uint256",
          "name": "accountBorrows",
          "type": "uint256"
        },
        {
          "indexed": false,
          "internalType": "uint256",
          "name": "totalBorrows",
          "type": "uint256"
        }
      ],
      "name": "RepayBorrow",
      "type": "event"
    },
    {
      "anonymous": false,
      "inputs": [
        {
          "indexed": false,
          "internalType": "address",
          "name": "benefactor",
          "type": "address"
        },
        {
          "indexed": false,
          "internalType": "uint256",
          "name": "addAmount",
          "type": "uint256"
        },
        {
          "indexed": false,
          "internalType": "uint256",
          "name": "newTotalReserves",
          "type": "uint256"
        }
      ],
      "name": "ReservesAdded",
      "type": "event"
    },
    {
      "anonymous": false,
      "inputs": [
        {
          "indexed": false,
          "internalType": "address",
          "name": "admin",
          "type": "address"
        },
        {
          "indexed": false,
          "internalType": "uint256",
          "name": "reduceAmount",
          "type": "uint256"
        },
        {
          "indexed": false,
          "internalType": "uint256",
          "name": "newTotalReserves",
          "type": "uint256"
        }
      ],
      "name": "ReservesReduced",
      "type": "event"
    },
    {
      "anonymous": false,
      "inputs": [
        {
          "indexed": true,
          "internalType": "address",
          "name": "from",
          "type": "address"
        },
        {
          "indexed": true,
          "internalType": "address",
          "name": "to",
          "type": "address"
        },
        {
          "indexed": false,
          "internalType": "uint256",
          "name": "amount",
          "type": "uint256"
        }
      ],
      "name": "Transfer",
      "type": "event"
    },
    {
      "inputs": [],
      "name": "NO_ERROR",
      "outputs": [
        {
          "internalType": "uint256",
          "name": "",
          "type": "uint256"
        }
      ],
      "stateMutability": "view",
      "type": "function"
    },
    {
      "inputs": [],
      "name": "_acceptAdmin",
      "outputs": [
        {
          "internalType": "uint256",
          "name": "",
          "type": "uint256"
        }
      ],
      "stateMutability": "nonpayable",
      "type": "function"
    },
    {
      "inputs": [
        {
          "internalType": "uint256",
          "name": "addAmount",
          "type": "uint256"
        }
      ],
      "name": "_addReserves",
      "outputs": [
        {
          "internalType": "uint256",
          "name": "",
          "type": "uint256"
        }
      ],
      "stateMutability": "nonpayable",
      "type": "function"
    },
    {
      "inputs": [
        {
          "internalType": "address",
          "name": "compLikeDelegatee",
          "type": "address"
        }
      ],
      "name": "_delegateCompLikeTo",
      "outputs": [],
      "stateMutability": "nonpayable",
      "type": "function"
    },
    {
      "inputs": [
        {
          "internalType": "uint256",
          "name": "reduceAmount",
          "type": "uint256"
        }
      ],
      "name": "_reduceReserves",
      "outputs": [
        {
          "internalType": "uint256",
          "name": "",
          "type": "uint256"
        }
      ],
      "stateMutability": "nonpayable",
      "type": "function"
    },
    {
      "inputs": [
        {
          "internalType": "contract ComptrollerInterface",
          "name": "newComptroller",
          "type": "address"
        }
      ],
      "name": "_setComptroller",
      "outputs": [
        {
          "internalType": "uint256",
          "name": "",
          "type": "uint256"
        }
      ],
      "stateMutability": "nonpayable",
      "type": "function"
    },
    {
      "inputs": [
        {
          "internalType": "contract InterestRateModel",
          "name": "newInterestRateModel",
          "type": "address"
        }
      ],
      "name": "_setInterestRateModel",
      "outputs": [
        {
          "internalType": "uint256",
          "name": "",
          "type": "uint256"
        }
      ],
      "stateMutability": "nonpayable",
      "type": "function"
    },
    {
      "inputs": [
        {
          "internalType": "address payable",
          "name": "newPendingAdmin",
          "type": "address"
        }
      ],
      "name": "_setPendingAdmin",
      "outputs": [
        {
          "internalType": "uint256",
          "name": "",
          "type": "uint256"
        }
      ],
      "stateMutability": "nonpayable",
      "type": "function"
    },
    {
      "inputs": [
        {
          "internalType": "uint256",
          "name": "newReserveFactorMantissa",
          "type": "uint256"
        }
      ],
      "name": "_setReserveFactor",
      "outputs": [
        {
          "internalType": "uint256",
          "name": "",
          "type": "uint256"
        }
      ],
      "stateMutability": "nonpayable",
      "type": "function"
    },
    {
      "inputs": [
        {
          "internalType": "address payable",
          "name": "newReserveGuardian",
          "type": "address"
        }
      ],
      "name": "_setReserveGuardian",
      "outputs": [
        {
          "internalType": "uint256",
          "name": "",
          "type": "uint256"
        }
      ],
      "stateMutability": "nonpayable",
      "type": "function"
    },
    {
      "inputs": [],
      "name": "accrualBlockNumber",
      "outputs": [
        {
          "internalType": "uint256",
          "name": "",
          "type": "uint256"
        }
      ],
      "stateMutability": "view",
      "type": "function"
    },
    {
      "inputs": [],
      "name": "accrueInterest",
      "outputs": [
        {
          "internalType": "uint256",
          "name": "",
          "type": "uint256"
        }
      ],
      "stateMutability": "nonpayable",
      "type": "function"
    },
    {
      "inputs": [],
      "name": "admin",
      "outputs": [
        {
          "internalType": "address payable",
          "name": "",
          "type": "address"
        }
      ],
      "stateMutability": "view",
      "type": "function"
    },
    {
      "inputs": [
        {
          "internalType": "address",
          "name": "owner",
          "type": "address"
        },
        {
          "internalType": "address",
          "name": "spender",
          "type": "address"
        }
      ],
      "name": "allowance",
      "outputs": [
        {
          "internalType": "uint256",
          "name": "",
          "type": "uint256"
        }
      ],
      "stateMutability": "view",
      "type": "function"
    },
    {
      "inputs": [
        {
          "internalType": "address",
          "name": "spender",
          "type": "address"
        },
        {
          "internalType": "uint256",
          "name": "amount",
          "type": "uint256"
        }
      ],
      "name": "approve",
      "outputs": [
        {
          "internalType": "bool",
          "name": "",
          "type": "bool"
        }
      ],
      "stateMutability": "nonpayable",
      "type": "function"
    },
    {
      "inputs": [
        {
          "internalType": "address",
          "name": "owner",
          "type": "address"
        }
      ],
      "name": "balanceOf",
      "outputs": [
        {
          "internalType": "uint256",
          "name": "",
          "type": "uint256"
        }
      ],
      "stateMutability": "view",
      "type": "function"
    },
    {
      "inputs": [
        {
          "internalType": "address",
          "name": "owner",
          "type": "address"
        }
      ],
      "name": "balanceOfUnderlying",
      "outputs": [
        {
          "internalType": "uint256",
          "name": "",
          "type": "uint256"
        }
      ],
      "stateMutability": "nonpayable",
      "type": "function"
    },
    {
      "inputs": [
        {
          "internalType": "uint256",
          "name": "borrowAmount",
          "type": "uint256"
        }
      ],
      "name": "borrow",
      "outputs": [
        {
          "internalType": "uint256",
          "name": "",
          "type": "uint256"
        }
      ],
      "stateMutability": "nonpayable",
      "type": "function"
    },
    {
      "inputs": [
        {
          "internalType": "address",
          "name": "account",
          "type": "address"
        }
      ],
      "name": "borrowBalanceCurrent",
      "outputs": [
        {
          "internalType": "uint256",
          "name": "",
          "type": "uint256"
        }
      ],
      "stateMutability": "nonpayable",
      "type": "function"
    },
    {
      "inputs": [
        {
          "internalType": "address",
          "name": "account",
          "type": "address"
        }
      ],
      "name": "borrowBalanceStored",
      "outputs": [
        {
          "internalType": "uint256",
          "name": "",
          "type": "uint256"
        }
      ],
      "stateMutability": "view",
      "type": "function"
    },
    {
      "inputs": [],
      "name": "borrowIndex",
      "outputs": [
        {
          "internalType": "uint256",
          "name": "",
          "type": "uint256"
        }
      ],
      "stateMutability": "view",
      "type": "function"
    },
    {
      "inputs": [],
      "name": "borrowRatePerBlock",
      "outputs": [
        {
          "internalType": "uint256",
          "name": "",
          "type": "uint256"
        }
      ],
      "stateMutability": "view",
      "type": "function"
    },
    {
      "inputs": [],
      "name": "comptroller",
      "outputs": [
        {
          "internalType": "contract ComptrollerInterface",
          "name": "",
          "type": "address"
        }
      ],
      "stateMutability": "view",
      "type": "function"
    },
    {
      "inputs": [],
      "name": "decimals",
      "outputs": [
        {
          "internalType": "uint8",
          "name": "",
          "type": "uint8"
        }
      ],
      "stateMutability": "view",
      "type": "function"
    },
    {
      "inputs": [],
      "name": "exchangeRateCurrent",
      "outputs": [
        {
          "internalType": "uint256",
          "name": "",
          "type": "uint256"
        }
      ],
      "stateMutability": "nonpayable",
      "type": "function"
    },
    {
      "inputs": [],
      "name": "exchangeRateStored",
      "outputs": [
        {
          "internalType": "uint256",
          "name": "",
          "type": "uint256"
        }
      ],
      "stateMutability": "view",
      "type": "function"
    },
    {
      "inputs": [
        {
          "internalType": "address",
          "name": "account",
          "type": "address"
        }
      ],
      "name": "getAccountSnapshot",
      "outputs": [
        {
          "internalType": "uint256",
          "name": "",
          "type": "uint256"
        },
        {
          "internalType": "uint256",
          "name": "",
          "type": "uint256"
        },
        {
          "internalType": "uint256",
          "name": "",
          "type": "uint256"
        },
        {
          "internalType": "uint256",
          "name": "",
          "type": "uint256"
        }
      ],
      "stateMutability": "view",
      "type": "function"
    },
    {
      "inputs": [],
      "name": "getCash",
      "outputs": [
        {
          "internalType": "uint256",
          "name": "",
          "type": "uint256"
        }
      ],
      "stateMutability": "view",
      "type": "function"
    },
    {
      "inputs": [
        {
          "internalType": "address",
          "name": "underlying_",
          "type": "address"
        },
        {
          "internalType": "contract ComptrollerInterface",
          "name": "comptroller_",
          "type": "address"
        },
        {
          "internalType": "contract InterestRateModel",
          "name": "interestRateModel_",
          "type": "address"
        },
        {
          "internalType": "uint256",
          "name": "initialExchangeRateMantissa_",
          "type": "uint256"
        },
        {
          "internalType": "string",
          "name": "name_",
          "type": "string"
        },
        {
          "internalType": "string",
          "name": "symbol_",
          "type": "string"
        },
        {
          "internalType": "uint8",
          "name": "decimals_",
          "type": "uint8"
        }
      ],
      "name": "initialize",
      "outputs": [],
      "stateMutability": "nonpayable",
      "type": "function"
    },
    {
      "inputs": [
        {
          "internalType": "contract ComptrollerInterface",
          "name": "comptroller_",
          "type": "address"
        },
        {
          "internalType": "contract InterestRateModel",
          "name": "interestRateModel_",
          "type": "address"
        },
        {
          "internalType": "uint256",
          "name": "initialExchangeRateMantissa_",
          "type": "uint256"
        },
        {
          "internalType": "string",
          "name": "name_",
          "type": "string"
        },
        {
          "internalType": "string",
          "name": "symbol_",
          "type": "string"
        },
        {
          "internalType": "uint8",
          "name": "decimals_",
          "type": "uint8"
        }
      ],
      "name": "initialize",
      "outputs": [],
      "stateMutability": "nonpayable",
      "type": "function"
    },
    {
      "inputs": [],
      "name": "interestRateModel",
      "outputs": [
        {
          "internalType": "contract InterestRateModel",
          "name": "",
          "type": "address"
        }
      ],
      "stateMutability": "view",
      "type": "function"
    },
    {
      "inputs": [],
      "name": "isCToken",
      "outputs": [
        {
          "internalType": "bool",
          "name": "",
          "type": "bool"
        }
      ],
      "stateMutability": "view",
      "type": "function"
    },
    {
      "inputs": [
        {
          "internalType": "address",
          "name": "borrower",
          "type": "address"
        },
        {
          "internalType": "uint256",
          "name": "repayAmount",
          "type": "uint256"
        },
        {
          "internalType": "contract CTokenInterface",
          "name": "cTokenCollateral",
          "type": "address"
        }
      ],
      "name": "liquidateBorrow",
      "outputs": [
        {
          "internalType": "uint256",
          "name": "",
          "type": "uint256"
        }
      ],
      "stateMutability": "nonpayable",
      "type": "function"
    },
    {
      "inputs": [
        {
          "internalType": "uint256",
          "name": "mintAmount",
          "type": "uint256"
        }
      ],
      "name": "mint",
      "outputs": [
        {
          "internalType": "uint256",
          "name": "",
          "type": "uint256"
        }
      ],
      "stateMutability": "nonpayable",
      "type": "function"
    },
    {
      "inputs": [],
      "name": "name",
      "outputs": [
        {
          "internalType": "string",
          "name": "",
          "type": "string"
        }
      ],
      "stateMutability": "view",
      "type": "function"
    },
    {
      "inputs": [],
      "name": "pendingAdmin",
      "outputs": [
        {
          "internalType": "address payable",
          "name": "",
          "type": "address"
        }
      ],
      "stateMutability": "view",
      "type": "function"
    },
    {
      "inputs": [],
      "name": "protocolSeizeShareMantissa",
      "outputs": [
        {
          "internalType": "uint256",
          "name": "",
          "type": "uint256"
        }
      ],
      "stateMutability": "view",
      "type": "function"
    },
    {
      "inputs": [
        {
          "internalType": "address",
          "name": "underlying_",
          "type": "address"
        },
        {
          "internalType": "contract ComptrollerInterface",
          "name": "comptroller_",
          "type": "address"
        },
        {
          "internalType": "contract InterestRateModel",
          "name": "interestRateModel_",
          "type": "address"
        },
        {
          "internalType": "uint256",
          "name": "initialExchangeRateMantissa_",
          "type": "uint256"
        },
        {
          "internalType": "string",
          "name": "name_",
          "type": "string"
        },
        {
          "internalType": "string",
          "name": "symbol_",
          "type": "string"
        },
        {
          "internalType": "uint8",
          "name": "decimals_",
          "type": "uint8"
        },
        {
          "internalType": "address payable",
          "name": "admin_",
          "type": "address"
        }
      ],
      "name": "proxyInitialize",
      "outputs": [],
      "stateMutability": "nonpayable",
      "type": "function"
    },
    {
      "inputs": [
        {
          "internalType": "uint256",
          "name": "redeemTokens",
          "type": "uint256"
        }
      ],
      "name": "redeem",
      "outputs": [
        {
          "internalType": "uint256",
          "name": "",
          "type": "uint256"
        }
      ],
      "stateMutability": "nonpayable",
      "type": "function"
    },
    {
      "inputs": [
        {
          "internalType": "uint256",
          "name": "redeemAmount",
          "type": "uint256"
        }
      ],
      "name": "redeemUnderlying",
      "outputs": [
        {
          "internalType": "uint256",
          "name": "",
          "type": "uint256"
        }
      ],
      "stateMutability": "nonpayable",
      "type": "function"
    },
    {
      "inputs": [
        {
          "internalType": "uint256",
          "name": "repayAmount",
          "type": "uint256"
        }
      ],
      "name": "repayBorrow",
      "outputs": [
        {
          "internalType": "uint256",
          "name": "",
          "type": "uint256"
        }
      ],
      "stateMutability": "nonpayable",
      "type": "function"
    },
    {
      "inputs": [
        {
          "internalType": "address",
          "name": "borrower",
          "type": "address"
        },
        {
          "internalType": "uint256",
          "name": "repayAmount",
          "type": "uint256"
        }
      ],
      "name": "repayBorrowBehalf",
      "outputs": [
        {
          "internalType": "uint256",
          "name": "",
          "type": "uint256"
        }
      ],
      "stateMutability": "nonpayable",
      "type": "function"
    },
    {
      "inputs": [],
      "name": "reserveFactorMantissa",
      "outputs": [
        {
          "internalType": "uint256",
          "name": "",
          "type": "uint256"
        }
      ],
      "stateMutability": "view",
      "type": "function"
    },
    {
      "inputs": [],
      "name": "reserveGuardian",
      "outputs": [
        {
          "internalType": "address payable",
          "name": "",
          "type": "address"
        }
      ],
      "stateMutability": "view",
      "type": "function"
    },
    {
      "inputs": [
        {
          "internalType": "address",
          "name": "liquidator",
          "type": "address"
        },
        {
          "internalType": "address",
          "name": "borrower",
          "type": "address"
        },
        {
          "internalType": "uint256",
          "name": "seizeTokens",
          "type": "uint256"
        }
      ],
      "name": "seize",
      "outputs": [
        {
          "internalType": "uint256",
          "name": "",
          "type": "uint256"
        }
      ],
      "stateMutability": "nonpayable",
      "type": "function"
    },
    {
      "inputs": [],
      "name": "supplyRatePerBlock",
      "outputs": [
        {
          "internalType": "uint256",
          "name": "",
          "type": "uint256"
        }
      ],
      "stateMutability": "view",
      "type": "function"
    },
    {
      "inputs": [
        {
          "internalType": "contract EIP20NonStandardInterface",
          "name": "token",
          "type": "address"
        }
      ],
      "name": "sweepToken",
      "outputs": [],
      "stateMutability": "nonpayable",
      "type": "function"
    },
    {
      "inputs": [],
      "name": "symbol",
      "outputs": [
        {
          "internalType": "string",
          "name": "",
          "type": "string"
        }
      ],
      "stateMutability": "view",
      "type": "function"
    },
    {
      "inputs": [],
      "name": "totalBorrows",
      "outputs": [
        {
          "internalType": "uint256",
          "name": "",
          "type": "uint256"
        }
      ],
      "stateMutability": "view",
      "type": "function"
    },
    {
      "inputs": [],
      "name": "totalBorrowsCurrent",
      "outputs": [
        {
          "internalType": "uint256",
          "name": "",
          "type": "uint256"
        }
      ],
      "stateMutability": "nonpayable",
      "type": "function"
    },
    {
      "inputs": [],
      "name": "totalReserves",
      "outputs": [
        {
          "internalType": "uint256",
          "name": "",
          "type": "uint256"
        }
      ],
      "stateMutability": "view",
      "type": "function"
    },
    {
      "inputs": [],
      "name": "totalSupply",
      "outputs": [
        {
          "internalType": "uint256",
          "name": "",
          "type": "uint256"
        }
      ],
      "stateMutability": "view",
      "type": "function"
    },
    {
      "inputs": [
        {
          "internalType": "address",
          "name": "dst",
          "type": "address"
        },
        {
          "internalType": "uint256",
          "name": "amount",
          "type": "uint256"
        }
      ],
      "name": "transfer",
      "outputs": [
        {
          "internalType": "bool",
          "name": "",
          "type": "bool"
        }
      ],
      "stateMutability": "nonpayable",
      "type": "function"
    },
    {
      "inputs": [
        {
          "internalType": "address",
          "name": "src",
          "type": "address"
        },
        {
          "internalType": "address",
          "name": "dst",
          "type": "address"
        },
        {
          "internalType": "uint256",
          "name": "amount",
          "type": "uint256"
        }
      ],
      "name": "transferFrom",
      "outputs": [
        {
          "internalType": "bool",
          "name": "",
          "type": "bool"
        }
      ],
      "stateMutability": "nonpayable",
      "type": "function"
    },
    {
      "inputs": [],
      "name": "underlying",
      "outputs": [
        {
          "internalType": "address",
          "name": "",
          "type": "address"
        }
      ],
      "stateMutability": "view",
      "type": "function"
    }
  ],
  "transactionHash": "0x99d332953cb6d7d5962c584a681a02a8dd9548fec930eb13ceb83f07b7d3a429",
  "args": [],
  "numDeployments": 3,
  "solcInputHash": "86b4fa6dae209f5b036a521668d3cde4",
  "bytecode": "0x608060405234801561001057600080fd5b50614018806100206000396000f3fe608060405234801561001057600080fd5b506004361061035d5760003560e01c80637f1e06be116101d3578063bd6d894d11610104578063f2b3abbd116100a2578063f851a4401161007c578063f851a44014610732578063f8f9da281461074a578063fca7820b14610752578063fe9c44ae1461076557600080fd5b8063f2b3abbd146106f9578063f3fdb15a1461070c578063f5e3c4621461071f57600080fd5b8063c5ebeaec116100de578063c5ebeaec14610692578063db006a75146106a5578063dd62ed3e146106b8578063e9c714f2146106f157600080fd5b8063bd6d894d14610644578063c37f68e21461064c578063c39b127f1461067f57600080fd5b8063a6afed9511610171578063ae9d70b01161014b578063ae9d70b014610603578063b2a02ff11461060b578063b57a4a721461061e578063b71d1a0c1461063157600080fd5b8063a6afed95146105df578063a9059cbb146105e7578063aa5af0fd146105fa57600080fd5b806395d89b41116101ad57806395d89b411461059e57806395dd9193146105a657806399d8c1b4146105b9578063a0712d68146105cc57600080fd5b80637f1e06be1461056f578063852a12e3146105825780638f840ddd1461059557600080fd5b8063313ce567116102ad578063601a0bf11161024b5780636c540baf116102255780636c540baf146105225780636f307dc31461052b57806370a082311461053e57806373acee981461056757600080fd5b8063601a0bf1146104f95780636752e7021461050c57806369ab32501461051a57600080fd5b80633e941010116102875780633e941010146104b75780634576b5db146104ca57806347bd3718146104dd5780635fe3b567146104e657600080fd5b8063313ce5671461047d5780633af9e6691461049c5780633b1d21a2146104af57600080fd5b806318160ddd1161031a5780631be19560116102f45780631be195601461043157806323b872dd146104445780632608f81814610457578063267822471461046a57600080fd5b806318160ddd1461040b578063182df0f5146104145780631a31d4651461041c57600080fd5b806306fdde0314610362578063095ea7b3146103805780630d983cc6146103a35780630e752702146103ce578063173b9904146103ef57806317bfdfbc146103f8575b600080fd5b61036a61076d565b60405161037791906138d8565b60405180910390f35b61039361038e36600461393e565b6107fb565b6040519015158152602001610377565b6011546103b6906001600160a01b031681565b6040516001600160a01b039091168152602001610377565b6103e16103dc36600461396a565b61086b565b604051908152602001610377565b6103e160085481565b6103e1610406366004613983565b6108ce565b6103e1600d5481565b6103e161092d565b61042f61042a366004613a59565b61093c565b005b61042f61043f366004613983565b6109d1565b610393610452366004613b0f565b610b9d565b6103e161046536600461393e565b610bf9565b6004546103b6906001600160a01b031681565b60035461048a9060ff1681565b60405160ff9091168152602001610377565b6103e16104aa366004613983565b610c59565b6103e1610c9f565b6103e16104c536600461396a565b610ca9565b6103e16104d8366004613983565b610cb4565b6103e1600b5481565b6005546103b6906001600160a01b031681565b6103e161050736600461396a565b610e06565b6103e1666379da05b6000081565b6103e1600081565b6103e160095481565b6012546103b6906001600160a01b031681565b6103e161054c366004613983565b6001600160a01b03166000908152600e602052604090205490565b6103e1610e4d565b61042f61057d366004613983565b610ea3565b6103e161059036600461396a565b610f7a565b6103e1600c5481565b61036a610fcc565b6103e16105b4366004613983565b610fd9565b61042f6105c7366004613b50565b610fe4565b6103e16105da36600461396a565b611239565b6103e1611289565b6103936105f536600461393e565b611475565b6103e1600a5481565b6103e16114d0565b6103e1610619366004613b0f565b611568565b61042f61062c366004613bf2565b6115c3565b6103e161063f366004613983565b61171a565b6103e16117a7565b61065f61065a366004613983565b611803565b604080519485526020850193909352918301526060820152608001610377565b6103e161068d366004613983565b611844565b6103e16106a036600461396a565b6118d1565b6103e16106b336600461396a565b61192c565b6103e16106c6366004613cbd565b6001600160a01b039182166000908152600f6020908152604080832093909416825291909152205490565b6103e161197e565b6103e1610707366004613983565b611a85565b6006546103b6906001600160a01b031681565b6103e161072d366004613cf6565b611a99565b6003546103b69061010090046001600160a01b031681565b6103e1611ab0565b6103e161076036600461396a565b611b03565b610393600181565b6001805461077a90613d38565b80601f01602080910402602001604051908101604052809291908181526020018280546107a690613d38565b80156107f35780601f106107c8576101008083540402835291602001916107f3565b820191906000526020600020905b8154815290600101906020018083116107d657829003601f168201915b505050505081565b336000818152600f602090815260408083206001600160a01b03871680855292528083208590555191929182907f8c5be1e5ebec7d5bd14f71427d1e84f3dd0314c0f7b2291e5b200ac8c7c3b925906108579087815260200190565b60405180910390a360019150505b92915050565b6000816000036108bd5760405162461bcd60e51b81526020600482015260186024820152771c995c185e505b5bdd5b9d081a5cc81d1bdbc81cdb585b1b60421b60448201526064015b60405180910390fd5b6108c682611b4a565b506000919050565b6000805462010000900460ff166108f75760405162461bcd60e51b81526004016108b490613d72565b6000805462ff00001916905561090b611289565b5061091582610fd9565b90506000805462ff0000191662010000179055919050565b6000610937611ba7565b905090565b61094a868686868686610fe4565b601280546001600160a01b0319166001600160a01b038916908117909155604080516318160ddd60e01b815290516318160ddd916004808201926020929091908290030181865afa1580156109a3573d6000803e3d6000fd5b505050506040513d601f19601f820116820180604052508101906109c79190613d96565b5050505050505050565b60035461010090046001600160a01b03163314610a485760405162461bcd60e51b815260206004820152602f60248201527f4345726332303a3a7377656570546f6b656e3a206f6e6c792061646d696e206360448201526e616e20737765657020746f6b656e7360881b60648201526084016108b4565b6012546001600160a01b0390811690821603610ac15760405162461bcd60e51b815260206004820152603260248201527f4345726332303a3a7377656570546f6b656e3a2063616e206e6f74207377656560448201527138103ab73232b9363cb4b733903a37b5b2b760711b60648201526084016108b4565b6040516370a0823160e01b81523060048201526000906001600160a01b038316906370a0823190602401602060405180830381865afa158015610b08573d6000803e3d6000fd5b505050506040513d601f19601f82011682018060405250810190610b2c9190613d96565b60035460405163a9059cbb60e01b81526001600160a01b03610100909204821660048201526024810183905291925083169063a9059cbb90604401600060405180830381600087803b158015610b8157600080fd5b505af1158015610b95573d6000803e3d6000fd5b505050505050565b6000805462010000900460ff16610bc65760405162461bcd60e51b81526004016108b490613d72565b6000805462ff000019168155610bde33868686611c0f565b1490506000805462ff00001916620100001790559392505050565b600081600003610c465760405162461bcd60e51b81526020600482015260186024820152771c995c185e505b5bdd5b9d081a5cc81d1bdbc81cdb585b1b60421b60448201526064016108b4565b610c508383611e3b565b50600092915050565b6000806040518060200160405280610c6f6117a7565b90526001600160a01b0384166000908152600e6020526040902054909150610c98908290611e99565b9392505050565b6000610937611eb9565b600061086582611f2e565b60035460009061010090046001600160a01b03163314610ce75760405163d219dc1f60e01b815260040160405180910390fd5b60055460408051623f1ee960e11b815290516001600160a01b0392831692851691627e3dd29160048083019260209291908290030181865afa158015610d31573d6000803e3d6000fd5b505050506040513d601f19601f82011682018060405250810190610d559190613daf565b610da15760405162461bcd60e51b815260206004820152601c60248201527f6d61726b6572206d6574686f642072657475726e65642066616c73650000000060448201526064016108b4565b600580546001600160a01b0319166001600160a01b0385811691821790925560408051928416835260208301919091527f7ac369dbd14fa5ea3f473ed67cc9d598964a77501540ba6751eb0b3decf5870d91015b60405180910390a150600092915050565b6000805462010000900460ff16610e2f5760405162461bcd60e51b81526004016108b490613d72565b6000805462ff000019169055610e43611289565b5061091582611f91565b6000805462010000900460ff16610e765760405162461bcd60e51b81526004016108b490613d72565b6000805462ff000019169055610e8a611289565b5050600b546000805462ff000019166201000017905590565b60035461010090046001600160a01b03163314610f185760405162461bcd60e51b815260206004820152602d60248201527f6f6e6c79207468652061646d696e206d6179207365742074686520636f6d702d60448201526c6c696b652064656c656761746560981b60648201526084016108b4565b6012546040516317066a5760e21b81526001600160a01b03838116600483015290911690635c19a95c90602401600060405180830381600087803b158015610f5f57600080fd5b505af1158015610f73573d6000803e3d6000fd5b5050505050565b600081600003610fc35760405162461bcd60e51b815260206004820152601460248201527372656465656d416d6f756e74206973207a65726f60601b60448201526064016108b4565b6108c68261209e565b6002805461077a90613d38565b6000610865826120fb565b60035461010090046001600160a01b0316331461104f5760405162461bcd60e51b8152602060048201526024808201527f6f6e6c792061646d696e206d617920696e697469616c697a6520746865206d616044820152631c9ad95d60e21b60648201526084016108b4565b60095415801561105f5750600a54155b6110b75760405162461bcd60e51b815260206004820152602360248201527f6d61726b6574206d6179206f6e6c7920626520696e697469616c697a6564206f6044820152626e636560e81b60648201526084016108b4565b6007849055836111225760405162461bcd60e51b815260206004820152603060248201527f696e697469616c2065786368616e67652072617465206d75737420626520677260448201526f32b0ba32b9103a3430b7103d32b9379760811b60648201526084016108b4565b600061112d87610cb4565b9050801561117d5760405162461bcd60e51b815260206004820152601a60248201527f73657474696e6720636f6d7074726f6c6c6572206661696c656400000000000060448201526064016108b4565b42600955670de0b6b3a7640000600a5561119686612147565b905080156111f15760405162461bcd60e51b815260206004820152602260248201527f73657474696e6720696e7465726573742072617465206d6f64656c206661696c604482015261195960f21b60648201526084016108b4565b60016111fd8582613e1c565b50600261120a8482613e1c565b50506003805460ff90921660ff1990921691909117905550506000805462ff0000191662010000179055505050565b6000816000036112805760405162461bcd60e51b81526020600482015260126024820152716d696e74416d6f756e74206973207a65726f60701b60448201526064016108b4565b6108c6826122bc565b60095460009042908181036112a15760009250505090565b60006112ab611eb9565b600b54600c54600a546006546040516315f2405360e01b81526004810186905260248101859052604481018490529495509293919290916000916001600160a01b0316906315f2405390606401602060405180830381865afa158015611315573d6000803e3d6000fd5b505050506040513d601f19601f820116820180604052508101906113399190613d96565b905064746a5288008111156113905760405162461bcd60e51b815260206004820152601c60248201527f626f72726f772072617465206973206162737572646c7920686967680000000060448201526064016108b4565b600061139c8789613ef2565b905060006113b860405180602001604052808581525083612303565b905060006113c68288611e99565b905060006113d48883613f05565b905060006113f36040518060200160405280600854815250848a612334565b9050600061140285898a612334565b60098e9055600a819055600b849055600c839055604080518d815260208101879052908101829052606081018590529091507f4dec04e750ca11537cabcd8a9eab06494de08da3735bc8871cd41250e190bc049060800160405180910390a160009d505050505050505050505050505090565b6000805462010000900460ff1661149e5760405162461bcd60e51b81526004016108b490613d72565b6000805462ff0000191681556114b633808686611c0f565b1490506000805462ff000019166201000017905592915050565b6006546000906001600160a01b031663b81688166114ec611eb9565b600b54600c546008546040516001600160e01b031960e087901b16815260048101949094526024840192909252604483015260648201526084015b602060405180830381865afa158015611544573d6000803e3d6000fd5b505050506040513d601f19601f820116820180604052508101906109379190613d96565b6000805462010000900460ff166115915760405162461bcd60e51b81526004016108b490613d72565b6000805462ff0000191690556115a933858585612355565b50600080805462ff00001916620100001790559392505050565b600054610100900460ff16158080156115e35750600054600160ff909116105b806115fd5750303b1580156115fd575060005460ff166001145b6116605760405162461bcd60e51b815260206004820152602e60248201527f496e697469616c697a61626c653a20636f6e747261637420697320616c72656160448201526d191e481a5b9a5d1a585b1a5e995960921b60648201526084016108b4565b6000805460ff191660011790558015611683576000805461ff0019166101001790555b60038054610100600160a81b03191633610100021790556116a98989898989898961093c565b60038054610100600160a81b0319166101006001600160a01b03851602179055801561170f576000805461ff0019169055604051600181527f7f26b83ff96e1f2b6a682f133852f6798a09c465da95921460cefb38474024989060200160405180910390a15b505050505050505050565b60035460009061010090046001600160a01b0316331461174d57604051635cb56c2b60e01b815260040160405180910390fd5b600480546001600160a01b038481166001600160a01b031983168117909355604080519190921680825260208201939093527fca4f2f25d0898edd99413412fb94012f9e54ec8142f9b093e7720646a95b16a99101610df5565b6000805462010000900460ff166117d05760405162461bcd60e51b81526004016108b490613d72565b6000805462ff0000191690556117e4611289565b506117ed61092d565b90506000805462ff000019166201000017905590565b6001600160a01b0381166000908152600e6020526040812054819081908190819061182d876120fb565b611835611ba7565b93509350935093509193509193565b60035460009061010090046001600160a01b0316331461187757604051632f7aaee760e01b815260040160405180910390fd5b601180546001600160a01b038481166001600160a01b031983168117909355604080519190921680825260208201939093527fe3f5272426aa3e70e583474d1155b19c7d9a5394147c40191dfaf32b792bc9789101610df5565b6000816000036119235760405162461bcd60e51b815260206004820152601960248201527f626f72726f77416d6f756e7420697320746f6f20736d616c6c0000000000000060448201526064016108b4565b6108c6826125cd565b6000816000036119755760405162461bcd60e51b815260206004820152601460248201527372656465656d546f6b656e73206973207a65726f60601b60448201526064016108b4565b6108c682612614565b6004546000906001600160a01b031633141580611999575033155b156119b757604051631ba24f2960e21b815260040160405180910390fd5b60038054600480546001600160a01b03808216610100818102610100600160a81b0319871617968790556001600160a01b031990931690935560408051948390048216808652929095041660208401529290917ff9ffabca9c8276e99321725bcb43fb076a6c66a54b7f21c4e8146d8519b417dc910160405180910390a1600454604080516001600160a01b03808516825290921660208301527fca4f2f25d0898edd99413412fb94012f9e54ec8142f9b093e7720646a95b16a9910160405180910390a160009250505090565b6000611a8f611289565b5061086582612147565b6000611aa684848461265d565b5060009392505050565b6006546000906001600160a01b03166315f24053611acc611eb9565b600b54600c546040516001600160e01b031960e086901b168152600481019390935260248301919091526044820152606401611527565b6000805462010000900460ff16611b2c5760405162461bcd60e51b81526004016108b490613d72565b6000805462ff000019169055611b40611289565b5061091582612747565b60005462010000900460ff16611b725760405162461bcd60e51b81526004016108b490613d72565b6000805462ff000019169055611b86611289565b50611b92333383612803565b50506000805462ff0000191662010000179055565b600d54600090808203611bbc57505060075490565b6000611bc6611eb9565b90506000600c54600b5483611bdb9190613f05565b611be59190613ef2565b9050600083611bfc670de0b6b3a764000084613f18565b611c069190613f37565b95945050505050565b6005546040516317b9b84b60e31b81523060048201526001600160a01b038581166024830152848116604483015260648201849052600092839291169063bdcdc258906084016020604051808303816000875af1158015611c74573d6000803e3d6000fd5b505050506040513d601f19601f82011682018060405250810190611c989190613d96565b90508015611cbc5760405163089d427760e11b8152600481018290526024016108b4565b836001600160a01b0316856001600160a01b031603611cee57604051638cd22d1960e01b815260040160405180910390fd5b6000856001600160a01b0316876001600160a01b031603611d125750600019611d3a565b506001600160a01b038086166000908152600f60209081526040808320938a16835292905220545b6000611d468583613ef2565b6001600160a01b0388166000908152600e602052604081205491925090611d6e908790613ef2565b6001600160a01b0388166000908152600e602052604081205491925090611d96908890613f05565b6001600160a01b03808b166000908152600e6020526040808220869055918b1681522081905590506000198414611df0576001600160a01b03808a166000908152600f60209081526040808320938e168352929052208390555b876001600160a01b0316896001600160a01b0316600080516020613fc383398151915289604051611e2391815260200190565b60405180910390a35060009998505050505050505050565b60005462010000900460ff16611e635760405162461bcd60e51b81526004016108b490613d72565b6000805462ff000019169055611e77611289565b50611e83338383612803565b50506000805462ff000019166201000017905550565b600080611ea68484612303565b9050611eb1816129ac565b949350505050565b6012546040516370a0823160e01b81523060048201526000916001600160a01b03169081906370a0823190602401602060405180830381865afa158015611f04573d6000803e3d6000fd5b505050506040513d601f19601f82011682018060405250810190611f289190613d96565b91505090565b6000805462010000900460ff16611f575760405162461bcd60e51b81526004016108b490613d72565b6000805462ff000019169055611f6b611289565b50611f75826129c4565b5050600090506000805462ff0000191662010000179055919050565b600354600090819061010090046001600160a01b03163314801590611fc157506011546001600160a01b03163314155b15611fdf57604051630f7e5e6d60e41b815260040160405180910390fd5b426009541461200157604051630dff50cb60e41b815260040160405180910390fd5b8261200a611eb9565b101561202957604051633345e99960e01b815260040160405180910390fd5b600c5483111561204c576040516378d2980560e11b815260040160405180910390fd5b82600c5461205a9190613ef2565b600c819055905061206b3384612a58565b7f3bad0c59cf2f06e7314077049f48a93578cd16f5ef92329f1dab1420a99c177e338483604051610df593929190613f59565b60005462010000900460ff166120c65760405162461bcd60e51b81526004016108b490613d72565b6000805462ff0000191690556120da611289565b506120e733600083612b42565b506000805462ff0000191662010000179055565b6001600160a01b0381166000908152601060205260408120805482036121245750600092915050565b600a54815460009161213591613f18565b9050816001015481611eb19190613f37565b600354600090819061010090046001600160a01b0316331461217c5760405163407fded560e01b815260040160405180910390fd5b426009541461219e57604051630be2a5cb60e11b815260040160405180910390fd5b600660009054906101000a90046001600160a01b03169050826001600160a01b0316632191f92a6040518163ffffffff1660e01b8152600401602060405180830381865afa1580156121f4573d6000803e3d6000fd5b505050506040513d601f19601f820116820180604052508101906122189190613daf565b6122645760405162461bcd60e51b815260206004820152601c60248201527f6d61726b6572206d6574686f642072657475726e65642066616c73650000000060448201526064016108b4565b600680546001600160a01b0319166001600160a01b0385811691821790925560408051928416835260208301919091527fedffc32e068c7c95dfd4bdfd5c4d939a084d6b11c4199eac8436ed234d72f9269101610df5565b60005462010000900460ff166122e45760405162461bcd60e51b81526004016108b490613d72565b6000805462ff0000191690556122f8611289565b506120e73382612e1f565b604080516020810190915260008152604051806020016040528061232b856000015185613048565b90529392505050565b6000806123418585612303565b9050611c0661234f826129ac565b84613054565b60055460405163d02f735160e01b81523060048201526001600160a01b0386811660248301528581166044830152848116606483015260848201849052600092169063d02f73519060a4016020604051808303816000875af11580156123bf573d6000803e3d6000fd5b505050506040513d601f19601f820116820180604052508101906123e39190613d96565b90508015612407576040516363e00e3360e11b8152600481018290526024016108b4565b836001600160a01b0316836001600160a01b03160361243957604051633a94626760e11b815260040160405180910390fd5b600061245a836040518060200160405280666379da05b60000815250613060565b905060006124688285613ef2565b90506000604051806020016040528061247f611ba7565b90529050600061248f8285611e99565b9050600081600c546124a19190613f05565b600c819055600d549091506124b7908690613ef2565b600d556001600160a01b0388166000908152600e60205260409020546124de908890613ef2565b6001600160a01b03808a166000908152600e602052604080822093909355908b168152205461250e908590613f05565b6001600160a01b03808b166000818152600e602052604090819020939093559151908a1690600080516020613fc3833981519152906125509088815260200190565b60405180910390a360405185815230906001600160a01b038a1690600080516020613fc38339815191529060200160405180910390a37fa91e67c5ea634cd43a12c5a482724b03de01e85ca68702a53d0c2f45cb7c1dc53083836040516125b993929190613f59565b60405180910390a150505050505050505050565b60005462010000900460ff166125f55760405162461bcd60e51b81526004016108b490613d72565b6000805462ff000019169055612609611289565b506120e73382613083565b60005462010000900460ff1661263c5760405162461bcd60e51b81526004016108b490613d72565b6000805462ff000019169055612650611289565b506120e733826000612b42565b60005462010000900460ff166126855760405162461bcd60e51b81526004016108b490613d72565b6000805462ff000019169055612699611289565b506000816001600160a01b031663a6afed956040518163ffffffff1660e01b81526004016020604051808303816000875af11580156126dc573d6000803e3d6000fd5b505050506040513d601f19601f820116820180604052508101906127009190613d96565b9050801561272457604051633eea49b760e11b8152600481018290526024016108b4565b61273033858585613222565b50506000805462ff00001916620100001790555050565b60035460009061010090046001600160a01b0316331461277a57604051631205b57b60e11b815260040160405180910390fd5b426009541461279c57604051637dfca6b760e11b815260040160405180910390fd5b670de0b6b3a76400008211156127c55760405163717220f360e11b815260040160405180910390fd5b600880549083905560408051828152602081018590527faaa68312e2ea9d50e16af5068410ab56e1a1fd06037b1a35664812c30f8214609101610df5565b600554604051631200453160e11b81523060048201526001600160a01b03858116602483015284811660448301526064820184905260009283929116906324008a62906084016020604051808303816000875af1158015612868573d6000803e3d6000fd5b505050506040513d601f19601f8201168201806040525081019061288c9190613d96565b905080156128b057604051638c81362d60e01b8152600481018290526024016108b4565b42600954146128d25760405163c9021e2f60e01b815260040160405180910390fd5b60006128dd856120fb565b9050600060001985146128f057846128f2565b815b9050600061290088836136dc565b9050600061290e8285613ef2565b9050600082600b546129209190613ef2565b6001600160a01b038a8116600081815260106020908152604091829020878155600a54600190910155600b8590558151938f168452830191909152810185905260608101849052608081018290529091507f1a2a22cb034d26d1854bdc6666a5b91fe25efbbb5dcad3b0355478d6f5c362a19060a00160405180910390a1509098975050505050505050565b805160009061086590670de0b6b3a764000090613f37565b600080808042600954146129ee576040516338acf79960e01b8152600481018290526024016108b4565b6129f833866136dc565b905080600c54612a089190613f05565b915081600c819055507fa91e67c5ea634cd43a12c5a482724b03de01e85ca68702a53d0c2f45cb7c1dc5338284604051612a4493929190613f59565b60405180910390a160009590945092505050565b60125460405163a9059cbb60e01b81526001600160a01b0384811660048301526024820184905290911690819063a9059cbb90604401600060405180830381600087803b158015612aa857600080fd5b505af1158015612abc573d6000803e3d6000fd5b5050505060003d60008114612ad85760208114612ae257600080fd5b6000199150612aee565b60206000803e60005191505b5080612b3c5760405162461bcd60e51b815260206004820152601960248201527f544f4b454e5f5452414e534645525f4f55545f4641494c45440000000000000060448201526064016108b4565b50505050565b811580612b4d575080155b612bb65760405162461bcd60e51b815260206004820152603460248201527f6f6e65206f662072656465656d546f6b656e73496e206f722072656465656d416044820152736d6f756e74496e206d757374206265207a65726f60601b60648201526084016108b4565b60006040518060200160405280612bcb611ba7565b905290506000808415612bec57849150612be58386611e99565b9050612bfc565b612bf684846138b3565b91508390505b60055460405163eabe7d9160e01b81526000916001600160a01b03169063eabe7d9190612c319030908b908890600401613f7a565b6020604051808303816000875af1158015612c50573d6000803e3d6000fd5b505050506040513d601f19601f82011682018060405250810190612c749190613d96565b90508015612c985760405163480f424760e01b8152600481018290526024016108b4565b4260095414612cba576040516397b5cfcd60e01b815260040160405180910390fd5b81612cc3611eb9565b1015612ce2576040516391240a1b60e01b815260040160405180910390fd5b82600d54612cf09190613ef2565b600d556001600160a01b0387166000908152600e6020526040902054612d17908490613ef2565b6001600160a01b0388166000908152600e6020526040902055612d3a8783612a58565b60405183815230906001600160a01b03891690600080516020613fc38339815191529060200160405180910390a37fe5b754fb1abb7f01b499791d0b820ae3b6af3424ac1c59768edb53f4ec31a929878385604051612d9b93929190613f59565b60405180910390a16005546040516351dff98960e01b81523060048201526001600160a01b0389811660248301526044820185905260648201869052909116906351dff98990608401600060405180830381600087803b158015612dfe57600080fd5b505af1158015612e12573d6000803e3d6000fd5b5050505050505050505050565b600554604051634ef4c3e160e01b81526000916001600160a01b031690634ef4c3e190612e5490309087908790600401613f7a565b6020604051808303816000875af1158015612e73573d6000803e3d6000fd5b505050506040513d601f19601f82011682018060405250810190612e979190613d96565b90508015612ebb576040516349abd4fd60e01b8152600481018290526024016108b4565b4260095414612edd576040516338d8859760e01b815260040160405180910390fd5b60006040518060200160405280612ef2611ba7565b905290506000612f0285856136dc565b90506000612f1082846138b3565b905080600d54612f209190613f05565b600d556001600160a01b0386166000908152600e6020526040902054612f47908290613f05565b6001600160a01b0387166000908152600e60205260409081902091909155517f4c209b5fc8ad50758f13e2e1088ba56a560dff690a1c6fef26394f4c03821c4f90612f9790889085908590613f59565b60405180910390a16040518181526001600160a01b038716903090600080516020613fc38339815191529060200160405180910390a36005546040516341c728b960e01b81523060048201526001600160a01b0388811660248301526044820185905260648201849052909116906341c728b990608401600060405180830381600087803b15801561302857600080fd5b505af115801561303c573d6000803e3d6000fd5b50505050505050505050565b6000610c988284613f18565b6000610c988284613f05565b6000670de0b6b3a7640000613079848460000151613048565b610c989190613f37565b60055460405163368f515360e21b81526000916001600160a01b03169063da3d454c906130b890309087908790600401613f7a565b6020604051808303816000875af11580156130d7573d6000803e3d6000fd5b505050506040513d601f19601f820116820180604052508101906130fb9190613d96565b9050801561311f5760405163918db40f60e01b8152600481018290526024016108b4565b426009541461314157604051630e8d8c6160e21b815260040160405180910390fd5b8161314a611eb9565b1015613169576040516348c2588160e01b815260040160405180910390fd5b6000613174846120fb565b905060006131828483613f05565b9050600084600b546131949190613f05565b6001600160a01b0387166000908152601060205260409020838155600a54600190910155600b81905590506131c98686612a58565b604080516001600160a01b038816815260208101879052908101839052606081018290527f13ed6866d4e1ee6da46f845c46d7e54120883d75c5ea9a2dacc1c4ca8984ab809060800160405180910390a1505050505050565b600554604051632fe3f38f60e11b81523060048201526001600160a01b03838116602483015286811660448301528581166064830152608482018590526000921690635fc7e71e9060a4016020604051808303816000875af115801561328c573d6000803e3d6000fd5b505050506040513d601f19601f820116820180604052508101906132b09190613d96565b905080156132d457604051630a14d17960e11b8152600481018290526024016108b4565b42600954146132f6576040516380965b1b60e01b815260040160405180910390fd5b42826001600160a01b0316636c540baf6040518163ffffffff1660e01b8152600401602060405180830381865afa158015613335573d6000803e3d6000fd5b505050506040513d601f19601f820116820180604052508101906133599190613d96565b1461337757604051631046f38d60e31b815260040160405180910390fd5b846001600160a01b0316846001600160a01b0316036133a957604051631bd1a62160e21b815260040160405180910390fd5b826000036133ca5760405163d29da7ef60e01b815260040160405180910390fd5b60001983036133ec57604051635982c5bb60e11b815260040160405180910390fd5b60006133f9868686612803565b60055460405163c488847b60e01b815291925060009182916001600160a01b03169063c488847b9061343390309089908890600401613f7a565b6040805180830381865afa15801561344f573d6000803e3d6000fd5b505050506040513d601f19601f820116820180604052508101906134739190613f9e565b91509150600082146134e35760405162461bcd60e51b815260206004820152603360248201527f4c49515549444154455f434f4d5054524f4c4c45525f43414c43554c4154455f604482015272105353d5539517d4d152569157d19052531151606a1b60648201526084016108b4565b6040516370a0823160e01b81526001600160a01b0388811660048301528291908716906370a0823190602401602060405180830381865afa15801561352c573d6000803e3d6000fd5b505050506040513d601f19601f820116820180604052508101906135509190613d96565b101561359e5760405162461bcd60e51b815260206004820152601860248201527f4c49515549444154455f5345495a455f544f4f5f4d554348000000000000000060448201526064016108b4565b306001600160a01b038616036135bf576135ba30898984612355565b613679565b60405163b2a02ff160e01b81526000906001600160a01b0387169063b2a02ff1906135f2908c908c908790600401613f7a565b6020604051808303816000875af1158015613611573d6000803e3d6000fd5b505050506040513d601f19601f820116820180604052508101906136359190613d96565b146136795760405162461bcd60e51b81526020600482015260146024820152731d1bdad95b881cd95a5e9d5c994819985a5b195960621b60448201526064016108b4565b604080516001600160a01b038a811682528981166020830152818301869052871660608201526080810183905290517f298637f684da70674f26509b10f07ec2fbc77a335ab1e7d6215a4b2484d8bb529181900360a00190a15050505050505050565b6012546040516370a0823160e01b81523060048201526000916001600160a01b0316908190839082906370a0823190602401602060405180830381865afa15801561372b573d6000803e3d6000fd5b505050506040513d601f19601f8201168201806040525081019061374f9190613d96565b6040516323b872dd60e01b81529091506001600160a01b038316906323b872dd9061378290899030908a90600401613f7a565b600060405180830381600087803b15801561379c57600080fd5b505af11580156137b0573d6000803e3d6000fd5b5050505060003d600081146137cc57602081146137d657600080fd5b60001991506137e2565b60206000803e60005191505b50806138305760405162461bcd60e51b815260206004820152601860248201527f544f4b454e5f5452414e534645525f494e5f4641494c4544000000000000000060448201526064016108b4565b6040516370a0823160e01b81523060048201526000906001600160a01b038616906370a0823190602401602060405180830381865afa158015613877573d6000803e3d6000fd5b505050506040513d601f19601f8201168201806040525081019061389b9190613d96565b90506138a78382613ef2565b98975050505050505050565b6000610c986138ca84670de0b6b3a7640000613048565b83516000610c988284613f37565b600060208083528351808285015260005b81811015613905578581018301518582016040015282016138e9565b506000604082860101526040601f19601f8301168501019250505092915050565b6001600160a01b038116811461393b57600080fd5b50565b6000806040838503121561395157600080fd5b823561395c81613926565b946020939093013593505050565b60006020828403121561397c57600080fd5b5035919050565b60006020828403121561399557600080fd5b8135610c9881613926565b634e487b7160e01b600052604160045260246000fd5b600082601f8301126139c757600080fd5b813567ffffffffffffffff808211156139e2576139e26139a0565b604051601f8301601f19908116603f01168101908282118183101715613a0a57613a0a6139a0565b81604052838152866020858801011115613a2357600080fd5b836020870160208301376000602085830101528094505050505092915050565b803560ff81168114613a5457600080fd5b919050565b600080600080600080600060e0888a031215613a7457600080fd5b8735613a7f81613926565b96506020880135613a8f81613926565b95506040880135613a9f81613926565b945060608801359350608088013567ffffffffffffffff80821115613ac357600080fd5b613acf8b838c016139b6565b945060a08a0135915080821115613ae557600080fd5b50613af28a828b016139b6565b925050613b0160c08901613a43565b905092959891949750929550565b600080600060608486031215613b2457600080fd5b8335613b2f81613926565b92506020840135613b3f81613926565b929592945050506040919091013590565b60008060008060008060c08789031215613b6957600080fd5b8635613b7481613926565b95506020870135613b8481613926565b945060408701359350606087013567ffffffffffffffff80821115613ba857600080fd5b613bb48a838b016139b6565b94506080890135915080821115613bca57600080fd5b50613bd789828a016139b6565b925050613be660a08801613a43565b90509295509295509295565b600080600080600080600080610100898b031215613c0f57600080fd5b8835613c1a81613926565b97506020890135613c2a81613926565b96506040890135613c3a81613926565b955060608901359450608089013567ffffffffffffffff80821115613c5e57600080fd5b613c6a8c838d016139b6565b955060a08b0135915080821115613c8057600080fd5b50613c8d8b828c016139b6565b935050613c9c60c08a01613a43565b915060e0890135613cac81613926565b809150509295985092959890939650565b60008060408385031215613cd057600080fd5b8235613cdb81613926565b91506020830135613ceb81613926565b809150509250929050565b600080600060608486031215613d0b57600080fd5b8335613d1681613926565b9250602084013591506040840135613d2d81613926565b809150509250925092565b600181811c90821680613d4c57607f821691505b602082108103613d6c57634e487b7160e01b600052602260045260246000fd5b50919050565b6020808252600a90820152691c994b595b9d195c995960b21b604082015260600190565b600060208284031215613da857600080fd5b5051919050565b600060208284031215613dc157600080fd5b81518015158114610c9857600080fd5b601f821115613e1757600081815260208120601f850160051c81016020861015613df85750805b601f850160051c820191505b81811015610b9557828155600101613e04565b505050565b815167ffffffffffffffff811115613e3657613e366139a0565b613e4a81613e448454613d38565b84613dd1565b602080601f831160018114613e7f5760008415613e675750858301515b600019600386901b1c1916600185901b178555610b95565b600085815260208120601f198616915b82811015613eae57888601518255948401946001909101908401613e8f565b5085821015613ecc5787850151600019600388901b60f8161c191681555b5050505050600190811b01905550565b634e487b7160e01b600052601160045260246000fd5b8181038181111561086557610865613edc565b8082018082111561086557610865613edc565b6000816000190483118215151615613f3257613f32613edc565b500290565b600082613f5457634e487b7160e01b600052601260045260246000fd5b500490565b6001600160a01b039390931683526020830191909152604082015260600190565b6001600160a01b039384168152919092166020820152604081019190915260600190565b60008060408385031215613fb157600080fd5b50508051602090910151909290915056feddf252ad1be2c89b69c2b068fc378daa952ba7f163c4a11628f55a4df523b3efa26469706673582212207437987d982c7c01487003a2a77116cde2ff0d5f668527e1afd37c5f4f38abbc64736f6c63430008100033",
  "devdoc": {
    "kind": "dev",
    "methods": {
      "_acceptAdmin()": {
        "details": "Admin function for pending admin to accept role and update admin",
        "returns": {
          "_0": "uint 0=success, otherwise a failure (see ErrorReporter.sol for details)"
        }
      },
      "_addReserves(uint256)": {
        "params": {
          "addAmount": "The amount fo underlying token to add as reserves"
        },
        "returns": {
          "_0": "uint 0=success, otherwise a failure (see ErrorReporter.sol for details)"
        }
      },
      "_delegateCompLikeTo(address)": {
        "details": "CTokens whose underlying are not CompLike should revert here",
        "params": {
          "compLikeDelegatee": "The address to delegate votes to"
        }
      },
      "_reduceReserves(uint256)": {
        "params": {
          "reduceAmount": "Amount of reduction to reserves"
        },
        "returns": {
          "_0": "uint 0=success, otherwise a failure (see ErrorReporter.sol for details)"
        }
      },
      "_setComptroller(address)": {
        "details": "Admin function to set a new comptroller",
        "returns": {
          "_0": "uint 0=success, otherwise a failure (see ErrorReporter.sol for details)"
        }
      },
      "_setInterestRateModel(address)": {
        "details": "Admin function to accrue interest and update the interest rate model",
        "params": {
          "newInterestRateModel": "the new interest rate model to use"
        },
        "returns": {
          "_0": "uint 0=success, otherwise a failure (see ErrorReporter.sol for details)"
        }
      },
      "_setPendingAdmin(address)": {
        "details": "Admin function to begin change of admin. The newPendingAdmin must call `_acceptAdmin` to finalize the transfer.",
        "params": {
          "newPendingAdmin": "New pending admin."
        },
        "returns": {
          "_0": "uint 0=success, otherwise a failure (see ErrorReporter.sol for details)"
        }
      },
      "_setReserveFactor(uint256)": {
        "details": "Admin function to accrue interest and set a new reserve factor",
        "returns": {
          "_0": "uint 0=success, otherwise a failure (see ErrorReporter.sol for details)"
        }
      },
      "_setReserveGuardian(address)": {
        "params": {
          "newReserveGuardian": "New reserve guardian address"
        },
        "returns": {
          "_0": "uint 0=success, otherwise a failure (see ErrorReporter.sol for details)"
        }
      },
      "accrueInterest()": {
        "details": "This calculates interest accrued from the last checkpointed block   up to the current block and writes new checkpoint to storage."
      },
      "allowance(address,address)": {
        "params": {
          "owner": "The address of the account which owns the tokens to be spent",
          "spender": "The address of the account which may transfer tokens"
        },
        "returns": {
          "_0": "The number of tokens allowed to be spent (-1 means infinite)"
        }
      },
      "approve(address,uint256)": {
        "details": "This will overwrite the approval amount for `spender`  and is subject to issues noted [here](https://eips.ethereum.org/EIPS/eip-20#approve)",
        "params": {
          "amount": "The number of tokens that are approved (uint256.max means infinite)",
          "spender": "The address of the account which may transfer tokens"
        },
        "returns": {
          "_0": "Whether or not the approval succeeded"
        }
      },
      "balanceOf(address)": {
        "params": {
          "owner": "The address of the account to query"
        },
        "returns": {
          "_0": "The number of tokens owned by `owner`"
        }
      },
      "balanceOfUnderlying(address)": {
        "details": "This also accrues interest in a transaction",
        "params": {
          "owner": "The address of the account to query"
        },
        "returns": {
          "_0": "The amount of underlying owned by `owner`"
        }
      },
      "borrow(uint256)": {
        "params": {
          "borrowAmount": "The amount of the underlying asset to borrow"
        },
        "returns": {
          "_0": "uint 0=success, otherwise a failure (see ErrorReporter.sol for details)"
        }
      },
      "borrowBalanceCurrent(address)": {
        "params": {
          "account": "The address whose balance should be calculated after updating borrowIndex"
        },
        "returns": {
          "_0": "The calculated balance"
        }
      },
      "borrowBalanceStored(address)": {
        "params": {
          "account": "The address whose balance should be calculated"
        },
        "returns": {
          "_0": "The calculated balance"
        }
      },
      "borrowRatePerBlock()": {
        "returns": {
          "_0": "The borrow interest rate per block, scaled by 1e18"
        }
      },
      "exchangeRateCurrent()": {
        "returns": {
          "_0": "Calculated exchange rate scaled by 1e18"
        }
      },
      "exchangeRateStored()": {
        "details": "This function does not accrue interest before calculating the exchange rate",
        "returns": {
          "_0": "Calculated exchange rate scaled by 1e18"
        }
      },
      "getAccountSnapshot(address)": {
        "details": "This is used by comptroller to more efficiently perform liquidity checks.",
        "params": {
          "account": "Address of the account to snapshot"
        },
        "returns": {
          "_0": "(possible error, token balance, borrow balance, exchange rate mantissa)"
        }
      },
      "getCash()": {
        "returns": {
          "_0": "The quantity of underlying asset owned by this contract"
        }
      },
      "initialize(address,address,address,uint256,string,string,uint8)": {
        "params": {
          "comptroller_": "The address of the Comptroller",
          "decimals_": "ERC-20 decimal precision of this token",
          "initialExchangeRateMantissa_": "The initial exchange rate, scaled by 1e18",
          "interestRateModel_": "The address of the interest rate model",
          "name_": "ERC-20 name of this token",
          "symbol_": "ERC-20 symbol of this token",
          "underlying_": "The address of the underlying asset"
        }
      },
      "initialize(address,address,uint256,string,string,uint8)": {
        "params": {
          "comptroller_": "The address of the Comptroller",
          "decimals_": "EIP-20 decimal precision of this token",
          "initialExchangeRateMantissa_": "The initial exchange rate, scaled by 1e18",
          "interestRateModel_": "The address of the interest rate model",
          "name_": "EIP-20 name of this token",
          "symbol_": "EIP-20 symbol of this token"
        }
      },
      "liquidateBorrow(address,uint256,address)": {
        "params": {
          "borrower": "The borrower of this cToken to be liquidated",
          "cTokenCollateral": "The market in which to seize collateral from the borrower",
          "repayAmount": "The amount of the underlying borrowed asset to repay"
        },
        "returns": {
          "_0": "uint 0=success, otherwise a failure (see ErrorReporter.sol for details)"
        }
      },
      "mint(uint256)": {
        "details": "Accrues interest whether or not the operation succeeds, unless reverted",
        "params": {
          "mintAmount": "The amount of the underlying asset to supply"
        },
        "returns": {
          "_0": "uint 0=success, otherwise a failure (see ErrorReporter.sol for details)"
        }
      },
      "proxyInitialize(address,address,address,uint256,string,string,uint8,address)": {
        "params": {
          "comptroller_": "The address of the Comptroller",
          "decimals_": "ERC-20 decimal precision of this token",
          "initialExchangeRateMantissa_": "The initial exchange rate, scaled by 1e18",
          "interestRateModel_": "The address of the interest rate model",
          "name_": "ERC-20 name of this token",
          "symbol_": "ERC-20 symbol of this token",
          "underlying_": "The address of the underlying asset"
        }
      },
      "redeem(uint256)": {
        "details": "Accrues interest whether or not the operation succeeds, unless reverted",
        "params": {
          "redeemTokens": "The number of cTokens to redeem into underlying"
        },
        "returns": {
          "_0": "uint 0=success, otherwise a failure (see ErrorReporter.sol for details)"
        }
      },
      "redeemUnderlying(uint256)": {
        "details": "Accrues interest whether or not the operation succeeds, unless reverted",
        "params": {
          "redeemAmount": "The amount of underlying to redeem"
        },
        "returns": {
          "_0": "uint 0=success, otherwise a failure (see ErrorReporter.sol for details)"
        }
      },
      "repayBorrow(uint256)": {
        "params": {
          "repayAmount": "The amount to repay, or -1 for the full outstanding amount"
        },
        "returns": {
          "_0": "uint 0=success, otherwise a failure (see ErrorReporter.sol for details)"
        }
      },
      "repayBorrowBehalf(address,uint256)": {
        "params": {
          "borrower": "the account with the debt being payed off",
          "repayAmount": "The amount to repay, or -1 for the full outstanding amount"
        },
        "returns": {
          "_0": "uint 0=success, otherwise a failure (see ErrorReporter.sol for details)"
        }
      },
      "seize(address,address,uint256)": {
        "details": "Will fail unless called by another cToken during the process of liquidation.  Its absolutely critical to use msg.sender as the borrowed cToken and not a parameter.",
        "params": {
          "borrower": "The account having collateral seized",
          "liquidator": "The account receiving seized collateral",
          "seizeTokens": "The number of cTokens to seize"
        },
        "returns": {
          "_0": "uint 0=success, otherwise a failure (see ErrorReporter.sol for details)"
        }
      },
      "supplyRatePerBlock()": {
        "returns": {
          "_0": "The supply interest rate per block, scaled by 1e18"
        }
      },
      "sweepToken(address)": {
        "params": {
          "token": "The address of the ERC-20 token to sweep"
        }
      },
      "totalBorrowsCurrent()": {
        "returns": {
          "_0": "The total borrows with interest"
        }
      },
      "transfer(address,uint256)": {
        "params": {
          "amount": "The number of tokens to transfer",
          "dst": "The address of the destination account"
        },
        "returns": {
          "_0": "Whether or not the transfer succeeded"
        }
      },
      "transferFrom(address,address,uint256)": {
        "params": {
          "amount": "The number of tokens to transfer",
          "dst": "The address of the destination account",
          "src": "The address of the source account"
        },
        "returns": {
          "_0": "Whether or not the transfer succeeded"
        }
      }
    },
    "title": "CErc20Upgradable Contract",
    "version": 1
  },
  "userdoc": {
    "events": {
      "AccrueInterest(uint256,uint256,uint256,uint256)": {
        "notice": "Event emitted when interest is accrued"
      },
      "Approval(address,address,uint256)": {
        "notice": "EIP20 Approval event"
      },
      "Borrow(address,uint256,uint256,uint256)": {
        "notice": "Event emitted when underlying is borrowed"
      },
      "LiquidateBorrow(address,address,uint256,address,uint256)": {
        "notice": "Event emitted when a borrow is liquidated"
      },
      "Mint(address,uint256,uint256)": {
        "notice": "Event emitted when tokens are minted"
      },
      "NewAdmin(address,address)": {
        "notice": "Event emitted when pendingAdmin is accepted, which means admin is updated"
      },
      "NewComptroller(address,address)": {
        "notice": "Event emitted when comptroller is changed"
      },
      "NewMarketInterestRateModel(address,address)": {
        "notice": "Event emitted when interestRateModel is changed"
      },
      "NewPendingAdmin(address,address)": {
        "notice": "Event emitted when pendingAdmin is changed"
      },
      "NewReserveFactor(uint256,uint256)": {
        "notice": "Event emitted when the reserve factor is changed"
      },
      "NewReserveGuardian(address,address)": {
        "notice": "Event emitted when reserve guardian is changed"
      },
      "Redeem(address,uint256,uint256)": {
        "notice": "Event emitted when tokens are redeemed"
      },
      "RepayBorrow(address,address,uint256,uint256,uint256)": {
        "notice": "Event emitted when a borrow is repaid"
      },
      "ReservesAdded(address,uint256,uint256)": {
        "notice": "Event emitted when the reserves are added"
      },
      "ReservesReduced(address,uint256,uint256)": {
        "notice": "Event emitted when the reserves are reduced"
      },
      "Transfer(address,address,uint256)": {
        "notice": "EIP20 Transfer event"
      }
    },
    "kind": "user",
    "methods": {
      "_acceptAdmin()": {
        "notice": "Accepts transfer of admin rights. msg.sender must be pendingAdmin"
      },
      "_addReserves(uint256)": {
        "notice": "The sender adds to reserves."
      },
      "_delegateCompLikeTo(address)": {
        "notice": "Admin call to delegate the votes of the COMP-like underlying"
      },
      "_reduceReserves(uint256)": {
        "notice": "Accrues interest and reduces reserves by transferring to admin"
      },
      "_setComptroller(address)": {
        "notice": "Sets a new comptroller for the market"
      },
      "_setInterestRateModel(address)": {
        "notice": "accrues interest and updates the interest rate model using _setInterestRateModelFresh"
      },
      "_setPendingAdmin(address)": {
        "notice": "Begins transfer of admin rights. The newPendingAdmin must call `_acceptAdmin` to finalize the transfer."
      },
      "_setReserveFactor(uint256)": {
        "notice": "accrues interest and sets a new reserve factor for the protocol using _setReserveFactorFresh"
      },
      "_setReserveGuardian(address)": {
        "notice": "Admin function to set new reserve guardian"
      },
      "accrualBlockNumber()": {
        "notice": "Block number that interest was last accrued at"
      },
      "accrueInterest()": {
        "notice": "Applies accrued interest to total borrows and reserves"
      },
      "admin()": {
        "notice": "Administrator for this contract"
      },
      "allowance(address,address)": {
        "notice": "Get the current allowance from `owner` for `spender`"
      },
      "approve(address,uint256)": {
        "notice": "Approve `spender` to transfer up to `amount` from `src`"
      },
      "balanceOf(address)": {
        "notice": "Get the token balance of the `owner`"
      },
      "balanceOfUnderlying(address)": {
        "notice": "Get the underlying balance of the `owner`"
      },
      "borrow(uint256)": {
        "notice": "Sender borrows assets from the protocol to their own address"
      },
      "borrowBalanceCurrent(address)": {
        "notice": "Accrue interest to updated borrowIndex and then calculate account's borrow balance using the updated borrowIndex"
      },
      "borrowBalanceStored(address)": {
        "notice": "Return the borrow balance of account based on stored data"
      },
      "borrowIndex()": {
        "notice": "Accumulator of the total earned interest rate since the opening of the market"
      },
      "borrowRatePerBlock()": {
        "notice": "Returns the current per-block borrow interest rate for this cToken"
      },
      "comptroller()": {
        "notice": "Contract which oversees inter-cToken operations"
      },
      "decimals()": {
        "notice": "EIP-20 token decimals for this token"
      },
      "exchangeRateCurrent()": {
        "notice": "Accrue interest then return the up-to-date exchange rate"
      },
      "exchangeRateStored()": {
        "notice": "Calculates the exchange rate from the underlying to the CToken"
      },
      "getAccountSnapshot(address)": {
        "notice": "Get a snapshot of the account's balances, and the cached exchange rate"
      },
      "getCash()": {
        "notice": "Get cash balance of this cToken in the underlying asset"
      },
      "initialize(address,address,address,uint256,string,string,uint8)": {
        "notice": "Initialize the new money market"
      },
      "initialize(address,address,uint256,string,string,uint8)": {
        "notice": "Initialize the money market"
      },
      "interestRateModel()": {
        "notice": "Model which tells what the current interest rate should be"
      },
      "isCToken()": {
        "notice": "Indicator that this is a CToken contract (for inspection)"
      },
      "liquidateBorrow(address,uint256,address)": {
        "notice": "The sender liquidates the borrowers collateral.  The collateral seized is transferred to the liquidator."
      },
      "mint(uint256)": {
        "notice": "Sender supplies assets into the market and receives cTokens in exchange"
      },
      "name()": {
        "notice": "EIP-20 token name for this token"
      },
      "pendingAdmin()": {
        "notice": "Pending administrator for this contract"
      },
      "protocolSeizeShareMantissa()": {
        "notice": "Share of seized collateral that is added to reserves"
      },
      "proxyInitialize(address,address,address,uint256,string,string,uint8,address)": {
        "notice": "Initialize the new money market"
      },
      "redeem(uint256)": {
        "notice": "Sender redeems cTokens in exchange for the underlying asset"
      },
      "redeemUnderlying(uint256)": {
        "notice": "Sender redeems cTokens in exchange for a specified amount of underlying asset"
      },
      "repayBorrow(uint256)": {
        "notice": "Sender repays their own borrow"
      },
      "repayBorrowBehalf(address,uint256)": {
        "notice": "Sender repays a borrow belonging to borrower"
      },
      "reserveFactorMantissa()": {
        "notice": "Fraction of interest currently set aside for reserves"
      },
      "reserveGuardian()": {
        "notice": "The reserve guardian can reduce the reserves of the market"
      },
      "seize(address,address,uint256)": {
        "notice": "Transfers collateral tokens (this market) to the liquidator."
      },
      "supplyRatePerBlock()": {
        "notice": "Returns the current per-block supply interest rate for this cToken"
      },
      "sweepToken(address)": {
        "notice": "A public function to sweep accidental ERC-20 transfers to this contract. Tokens are sent to admin (timelock)"
      },
      "symbol()": {
        "notice": "EIP-20 token symbol for this token"
      },
      "totalBorrows()": {
        "notice": "Total amount of outstanding borrows of the underlying in this market"
      },
      "totalBorrowsCurrent()": {
        "notice": "Returns the current total borrows plus accrued interest"
      },
      "totalReserves()": {
        "notice": "Total amount of reserves of the underlying held in this market"
      },
      "totalSupply()": {
        "notice": "Total number of tokens in circulation"
      },
      "transfer(address,uint256)": {
        "notice": "Transfer `amount` tokens from `msg.sender` to `dst`"
      },
      "transferFrom(address,address,uint256)": {
        "notice": "Transfer `amount` tokens from `src` to `dst`"
      },
      "underlying()": {
        "notice": "Underlying asset for this CToken"
      }
    },
    "notice": "CTokens which wrap an EIP-20 underlying and are upgradeable",
    "version": 1
  },
  "storageLayout": {
    "storage": [
      {
        "astId": 6,
        "contract": "contracts/CErc20Upgradable.sol:CErc20Upgradable",
        "label": "_initialized",
        "offset": 0,
        "slot": "0",
        "type": "t_uint8"
      },
      {
        "astId": 9,
        "contract": "contracts/CErc20Upgradable.sol:CErc20Upgradable",
        "label": "_initializing",
        "offset": 1,
        "slot": "0",
        "type": "t_bool"
      },
      {
        "astId": 3232,
        "contract": "contracts/CErc20Upgradable.sol:CErc20Upgradable",
        "label": "_notEntered",
        "offset": 2,
        "slot": "0",
        "type": "t_bool"
      },
      {
        "astId": 3235,
        "contract": "contracts/CErc20Upgradable.sol:CErc20Upgradable",
        "label": "name",
        "offset": 0,
        "slot": "1",
        "type": "t_string_storage"
      },
      {
        "astId": 3238,
        "contract": "contracts/CErc20Upgradable.sol:CErc20Upgradable",
        "label": "symbol",
        "offset": 0,
        "slot": "2",
        "type": "t_string_storage"
      },
      {
        "astId": 3241,
        "contract": "contracts/CErc20Upgradable.sol:CErc20Upgradable",
        "label": "decimals",
        "offset": 0,
        "slot": "3",
        "type": "t_uint8"
      },
      {
        "astId": 3250,
        "contract": "contracts/CErc20Upgradable.sol:CErc20Upgradable",
        "label": "admin",
        "offset": 1,
        "slot": "3",
        "type": "t_address_payable"
      },
      {
        "astId": 3253,
        "contract": "contracts/CErc20Upgradable.sol:CErc20Upgradable",
        "label": "pendingAdmin",
        "offset": 0,
        "slot": "4",
        "type": "t_address_payable"
      },
      {
        "astId": 3257,
        "contract": "contracts/CErc20Upgradable.sol:CErc20Upgradable",
        "label": "comptroller",
        "offset": 0,
        "slot": "5",
        "type": "t_contract(ComptrollerInterface)3952"
      },
      {
        "astId": 3261,
        "contract": "contracts/CErc20Upgradable.sol:CErc20Upgradable",
        "label": "interestRateModel",
        "offset": 0,
        "slot": "6",
        "type": "t_contract(InterestRateModel)5000"
      },
      {
        "astId": 3263,
        "contract": "contracts/CErc20Upgradable.sol:CErc20Upgradable",
        "label": "initialExchangeRateMantissa",
        "offset": 0,
        "slot": "7",
        "type": "t_uint256"
      },
      {
        "astId": 3266,
        "contract": "contracts/CErc20Upgradable.sol:CErc20Upgradable",
        "label": "reserveFactorMantissa",
        "offset": 0,
        "slot": "8",
        "type": "t_uint256"
      },
      {
        "astId": 3269,
        "contract": "contracts/CErc20Upgradable.sol:CErc20Upgradable",
        "label": "accrualBlockNumber",
        "offset": 0,
        "slot": "9",
        "type": "t_uint256"
      },
      {
        "astId": 3272,
        "contract": "contracts/CErc20Upgradable.sol:CErc20Upgradable",
        "label": "borrowIndex",
        "offset": 0,
        "slot": "10",
        "type": "t_uint256"
      },
      {
        "astId": 3275,
        "contract": "contracts/CErc20Upgradable.sol:CErc20Upgradable",
        "label": "totalBorrows",
        "offset": 0,
        "slot": "11",
        "type": "t_uint256"
      },
      {
        "astId": 3278,
        "contract": "contracts/CErc20Upgradable.sol:CErc20Upgradable",
        "label": "totalReserves",
        "offset": 0,
        "slot": "12",
        "type": "t_uint256"
      },
      {
        "astId": 3281,
        "contract": "contracts/CErc20Upgradable.sol:CErc20Upgradable",
        "label": "totalSupply",
        "offset": 0,
        "slot": "13",
        "type": "t_uint256"
      },
      {
        "astId": 3285,
        "contract": "contracts/CErc20Upgradable.sol:CErc20Upgradable",
        "label": "accountTokens",
        "offset": 0,
        "slot": "14",
        "type": "t_mapping(t_address,t_uint256)"
      },
      {
        "astId": 3291,
        "contract": "contracts/CErc20Upgradable.sol:CErc20Upgradable",
        "label": "transferAllowances",
        "offset": 0,
        "slot": "15",
        "type": "t_mapping(t_address,t_mapping(t_address,t_uint256))"
      },
      {
        "astId": 3301,
        "contract": "contracts/CErc20Upgradable.sol:CErc20Upgradable",
        "label": "accountBorrows",
        "offset": 0,
        "slot": "16",
        "type": "t_mapping(t_address,t_struct(BorrowSnapshot)3296_storage)"
      },
      {
        "astId": 3308,
        "contract": "contracts/CErc20Upgradable.sol:CErc20Upgradable",
        "label": "reserveGuardian",
        "offset": 0,
        "slot": "17",
        "type": "t_address_payable"
      },
      {
        "astId": 3634,
        "contract": "contracts/CErc20Upgradable.sol:CErc20Upgradable",
        "label": "underlying",
        "offset": 0,
        "slot": "18",
        "type": "t_address"
      }
    ],
    "types": {
      "t_address": {
        "encoding": "inplace",
        "label": "address",
        "numberOfBytes": "20"
      },
      "t_address_payable": {
        "encoding": "inplace",
        "label": "address payable",
        "numberOfBytes": "20"
      },
      "t_bool": {
        "encoding": "inplace",
        "label": "bool",
        "numberOfBytes": "1"
      },
      "t_contract(ComptrollerInterface)3952": {
        "encoding": "inplace",
        "label": "contract ComptrollerInterface",
        "numberOfBytes": "20"
      },
      "t_contract(InterestRateModel)5000": {
        "encoding": "inplace",
        "label": "contract InterestRateModel",
        "numberOfBytes": "20"
      },
      "t_mapping(t_address,t_mapping(t_address,t_uint256))": {
        "encoding": "mapping",
        "key": "t_address",
        "label": "mapping(address => mapping(address => uint256))",
        "numberOfBytes": "32",
        "value": "t_mapping(t_address,t_uint256)"
      },
      "t_mapping(t_address,t_struct(BorrowSnapshot)3296_storage)": {
        "encoding": "mapping",
        "key": "t_address",
        "label": "mapping(address => struct CTokenStorage.BorrowSnapshot)",
        "numberOfBytes": "32",
        "value": "t_struct(BorrowSnapshot)3296_storage"
      },
      "t_mapping(t_address,t_uint256)": {
        "encoding": "mapping",
        "key": "t_address",
        "label": "mapping(address => uint256)",
        "numberOfBytes": "32",
        "value": "t_uint256"
      },
      "t_string_storage": {
        "encoding": "bytes",
        "label": "string",
        "numberOfBytes": "32"
      },
      "t_struct(BorrowSnapshot)3296_storage": {
        "encoding": "inplace",
        "label": "struct CTokenStorage.BorrowSnapshot",
        "members": [
          {
            "astId": 3293,
            "contract": "contracts/CErc20Upgradable.sol:CErc20Upgradable",
            "label": "principal",
            "offset": 0,
            "slot": "0",
            "type": "t_uint256"
          },
          {
            "astId": 3295,
            "contract": "contracts/CErc20Upgradable.sol:CErc20Upgradable",
            "label": "interestIndex",
            "offset": 0,
            "slot": "1",
            "type": "t_uint256"
          }
        ],
        "numberOfBytes": "64"
      },
      "t_uint256": {
        "encoding": "inplace",
        "label": "uint256",
        "numberOfBytes": "32"
      },
      "t_uint8": {
        "encoding": "inplace",
        "label": "uint8",
        "numberOfBytes": "1"
      }
    }
  }
}