{
  "address": "0x0322CD0D53f20edb88a9A9E70BB98815193427e2",
  "abi": [
    {
      "anonymous": false,
      "inputs": [
        {
          "indexed": true,
          "internalType": "address",
          "name": "rewardToken",
          "type": "address"
        },
        {
          "indexed": true,
          "internalType": "address",
          "name": "cToken",
          "type": "address"
        },
        {
          "indexed": false,
          "internalType": "uint256",
          "name": "borrowSpeed",
          "type": "uint256"
        }
      ],
      "name": "BorrowSpeedUpdated",
      "type": "event"
    },
    {
      "anonymous": false,
      "inputs": [
        {
          "indexed": false,
          "internalType": "uint8",
          "name": "version",
          "type": "uint8"
        }
      ],
      "name": "Initialized",
      "type": "event"
    },
    {
      "anonymous": false,
      "inputs": [
        {
          "indexed": true,
          "internalType": "address",
          "name": "previousOwner",
          "type": "address"
        },
        {
          "indexed": true,
          "internalType": "address",
          "name": "newOwner",
          "type": "address"
        }
      ],
      "name": "OwnershipTransferred",
      "type": "event"
    },
    {
      "anonymous": false,
      "inputs": [
        {
          "indexed": true,
          "internalType": "address",
          "name": "rewardToken",
          "type": "address"
        },
        {
          "indexed": true,
          "internalType": "address",
          "name": "user",
          "type": "address"
        },
        {
          "indexed": false,
          "internalType": "uint256",
          "name": "deltaAccrued",
          "type": "uint256"
        },
        {
          "indexed": false,
          "internalType": "uint256",
          "name": "totalAccrued",
          "type": "uint256"
        }
      ],
      "name": "RewardAccrued",
      "type": "event"
    },
    {
      "anonymous": false,
      "inputs": [
        {
          "indexed": true,
          "internalType": "address",
          "name": "rewardToken",
          "type": "address"
        },
        {
          "indexed": true,
          "internalType": "address",
          "name": "user",
          "type": "address"
        },
        {
          "indexed": false,
          "internalType": "uint256",
          "name": "amount",
          "type": "uint256"
        }
      ],
      "name": "RewardGranted",
      "type": "event"
    },
    {
      "anonymous": false,
      "inputs": [
        {
          "indexed": true,
          "internalType": "address",
          "name": "rewardToken",
          "type": "address"
        },
        {
          "indexed": true,
          "internalType": "address",
          "name": "cToken",
          "type": "address"
        },
        {
          "indexed": false,
          "internalType": "uint256",
          "name": "supplySpeed",
          "type": "uint256"
        }
      ],
      "name": "SupplySpeedUpdated",
      "type": "event"
    },
    {
      "inputs": [
        {
          "internalType": "address",
          "name": "token",
          "type": "address"
        },
        {
          "internalType": "address",
          "name": "user",
          "type": "address"
        },
        {
          "internalType": "uint256",
          "name": "amount",
          "type": "uint256"
        }
      ],
      "name": "_grantReward",
      "outputs": [],
      "stateMutability": "nonpayable",
      "type": "function"
    },
    {
      "inputs": [
        {
          "internalType": "address",
          "name": "rewardToken_",
          "type": "address"
        }
      ],
      "name": "_removeAndCleanToken",
      "outputs": [],
      "stateMutability": "nonpayable",
      "type": "function"
    },
    {
      "inputs": [
        {
          "internalType": "address",
          "name": "rewardToken_",
          "type": "address"
        },
        {
          "internalType": "address[]",
          "name": "cTokens",
          "type": "address[]"
        },
        {
          "internalType": "uint256[]",
          "name": "supplySpeeds",
          "type": "uint256[]"
        },
        {
          "internalType": "uint256[]",
          "name": "borrowSpeeds",
          "type": "uint256[]"
        }
      ],
      "name": "_updateRewardSpeeds",
      "outputs": [],
      "stateMutability": "nonpayable",
      "type": "function"
    },
    {
      "inputs": [
        {
          "internalType": "address",
          "name": "rewardToken_",
          "type": "address"
        }
      ],
      "name": "_whitelistToken",
      "outputs": [],
      "stateMutability": "nonpayable",
      "type": "function"
    },
    {
      "inputs": [
        {
          "internalType": "address[]",
          "name": "holders",
          "type": "address[]"
        }
      ],
      "name": "claim",
      "outputs": [],
      "stateMutability": "nonpayable",
      "type": "function"
    },
    {
      "inputs": [],
      "name": "comptroller",
      "outputs": [
        {
          "internalType": "address",
          "name": "",
          "type": "address"
        }
      ],
      "stateMutability": "view",
      "type": "function"
    },
    {
      "inputs": [],
      "name": "gShoebillToken",
      "outputs": [
        {
          "internalType": "contract IGovSBL",
          "name": "",
          "type": "address"
        }
      ],
      "stateMutability": "view",
      "type": "function"
    },
    {
      "inputs": [],
      "name": "getBlockNumber",
      "outputs": [
        {
          "internalType": "uint32",
          "name": "",
          "type": "uint32"
        }
      ],
      "stateMutability": "view",
      "type": "function"
    },
    {
      "inputs": [],
      "name": "getRewardTokens",
      "outputs": [
        {
          "internalType": "address[]",
          "name": "",
          "type": "address[]"
        }
      ],
      "stateMutability": "view",
      "type": "function"
    },
    {
      "inputs": [
        {
          "internalType": "address",
          "name": "comptroller_",
          "type": "address"
        }
      ],
      "name": "initialize",
      "outputs": [],
      "stateMutability": "nonpayable",
      "type": "function"
    },
    {
      "inputs": [],
      "name": "miningReferral",
      "outputs": [
        {
          "internalType": "contract IMiningReferral",
          "name": "",
          "type": "address"
        }
      ],
      "stateMutability": "view",
      "type": "function"
    },
    {
      "inputs": [
        {
          "internalType": "address",
          "name": "cToken",
          "type": "address"
        }
      ],
      "name": "notifyBorrowIndex",
      "outputs": [],
      "stateMutability": "nonpayable",
      "type": "function"
    },
    {
      "inputs": [
        {
          "internalType": "address",
          "name": "cToken",
          "type": "address"
        },
        {
          "internalType": "address",
          "name": "borrower",
          "type": "address"
        }
      ],
      "name": "notifyBorrower",
      "outputs": [],
      "stateMutability": "nonpayable",
      "type": "function"
    },
    {
      "inputs": [
        {
          "internalType": "address",
          "name": "cToken",
          "type": "address"
        },
        {
          "internalType": "address",
          "name": "supplier",
          "type": "address"
        }
      ],
      "name": "notifySupplier",
      "outputs": [],
      "stateMutability": "nonpayable",
      "type": "function"
    },
    {
      "inputs": [
        {
          "internalType": "address",
          "name": "cToken",
          "type": "address"
        }
      ],
      "name": "notifySupplyIndex",
      "outputs": [],
      "stateMutability": "nonpayable",
      "type": "function"
    },
    {
      "inputs": [],
      "name": "owner",
      "outputs": [
        {
          "internalType": "address",
          "name": "",
          "type": "address"
        }
      ],
      "stateMutability": "view",
      "type": "function"
    },
    {
      "inputs": [],
      "name": "renounceOwnership",
      "outputs": [],
      "stateMutability": "nonpayable",
      "type": "function"
    },
    {
      "inputs": [
        {
          "internalType": "address",
          "name": "",
          "type": "address"
        },
        {
          "internalType": "address",
          "name": "",
          "type": "address"
        }
      ],
      "name": "rewardAccountState",
      "outputs": [
        {
          "internalType": "uint256",
          "name": "rewardAccrued",
          "type": "uint256"
        }
      ],
      "stateMutability": "view",
      "type": "function"
    },
    {
      "inputs": [],
      "name": "rewardInitialIndex",
      "outputs": [
        {
          "internalType": "uint224",
          "name": "",
          "type": "uint224"
        }
      ],
      "stateMutability": "view",
      "type": "function"
    },
    {
      "inputs": [
        {
          "internalType": "address",
          "name": "",
          "type": "address"
        },
        {
          "internalType": "address",
          "name": "",
          "type": "address"
        }
      ],
      "name": "rewardMarketState",
      "outputs": [
        {
          "internalType": "uint256",
          "name": "supplySpeed",
          "type": "uint256"
        },
        {
          "internalType": "uint224",
          "name": "supplyIndex",
          "type": "uint224"
        },
        {
          "internalType": "uint32",
          "name": "supplyBlock",
          "type": "uint32"
        },
        {
          "internalType": "uint256",
          "name": "borrowSpeed",
          "type": "uint256"
        },
        {
          "internalType": "uint224",
          "name": "borrowIndex",
          "type": "uint224"
        },
        {
          "internalType": "uint32",
          "name": "borrowBlock",
          "type": "uint32"
        }
      ],
      "stateMutability": "view",
      "type": "function"
    },
    {
      "inputs": [
        {
          "internalType": "address",
          "name": "",
          "type": "address"
        }
      ],
      "name": "rewardTokenExists",
      "outputs": [
        {
          "internalType": "bool",
          "name": "",
          "type": "bool"
        }
      ],
      "stateMutability": "view",
      "type": "function"
    },
    {
      "inputs": [
        {
          "internalType": "uint256",
          "name": "",
          "type": "uint256"
        }
      ],
      "name": "rewardTokens",
      "outputs": [
        {
          "internalType": "address",
          "name": "",
          "type": "address"
        }
      ],
      "stateMutability": "view",
      "type": "function"
    },
    {
      "inputs": [
        {
          "internalType": "address",
          "name": "_gShoebillToken",
          "type": "address"
        }
      ],
      "name": "setGShoebillToken",
      "outputs": [],
      "stateMutability": "nonpayable",
      "type": "function"
    },
    {
      "inputs": [
        {
          "internalType": "address",
          "name": "_miningReferral",
          "type": "address"
        }
      ],
      "name": "setMiningReferral",
      "outputs": [],
      "stateMutability": "nonpayable",
      "type": "function"
    },
    {
      "inputs": [
        {
          "internalType": "address",
          "name": "newOwner",
          "type": "address"
        }
      ],
      "name": "transferOwnership",
      "outputs": [],
      "stateMutability": "nonpayable",
      "type": "function"
    }
  ],
  "transactionHash": "0x1598b4abb940babcaadc61e0ad4a79d467cc7da2b85bdd2d5ded0b171f4ea8b0",
  "args": [],
  "numDeployments": 2,
  "solcInputHash": "d7f0fe9a98e2c29ba9beddd55d1bdad3",
  "bytecode": "0x608060405234801561001057600080fd5b50612662806100206000396000f3fe608060405234801561001057600080fd5b50600436106101735760003560e01c806366f91a24116100de578063b054347c11610097578063e86b2fbe11610071578063e86b2fbe14610419578063eb8f28061461042c578063f2fde38b1461043f578063f49dc6b61461045257600080fd5b8063b054347c146103de578063c4d66de8146103f1578063c4f59f9b1461040457600080fd5b806366f91a2414610336578063715018a6146103635780637bb7bed11461036b578063831e8dec1461037e5780638da5cb5b146103ba5780638daa0acb146103cb57600080fd5b806332894a6d1161013057806332894a6d1461022957806342cbb15c146102cd57806345a49d3c146102ea57806357636069146102fd5780635ce65fe9146103105780635fe3b5671461032357600080fd5b806317b7fd9d1461017857806318423b7d146101a857806321f1d8fd146101bd578063246467e8146101d05780632e4a5d60146101e3578063318d9e5d14610216575b600080fd5b606a5461018b906001600160a01b031681565b6040516001600160a01b0390911681526020015b60405180910390f35b6101bb6101b636600461207e565b610465565b005b6101bb6101cb36600461207e565b6105d8565b6101bb6101de36600461209b565b610602565b6102066101f136600461207e565b60696020526000908152604090205460ff1681565b604051901515815260200161019f565b6101bb6102243660046121bb565b6106a0565b61028c6102373660046121f0565b6066602090815260009283526040808420909152908252902080546001820154600283015460039093015491926001600160e01b038083169363ffffffff600160e01b94859004811694928216929091041686565b604080519687526001600160e01b03958616602088015263ffffffff94851690870152606086019290925290921660808401521660a082015260c00161019f565b6102d56106f4565b60405163ffffffff909116815260200161019f565b6101bb6102f83660046121f0565b61073a565b6101bb61030b36600461207e565b6107ba565b6101bb61031e36600461207e565b6107e4565b60655461018b906001600160a01b031681565b61034b6a0c097ce7bc90715b34b9f160241b81565b6040516001600160e01b03909116815260200161019f565b6101bb61085e565b61018b610379366004612229565b610872565b6103ac61038c3660046121f0565b606760209081526000928352604080842090915290825290206002015481565b60405190815260200161019f565b6033546001600160a01b031661018b565b6101bb6103d936600461207e565b61089c565b606b5461018b906001600160a01b031681565b6101bb6103ff36600461207e565b610a00565b61040c610b2c565b60405161019f9190612242565b6101bb61042736600461207e565b610b8e565b6101bb61043a3660046121f0565b610c08565b6101bb61044d36600461207e565b610c83565b6101bb6104603660046122ea565b610cfc565b61046d610e96565b6001600160a01b03811660009081526069602052604090205460ff166104ae5760405162461bcd60e51b81526004016104a590612385565b60405180910390fd5b60005b6068548110156105b657816001600160a01b0316606882815481106104d8576104d86123d3565b6000918252602090912001546001600160a01b0316036105a45760688054610502906001906123ff565b81548110610512576105126123d3565b600091825260209091200154606880546001600160a01b03909216918390811061053e5761053e6123d3565b9060005260206000200160006101000a8154816001600160a01b0302191690836001600160a01b03160217905550606880548061057d5761057d612412565b600082815260209020810160001990810180546001600160a01b03191690550190556105b6565b806105ae81612428565b9150506104b1565b506001600160a01b03166000908152606960205260409020805460ff19169055565b6105e0610e96565b606a80546001600160a01b0319166001600160a01b0392909216919091179055565b61060a610e96565b6001600160a01b03831660009081526069602052604090205460ff1661068f5760405162461bcd60e51b815260206004820152603460248201527f5265776172644469737472696275746f723a206772616e7420726577617264206044820152731d1bdad95b88191bd95cc81b9bdd08195e1a5cdd60621b60648201526084016104a5565b61069a838383610ef0565b50505050565b60005b6068548110156106f0576106de606882815481106106c3576106c36123d3565b6000918252602090912001546001600160a01b031683611220565b806106e881612428565b9150506106a3565b5050565b6000610735426040518060400160405280601c81526020017f626c6f636b206e756d62657220657863656564732033322062697473000000008152506112c4565b905090565b6065546001600160a01b031633146107645760405162461bcd60e51b81526004016104a590612441565b60005b6068548110156107b5576107a360688281548110610787576107876123d3565b6000918252602090912001546001600160a01b031684846112f7565b806107ad81612428565b915050610767565b505050565b6107c2610e96565b606b80546001600160a01b0319166001600160a01b0392909216919091179055565b6065546001600160a01b0316331461080e5760405162461bcd60e51b81526004016104a590612441565b60005b6068548110156106f05761084c60688281548110610831576108316123d3565b6000918252602090912001546001600160a01b03168361148f565b8061085681612428565b915050610811565b610866610e96565b61087060006116e1565b565b6068818154811061088257600080fd5b6000918252602090912001546001600160a01b0316905081565b6108a4610e96565b6001600160a01b0381166109195760405162461bcd60e51b815260206004820152603660248201527f5265776172644469737472696275746f723a2072657761726420746f6b656e2060448201527563616e6e6f74206265207a65726f206164647265737360501b60648201526084016104a5565b6001600160a01b03811660009081526069602052604090205460ff16156109995760405162461bcd60e51b815260206004820152602e60248201527f5265776172644469737472696275746f723a2072657761726420746f6b656e2060448201526d616c72656164792065786973747360901b60648201526084016104a5565b6068805460018181019092557fa2153420d844928b4421650203c77babc8b33d7f2e7b450e2966db0c220977530180546001600160a01b039093166001600160a01b031990931683179055600091825260696020526040909120805460ff19169091179055565b600054610100900460ff1615808015610a205750600054600160ff909116105b80610a3a5750303b158015610a3a575060005460ff166001145b610a9d5760405162461bcd60e51b815260206004820152602e60248201527f496e697469616c697a61626c653a20636f6e747261637420697320616c72656160448201526d191e481a5b9a5d1a585b1a5e995960921b60648201526084016104a5565b6000805460ff191660011790558015610ac0576000805461ff0019166101001790555b610ac8611733565b606580546001600160a01b0319166001600160a01b03841617905580156106f0576000805461ff0019169055604051600181527f7f26b83ff96e1f2b6a682f133852f6798a09c465da95921460cefb38474024989060200160405180910390a15050565b60606068805480602002602001604051908101604052809291908181526020018280548015610b8457602002820191906000526020600020905b81546001600160a01b03168152600190910190602001808311610b66575b5050505050905090565b6065546001600160a01b03163314610bb85760405162461bcd60e51b81526004016104a590612441565b60005b6068548110156106f057610bf660688281548110610bdb57610bdb6123d3565b6000918252602090912001546001600160a01b031683611762565b80610c0081612428565b915050610bbb565b6065546001600160a01b03163314610c325760405162461bcd60e51b81526004016104a590612441565b60005b6068548110156107b557610c7160688281548110610c5557610c556123d3565b6000918252602090912001546001600160a01b031684846118fa565b80610c7b81612428565b915050610c35565b610c8b610e96565b6001600160a01b038116610cf05760405162461bcd60e51b815260206004820152602660248201527f4f776e61626c653a206e6577206f776e657220697320746865207a65726f206160448201526564647265737360d01b60648201526084016104a5565b610cf9816116e1565b50565b610d04610e96565b6001600160a01b03841660009081526069602052604090205460ff16610d3c5760405162461bcd60e51b81526004016104a590612385565b8151835114610dab5760405162461bcd60e51b815260206004820152603560248201527f5265776172644469737472696275746f723a20737570706c79207370656564206044820152740c2e4e4c2f240d8cadccee8d040dad2e6dac2e8c6d605b1b60648201526084016104a5565b8051835114610e1a5760405162461bcd60e51b815260206004820152603560248201527f5265776172644469737472696275746f723a20626f72726f77207370656564206044820152740c2e4e4c2f240d8cadccee8d040dad2e6dac2e8c6d605b1b60648201526084016104a5565b60005b8351811015610e8f57610e7d85858381518110610e3c57610e3c6123d3565b6020026020010151858481518110610e5657610e566123d3565b6020026020010151858581518110610e7057610e706123d3565b6020026020010151611b14565b80610e8781612428565b915050610e1d565b5050505050565b6033546001600160a01b031633146108705760405162461bcd60e51b815260206004820181905260248201527f4f776e61626c653a2063616c6c6572206973206e6f7420746865206f776e657260448201526064016104a5565b6040516370a0823160e01b815230600482015260009081906001600160a01b038616906370a0823190602401602060405180830381865afa158015610f39573d6000803e3d6000fd5b505050506040513d601f19601f82011682018060405250810190610f5d919061249e565b9050600083118015610f6f5750808311155b1561121457606a5483906001600160a01b03161561101357606a5460405163379b8f7f60e11b81526001600160a01b0387811660048301526000921690636f371efe90602401602060405180830381865afa158015610fd2573d6000803e3d6000fd5b505050506040513d601f19601f82011682018060405250810190610ff6919061249e565b905061271061100582876124b7565b61100f91906124d6565b9150505b606b546001600160a01b0316156111b157606b54604051634a9fefc760e01b81526001600160a01b0387811660048301526000921690634a9fefc790602401602060405180830381865afa15801561106f573d6000803e3d6000fd5b505050506040513d601f19601f8201168201806040525081019061109391906124f8565b90506001600160a01b038116156111af57606b5460405163fc1012e160e01b81526001600160a01b0383811660048301526000926127109291169063fc1012e190602401602060405180830381865afa1580156110f4573d6000803e3d6000fd5b505050506040513d601f19601f82011682018060405250810190611118919061249e565b61112290886124b7565b61112c91906124d6565b9050611139888383611c74565b606b54604051631b82d29760e31b81526001600160a01b038481166004830152602482018490529091169063dc1694b890604401600060405180830381600087803b15801561118757600080fd5b505af115801561119b573d6000803e3d6000fd5b5050505080836111ab9190612515565b9250505b505b6111bc868683611c74565b846001600160a01b0316866001600160a01b03167f6123969dd9705ebe9fca0229b85009158c92cae456c32d917d8d435748f3abd38360405161120191815260200190565b60405180910390a3600092505050611219565b829150505b9392505050565b60005b81518110156107b5576001600160a01b03831660009081526067602052604081208351829085908590811061125a5761125a6123d3565b60200260200101516001600160a01b03166001600160a01b0316815260200190815260200160002090506112ac8484848151811061129a5761129a6123d3565b60200260200101518360020154610ef0565b600290910155806112bc81612428565b915050611223565b60008164010000000084106112ec5760405162461bcd60e51b81526004016104a5919061254c565b508290505b92915050565b6001600160a01b03808416600081815260666020908152604080832087861680855290835281842094845260678352818420958716845294825280832060018501549584529182905290912080546001600160e01b039094169081905591929091908015801561137557506a0c097ce7bc90715b34b9f160241b8210155b1561138b57506a0c097ce7bc90715b34b9f160241b5b600060405180602001604052806113a28585611cc6565b90526040516370a0823160e01b81526001600160a01b0388811660048301529192506000918916906370a0823190602401602060405180830381865afa1580156113f0573d6000803e3d6000fd5b505050506040513d601f19601f82011682018060405250810190611414919061249e565b905060006114228284611cd2565b9050611432866002015482611cfb565b600287018190556040805183815260208101929092526001600160a01b038a811692908d16917ffd07974d3aaf62e9d6f1492b77eba5e72f99d8367e456eaf203de8491d42c999910160405180910390a350505050505050505050565b60006040518060200160405280836001600160a01b031663aa5af0fd6040518163ffffffff1660e01b8152600401602060405180830381865afa1580156114da573d6000803e3d6000fd5b505050506040513d601f19601f820116820180604052508101906114fe919061249e565b90526001600160a01b03808516600090815260666020908152604080832093871683529290529081209192506115326106f4565b600383015490915063ffffffff600160e01b90910481169082161115610e8f576002820154156116b957600382015460009061157b90600160e01b900463ffffffff168361257f565b63ffffffff16905060006115f0866001600160a01b03166347bd37186040518163ffffffff1660e01b8152600401602060405180830381865afa1580156115c6573d6000803e3d6000fd5b505050506040513d601f19601f820116820180604052508101906115ea919061249e565b86611d07565b90506000611602838660020154611d25565b90506000808311611622576040518060200160405280600081525061162c565b61162c8284611d31565b604080516020810190915260038801546001600160e01b03168152909150611692906116589083611d75565b5160408051808201909152601a81527f6e657720696e64657820657863656564732032323420626974730000000000006020820152611da1565b6003870180546001600160e01b0319166001600160e01b0392909216919091179055505050505b60038201805463ffffffff8316600160e01b026001600160e01b039091161790555050505050565b603380546001600160a01b038381166001600160a01b0319831681179093556040519116919082907f8be0079c531659141344cd1fd0a4f28419497f9722a3daafe3b4186f6b6457e090600090a35050565b600054610100900460ff1661175a5760405162461bcd60e51b81526004016104a5906125a3565b610870611dc8565b6001600160a01b0380831660009081526066602090815260408083209385168352929052908120906117926106f4565b600183015490915063ffffffff600160e01b9091048116908216111561069a578154156118d35760018201546000906117d890600160e01b900463ffffffff168361257f565b63ffffffff1690506000846001600160a01b03166318160ddd6040518163ffffffff1660e01b8152600401602060405180830381865afa158015611820573d6000803e3d6000fd5b505050506040513d601f19601f82011682018060405250810190611844919061249e565b90506000611856838660000154611d25565b905060008083116118765760405180602001604052806000815250611880565b6118808284611d31565b604080516020810190915260018801546001600160e01b031681529091506118ac906116589083611d75565b6001870180546001600160e01b0319166001600160e01b0392909216919091179055505050505b60018201805463ffffffff8316600160e01b026001600160e01b0390911617905550505050565b60006040518060200160405280846001600160a01b031663aa5af0fd6040518163ffffffff1660e01b8152600401602060405180830381865afa158015611945573d6000803e3d6000fd5b505050506040513d601f19601f82011682018060405250810190611969919061249e565b90526001600160a01b03808616600081815260666020908152604080832089861680855290835281842094845260678352818420958916845294825280832060038501549584526001810190925290912080546001600160e01b039094169081905593945090929091801580156119ee57506a0c097ce7bc90715b34b9f160241b8210155b15611a0457506a0c097ce7bc90715b34b9f160241b5b60006040518060200160405280611a1b8585611cc6565b90526040516395dd919360e01b81526001600160a01b038981166004830152919250600091611a9891908b16906395dd919390602401602060405180830381865afa158015611a6e573d6000803e3d6000fd5b505050506040513d601f19601f82011682018060405250810190611a92919061249e565b88611d07565b90506000611aa68284611cd2565b9050611ab6866002015482611cfb565b600287018190556040805183815260208101929092526001600160a01b038b811692908e16917ffd07974d3aaf62e9d6f1492b77eba5e72f99d8367e456eaf203de8491d42c999910160405180910390a35050505050505050505050565b6001600160a01b03808516600090815260666020908152604080832093871683529290522080548314611bca5760018101546001600160e01b0316600003611b79576001810180546001600160e01b0319166a0c097ce7bc90715b34b9f160241b1790555b611b838585611762565b8281556040518381526001600160a01b0385811691908716907f61918eb908e35e96d460dc030b7c4f6448ac64f1383759571b9c7cab50efd0469060200160405180910390a35b81816002015414610e8f5760038101546001600160e01b0316600003611c0d576003810180546001600160e01b0319166a0c097ce7bc90715b34b9f160241b1790555b611c17858561148f565b818160020181905550836001600160a01b0316856001600160a01b03167f13b9c4bac6e50afba9701545614343a5e29bc815d483928198270e878c42eaf984604051611c6591815260200190565b60405180910390a35050505050565b604080516001600160a01b038416602482015260448082018490528251808303909101815260649091019091526020810180516001600160e01b031663a9059cbb60e01b1790526107b5908490611df8565b600061121982846123ff565b60006a0c097ce7bc90715b34b9f160241b611cf1848460000151611d25565b61121991906124d6565b60006112198284612515565b6000611219611d1e84670de0b6b3a7640000611d25565b8351611ecd565b600061121982846124b7565b6040805160208101909152600081526040518060200160405280611d6c611d66866a0c097ce7bc90715b34b9f160241b611d25565b85611ecd565b90529392505050565b6040805160208101909152600081526040518060200160405280611d6c85600001518560000151611cfb565b600081600160e01b84106112ec5760405162461bcd60e51b81526004016104a5919061254c565b600054610100900460ff16611def5760405162461bcd60e51b81526004016104a5906125a3565b610870336116e1565b6000611e4d826040518060400160405280602081526020017f5361666545524332303a206c6f772d6c6576656c2063616c6c206661696c6564815250856001600160a01b0316611ed99092919063ffffffff16565b9050805160001480611e6e575080806020019051810190611e6e91906125ee565b6107b55760405162461bcd60e51b815260206004820152602a60248201527f5361666545524332303a204552433230206f7065726174696f6e20646964206e6044820152691bdd081cdd58d8d9595960b21b60648201526084016104a5565b600061121982846124d6565b6060611ee88484600085611ef0565b949350505050565b606082471015611f515760405162461bcd60e51b815260206004820152602660248201527f416464726573733a20696e73756666696369656e742062616c616e636520666f6044820152651c8818d85b1b60d21b60648201526084016104a5565b600080866001600160a01b03168587604051611f6d9190612610565b60006040518083038185875af1925050503d8060008114611faa576040519150601f19603f3d011682016040523d82523d6000602084013e611faf565b606091505b5091509150611fc087838387611fcb565b979650505050505050565b6060831561203a578251600003612033576001600160a01b0385163b6120335760405162461bcd60e51b815260206004820152601d60248201527f416464726573733a2063616c6c20746f206e6f6e2d636f6e747261637400000060448201526064016104a5565b5081611ee8565b611ee8838381511561204f5781518083602001fd5b8060405162461bcd60e51b81526004016104a5919061254c565b6001600160a01b0381168114610cf957600080fd5b60006020828403121561209057600080fd5b813561121981612069565b6000806000606084860312156120b057600080fd5b83356120bb81612069565b925060208401356120cb81612069565b929592945050506040919091013590565b634e487b7160e01b600052604160045260246000fd5b604051601f8201601f1916810167ffffffffffffffff8111828210171561211b5761211b6120dc565b604052919050565b600067ffffffffffffffff82111561213d5761213d6120dc565b5060051b60200190565b600082601f83011261215857600080fd5b8135602061216d61216883612123565b6120f2565b82815260059290921b8401810191818101908684111561218c57600080fd5b8286015b848110156121b05780356121a381612069565b8352918301918301612190565b509695505050505050565b6000602082840312156121cd57600080fd5b813567ffffffffffffffff8111156121e457600080fd5b611ee884828501612147565b6000806040838503121561220357600080fd5b823561220e81612069565b9150602083013561221e81612069565b809150509250929050565b60006020828403121561223b57600080fd5b5035919050565b6020808252825182820181905260009190848201906040850190845b818110156122835783516001600160a01b03168352928401929184019160010161225e565b50909695505050505050565b600082601f8301126122a057600080fd5b813560206122b061216883612123565b82815260059290921b840181019181810190868411156122cf57600080fd5b8286015b848110156121b057803583529183019183016122d3565b6000806000806080858703121561230057600080fd5b843561230b81612069565b9350602085013567ffffffffffffffff8082111561232857600080fd5b61233488838901612147565b9450604087013591508082111561234a57600080fd5b6123568883890161228f565b9350606087013591508082111561236c57600080fd5b506123798782880161228f565b91505092959194509250565b6020808252602e908201527f5265776172644469737472696275746f723a2072657761726420746f6b656e2060408201526d191bd95cc81b9bdd08195e1a5cdd60921b606082015260800190565b634e487b7160e01b600052603260045260246000fd5b634e487b7160e01b600052601160045260246000fd5b818103818111156112f1576112f16123e9565b634e487b7160e01b600052603160045260246000fd5b60006001820161243a5761243a6123e9565b5060010190565b6020808252603a908201527f5265776172644469737472696275746f723a206f6e6c7920636f6d7074726f6c60408201527f6c65722063616e2063616c6c20746869732066756e6374696f6e000000000000606082015260800190565b6000602082840312156124b057600080fd5b5051919050565b60008160001904831182151516156124d1576124d16123e9565b500290565b6000826124f357634e487b7160e01b600052601260045260246000fd5b500490565b60006020828403121561250a57600080fd5b815161121981612069565b808201808211156112f1576112f16123e9565b60005b8381101561254357818101518382015260200161252b565b50506000910152565b602081526000825180602084015261256b816040850160208701612528565b601f01601f19169190910160400192915050565b63ffffffff82811682821603908082111561259c5761259c6123e9565b5092915050565b6020808252602b908201527f496e697469616c697a61626c653a20636f6e7472616374206973206e6f74206960408201526a6e697469616c697a696e6760a81b606082015260800190565b60006020828403121561260057600080fd5b8151801515811461121957600080fd5b60008251612622818460208701612528565b919091019291505056fea2646970667358221220f7b2fc2ed6df39f5cb35921c6ef0cc27f89e0bee19525cbdcbf66aca357f8af464736f6c63430008100033",
  "devdoc": {
    "kind": "dev",
    "methods": {
      "owner()": {
        "details": "Returns the address of the current owner."
      },
      "renounceOwnership()": {
        "details": "Leaves the contract without owner. It will not be possible to call `onlyOwner` functions. Can only be called by the current owner. NOTE: Renouncing ownership will leave the contract without an owner, thereby disabling any functionality that is only available to the owner."
      },
      "transferOwnership(address)": {
        "details": "Transfers ownership of the contract to a new account (`newOwner`). Can only be called by the current owner."
      }
    },
    "title": "Reward Distributor (version 1)",
    "version": 1
  },
  "userdoc": {
    "kind": "user",
    "methods": {
      "comptroller()": {
        "notice": "The comptroller that rewards are distributed to"
      },
      "getRewardTokens()": {
        "notice": "Getters"
      },
      "rewardAccountState(address,address)": {
        "notice": "The Reward state for each reward token for each account"
      },
      "rewardInitialIndex()": {
        "notice": "The initial reward index for a market"
      },
      "rewardMarketState(address,address)": {
        "notice": "The Reward state for each reward token for each market"
      },
      "rewardTokenExists(address)": {
        "notice": "Flag to check if reward token added before"
      },
      "rewardTokens(uint256)": {
        "notice": "Added reward tokens"
      }
    },
    "notice": "This contract is used to distribute rewards to users for supplying and borrowing assets. Each supply and borrow changing action from comptroller will trigger index update for each reward token.",
    "version": 1
  },
  "storageLayout": {
    "storage": [
      {
        "astId": 138,
        "contract": "contracts/RewardDistributor.sol:RewardDistributor",
        "label": "_initialized",
        "offset": 0,
        "slot": "0",
        "type": "t_uint8"
      },
      {
        "astId": 141,
        "contract": "contracts/RewardDistributor.sol:RewardDistributor",
        "label": "_initializing",
        "offset": 1,
        "slot": "0",
        "type": "t_bool"
      },
      {
        "astId": 671,
        "contract": "contracts/RewardDistributor.sol:RewardDistributor",
        "label": "__gap",
        "offset": 0,
        "slot": "1",
        "type": "t_array(t_uint256)50_storage"
      },
      {
        "astId": 10,
        "contract": "contracts/RewardDistributor.sol:RewardDistributor",
        "label": "_owner",
        "offset": 0,
        "slot": "51",
        "type": "t_address"
      },
      {
        "astId": 130,
        "contract": "contracts/RewardDistributor.sol:RewardDistributor",
        "label": "__gap",
        "offset": 0,
        "slot": "52",
        "type": "t_array(t_uint256)49_storage"
      },
      {
        "astId": 11283,
        "contract": "contracts/RewardDistributor.sol:RewardDistributor",
        "label": "comptroller",
        "offset": 0,
        "slot": "101",
        "type": "t_address"
      },
      {
        "astId": 11291,
        "contract": "contracts/RewardDistributor.sol:RewardDistributor",
        "label": "rewardMarketState",
        "offset": 0,
        "slot": "102",
        "type": "t_mapping(t_address,t_mapping(t_address,t_struct(RewardMarketState)11221_storage))"
      },
      {
        "astId": 11299,
        "contract": "contracts/RewardDistributor.sol:RewardDistributor",
        "label": "rewardAccountState",
        "offset": 0,
        "slot": "103",
        "type": "t_mapping(t_address,t_mapping(t_address,t_struct(RewardAccountState)11235_storage))"
      },
      {
        "astId": 11303,
        "contract": "contracts/RewardDistributor.sol:RewardDistributor",
        "label": "rewardTokens",
        "offset": 0,
        "slot": "104",
        "type": "t_array(t_address)dyn_storage"
      },
      {
        "astId": 11308,
        "contract": "contracts/RewardDistributor.sol:RewardDistributor",
        "label": "rewardTokenExists",
        "offset": 0,
        "slot": "105",
        "type": "t_mapping(t_address,t_bool)"
      },
      {
        "astId": 11311,
        "contract": "contracts/RewardDistributor.sol:RewardDistributor",
        "label": "gShoebillToken",
        "offset": 0,
        "slot": "106",
        "type": "t_contract(IGovSBL)12924"
      },
      {
        "astId": 11314,
        "contract": "contracts/RewardDistributor.sol:RewardDistributor",
        "label": "miningReferral",
        "offset": 0,
        "slot": "107",
        "type": "t_contract(IMiningReferral)12953"
      }
    ],
    "types": {
      "t_address": {
        "encoding": "inplace",
        "label": "address",
        "numberOfBytes": "20"
      },
      "t_array(t_address)dyn_storage": {
        "base": "t_address",
        "encoding": "dynamic_array",
        "label": "address[]",
        "numberOfBytes": "32"
      },
      "t_array(t_uint256)49_storage": {
        "base": "t_uint256",
        "encoding": "inplace",
        "label": "uint256[49]",
        "numberOfBytes": "1568"
      },
      "t_array(t_uint256)50_storage": {
        "base": "t_uint256",
        "encoding": "inplace",
        "label": "uint256[50]",
        "numberOfBytes": "1600"
      },
      "t_bool": {
        "encoding": "inplace",
        "label": "bool",
        "numberOfBytes": "1"
      },
      "t_contract(IGovSBL)12924": {
        "encoding": "inplace",
        "label": "contract IGovSBL",
        "numberOfBytes": "20"
      },
      "t_contract(IMiningReferral)12953": {
        "encoding": "inplace",
        "label": "contract IMiningReferral",
        "numberOfBytes": "20"
      },
      "t_mapping(t_address,t_bool)": {
        "encoding": "mapping",
        "key": "t_address",
        "label": "mapping(address => bool)",
        "numberOfBytes": "32",
        "value": "t_bool"
      },
      "t_mapping(t_address,t_mapping(t_address,t_struct(RewardAccountState)11235_storage))": {
        "encoding": "mapping",
        "key": "t_address",
        "label": "mapping(address => mapping(address => struct RewardAccountState))",
        "numberOfBytes": "32",
        "value": "t_mapping(t_address,t_struct(RewardAccountState)11235_storage)"
      },
      "t_mapping(t_address,t_mapping(t_address,t_struct(RewardMarketState)11221_storage))": {
        "encoding": "mapping",
        "key": "t_address",
        "label": "mapping(address => mapping(address => struct RewardMarketState))",
        "numberOfBytes": "32",
        "value": "t_mapping(t_address,t_struct(RewardMarketState)11221_storage)"
      },
      "t_mapping(t_address,t_struct(RewardAccountState)11235_storage)": {
        "encoding": "mapping",
        "key": "t_address",
        "label": "mapping(address => struct RewardAccountState)",
        "numberOfBytes": "32",
        "value": "t_struct(RewardAccountState)11235_storage"
      },
      "t_mapping(t_address,t_struct(RewardMarketState)11221_storage)": {
        "encoding": "mapping",
        "key": "t_address",
        "label": "mapping(address => struct RewardMarketState)",
        "numberOfBytes": "32",
        "value": "t_struct(RewardMarketState)11221_storage"
      },
      "t_mapping(t_address,t_uint256)": {
        "encoding": "mapping",
        "key": "t_address",
        "label": "mapping(address => uint256)",
        "numberOfBytes": "32",
        "value": "t_uint256"
      },
      "t_struct(RewardAccountState)11235_storage": {
        "encoding": "inplace",
        "label": "struct RewardAccountState",
        "members": [
          {
            "astId": 11226,
            "contract": "contracts/RewardDistributor.sol:RewardDistributor",
            "label": "supplierIndex",
            "offset": 0,
            "slot": "0",
            "type": "t_mapping(t_address,t_uint256)"
          },
          {
            "astId": 11231,
            "contract": "contracts/RewardDistributor.sol:RewardDistributor",
            "label": "borrowerIndex",
            "offset": 0,
            "slot": "1",
            "type": "t_mapping(t_address,t_uint256)"
          },
          {
            "astId": 11234,
            "contract": "contracts/RewardDistributor.sol:RewardDistributor",
            "label": "rewardAccrued",
            "offset": 0,
            "slot": "2",
            "type": "t_uint256"
          }
        ],
        "numberOfBytes": "96"
      },
      "t_struct(RewardMarketState)11221_storage": {
        "encoding": "inplace",
        "label": "struct RewardMarketState",
        "members": [
          {
            "astId": 11205,
            "contract": "contracts/RewardDistributor.sol:RewardDistributor",
            "label": "supplySpeed",
            "offset": 0,
            "slot": "0",
            "type": "t_uint256"
          },
          {
            "astId": 11208,
            "contract": "contracts/RewardDistributor.sol:RewardDistributor",
            "label": "supplyIndex",
            "offset": 0,
            "slot": "1",
            "type": "t_uint224"
          },
          {
            "astId": 11211,
            "contract": "contracts/RewardDistributor.sol:RewardDistributor",
            "label": "supplyBlock",
            "offset": 28,
            "slot": "1",
            "type": "t_uint32"
          },
          {
            "astId": 11214,
            "contract": "contracts/RewardDistributor.sol:RewardDistributor",
            "label": "borrowSpeed",
            "offset": 0,
            "slot": "2",
            "type": "t_uint256"
          },
          {
            "astId": 11217,
            "contract": "contracts/RewardDistributor.sol:RewardDistributor",
            "label": "borrowIndex",
            "offset": 0,
            "slot": "3",
            "type": "t_uint224"
          },
          {
            "astId": 11220,
            "contract": "contracts/RewardDistributor.sol:RewardDistributor",
            "label": "borrowBlock",
            "offset": 28,
            "slot": "3",
            "type": "t_uint32"
          }
        ],
        "numberOfBytes": "128"
      },
      "t_uint224": {
        "encoding": "inplace",
        "label": "uint224",
        "numberOfBytes": "28"
      },
      "t_uint256": {
        "encoding": "inplace",
        "label": "uint256",
        "numberOfBytes": "32"
      },
      "t_uint32": {
        "encoding": "inplace",
        "label": "uint32",
        "numberOfBytes": "4"
      },
      "t_uint8": {
        "encoding": "inplace",
        "label": "uint8",
        "numberOfBytes": "1"
      }
    }
  }
}