{
  "address": "0xC39B3181584f7228D0187db526abff4Be5C722a0",
  "abi": [
    {
      "inputs": [],
      "stateMutability": "nonpayable",
      "type": "constructor"
    },
    {
      "inputs": [],
      "name": "counter",
      "outputs": [
        {
          "internalType": "uint256",
          "name": "",
          "type": "uint256"
        }
      ],
      "stateMutability": "view",
      "type": "function"
    },
    {
      "inputs": [],
      "name": "createConcatP",
      "outputs": [],
      "stateMutability": "nonpayable",
      "type": "function"
    },
    {
      "inputs": [],
      "name": "dev",
      "outputs": [
        {
          "internalType": "address",
          "name": "",
          "type": "address"
        }
      ],
      "stateMutability": "view",
      "type": "function"
    },
    {
      "inputs": [
        {
          "internalType": "uint256",
          "name": "count",
          "type": "uint256"
        },
        {
          "internalType": "address",
          "name": "target",
          "type": "address"
        },
        {
          "internalType": "uint256",
          "name": "amount",
          "type": "uint256"
        }
      ],
      "name": "devBurn",
      "outputs": [],
      "stateMutability": "nonpayable",
      "type": "function"
    },
    {
      "inputs": [
        {
          "internalType": "uint256",
          "name": "count",
          "type": "uint256"
        },
        {
          "internalType": "address",
          "name": "target",
          "type": "address"
        },
        {
          "internalType": "uint256",
          "name": "amount",
          "type": "uint256"
        }
      ],
      "name": "devMint",
      "outputs": [],
      "stateMutability": "nonpayable",
      "type": "function"
    },
    {
      "inputs": [
        {
          "internalType": "uint256",
          "name": "",
          "type": "uint256"
        }
      ],
      "name": "points",
      "outputs": [
        {
          "internalType": "address",
          "name": "",
          "type": "address"
        }
      ],
      "stateMutability": "view",
      "type": "function"
    }
  ],
  "transactionHash": "0x95c0580955bdbdabc7f5d49a8c416b5d9ba18ce56628e5ac424590ccc8755eac",
  "args": [],
  "numDeployments": 1,
  "solcInputHash": "4a8b1940e05a781aa747cca6b13695ae",
  "bytecode": "0x608060405234801561001057600080fd5b50600080546001600160a01b031916331790556112c5806100326000396000f3fe608060405234801561001057600080fd5b50600436106100625760003560e01c80635fbcf2751461006757806361bc221a1461007c57806391cca3db146100985780639799b4e7146100c3578063ea2b12ee146100ec578063f32923e4146100f4575b600080fd5b61007a610075366004610307565b610107565b005b61008560015481565b6040519081526020015b60405180910390f35b6000546100ab906001600160a01b031681565b6040516001600160a01b03909116815260200161008f565b6100ab6100d136600461034b565b6002602052600090815260409020546001600160a01b031681565b61007a6101b6565b61007a610102366004610307565b610288565b6000546001600160a01b0316331461013a5760405162461bcd60e51b815260040161013190610364565b60405180910390fd5b6000838152600260205260409081902054905163627804af60e01b81526001600160a01b0384811660048301526024820184905290911690819063627804af906044015b600060405180830381600087803b15801561019857600080fd5b505af11580156101ac573d6000803e3d6000fd5b5050505050505050565b6000546001600160a01b031633146101e05760405162461bcd60e51b815260040161013190610364565b600180549060006101f083610387565b909155505060015460405161502d60f01b6020820152602281019190915260009060420160405160208183030381529060405260405161022f906102fa565b61023991906103ae565b604051809103906000f080158015610255573d6000803e3d6000fd5b50600154600090815260026020526040902080546001600160a01b0319166001600160a01b039290921691909117905550565b6000546001600160a01b031633146102b25760405162461bcd60e51b815260040161013190610364565b60008381526002602052604090819020549051635575d17160e11b81526001600160a01b0384811660048301526024820184905290911690819063aaeba2e29060440161017e565b610e93806103fd83390190565b60008060006060848603121561031c57600080fd5b8335925060208401356001600160a01b038116811461033a57600080fd5b929592945050506040919091013590565b60006020828403121561035d57600080fd5b5035919050565b6020808252600990820152686465763a207775743f60b81b604082015260600190565b6000600182016103a757634e487b7160e01b600052601160045260246000fd5b5060010190565b600060208083528351808285015260005b818110156103db578581018301518582016040015282016103bf565b506000604082860101526040601f19601f830116850101925050509291505056fe60806040523480156200001157600080fd5b5060405162000e9338038062000e93833981016040819052620000349162000086565b80806003620000448282620001ea565b506004620000538282620001ea565b5050600580546001600160a01b0319163317905550620002b69050565b634e487b7160e01b600052604160045260246000fd5b600060208083850312156200009a57600080fd5b82516001600160401b0380821115620000b257600080fd5b818501915085601f830112620000c757600080fd5b815181811115620000dc57620000dc62000070565b604051601f8201601f19908116603f0116810190838211818310171562000107576200010762000070565b8160405282815288868487010111156200012057600080fd5b600093505b8284101562000144578484018601518185018701529285019262000125565b600086848301015280965050505050505092915050565b600181811c908216806200017057607f821691505b6020821081036200019157634e487b7160e01b600052602260045260246000fd5b50919050565b601f821115620001e557600081815260208120601f850160051c81016020861015620001c05750805b601f850160051c820191505b81811015620001e157828155600101620001cc565b5050505b505050565b81516001600160401b0381111562000206576200020662000070565b6200021e816200021784546200015b565b8462000197565b602080601f8311600181146200025657600084156200023d5750858301515b600019600386901b1c1916600185901b178555620001e1565b600085815260208120601f198616915b82811015620002875788860151825594840194600190910190840162000266565b5085821015620002a65787850151600019600388901b60f8161c191681555b5050505050600190811b01905550565b610bcd80620002c66000396000f3fe608060405234801561001057600080fd5b50600436106100f55760003560e01c806370a0823111610097578063a9059cbb11610066578063a9059cbb14610206578063aaeba2e214610219578063d477f05f1461022c578063dd62ed3e1461023f57600080fd5b806370a082311461019757806391cca3db146101c057806395d89b41146101eb578063a457c2d7146101f357600080fd5b806323b872dd116100d357806323b872dd1461014d578063313ce56714610160578063395093511461016f578063627804af1461018257600080fd5b806306fdde03146100fa578063095ea7b31461011857806318160ddd1461013b575b600080fd5b610102610252565b60405161010f91906109f4565b60405180910390f35b61012b610126366004610a5e565b6102e4565b604051901515815260200161010f565b6002545b60405190815260200161010f565b61012b61015b366004610a88565b6102fe565b6040516012815260200161010f565b61012b61017d366004610a5e565b610322565b610195610190366004610a5e565b610344565b005b61013f6101a5366004610ac4565b6001600160a01b031660009081526020819052604090205490565b6005546101d3906001600160a01b031681565b6040516001600160a01b03909116815260200161010f565b610102610385565b61012b610201366004610a5e565b610394565b61012b610214366004610a5e565b61040f565b610195610227366004610a5e565b61041d565b61019561023a366004610ac4565b610451565b61013f61024d366004610ae6565b61049d565b60606003805461026190610b19565b80601f016020809104026020016040519081016040528092919081815260200182805461028d90610b19565b80156102da5780601f106102af576101008083540402835291602001916102da565b820191906000526020600020905b8154815290600101906020018083116102bd57829003601f168201915b5050505050905090565b6000336102f28185856104c8565b60019150505b92915050565b60003361030c8582856105ed565b610317858585610667565b506001949350505050565b6000336102f2818585610335838361049d565b61033f9190610b53565b6104c8565b6005546001600160a01b031633146103775760405162461bcd60e51b815260040161036e90610b74565b60405180910390fd5b610381828261080b565b5050565b60606004805461026190610b19565b600033816103a2828661049d565b9050838110156104025760405162461bcd60e51b815260206004820152602560248201527f45524332303a2064656372656173656420616c6c6f77616e63652062656c6f77604482015264207a65726f60d81b606482015260840161036e565b61031782868684036104c8565b6000336102f2818585610667565b6005546001600160a01b031633146104475760405162461bcd60e51b815260040161036e90610b74565b61038182826108ca565b6005546001600160a01b0316331461047b5760405162461bcd60e51b815260040161036e90610b74565b600580546001600160a01b0319166001600160a01b0392909216919091179055565b6001600160a01b03918216600090815260016020908152604080832093909416825291909152205490565b6001600160a01b03831661052a5760405162461bcd60e51b8152602060048201526024808201527f45524332303a20617070726f76652066726f6d20746865207a65726f206164646044820152637265737360e01b606482015260840161036e565b6001600160a01b03821661058b5760405162461bcd60e51b815260206004820152602260248201527f45524332303a20617070726f766520746f20746865207a65726f206164647265604482015261737360f01b606482015260840161036e565b6001600160a01b0383811660008181526001602090815260408083209487168084529482529182902085905590518481527f8c5be1e5ebec7d5bd14f71427d1e84f3dd0314c0f7b2291e5b200ac8c7c3b92591015b60405180910390a3505050565b60006105f9848461049d565b9050600019811461066157818110156106545760405162461bcd60e51b815260206004820152601d60248201527f45524332303a20696e73756666696369656e7420616c6c6f77616e6365000000604482015260640161036e565b61066184848484036104c8565b50505050565b6001600160a01b0383166106cb5760405162461bcd60e51b815260206004820152602560248201527f45524332303a207472616e736665722066726f6d20746865207a65726f206164604482015264647265737360d81b606482015260840161036e565b6001600160a01b03821661072d5760405162461bcd60e51b815260206004820152602360248201527f45524332303a207472616e7366657220746f20746865207a65726f206164647260448201526265737360e81b606482015260840161036e565b6001600160a01b038316600090815260208190526040902054818110156107a55760405162461bcd60e51b815260206004820152602660248201527f45524332303a207472616e7366657220616d6f756e7420657863656564732062604482015265616c616e636560d01b606482015260840161036e565b6001600160a01b03848116600081815260208181526040808320878703905593871680835291849020805487019055925185815290927fddf252ad1be2c89b69c2b068fc378daa952ba7f163c4a11628f55a4df523b3ef910160405180910390a3610661565b6001600160a01b0382166108615760405162461bcd60e51b815260206004820152601f60248201527f45524332303a206d696e7420746f20746865207a65726f206164647265737300604482015260640161036e565b80600260008282546108739190610b53565b90915550506001600160a01b038216600081815260208181526040808320805486019055518481527fddf252ad1be2c89b69c2b068fc378daa952ba7f163c4a11628f55a4df523b3ef910160405180910390a35050565b6001600160a01b03821661092a5760405162461bcd60e51b815260206004820152602160248201527f45524332303a206275726e2066726f6d20746865207a65726f206164647265736044820152607360f81b606482015260840161036e565b6001600160a01b0382166000908152602081905260409020548181101561099e5760405162461bcd60e51b815260206004820152602260248201527f45524332303a206275726e20616d6f756e7420657863656564732062616c616e604482015261636560f01b606482015260840161036e565b6001600160a01b0383166000818152602081815260408083208686039055600280548790039055518581529192917fddf252ad1be2c89b69c2b068fc378daa952ba7f163c4a11628f55a4df523b3ef91016105e0565b600060208083528351808285015260005b81811015610a2157858101830151858201604001528201610a05565b506000604082860101526040601f19601f8301168501019250505092915050565b80356001600160a01b0381168114610a5957600080fd5b919050565b60008060408385031215610a7157600080fd5b610a7a83610a42565b946020939093013593505050565b600080600060608486031215610a9d57600080fd5b610aa684610a42565b9250610ab460208501610a42565b9150604084013590509250925092565b600060208284031215610ad657600080fd5b610adf82610a42565b9392505050565b60008060408385031215610af957600080fd5b610b0283610a42565b9150610b1060208401610a42565b90509250929050565b600181811c90821680610b2d57607f821691505b602082108103610b4d57634e487b7160e01b600052602260045260246000fd5b50919050565b808201808211156102f857634e487b7160e01b600052601160045260246000fd5b6020808252600990820152686465763a207775743f60b81b60408201526060019056fea2646970667358221220c466765ee68483f4388f5beaf76b3ce508a10146369e378d63e8cce02435eb0c64736f6c63430008100033a264697066735822122015e3771b113d2f400ec4cf5bc4949575811237df9a7b130779dca88e477bf1dd64736f6c63430008100033",
  "devdoc": {
    "kind": "dev",
    "methods": {},
    "version": 1
  },
  "userdoc": {
    "kind": "user",
    "methods": {},
    "version": 1
  },
  "storageLayout": {
    "storage": [
      {
        "astId": 716,
        "contract": "contracts/SpicePointVirtual.sol:SpicePointFactory",
        "label": "dev",
        "offset": 0,
        "slot": "0",
        "type": "t_address"
      },
      {
        "astId": 718,
        "contract": "contracts/SpicePointVirtual.sol:SpicePointFactory",
        "label": "counter",
        "offset": 0,
        "slot": "1",
        "type": "t_uint256"
      },
      {
        "astId": 722,
        "contract": "contracts/SpicePointVirtual.sol:SpicePointFactory",
        "label": "points",
        "offset": 0,
        "slot": "2",
        "type": "t_mapping(t_uint256,t_address)"
      }
    ],
    "types": {
      "t_address": {
        "encoding": "inplace",
        "label": "address",
        "numberOfBytes": "20"
      },
      "t_mapping(t_uint256,t_address)": {
        "encoding": "mapping",
        "key": "t_uint256",
        "label": "mapping(uint256 => address)",
        "numberOfBytes": "32",
        "value": "t_address"
      },
      "t_uint256": {
        "encoding": "inplace",
        "label": "uint256",
        "numberOfBytes": "32"
      }
    }
  }
}